{"abi":[{"type":"function","name":"balanceOf","inputs":[{"name":"account","type":"address","internalType":"address"},{"name":"id","type":"uint256","internalType":"uint256"}],"outputs":[{"name":"","type":"uint256","internalType":"uint256"}],"stateMutability":"view"},{"type":"function","name":"balanceOfBatch","inputs":[{"name":"accounts","type":"address[]","internalType":"address[]"},{"name":"ids","type":"uint256[]","internalType":"uint256[]"}],"outputs":[{"name":"","type":"uint256[]","internalType":"uint256[]"}],"stateMutability":"view"},{"type":"function","name":"burn","inputs":[{"name":"from","type":"address","internalType":"address"},{"name":"id","type":"uint256","internalType":"uint256"},{"name":"amount","type":"uint256","internalType":"uint256"}],"outputs":[],"stateMutability":"nonpayable"},{"type":"function","name":"burnBatch","inputs":[{"name":"from","type":"address","internalType":"address"},{"name":"ids","type":"uint256[]","internalType":"uint256[]"},{"name":"amounts","type":"uint256[]","internalType":"uint256[]"}],"outputs":[],"stateMutability":"nonpayable"},{"type":"function","name":"initialize","inputs":[{"name":"uri","type":"string","internalType":"string"}],"outputs":[],"stateMutability":"nonpayable"},{"type":"function","name":"isApprovedForAll","inputs":[{"name":"account","type":"address","internalType":"address"},{"name":"operator","type":"address","internalType":"address"}],"outputs":[{"name":"","type":"bool","internalType":"bool"}],"stateMutability":"view"},{"type":"function","name":"mint","inputs":[{"name":"to","type":"address","internalType":"address"},{"name":"id","type":"uint256","internalType":"uint256"},{"name":"amount","type":"uint256","internalType":"uint256"},{"name":"data","type":"bytes","internalType":"bytes"}],"outputs":[],"stateMutability":"nonpayable"},{"type":"function","name":"mintBatch","inputs":[{"name":"to","type":"address","internalType":"address"},{"name":"ids","type":"uint256[]","internalType":"uint256[]"},{"name":"amounts","type":"uint256[]","internalType":"uint256[]"},{"name":"data","type":"bytes","internalType":"bytes"}],"outputs":[],"stateMutability":"nonpayable"},{"type":"function","name":"safeBatchTransferFrom","inputs":[{"name":"from","type":"address","internalType":"address"},{"name":"to","type":"address","internalType":"address"},{"name":"ids","type":"uint256[]","internalType":"uint256[]"},{"name":"values","type":"uint256[]","internalType":"uint256[]"},{"name":"data","type":"bytes","internalType":"bytes"}],"outputs":[],"stateMutability":"nonpayable"},{"type":"function","name":"safeTransferFrom","inputs":[{"name":"from","type":"address","internalType":"address"},{"name":"to","type":"address","internalType":"address"},{"name":"id","type":"uint256","internalType":"uint256"},{"name":"value","type":"uint256","internalType":"uint256"},{"name":"data","type":"bytes","internalType":"bytes"}],"outputs":[],"stateMutability":"nonpayable"},{"type":"function","name":"setApprovalForAll","inputs":[{"name":"operator","type":"address","internalType":"address"},{"name":"approved","type":"bool","internalType":"bool"}],"outputs":[],"stateMutability":"nonpayable"},{"type":"function","name":"supportsInterface","inputs":[{"name":"interfaceId","type":"bytes4","internalType":"bytes4"}],"outputs":[{"name":"","type":"bool","internalType":"bool"}],"stateMutability":"view"},{"type":"function","name":"uri","inputs":[{"name":"","type":"uint256","internalType":"uint256"}],"outputs":[{"name":"","type":"string","internalType":"string"}],"stateMutability":"view"},{"type":"event","name":"ApprovalForAll","inputs":[{"name":"account","type":"address","indexed":true,"internalType":"address"},{"name":"operator","type":"address","indexed":true,"internalType":"address"},{"name":"approved","type":"bool","indexed":false,"internalType":"bool"}],"anonymous":false},{"type":"event","name":"Initialized","inputs":[{"name":"version","type":"uint64","indexed":false,"internalType":"uint64"}],"anonymous":false},{"type":"event","name":"TransferBatch","inputs":[{"name":"operator","type":"address","indexed":true,"internalType":"address"},{"name":"from","type":"address","indexed":true,"internalType":"address"},{"name":"to","type":"address","indexed":true,"internalType":"address"},{"name":"ids","type":"uint256[]","indexed":false,"internalType":"uint256[]"},{"name":"values","type":"uint256[]","indexed":false,"internalType":"uint256[]"}],"anonymous":false},{"type":"event","name":"TransferSingle","inputs":[{"name":"operator","type":"address","indexed":true,"internalType":"address"},{"name":"from","type":"address","indexed":true,"internalType":"address"},{"name":"to","type":"address","indexed":true,"internalType":"address"},{"name":"id","type":"uint256","indexed":false,"internalType":"uint256"},{"name":"value","type":"uint256","indexed":false,"internalType":"uint256"}],"anonymous":false},{"type":"event","name":"URI","inputs":[{"name":"value","type":"string","indexed":false,"internalType":"string"},{"name":"id","type":"uint256","indexed":true,"internalType":"uint256"}],"anonymous":false},{"type":"error","name":"ERC1155InsufficientBalance","inputs":[{"name":"sender","type":"address","internalType":"address"},{"name":"balance","type":"uint256","internalType":"uint256"},{"name":"needed","type":"uint256","internalType":"uint256"},{"name":"tokenId","type":"uint256","internalType":"uint256"}]},{"type":"error","name":"ERC1155InvalidApprover","inputs":[{"name":"approver","type":"address","internalType":"address"}]},{"type":"error","name":"ERC1155InvalidArrayLength","inputs":[{"name":"idsLength","type":"uint256","internalType":"uint256"},{"name":"valuesLength","type":"uint256","internalType":"uint256"}]},{"type":"error","name":"ERC1155InvalidOperator","inputs":[{"name":"operator","type":"address","internalType":"address"}]},{"type":"error","name":"ERC1155InvalidReceiver","inputs":[{"name":"receiver","type":"address","internalType":"address"}]},{"type":"error","name":"ERC1155InvalidSender","inputs":[{"name":"sender","type":"address","internalType":"address"}]},{"type":"error","name":"ERC1155MissingApprovalForAll","inputs":[{"name":"operator","type":"address","internalType":"address"},{"name":"owner","type":"address","internalType":"address"}]},{"type":"error","name":"InvalidInitialization","inputs":[]},{"type":"error","name":"NotInitializing","inputs":[]}],"bytecode":{"object":"0x608060405234801561000f575f80fd5b506117808061001d5f395ff3fe608060405234801561000f575f80fd5b50600436106100ca575f3560e01c80636b20c45411610088578063e985e9c511610063578063e985e9c5146101b8578063f242432a146101cb578063f5298aca146101de578063f62d1888146101f1575f80fd5b80636b20c4541461017f578063731133e914610192578063a22cb465146101a5575f80fd5b8062fdd58e146100ce57806301ffc9a7146100f45780630e89341c146101175780631f7fdffa146101375780632eb2c2d61461014c5780634e1273f41461015f575b5f80fd5b6100e16100dc366004610e8c565b610204565b6040519081526020015b60405180910390f35b610107610102366004610ec9565b610239565b60405190151581526020016100eb565b61012a610125366004610eeb565b610288565b6040516100eb9190610f45565b61014a61014536600461109b565b61034a565b005b61014a61015a36600461112d565b61035c565b61017261016d3660046111cf565b6103c8565b6040516100eb91906112c2565b61014a61018d3660046112d4565b610492565b61014a6101a0366004611342565b6104a2565b61014a6101b3366004611392565b6104ae565b6101076101c63660046113cb565b6104bd565b61014a6101d93660046113fc565b610509565b61014a6101ec36600461145b565b610568565b61014a6101ff36600461148b565b610573565b5f8181525f8051602061172b833981519152602090815260408083206001600160a01b03861684529091529020545b92915050565b5f6001600160e01b03198216636cdb3d1360e11b148061026957506001600160e01b031982166303a24d0760e21b145b8061023357506301ffc9a760e01b6001600160e01b0319831614610233565b7f88be536d5240c274a3b1d3a1be54482fd9caa294f08c62a7cde569f49a3c450280546060915f8051602061172b833981519152916102c6906114d7565b80601f01602080910402602001604051908101604052809291908181526020018280546102f2906114d7565b801561033d5780601f106103145761010080835404028352916020019161033d565b820191905f5260205f20905b81548152906001019060200180831161032057829003601f168201915b5050505050915050919050565b6103568484848461067e565b50505050565b336001600160a01b038616811480159061037d575061037b86826104bd565b155b156103b35760405163711bec9160e11b81526001600160a01b038083166004830152871660248201526044015b60405180910390fd5b6103c086868686866106b4565b505050505050565b606081518351146103f95781518351604051635b05999160e01b8152600481019290925260248201526044016103aa565b5f83516001600160401b0381111561041357610413610f57565b60405190808252806020026020018201604052801561043c578160200160208202803683370190505b5090505f5b845181101561048a5760208082028601015161046590602080840287010151610204565b8282815181106104775761047761150f565b6020908102919091010152600101610441565b509392505050565b61049d838383610719565b505050565b6103568484848461075c565b6104b93383836107b7565b5050565b6001600160a01b039182165f9081527f88be536d5240c274a3b1d3a1be54482fd9caa294f08c62a7cde569f49a3c45016020908152604080832093909416825291909152205460ff1690565b336001600160a01b038616811480159061052a575061052886826104bd565b155b1561055b5760405163711bec9160e11b81526001600160a01b038083166004830152871660248201526044016103aa565b6103c0868686868661085c565b61049d8383836108e8565b7ff0c57e16840df040f15088dc2f81fe391c3923bec73e23a9662efc9c229c6a008054600160401b810460ff1615906001600160401b03165f811580156105b75750825b90505f826001600160401b031660011480156105d25750303b155b9050811580156105e0575080155b156105fe5760405163f92ee8a960e01b815260040160405180910390fd5b845467ffffffffffffffff19166001178555831561062857845460ff60401b1916600160401b1785555b6106318661094e565b83156103c057845460ff60401b19168555604051600181527fc7f505b2f371ae2175ee4913f4499e1f2633a7b5936321eed1cdaeb6115181d29060200160405180910390a1505050505050565b6001600160a01b0384166106a757604051632bfa23e760e11b81525f60048201526024016103aa565b6103565f85858585610962565b6001600160a01b0384166106dd57604051632bfa23e760e11b81525f60048201526024016103aa565b6001600160a01b03851661070557604051626a0d4560e21b81525f60048201526024016103aa565b6107128585858585610962565b5050505050565b6001600160a01b03831661074157604051626a0d4560e21b81525f60048201526024016103aa565b61049d835f848460405180602001604052805f815250610962565b6001600160a01b03841661078557604051632bfa23e760e11b81525f60048201526024016103aa565b604080516001808252602082018690528183019081526060820185905260808201909252906103c05f87848487610962565b5f8051602061172b8339815191526001600160a01b0383166107ed5760405162ced3e160e81b81525f60048201526024016103aa565b6001600160a01b038481165f818152600184016020908152604080832094881680845294825291829020805460ff191687151590811790915591519182527f17307eab39ab6107e8899845ad3d59bd9653f200f220920489ca2b5937696c31910160405180910390a350505050565b6001600160a01b03841661088557604051632bfa23e760e11b81525f60048201526024016103aa565b6001600160a01b0385166108ad57604051626a0d4560e21b81525f60048201526024016103aa565b604080516001808252602082018690528183019081526060820185905260808201909252906108df8787848487610962565b50505050505050565b6001600160a01b03831661091057604051626a0d4560e21b81525f60048201526024016103aa565b604080516001808252602082018590528183019081526060820184905260a082019092525f6080820181815291929161071291879185908590610962565b6109566109b5565b61095f81610a00565b50565b61096e85858585610a11565b6001600160a01b0384161561071257825133906001036109a757602084810151908401516109a0838989858589610c30565b50506103c0565b6103c0818787878787610d51565b7ff0c57e16840df040f15088dc2f81fe391c3923bec73e23a9662efc9c229c6a0054600160401b900460ff166109fe57604051631afcd79f60e31b815260040160405180910390fd5b565b610a086109b5565b61095f81610e38565b805182515f8051602061172b8339815191529114610a4f5782518251604051635b05999160e01b8152600481019290925260248201526044016103aa565b335f5b8451811015610b51576020818102868101820151908601909101516001600160a01b03891615610b03575f828152602086815260408083206001600160a01b038d16845290915290205481811015610add576040516303dee4c560e01b81526001600160a01b038b1660048201526024810182905260448101839052606481018490526084016103aa565b5f838152602087815260408083206001600160a01b038e16845290915290209082900390555b6001600160a01b03881615610b47575f828152602086815260408083206001600160a01b038c16845290915281208054839290610b41908490611523565b90915550505b5050600101610a52565b508351600103610bd15760208401515f906020850151909150866001600160a01b0316886001600160a01b0316846001600160a01b03167fc3d58168c5ae7397731d063d5bbf3d657854427343f4c083240f7aacaa2d0f628585604051610bc2929190918252602082015260400190565b60405180910390a450506103c0565b846001600160a01b0316866001600160a01b0316826001600160a01b03167f4a39dc06d4c0dbc64b70af90fd698a233a518aa5d07e595d983b8c0526c8f7fb8787604051610c20929190611542565b60405180910390a4505050505050565b6001600160a01b0384163b156103c05760405163f23a6e6160e01b81526001600160a01b0385169063f23a6e6190610c74908990899088908890889060040161156f565b6020604051808303815f875af1925050508015610cae575060408051601f3d908101601f19168201909252610cab918101906115b3565b60015b610d15573d808015610cdb576040519150601f19603f3d011682016040523d82523d5f602084013e610ce0565b606091505b5080515f03610d0d57604051632bfa23e760e11b81526001600160a01b03861660048201526024016103aa565b805181602001fd5b6001600160e01b0319811663f23a6e6160e01b146108df57604051632bfa23e760e11b81526001600160a01b03861660048201526024016103aa565b6001600160a01b0384163b156103c05760405163bc197c8160e01b81526001600160a01b0385169063bc197c8190610d9590899089908890889088906004016115ce565b6020604051808303815f875af1925050508015610dcf575060408051601f3d908101601f19168201909252610dcc918101906115b3565b60015b610dfc573d808015610cdb576040519150601f19603f3d011682016040523d82523d5f602084013e610ce0565b6001600160e01b0319811663bc197c8160e01b146108df57604051632bfa23e760e11b81526001600160a01b03861660048201526024016103aa565b5f8051602061172b8339815191527f88be536d5240c274a3b1d3a1be54482fd9caa294f08c62a7cde569f49a3c450261049d838261166f565b80356001600160a01b0381168114610e87575f80fd5b919050565b5f8060408385031215610e9d575f80fd5b610ea683610e71565b946020939093013593505050565b6001600160e01b03198116811461095f575f80fd5b5f60208284031215610ed9575f80fd5b8135610ee481610eb4565b9392505050565b5f60208284031215610efb575f80fd5b5035919050565b5f81518084525f5b81811015610f2657602081850181015186830182015201610f0a565b505f602082860101526020601f19601f83011685010191505092915050565b602081525f610ee46020830184610f02565b634e487b7160e01b5f52604160045260245ffd5b604051601f8201601f191681016001600160401b0381118282101715610f9357610f93610f57565b604052919050565b5f6001600160401b03821115610fb357610fb3610f57565b5060051b60200190565b5f82601f830112610fcc575f80fd5b81356020610fe1610fdc83610f9b565b610f6b565b8083825260208201915060208460051b870101935086841115611002575f80fd5b602086015b8481101561101e5780358352918301918301611007565b509695505050505050565b5f6001600160401b0383111561104157611041610f57565b611054601f8401601f1916602001610f6b565b9050828152838383011115611067575f80fd5b828260208301375f602084830101529392505050565b5f82601f83011261108c575f80fd5b610ee483833560208501611029565b5f805f80608085870312156110ae575f80fd5b6110b785610e71565b935060208501356001600160401b03808211156110d2575f80fd5b6110de88838901610fbd565b945060408701359150808211156110f3575f80fd5b6110ff88838901610fbd565b93506060870135915080821115611114575f80fd5b506111218782880161107d565b91505092959194509250565b5f805f805f60a08688031215611141575f80fd5b61114a86610e71565b945061115860208701610e71565b935060408601356001600160401b0380821115611173575f80fd5b61117f89838a01610fbd565b94506060880135915080821115611194575f80fd5b6111a089838a01610fbd565b935060808801359150808211156111b5575f80fd5b506111c28882890161107d565b9150509295509295909350565b5f80604083850312156111e0575f80fd5b82356001600160401b03808211156111f6575f80fd5b818501915085601f830112611209575f80fd5b81356020611219610fdc83610f9b565b82815260059290921b84018101918181019089841115611237575f80fd5b948201945b8386101561125c5761124d86610e71565b8252948201949082019061123c565b96505086013592505080821115611271575f80fd5b5061127e85828601610fbd565b9150509250929050565b5f815180845260208085019450602084015f5b838110156112b75781518752958201959082019060010161129b565b509495945050505050565b602081525f610ee46020830184611288565b5f805f606084860312156112e6575f80fd5b6112ef84610e71565b925060208401356001600160401b038082111561130a575f80fd5b61131687838801610fbd565b9350604086013591508082111561132b575f80fd5b5061133886828701610fbd565b9150509250925092565b5f805f8060808587031215611355575f80fd5b61135e85610e71565b9350602085013592506040850135915060608501356001600160401b03811115611386575f80fd5b6111218782880161107d565b5f80604083850312156113a3575f80fd5b6113ac83610e71565b9150602083013580151581146113c0575f80fd5b809150509250929050565b5f80604083850312156113dc575f80fd5b6113e583610e71565b91506113f360208401610e71565b90509250929050565b5f805f805f60a08688031215611410575f80fd5b61141986610e71565b945061142760208701610e71565b9350604086013592506060860135915060808601356001600160401b0381111561144f575f80fd5b6111c28882890161107d565b5f805f6060848603121561146d575f80fd5b61147684610e71565b95602085013595506040909401359392505050565b5f6020828403121561149b575f80fd5b81356001600160401b038111156114b0575f80fd5b8201601f810184136114c0575f80fd5b6114cf84823560208401611029565b949350505050565b600181811c908216806114eb57607f821691505b60208210810361150957634e487b7160e01b5f52602260045260245ffd5b50919050565b634e487b7160e01b5f52603260045260245ffd5b8082018082111561023357634e487b7160e01b5f52601160045260245ffd5b604081525f6115546040830185611288565b82810360208401526115668185611288565b95945050505050565b6001600160a01b03868116825285166020820152604081018490526060810183905260a0608082018190525f906115a890830184610f02565b979650505050505050565b5f602082840312156115c3575f80fd5b8151610ee481610eb4565b6001600160a01b0386811682528516602082015260a0604082018190525f906115f990830186611288565b828103606084015261160b8186611288565b9050828103608084015261161f8185610f02565b98975050505050505050565b601f82111561049d57805f5260205f20601f840160051c810160208510156116505750805b601f840160051c820191505b81811015610712575f815560010161165c565b81516001600160401b0381111561168857611688610f57565b61169c8161169684546114d7565b8461162b565b602080601f8311600181146116cf575f84156116b85750858301515b5f19600386901b1c1916600185901b1785556103c0565b5f85815260208120601f198616915b828110156116fd578886015182559484019460019091019084016116de565b508582101561171a57878501515f19600388901b60f8161c191681555b5050505050600190811b0190555056fe88be536d5240c274a3b1d3a1be54482fd9caa294f08c62a7cde569f49a3c4500a264697066735822122024a65722ba5964c8b4fce3c6eb9d1eb68df31e23f4b77a839d4d47fe352314c964736f6c63430008180033","linkReferences":{}},"methodIdentifiers":{"balanceOf(address,uint256)":"00fdd58e","balanceOfBatch(address[],uint256[])":"4e1273f4","burn(address,uint256,uint256)":"f5298aca","burnBatch(address,uint256[],uint256[])":"6b20c454","initialize(string)":"f62d1888","isApprovedForAll(address,address)":"e985e9c5","mint(address,uint256,uint256,bytes)":"731133e9","mintBatch(address,uint256[],uint256[],bytes)":"1f7fdffa","safeBatchTransferFrom(address,address,uint256[],uint256[],bytes)":"2eb2c2d6","safeTransferFrom(address,address,uint256,uint256,bytes)":"f242432a","setApprovalForAll(address,bool)":"a22cb465","supportsInterface(bytes4)":"01ffc9a7","uri(uint256)":"0e89341c"},"storageLayout":{"storage":[],"types":{}},"id":161}