{"abi":[{"type":"function","name":"allowance","inputs":[{"name":"owner","type":"address","internalType":"address"},{"name":"spender","type":"address","internalType":"address"}],"outputs":[{"name":"","type":"uint256","internalType":"uint256"}],"stateMutability":"view"},{"type":"function","name":"approve","inputs":[{"name":"spender","type":"address","internalType":"address"},{"name":"value","type":"uint256","internalType":"uint256"}],"outputs":[{"name":"","type":"bool","internalType":"bool"}],"stateMutability":"nonpayable"},{"type":"function","name":"balanceOf","inputs":[{"name":"account","type":"address","internalType":"address"}],"outputs":[{"name":"","type":"uint256","internalType":"uint256"}],"stateMutability":"view"},{"type":"function","name":"burn","inputs":[{"name":"from","type":"address","internalType":"address"},{"name":"amount","type":"uint256","internalType":"uint256"}],"outputs":[],"stateMutability":"nonpayable"},{"type":"function","name":"decimals","inputs":[],"outputs":[{"name":"","type":"uint8","internalType":"uint8"}],"stateMutability":"view"},{"type":"function","name":"initialize","inputs":[{"name":"name","type":"string","internalType":"string"},{"name":"symbol","type":"string","internalType":"string"}],"outputs":[],"stateMutability":"nonpayable"},{"type":"function","name":"mint","inputs":[{"name":"to","type":"address","internalType":"address"},{"name":"amount","type":"uint256","internalType":"uint256"}],"outputs":[],"stateMutability":"nonpayable"},{"type":"function","name":"name","inputs":[],"outputs":[{"name":"","type":"string","internalType":"string"}],"stateMutability":"view"},{"type":"function","name":"symbol","inputs":[],"outputs":[{"name":"","type":"string","internalType":"string"}],"stateMutability":"view"},{"type":"function","name":"totalSupply","inputs":[],"outputs":[{"name":"","type":"uint256","internalType":"uint256"}],"stateMutability":"view"},{"type":"function","name":"transfer","inputs":[{"name":"to","type":"address","internalType":"address"},{"name":"value","type":"uint256","internalType":"uint256"}],"outputs":[{"name":"","type":"bool","internalType":"bool"}],"stateMutability":"nonpayable"},{"type":"function","name":"transferFrom","inputs":[{"name":"from","type":"address","internalType":"address"},{"name":"to","type":"address","internalType":"address"},{"name":"value","type":"uint256","internalType":"uint256"}],"outputs":[{"name":"","type":"bool","internalType":"bool"}],"stateMutability":"nonpayable"},{"type":"event","name":"Approval","inputs":[{"name":"owner","type":"address","indexed":true,"internalType":"address"},{"name":"spender","type":"address","indexed":true,"internalType":"address"},{"name":"value","type":"uint256","indexed":false,"internalType":"uint256"}],"anonymous":false},{"type":"event","name":"Initialized","inputs":[{"name":"version","type":"uint64","indexed":false,"internalType":"uint64"}],"anonymous":false},{"type":"event","name":"Transfer","inputs":[{"name":"from","type":"address","indexed":true,"internalType":"address"},{"name":"to","type":"address","indexed":true,"internalType":"address"},{"name":"value","type":"uint256","indexed":false,"internalType":"uint256"}],"anonymous":false},{"type":"error","name":"ERC20InsufficientAllowance","inputs":[{"name":"spender","type":"address","internalType":"address"},{"name":"allowance","type":"uint256","internalType":"uint256"},{"name":"needed","type":"uint256","internalType":"uint256"}]},{"type":"error","name":"ERC20InsufficientBalance","inputs":[{"name":"sender","type":"address","internalType":"address"},{"name":"balance","type":"uint256","internalType":"uint256"},{"name":"needed","type":"uint256","internalType":"uint256"}]},{"type":"error","name":"ERC20InvalidApprover","inputs":[{"name":"approver","type":"address","internalType":"address"}]},{"type":"error","name":"ERC20InvalidReceiver","inputs":[{"name":"receiver","type":"address","internalType":"address"}]},{"type":"error","name":"ERC20InvalidSender","inputs":[{"name":"sender","type":"address","internalType":"address"}]},{"type":"error","name":"ERC20InvalidSpender","inputs":[{"name":"spender","type":"address","internalType":"address"}]},{"type":"error","name":"InvalidInitialization","inputs":[]},{"type":"error","name":"NotInitializing","inputs":[]}],"bytecode":{"object":"0x608060405234801561000f575f80fd5b50610c6e8061001d5f395ff3fe608060405234801561000f575f80fd5b50600436106100b1575f3560e01c80634cd88b761161006e5780634cd88b761461015e57806370a082311461017157806395d89b41146101a55780639dc29fac146101ad578063a9059cbb146101c0578063dd62ed3e146101d3575f80fd5b806306fdde03146100b5578063095ea7b3146100d357806318160ddd146100f657806323b872dd14610127578063313ce5671461013a57806340c10f1914610149575b5f80fd5b6100bd6101e6565b6040516100ca91906108a7565b60405180910390f35b6100e66100e136600461090e565b6102a6565b60405190151581526020016100ca565b7f52c63247e1f47db19d5ce0460030c497f067ca4cebf71ba98eeadabe20bace02545b6040519081526020016100ca565b6100e6610135366004610936565b6102bf565b604051601281526020016100ca565b61015c61015736600461090e565b6102e2565b005b61015c61016c366004610a0c565b6102f0565b61011961017f366004610a6c565b6001600160a01b03165f9081525f80516020610c19833981519152602052604090205490565b6100bd610400565b61015c6101bb36600461090e565b61043e565b6100e66101ce36600461090e565b610448565b6101196101e1366004610a8c565b610455565b7f52c63247e1f47db19d5ce0460030c497f067ca4cebf71ba98eeadabe20bace0380546060915f80516020610c198339815191529161022490610abd565b80601f016020809104026020016040519081016040528092919081815260200182805461025090610abd565b801561029b5780601f106102725761010080835404028352916020019161029b565b820191905f5260205f20905b81548152906001019060200180831161027e57829003601f168201915b505050505091505090565b5f336102b381858561049e565b60019150505b92915050565b5f336102cc8582856104b0565b6102d7858585610518565b506001949350505050565b6102ec8282610575565b5050565b7ff0c57e16840df040f15088dc2f81fe391c3923bec73e23a9662efc9c229c6a008054600160401b810460ff16159067ffffffffffffffff165f811580156103355750825b90505f8267ffffffffffffffff1660011480156103515750303b155b90508115801561035f575080155b1561037d5760405163f92ee8a960e01b815260040160405180910390fd5b845467ffffffffffffffff1916600117855583156103a757845460ff60401b1916600160401b1785555b6103b187876105a9565b83156103f757845460ff60401b19168555604051600181527fc7f505b2f371ae2175ee4913f4499e1f2633a7b5936321eed1cdaeb6115181d29060200160405180910390a15b50505050505050565b7f52c63247e1f47db19d5ce0460030c497f067ca4cebf71ba98eeadabe20bace0480546060915f80516020610c198339815191529161022490610abd565b6102ec82826105bb565b5f336102b3818585610518565b6001600160a01b039182165f9081527f52c63247e1f47db19d5ce0460030c497f067ca4cebf71ba98eeadabe20bace016020908152604080832093909416825291909152205490565b6104ab83838360016105ef565b505050565b5f6104bb8484610455565b90505f198114610512578181101561050457604051637dc7a0d960e11b81526001600160a01b038416600482015260248101829052604481018390526064015b60405180910390fd5b61051284848484035f6105ef565b50505050565b6001600160a01b03831661054157604051634b637e8f60e11b81525f60048201526024016104fb565b6001600160a01b03821661056a5760405163ec442f0560e01b81525f60048201526024016104fb565b6104ab8383836106d3565b6001600160a01b03821661059e5760405163ec442f0560e01b81525f60048201526024016104fb565b6102ec5f83836106d3565b6105b161080c565b6102ec8282610857565b6001600160a01b0382166105e457604051634b637e8f60e11b81525f60048201526024016104fb565b6102ec825f836106d3565b5f80516020610c198339815191526001600160a01b0385166106265760405163e602df0560e01b81525f60048201526024016104fb565b6001600160a01b03841661064f57604051634a1406b160e11b81525f60048201526024016104fb565b6001600160a01b038086165f908152600183016020908152604080832093881683529290522083905581156106cc57836001600160a01b0316856001600160a01b03167f8c5be1e5ebec7d5bd14f71427d1e84f3dd0314c0f7b2291e5b200ac8c7c3b925856040516106c391815260200190565b60405180910390a35b5050505050565b5f80516020610c198339815191526001600160a01b03841661070d5781816002015f8282546107029190610af5565b9091555061077d9050565b6001600160a01b0384165f908152602082905260409020548281101561075f5760405163391434e360e21b81526001600160a01b038616600482015260248101829052604481018490526064016104fb565b6001600160a01b0385165f9081526020839052604090209083900390555b6001600160a01b03831661079b5760028101805483900390556107b9565b6001600160a01b0383165f9081526020829052604090208054830190555b826001600160a01b0316846001600160a01b03167fddf252ad1be2c89b69c2b068fc378daa952ba7f163c4a11628f55a4df523b3ef846040516107fe91815260200190565b60405180910390a350505050565b7ff0c57e16840df040f15088dc2f81fe391c3923bec73e23a9662efc9c229c6a0054600160401b900460ff1661085557604051631afcd79f60e31b815260040160405180910390fd5b565b61085f61080c565b5f80516020610c198339815191527f52c63247e1f47db19d5ce0460030c497f067ca4cebf71ba98eeadabe20bace036108988482610b58565b50600481016105128382610b58565b5f602080835283518060208501525f5b818110156108d3578581018301518582016040015282016108b7565b505f604082860101526040601f19601f8301168501019250505092915050565b80356001600160a01b0381168114610909575f80fd5b919050565b5f806040838503121561091f575f80fd5b610928836108f3565b946020939093013593505050565b5f805f60608486031215610948575f80fd5b610951846108f3565b925061095f602085016108f3565b9150604084013590509250925092565b634e487b7160e01b5f52604160045260245ffd5b5f82601f830112610992575f80fd5b813567ffffffffffffffff808211156109ad576109ad61096f565b604051601f8301601f19908116603f011681019082821181831017156109d5576109d561096f565b816040528381528660208588010111156109ed575f80fd5b836020870160208301375f602085830101528094505050505092915050565b5f8060408385031215610a1d575f80fd5b823567ffffffffffffffff80821115610a34575f80fd5b610a4086838701610983565b93506020850135915080821115610a55575f80fd5b50610a6285828601610983565b9150509250929050565b5f60208284031215610a7c575f80fd5b610a85826108f3565b9392505050565b5f8060408385031215610a9d575f80fd5b610aa6836108f3565b9150610ab4602084016108f3565b90509250929050565b600181811c90821680610ad157607f821691505b602082108103610aef57634e487b7160e01b5f52602260045260245ffd5b50919050565b808201808211156102b957634e487b7160e01b5f52601160045260245ffd5b601f8211156104ab57805f5260205f20601f840160051c81016020851015610b395750805b601f840160051c820191505b818110156106cc575f8155600101610b45565b815167ffffffffffffffff811115610b7257610b7261096f565b610b8681610b808454610abd565b84610b14565b602080601f831160018114610bb9575f8415610ba25750858301515b5f19600386901b1c1916600185901b178555610c10565b5f85815260208120601f198616915b82811015610be757888601518255948401946001909101908401610bc8565b5085821015610c0457878501515f19600388901b60f8161c191681555b505060018460011b0185555b50505050505056fe52c63247e1f47db19d5ce0460030c497f067ca4cebf71ba98eeadabe20bace00a2646970667358221220fc3ed54a1e83ff21e65993b9bbe213bf9738d395a74edc4a76d6b73a10c0212464736f6c63430008180033","linkReferences":{}},"methodIdentifiers":{"allowance(address,address)":"dd62ed3e","approve(address,uint256)":"095ea7b3","balanceOf(address)":"70a08231","burn(address,uint256)":"9dc29fac","decimals()":"313ce567","initialize(string,string)":"4cd88b76","mint(address,uint256)":"40c10f19","name()":"06fdde03","symbol()":"95d89b41","totalSupply()":"18160ddd","transfer(address,uint256)":"a9059cbb","transferFrom(address,address,uint256)":"23b872dd"},"storageLayout":{"storage":[],"types":{}},"id":158}