{"abi":[{"type":"function","name":"parseLine","inputs":[{"name":"csvLine","type":"string","internalType":"string"}],"outputs":[{"name":"","type":"uint256","internalType":"uint256"},{"name":"","type":"address","internalType":"address"}],"stateMutability":"pure"}],"bytecode":{"object":"0x6107da610035600b8282823980515f1a60731461002957634e487b7160e01b5f525f60045260245ffd5b305f52607381538281f3fe7300000000000000000000000000000000000000003014608060405260043610610034575f3560e01c806395a94a3b14610038575b5f80fd5b61004b6100463660046105ec565b61006c565b604080519283526001600160a01b0390911660208301520160405180910390f35b5f805f610078846100d0565b90505f61009d825f8151811061009057610090610697565b60200260200101516100fb565b90505f6100c3836001815181106100b6576100b6610697565b60200260200101516101a4565b9196919550909350505050565b60606100f582604051806040016040528060018152602001600b60fa1b815250610374565b92915050565b5f8082815b815181101561019b57603082828151811061011d5761011d610697565b016020015160f81c1080159061014d5750603982828151811061014257610142610697565b016020015160f81c11155b1561019357603082828151811061016657610166610697565b0160200151610178919060f81c6106bf565b60ff1661018684600a6106d8565b61019091906106ef565b92505b600101610100565b50909392505050565b5f8181805b82518160ff16101561036c576101c0601083610702565b91506030838260ff16815181106101d9576101d9610697565b016020015160f81c1080159061020c57506039838260ff168151811061020157610201610697565b016020015160f81c11155b1561024a576030838260ff168151811061022857610228610697565b016020015161023a919060f81c6106bf565b6102479060ff1683610734565b91505b6041838260ff168151811061026157610261610697565b016020015160f81c1080159061029457506046838260ff168151811061028957610289610697565b016020015160f81c11155b156102d2576037838260ff16815181106102b0576102b0610697565b01602001516102c2919060f81c6106bf565b6102cf9060ff1683610734565b91505b6061838260ff16815181106102e9576102e9610697565b016020015160f81c1080159061031c57506066838260ff168151811061031157610311610697565b016020015160f81c11155b1561035a576057838260ff168151811061033857610338610697565b016020015161034a919060f81c6106bf565b6103579060ff1683610734565b91505b806103648161075b565b9150506101a9565b509392505050565b6060828260015f5b83518110156103e857825f8151811061039757610397610697565b602001015160f81c60f81b6001600160f81b0319168482815181106103be576103be610697565b01602001516001600160f81b031916036103e057816103dc81610779565b9250505b60010161037c565b505f8167ffffffffffffffff811115610403576104036105d8565b60405190808252806020026020018201604052801561043657816020015b60608152602001906001900390816104215790505b5090505f805f5b86518110156104e057855f8151811061045857610458610697565b602001015160f81c60f81b6001600160f81b03191687828151811061047f5761047f610697565b01602001516001600160f81b031916036104d85761049e8a8383610517565b8484815181106104b0576104b0610697565b602002602001018190525082806104c690610779565b93506104d590508160016106ef565b91505b60010161043d565b506104ed89828851610517565b8383815181106104ff576104ff610697565b60209081029190910101525090979650505050505050565b6060835f6105258585610791565b67ffffffffffffffff81111561053d5761053d6105d8565b6040519080825280601f01601f191660200182016040528015610567576020820181803683370190505b509050845b848110156105ce5782818151811061058657610586610697565b01602001516001600160f81b031916826105a08884610791565b815181106105b0576105b0610697565b60200101906001600160f81b03191690815f1a90535060010161056c565b5095945050505050565b634e487b7160e01b5f52604160045260245ffd5b5f602082840312156105fc575f80fd5b813567ffffffffffffffff80821115610613575f80fd5b818401915084601f830112610626575f80fd5b813581811115610638576106386105d8565b604051601f8201601f19908116603f01168101908382118183101715610660576106606105d8565b81604052828152876020848701011115610678575f80fd5b826020860160208301375f928101602001929092525095945050505050565b634e487b7160e01b5f52603260045260245ffd5b634e487b7160e01b5f52601160045260245ffd5b60ff82811682821603908111156100f5576100f56106ab565b80820281158282048414176100f5576100f56106ab565b808201808211156100f5576100f56106ab565b6001600160a01b0382811682821681810283169291811582850482141761072b5761072b6106ab565b50505092915050565b6001600160a01b03818116838216019080821115610754576107546106ab565b5092915050565b5f60ff821660ff8103610770576107706106ab565b60010192915050565b5f6001820161078a5761078a6106ab565b5060010190565b818103818111156100f5576100f56106ab56fea2646970667358221220cef5a8ba8f1da4e7c016a2cb059d5bd0ed152d352c71780ce2d643f1de2423ec64736f6c63430008180033","linkReferences":{}},"methodIdentifiers":{"parseLine(string)":"95a94a3b"},"storageLayout":{"storage":[],"types":{}},"id":112}