{"abi":[{"type":"constructor","inputs":[],"stateMutability":"nonpayable"},{"type":"function","name":"UPGRADE_INTERFACE_VERSION","inputs":[],"outputs":[{"name":"","type":"string","internalType":"string"}],"stateMutability":"view"},{"type":"function","name":"acceptOwnership","inputs":[],"outputs":[],"stateMutability":"nonpayable"},{"type":"function","name":"blacklist","inputs":[],"outputs":[{"name":"","type":"address","internalType":"contract IMinimalBlacklist"}],"stateMutability":"view"},{"type":"function","name":"canMint","inputs":[{"name":"_minter","type":"address","internalType":"address"},{"name":"_maxMints","type":"uint256","internalType":"uint256"}],"outputs":[{"name":"","type":"bool","internalType":"bool"}],"stateMutability":"view"},{"type":"function","name":"initialize","inputs":[{"name":"_owner","type":"address","internalType":"address"},{"name":"_root","type":"bytes32","internalType":"bytes32"},{"name":"_blacklist","type":"address","internalType":"contract IMinimalBlacklist"}],"outputs":[],"stateMutability":"nonpayable"},{"type":"function","name":"leaf","inputs":[{"name":"_minter","type":"address","internalType":"address"},{"name":"_maxMints","type":"uint256","internalType":"uint256"}],"outputs":[{"name":"","type":"bytes32","internalType":"bytes32"}],"stateMutability":"pure"},{"type":"function","name":"minted","inputs":[{"name":"leaf","type":"bytes32","internalType":"bytes32"}],"outputs":[{"name":"hasMinted","type":"bool","internalType":"bool"}],"stateMutability":"view"},{"type":"function","name":"owner","inputs":[],"outputs":[{"name":"","type":"address","internalType":"address"}],"stateMutability":"view"},{"type":"function","name":"pendingOwner","inputs":[],"outputs":[{"name":"","type":"address","internalType":"address"}],"stateMutability":"view"},{"type":"function","name":"proxiableUUID","inputs":[],"outputs":[{"name":"","type":"bytes32","internalType":"bytes32"}],"stateMutability":"view"},{"type":"function","name":"renounceOwnership","inputs":[],"outputs":[],"stateMutability":"nonpayable"},{"type":"function","name":"root","inputs":[],"outputs":[{"name":"","type":"bytes32","internalType":"bytes32"}],"stateMutability":"view"},{"type":"function","name":"transferOwnership","inputs":[{"name":"newOwner","type":"address","internalType":"address"}],"outputs":[],"stateMutability":"nonpayable"},{"type":"function","name":"updateBlacklist","inputs":[{"name":"_blacklist","type":"address","internalType":"contract IMinimalBlacklist"}],"outputs":[],"stateMutability":"nonpayable"},{"type":"function","name":"upgradeToAndCall","inputs":[{"name":"newImplementation","type":"address","internalType":"address"},{"name":"data","type":"bytes","internalType":"bytes"}],"outputs":[],"stateMutability":"payable"},{"type":"event","name":"BlacklistUpdated","inputs":[{"name":"_blacklist","type":"address","indexed":false,"internalType":"address"}],"anonymous":false},{"type":"event","name":"Initialized","inputs":[{"name":"version","type":"uint64","indexed":false,"internalType":"uint64"}],"anonymous":false},{"type":"event","name":"MintConsumed","inputs":[{"name":"_minter","type":"address","indexed":false,"internalType":"address"},{"name":"_mintAmount","type":"uint256","indexed":false,"internalType":"uint256"}],"anonymous":false},{"type":"event","name":"OwnershipTransferStarted","inputs":[{"name":"previousOwner","type":"address","indexed":true,"internalType":"address"},{"name":"newOwner","type":"address","indexed":true,"internalType":"address"}],"anonymous":false},{"type":"event","name":"OwnershipTransferred","inputs":[{"name":"previousOwner","type":"address","indexed":true,"internalType":"address"},{"name":"newOwner","type":"address","indexed":true,"internalType":"address"}],"anonymous":false},{"type":"event","name":"RootUpdated","inputs":[{"name":"_root","type":"bytes32","indexed":false,"internalType":"bytes32"}],"anonymous":false},{"type":"event","name":"Upgraded","inputs":[{"name":"implementation","type":"address","indexed":true,"internalType":"address"}],"anonymous":false},{"type":"error","name":"ADDRESS_BLACKLISTED","inputs":[]},{"type":"error","name":"AddressEmptyCode","inputs":[{"name":"target","type":"address","internalType":"address"}]},{"type":"error","name":"ERC1967InvalidImplementation","inputs":[{"name":"implementation","type":"address","internalType":"address"}]},{"type":"error","name":"ERC1967NonPayable","inputs":[]},{"type":"error","name":"FailedInnerCall","inputs":[]},{"type":"error","name":"INVALID_PROOF","inputs":[]},{"type":"error","name":"INVALID_TOKEN_AMOUNT","inputs":[]},{"type":"error","name":"InvalidInitialization","inputs":[]},{"type":"error","name":"MINTS_EXCEEDED","inputs":[]},{"type":"error","name":"NotInitializing","inputs":[]},{"type":"error","name":"OwnableInvalidOwner","inputs":[{"name":"owner","type":"address","internalType":"address"}]},{"type":"error","name":"OwnableUnauthorizedAccount","inputs":[{"name":"account","type":"address","internalType":"address"}]},{"type":"error","name":"UUPSUnauthorizedCallContext","inputs":[]},{"type":"error","name":"UUPSUnsupportedProxiableUUID","inputs":[{"name":"slot","type":"bytes32","internalType":"bytes32"}]}],"bytecode":{"object":"0x60a060405230608052348015610013575f80fd5b5061001c610021565b6100d3565b7ff0c57e16840df040f15088dc2f81fe391c3923bec73e23a9662efc9c229c6a00805468010000000000000000900460ff16156100715760405163f92ee8a960e01b815260040160405180910390fd5b80546001600160401b03908116146100d05780546001600160401b0319166001600160401b0390811782556040519081527fc7f505b2f371ae2175ee4913f4499e1f2633a7b5936321eed1cdaeb6115181d29060200160405180910390a15b50565b608051610f336100f95f395f81816107040152818161072d01526108710152610f335ff3fe6080604052600436106100e4575f3560e01c80638da5cb5b11610087578063d83b2bf811610057578063d83b2bf81461026f578063e30c39781461028e578063ebf0c717146102a2578063f2fde38b146102b6575f80fd5b80638da5cb5b146101c8578063a4b5fa56146101f4578063ad3cb1cc14610213578063d26b3e6e14610250575f80fd5b806352d1902d116100c257806352d1902d14610150578063715018a61461017257806379ba5097146101865780638ccc5f801461019a575f80fd5b80630d5e34a4146100e8578063378b57041461011c5780634f1ef2861461013d575b5f80fd5b3480156100f3575f80fd5b50610107610102366004610ccb565b6102d5565b60405190151581526020015b60405180910390f35b348015610127575f80fd5b5061013b610136366004610cf5565b610384565b005b61013b61014b366004610d24565b6103e0565b34801561015b575f80fd5b506101646103ff565b604051908152602001610113565b34801561017d575f80fd5b5061013b61041a565b348015610191575f80fd5b5061013b61042d565b3480156101a5575f80fd5b506101076101b4366004610de2565b60016020525f908152604090205460ff1681565b3480156101d3575f80fd5b506101dc61047a565b6040516001600160a01b039091168152602001610113565b3480156101ff575f80fd5b506002546101dc906001600160a01b031681565b34801561021e575f80fd5b50610243604051806040016040528060058152602001640352e302e360dc1b81525081565b6040516101139190610e1b565b34801561025b575f80fd5b5061013b61026a366004610e4d565b6104ae565b34801561027a575f80fd5b50610164610289366004610ccb565b6105c1565b348015610299575f80fd5b506101dc61061a565b3480156102ad575f80fd5b506101645f5481565b3480156102c1575f80fd5b5061013b6102d0366004610cf5565b610642565b60025460405163fe575a8760e01b81526001600160a01b0384811660048301525f92169063fe575a8790602401602060405180830381865afa15801561031d573d5f803e3d5ffd5b505050506040513d601f19601f820116820180604052508101906103419190610e8c565b1561035f57604051637874e36360e01b815260040160405180910390fd5b5f61036a84846105c1565b5f9081526001602052604090205460ff1615949350505050565b61038c6106c7565b600280546001600160a01b0319166001600160a01b0383169081179091556040519081527f75cdf6842d867a09260947ac775619527788d913a79fc3b41da1815fa377af659060200160405180910390a150565b6103e86106f9565b6103f18261079d565b6103fb82826107a5565b5050565b5f610408610866565b505f80516020610ede83398151915290565b6104226106c7565b61042b5f6108af565b565b338061043761061a565b6001600160a01b03161461046e5760405163118cdaa760e01b81526001600160a01b03821660048201526024015b60405180910390fd5b610477816108af565b50565b5f807f9016d09d72d40fdae2fd8ceac6b6234c7706214fd39c1cd1e609a0528c1993005b546001600160a01b031692915050565b7ff0c57e16840df040f15088dc2f81fe391c3923bec73e23a9662efc9c229c6a008054600160401b810460ff16159067ffffffffffffffff165f811580156104f35750825b90505f8267ffffffffffffffff16600114801561050f5750303b155b90508115801561051d575080155b1561053b5760405163f92ee8a960e01b815260040160405180910390fd5b845467ffffffffffffffff19166001178555831561056557845460ff60401b1916600160401b1785555b6105708888886108e7565b83156105b757845460ff60401b19168555604051600181527fc7f505b2f371ae2175ee4913f4499e1f2633a7b5936321eed1cdaeb6115181d2906020015b60405180910390a15b5050505050505050565b604080516001600160a01b03841660208201529081018290525f9060600160408051601f198184030181528282528051602091820120908301520160405160208183030381529060405280519060200120905092915050565b5f807f237e158222e3e6968b72b9db0d8043aacf074ad9f650f0d1606b4d82ee432c0061049e565b61064a6106c7565b7f237e158222e3e6968b72b9db0d8043aacf074ad9f650f0d1606b4d82ee432c0080546001600160a01b0319166001600160a01b038316908117825561068e61047a565b6001600160a01b03167f38d16b8cac22d99fc7c124b9cd0de2d3fa1faef420bfe791d8c362d765e2270060405160405180910390a35050565b336106d061047a565b6001600160a01b03161461042b5760405163118cdaa760e01b8152336004820152602401610465565b306001600160a01b037f000000000000000000000000000000000000000000000000000000000000000016148061077f57507f00000000000000000000000000000000000000000000000000000000000000006001600160a01b03166107735f80516020610ede833981519152546001600160a01b031690565b6001600160a01b031614155b1561042b5760405163703e46dd60e11b815260040160405180910390fd5b6104776106c7565b816001600160a01b03166352d1902d6040518163ffffffff1660e01b8152600401602060405180830381865afa9250505080156107ff575060408051601f3d908101601f191682019092526107fc91810190610eab565b60015b61082757604051634c9c8ce360e01b81526001600160a01b0383166004820152602401610465565b5f80516020610ede833981519152811461085757604051632a87526960e21b815260048101829052602401610465565b6108618383610a25565b505050565b306001600160a01b037f0000000000000000000000000000000000000000000000000000000000000000161461042b5760405163703e46dd60e11b815260040160405180910390fd5b7f237e158222e3e6968b72b9db0d8043aacf074ad9f650f0d1606b4d82ee432c0080546001600160a01b03191681556103fb82610a7a565b7ff0c57e16840df040f15088dc2f81fe391c3923bec73e23a9662efc9c229c6a008054600160401b810460ff16159067ffffffffffffffff165f8115801561092c5750825b90505f8267ffffffffffffffff1660011480156109485750303b155b905081158015610956575080155b156109745760405163f92ee8a960e01b815260040160405180910390fd5b845467ffffffffffffffff19166001178555831561099e57845460ff60401b1916600160401b1785555b6109bc6001600160a01b038916156109b657886108af565b336108af565b6109c4610aea565b5f879055600280546001600160a01b0319166001600160a01b03881617905583156105b757845460ff60401b19168555604051600181527fc7f505b2f371ae2175ee4913f4499e1f2633a7b5936321eed1cdaeb6115181d2906020016105ae565b610a2e82610af2565b6040516001600160a01b038316907fbc7cd75a20ee27fd9adebab32041f755214dbc6bffa90cc0225b39da2e5c2d3b905f90a2805115610a72576108618282610b55565b6103fb610bc7565b7f9016d09d72d40fdae2fd8ceac6b6234c7706214fd39c1cd1e609a0528c19930080546001600160a01b031981166001600160a01b03848116918217845560405192169182907f8be0079c531659141344cd1fd0a4f28419497f9722a3daafe3b4186f6b6457e0905f90a3505050565b61042b610be6565b806001600160a01b03163b5f03610b2757604051634c9c8ce360e01b81526001600160a01b0382166004820152602401610465565b5f80516020610ede83398151915280546001600160a01b0319166001600160a01b0392909216919091179055565b60605f80846001600160a01b031684604051610b719190610ec2565b5f60405180830381855af49150503d805f8114610ba9576040519150601f19603f3d011682016040523d82523d5f602084013e610bae565b606091505b5091509150610bbe858383610c2f565b95945050505050565b341561042b5760405163b398979f60e01b815260040160405180910390fd5b7ff0c57e16840df040f15088dc2f81fe391c3923bec73e23a9662efc9c229c6a0054600160401b900460ff1661042b57604051631afcd79f60e31b815260040160405180910390fd5b606082610c4457610c3f82610c8e565b610c87565b8151158015610c5b57506001600160a01b0384163b155b15610c8457604051639996b31560e01b81526001600160a01b0385166004820152602401610465565b50805b9392505050565b805115610c9e5780518082602001fd5b604051630a12f52160e11b815260040160405180910390fd5b6001600160a01b0381168114610477575f80fd5b5f8060408385031215610cdc575f80fd5b8235610ce781610cb7565b946020939093013593505050565b5f60208284031215610d05575f80fd5b8135610c8781610cb7565b634e487b7160e01b5f52604160045260245ffd5b5f8060408385031215610d35575f80fd5b8235610d4081610cb7565b9150602083013567ffffffffffffffff80821115610d5c575f80fd5b818501915085601f830112610d6f575f80fd5b813581811115610d8157610d81610d10565b604051601f8201601f19908116603f01168101908382118183101715610da957610da9610d10565b81604052828152886020848701011115610dc1575f80fd5b826020860160208301375f6020848301015280955050505050509250929050565b5f60208284031215610df2575f80fd5b5035919050565b5f5b83811015610e13578181015183820152602001610dfb565b50505f910152565b602081525f8251806020840152610e39816040850160208701610df9565b601f01601f19169190910160400192915050565b5f805f60608486031215610e5f575f80fd5b8335610e6a81610cb7565b9250602084013591506040840135610e8181610cb7565b809150509250925092565b5f60208284031215610e9c575f80fd5b81518015158114610c87575f80fd5b5f60208284031215610ebb575f80fd5b5051919050565b5f8251610ed3818460208701610df9565b919091019291505056fe360894a13ba1a3210667c828492db98dca3e2076cc3735a920a3ca505d382bbca26469706673582212206f318ab70ab8cb63b7636e8daa896eab2e18941af61268526bd9ce290541177164736f6c63430008180033","linkReferences":{}},"methodIdentifiers":{"UPGRADE_INTERFACE_VERSION()":"ad3cb1cc","acceptOwnership()":"79ba5097","blacklist()":"a4b5fa56","canMint(address,uint256)":"0d5e34a4","initialize(address,bytes32,address)":"d26b3e6e","leaf(address,uint256)":"d83b2bf8","minted(bytes32)":"8ccc5f80","owner()":"8da5cb5b","pendingOwner()":"e30c3978","proxiableUUID()":"52d1902d","renounceOwnership()":"715018a6","root()":"ebf0c717","transferOwnership(address)":"f2fde38b","updateBlacklist(address)":"378b5704","upgradeToAndCall(address,bytes)":"4f1ef286"},"id":6}