{"abi":[{"type":"constructor","inputs":[],"stateMutability":"nonpayable"},{"type":"function","name":"DEFAULT_ADMIN_ROLE","inputs":[],"outputs":[{"name":"","type":"bytes32","internalType":"bytes32"}],"stateMutability":"view"},{"type":"function","name":"EVENT_MANAGER_ROLE","inputs":[],"outputs":[{"name":"","type":"bytes32","internalType":"bytes32"}],"stateMutability":"view"},{"type":"function","name":"acceptOwnership","inputs":[],"outputs":[],"stateMutability":"nonpayable"},{"type":"function","name":"closePhase","inputs":[{"name":"_eventId","type":"uint256","internalType":"uint256"},{"name":"_phaseId","type":"uint256","internalType":"uint256"}],"outputs":[],"stateMutability":"nonpayable"},{"type":"function","name":"createEvent","inputs":[{"name":"_name","type":"string","internalType":"string"},{"name":"_totalPhases","type":"uint256","internalType":"uint256"}],"outputs":[],"stateMutability":"nonpayable"},{"type":"function","name":"events","inputs":[{"name":"","type":"uint256","internalType":"uint256"}],"outputs":[{"name":"id","type":"uint256","internalType":"uint256"},{"name":"name","type":"string","internalType":"string"},{"name":"totalPhases","type":"uint256","internalType":"uint256"}],"stateMutability":"view"},{"type":"function","name":"getEvent","inputs":[{"name":"_eventId","type":"uint256","internalType":"uint256"}],"outputs":[{"name":"id","type":"uint256","internalType":"uint256"},{"name":"name","type":"string","internalType":"string"},{"name":"totalPhases","type":"uint256","internalType":"uint256"}],"stateMutability":"view"},{"type":"function","name":"getRegistrationStatus","inputs":[{"name":"_eventId","type":"uint256","internalType":"uint256"},{"name":"_user","type":"address","internalType":"address"}],"outputs":[{"name":"registered","type":"bool[]","internalType":"bool[]"}],"stateMutability":"view"},{"type":"function","name":"getRoleAdmin","inputs":[{"name":"role","type":"bytes32","internalType":"bytes32"}],"outputs":[{"name":"","type":"bytes32","internalType":"bytes32"}],"stateMutability":"view"},{"type":"function","name":"grantEventManagerRole","inputs":[{"name":"account","type":"address","internalType":"address"}],"outputs":[],"stateMutability":"nonpayable"},{"type":"function","name":"grantRole","inputs":[{"name":"role","type":"bytes32","internalType":"bytes32"},{"name":"account","type":"address","internalType":"address"}],"outputs":[],"stateMutability":"nonpayable"},{"type":"function","name":"hasRole","inputs":[{"name":"role","type":"bytes32","internalType":"bytes32"},{"name":"account","type":"address","internalType":"address"}],"outputs":[{"name":"","type":"bool","internalType":"bool"}],"stateMutability":"view"},{"type":"function","name":"initialize","inputs":[],"outputs":[],"stateMutability":"nonpayable"},{"type":"function","name":"openPhase","inputs":[{"name":"_eventId","type":"uint256","internalType":"uint256"},{"name":"_phaseId","type":"uint256","internalType":"uint256"}],"outputs":[],"stateMutability":"nonpayable"},{"type":"function","name":"owner","inputs":[],"outputs":[{"name":"","type":"address","internalType":"address"}],"stateMutability":"view"},{"type":"function","name":"pendingOwner","inputs":[],"outputs":[{"name":"","type":"address","internalType":"address"}],"stateMutability":"view"},{"type":"function","name":"phaseOpen","inputs":[{"name":"","type":"uint256","internalType":"uint256"},{"name":"","type":"uint256","internalType":"uint256"}],"outputs":[{"name":"","type":"bool","internalType":"bool"}],"stateMutability":"view"},{"type":"function","name":"register","inputs":[{"name":"_eventId","type":"uint256","internalType":"uint256"},{"name":"_phaseId","type":"uint256","internalType":"uint256"}],"outputs":[],"stateMutability":"nonpayable"},{"type":"function","name":"registrations","inputs":[{"name":"","type":"uint256","internalType":"uint256"},{"name":"","type":"uint256","internalType":"uint256"},{"name":"","type":"address","internalType":"address"}],"outputs":[{"name":"","type":"uint256","internalType":"uint256"}],"stateMutability":"view"},{"type":"function","name":"renounceOwnership","inputs":[],"outputs":[],"stateMutability":"nonpayable"},{"type":"function","name":"renounceRole","inputs":[{"name":"role","type":"bytes32","internalType":"bytes32"},{"name":"callerConfirmation","type":"address","internalType":"address"}],"outputs":[],"stateMutability":"nonpayable"},{"type":"function","name":"revokeEventManagerRole","inputs":[{"name":"account","type":"address","internalType":"address"}],"outputs":[],"stateMutability":"nonpayable"},{"type":"function","name":"revokeRole","inputs":[{"name":"role","type":"bytes32","internalType":"bytes32"},{"name":"account","type":"address","internalType":"address"}],"outputs":[],"stateMutability":"nonpayable"},{"type":"function","name":"supportsInterface","inputs":[{"name":"interfaceId","type":"bytes4","internalType":"bytes4"}],"outputs":[{"name":"","type":"bool","internalType":"bool"}],"stateMutability":"view"},{"type":"function","name":"transferOwnership","inputs":[{"name":"newOwner","type":"address","internalType":"address"}],"outputs":[],"stateMutability":"nonpayable"},{"type":"function","name":"unregister","inputs":[{"name":"_eventId","type":"uint256","internalType":"uint256"},{"name":"_phaseId","type":"uint256","internalType":"uint256"},{"name":"_user","type":"address","internalType":"address"}],"outputs":[],"stateMutability":"nonpayable"},{"type":"event","name":"EventCreated","inputs":[{"name":"id","type":"uint256","indexed":true,"internalType":"uint256"},{"name":"name","type":"string","indexed":false,"internalType":"string"}],"anonymous":false},{"type":"event","name":"Initialized","inputs":[{"name":"version","type":"uint64","indexed":false,"internalType":"uint64"}],"anonymous":false},{"type":"event","name":"OwnershipTransferStarted","inputs":[{"name":"previousOwner","type":"address","indexed":true,"internalType":"address"},{"name":"newOwner","type":"address","indexed":true,"internalType":"address"}],"anonymous":false},{"type":"event","name":"OwnershipTransferred","inputs":[{"name":"previousOwner","type":"address","indexed":true,"internalType":"address"},{"name":"newOwner","type":"address","indexed":true,"internalType":"address"}],"anonymous":false},{"type":"event","name":"PhaseClosed","inputs":[{"name":"eventId","type":"uint256","indexed":true,"internalType":"uint256"},{"name":"phaseId","type":"uint256","indexed":true,"internalType":"uint256"}],"anonymous":false},{"type":"event","name":"PhaseOpened","inputs":[{"name":"eventId","type":"uint256","indexed":true,"internalType":"uint256"},{"name":"phaseId","type":"uint256","indexed":true,"internalType":"uint256"}],"anonymous":false},{"type":"event","name":"Registered","inputs":[{"name":"registrant","type":"address","indexed":true,"internalType":"address"},{"name":"eventId","type":"uint256","indexed":true,"internalType":"uint256"},{"name":"phaseId","type":"uint256","indexed":true,"internalType":"uint256"}],"anonymous":false},{"type":"event","name":"RoleAdminChanged","inputs":[{"name":"role","type":"bytes32","indexed":true,"internalType":"bytes32"},{"name":"previousAdminRole","type":"bytes32","indexed":true,"internalType":"bytes32"},{"name":"newAdminRole","type":"bytes32","indexed":true,"internalType":"bytes32"}],"anonymous":false},{"type":"event","name":"RoleGranted","inputs":[{"name":"role","type":"bytes32","indexed":true,"internalType":"bytes32"},{"name":"account","type":"address","indexed":true,"internalType":"address"},{"name":"sender","type":"address","indexed":true,"internalType":"address"}],"anonymous":false},{"type":"event","name":"RoleRevoked","inputs":[{"name":"role","type":"bytes32","indexed":true,"internalType":"bytes32"},{"name":"account","type":"address","indexed":true,"internalType":"address"},{"name":"sender","type":"address","indexed":true,"internalType":"address"}],"anonymous":false},{"type":"event","name":"Unregistered","inputs":[{"name":"registrant","type":"address","indexed":true,"internalType":"address"},{"name":"eventId","type":"uint256","indexed":true,"internalType":"uint256"},{"name":"phaseId","type":"uint256","indexed":true,"internalType":"uint256"}],"anonymous":false},{"type":"error","name":"AccessControlBadConfirmation","inputs":[]},{"type":"error","name":"AccessControlUnauthorizedAccount","inputs":[{"name":"account","type":"address","internalType":"address"},{"name":"neededRole","type":"bytes32","internalType":"bytes32"}]},{"type":"error","name":"INVALID_EVENT_ID","inputs":[]},{"type":"error","name":"INVALID_PHASE_ID","inputs":[]},{"type":"error","name":"InvalidInitialization","inputs":[]},{"type":"error","name":"NotInitializing","inputs":[]},{"type":"error","name":"OwnableInvalidOwner","inputs":[{"name":"owner","type":"address","internalType":"address"}]},{"type":"error","name":"OwnableUnauthorizedAccount","inputs":[{"name":"account","type":"address","internalType":"address"}]},{"type":"error","name":"PHASE_CLOSED","inputs":[]}],"bytecode":{"object":"0x608060405234801561000f575f80fd5b5061001a5f33610020565b506100ee565b5f8281527f02dd7bc7dec4dceedda775e58dd541e08a116c6c53815c0bd028192f7b626800602081815260408084206001600160a01b038616855290915282205460ff166100e3575f848152602082815260408083206001600160a01b03871684529091529020805460ff191660011790556100993390565b6001600160a01b0316836001600160a01b0316857f2f8788117e7eff1d82e926ec794901d17c78024a50270940304540a733656f0d60405160405180910390a460019150506100e8565b5f9150505b92915050565b6114ba806100fb5f395ff3fe608060405234801561000f575f80fd5b5060043610610187575f3560e01c80638129fc1c116100d9578063a903b49711610093578063d66d6c101161006e578063d66d6c1014610386578063da24490814610399578063e30c3978146103ac578063f2fde38b146103b4575f80fd5b8063a903b4971461034d578063b150f6fe14610360578063d547741f14610373575f80fd5b80638129fc1c146102e55780638da5cb5b146102ed57806391d148541461030d57806399eba6d4146103205780639a4d438514610333578063a217fddf14610346575f80fd5b806336568abe11610144578063594868731161011f57806359486873146102ae5780636d1884e0146102c2578063715018a6146102d557806379ba5097146102dd575f80fd5b806336568abe1461024e5780633b655aff146102615780633d6f48dd14610281575f80fd5b806301ffc9a71461018b57806305595f90146101b35780630b791430146101f15780631971bdfe14610213578063248a9ca3146102285780632f2ff15d1461023b575b5f80fd5b61019e61019936600461103b565b6103c7565b60405190151581526020015b60405180910390f35b6101e36101c1366004611084565b600260209081525f938452604080852082529284528284209052825290205481565b6040519081526020016101aa565b6102046101ff3660046110b6565b6103fd565b6040516101aa93929190611110565b610226610221366004611138565b6104a5565b005b6101e36102363660046110b6565b610519565b610226610249366004611158565b610539565b61022661025c366004611158565b61055b565b61027461026f366004611158565b610593565b6040516101aa9190611182565b61019e61028f366004611138565b600160209081525f928352604080842090915290825290205460ff1681565b6101e35f8051602061144583398151915281565b6102046102d03660046110b6565b610695565b6102266107a1565b6102266107b4565b610226610801565b6102f561092e565b6040516001600160a01b0390911681526020016101aa565b61019e61031b366004611158565b610962565b61022661032e366004611138565b610998565b6102266103413660046111db565b610a08565b6101e35f81565b61022661035b36600461128a565b610b27565b61022661036e366004611084565b610b4c565b610226610381366004611158565b610bca565b610226610394366004611138565b610be6565b6102266103a736600461128a565b610c7b565b6102f5610c9c565b6102266103c236600461128a565b610cc4565b5f6001600160e01b03198216637965db0b60e01b14806103f757506301ffc9a760e01b6001600160e01b03198316145b92915050565b5f602081905290815260409020805460018201805491929161041e906112a3565b80601f016020809104026020016040519081016040528092919081815260200182805461044a906112a3565b80156104955780601f1061046c57610100808354040283529160200191610495565b820191905f5260205f20905b81548152906001019060200180831161047857829003601f168201915b5050505050908060020154905083565b5f805160206114458339815191526104bc81610d49565b6104c68383610d53565b5f838152600160208181526040808420868552909152808320805460ff191690921790915551839185917f5c588add5e7e61632888747e2a2ee0a519035d1bc1dde887874ba79b121361089190a3505050565b5f9081525f80516020611465833981519152602052604090206001015490565b61054282610519565b61054b81610d49565b6105558383610dbd565b50505050565b6001600160a01b03811633146105845760405163334bd91960e11b815260040160405180910390fd5b61058e8282610e5e565b505050565b60605f831180156105a657506003548311155b6105c35760405163b790ffed60e01b815260040160405180910390fd5b5f838152602081905260409020600201548067ffffffffffffffff8111156105ed576105ed6111c7565b604051908082528060200260200182016040528015610616578160200160208202803683370190505b50915060015b81811161068d575f85815260026020908152604080832084845282528083206001600160a01b038816845290915290205415158361065b6001846112ef565b8151811061066b5761066b611302565b911515602092830291909101909101528061068581611316565b91505061061c565b505092915050565b5f60605f80841180156106aa57506003548411155b6106c75760405163b790ffed60e01b815260040160405180910390fd5b5f805f8681526020019081526020015f206040518060600160405290815f82015481526020016001820180546106fc906112a3565b80601f0160208091040260200160405190810160405280929190818152602001828054610728906112a3565b80156107735780601f1061074a57610100808354040283529160200191610773565b820191905f5260205f20905b81548152906001019060200180831161075657829003601f168201915b5050509183525050600291909101546020918201528151908201516040909201519097919650945092505050565b6107a9610ed7565b6107b25f610f09565b565b33806107be610c9c565b6001600160a01b0316146107f55760405163118cdaa760e01b81526001600160a01b03821660048201526024015b60405180910390fd5b6107fe81610f09565b50565b7ff0c57e16840df040f15088dc2f81fe391c3923bec73e23a9662efc9c229c6a008054600160401b810460ff16159067ffffffffffffffff165f811580156108465750825b90505f8267ffffffffffffffff1660011480156108625750303b155b905081158015610870575080155b1561088e5760405163f92ee8a960e01b815260040160405180910390fd5b845467ffffffffffffffff1916600117855583156108b857845460ff60401b1916600160401b1785555b6108c0610f41565b6108d75f8051602061144583398151915233610dbd565b506108e133610f09565b831561092757845460ff60401b19168555604051600181527fc7f505b2f371ae2175ee4913f4499e1f2633a7b5936321eed1cdaeb6115181d29060200160405180910390a15b5050505050565b5f807f9016d09d72d40fdae2fd8ceac6b6234c7706214fd39c1cd1e609a0528c1993005b546001600160a01b031692915050565b5f9182525f80516020611465833981519152602090815260408084206001600160a01b0393909316845291905290205460ff1690565b5f805160206114458339815191526109af81610d49565b6109b98383610d53565b5f838152600160209081526040808320858452909152808220805460ff1916905551839185917fef2e158490c6b144fca39862879b9941f80a29d0ee9b2f4cf528ca4d861a3cc09190a3505050565b5f80516020611445833981519152610a1f81610d49565b60038054905f610a2e83611316565b90915550506003546040805160608101825282815260208082018781528284018790525f858152918290529290208151815591519091906001820190610a749082611372565b506040919091015160029091015560015b838111610ae8575f828152600160209081526040808320848452909152808220805460ff1916905551829184917f5c588add5e7e61632888747e2a2ee0a519035d1bc1dde887874ba79b121361089190a380610ae081611316565b915050610a85565b50807f9ce3d6db707bca4ba0eabed8fba1e2c013a1c0bc1132a764170a7854d198c73d85604051610b199190611432565b60405180910390a250505050565b5f610b3181610d49565b610b485f8051602061144583398151915283610539565b5050565b5f80516020611445833981519152610b6381610d49565b610b6d8484610d53565b5f84815260026020908152604080832086845282528083206001600160a01b03861680855292528083208390555185928792917f743f43fbe8ff6d6517d66909307e701f949e29a6dc784e95d4ffd77150f8171e9190a450505050565b610bd382610519565b610bdc81610d49565b6105558383610e5e565b610bf08282610d53565b5f82815260016020908152604080832084845290915290205460ff16610c295760405163cc69084f60e01b815260040160405180910390fd5b5f82815260026020908152604080832084845282528083203380855292528083204290555183928592917fcda33a906ffa8a5f960826827500581f4613a5db7a84b250433e0d591a6309389190a45050565b5f610c8581610d49565b610b485f8051602061144583398151915283610bca565b5f807f237e158222e3e6968b72b9db0d8043aacf074ad9f650f0d1606b4d82ee432c00610952565b610ccc610ed7565b7f237e158222e3e6968b72b9db0d8043aacf074ad9f650f0d1606b4d82ee432c0080546001600160a01b0319166001600160a01b0383169081178255610d1061092e565b6001600160a01b03167f38d16b8cac22d99fc7c124b9cd0de2d3fa1faef420bfe791d8c362d765e2270060405160405180910390a35050565b6107fe8133610f49565b5f82118015610d6457506003548211155b610d815760405163b790ffed60e01b815260040160405180910390fd5b5f81118015610da057505f828152602081905260409020600201548111155b610b485760405163681f7e7760e01b815260040160405180910390fd5b5f5f80516020611465833981519152610dd68484610962565b610e55575f848152602082815260408083206001600160a01b03871684529091529020805460ff19166001179055610e0b3390565b6001600160a01b0316836001600160a01b0316857f2f8788117e7eff1d82e926ec794901d17c78024a50270940304540a733656f0d60405160405180910390a460019150506103f7565b5f9150506103f7565b5f5f80516020611465833981519152610e778484610962565b15610e55575f848152602082815260408083206001600160a01b0387168085529252808320805460ff1916905551339287917ff6391f5c32d9c69d2a47ea670b442974b53935d1edc7fd64eb21e047a839171b9190a460019150506103f7565b33610ee061092e565b6001600160a01b0316146107b25760405163118cdaa760e01b81523360048201526024016107ec565b7f237e158222e3e6968b72b9db0d8043aacf074ad9f650f0d1606b4d82ee432c0080546001600160a01b0319168155610b4882610f82565b6107b2610ff2565b610f538282610962565b610b485760405163e2517d3f60e01b81526001600160a01b0382166004820152602481018390526044016107ec565b7f9016d09d72d40fdae2fd8ceac6b6234c7706214fd39c1cd1e609a0528c19930080546001600160a01b031981166001600160a01b03848116918217845560405192169182907f8be0079c531659141344cd1fd0a4f28419497f9722a3daafe3b4186f6b6457e0905f90a3505050565b7ff0c57e16840df040f15088dc2f81fe391c3923bec73e23a9662efc9c229c6a0054600160401b900460ff166107b257604051631afcd79f60e31b815260040160405180910390fd5b5f6020828403121561104b575f80fd5b81356001600160e01b031981168114611062575f80fd5b9392505050565b80356001600160a01b038116811461107f575f80fd5b919050565b5f805f60608486031215611096575f80fd5b83359250602084013591506110ad60408501611069565b90509250925092565b5f602082840312156110c6575f80fd5b5035919050565b5f81518084525f5b818110156110f1576020818501810151868301820152016110d5565b505f602082860101526020601f19601f83011685010191505092915050565b838152606060208201525f61112860608301856110cd565b9050826040830152949350505050565b5f8060408385031215611149575f80fd5b50508035926020909101359150565b5f8060408385031215611169575f80fd5b8235915061117960208401611069565b90509250929050565b602080825282518282018190525f9190848201906040850190845b818110156111bb57835115158352928401929184019160010161119d565b50909695505050505050565b634e487b7160e01b5f52604160045260245ffd5b5f80604083850312156111ec575f80fd5b823567ffffffffffffffff80821115611203575f80fd5b818501915085601f830112611216575f80fd5b813581811115611228576112286111c7565b604051601f8201601f19908116603f01168101908382118183101715611250576112506111c7565b81604052828152886020848701011115611268575f80fd5b826020860160208301375f602093820184015298969091013596505050505050565b5f6020828403121561129a575f80fd5b61106282611069565b600181811c908216806112b757607f821691505b6020821081036112d557634e487b7160e01b5f52602260045260245ffd5b50919050565b634e487b7160e01b5f52601160045260245ffd5b818103818111156103f7576103f76112db565b634e487b7160e01b5f52603260045260245ffd5b5f60018201611327576113276112db565b5060010190565b601f82111561058e57805f5260205f20601f840160051c810160208510156113535750805b601f840160051c820191505b81811015610927575f815560010161135f565b815167ffffffffffffffff81111561138c5761138c6111c7565b6113a08161139a84546112a3565b8461132e565b602080601f8311600181146113d3575f84156113bc5750858301515b5f19600386901b1c1916600185901b17855561142a565b5f85815260208120601f198616915b82811015611401578886015182559484019460019091019084016113e2565b508582101561141e57878501515f19600388901b60f8161c191681555b505060018460011b0185555b505050505050565b602081525f61106260208301846110cd56fea961ef34a96635180dfffd0ae574060d6c6af619ce89175a103711bf5ce8270802dd7bc7dec4dceedda775e58dd541e08a116c6c53815c0bd028192f7b626800a2646970667358221220313f8d093cdf4ca82f0d6acd80341263c0860a1af28d5bc2808634d6569d0dae64736f6c63430008180033","linkReferences":{}},"methodIdentifiers":{"DEFAULT_ADMIN_ROLE()":"a217fddf","EVENT_MANAGER_ROLE()":"59486873","acceptOwnership()":"79ba5097","closePhase(uint256,uint256)":"99eba6d4","createEvent(string,uint256)":"9a4d4385","events(uint256)":"0b791430","getEvent(uint256)":"6d1884e0","getRegistrationStatus(uint256,address)":"3b655aff","getRoleAdmin(bytes32)":"248a9ca3","grantEventManagerRole(address)":"a903b497","grantRole(bytes32,address)":"2f2ff15d","hasRole(bytes32,address)":"91d14854","initialize()":"8129fc1c","openPhase(uint256,uint256)":"1971bdfe","owner()":"8da5cb5b","pendingOwner()":"e30c3978","phaseOpen(uint256,uint256)":"3d6f48dd","register(uint256,uint256)":"d66d6c10","registrations(uint256,uint256,address)":"05595f90","renounceOwnership()":"715018a6","renounceRole(bytes32,address)":"36568abe","revokeEventManagerRole(address)":"da244908","revokeRole(bytes32,address)":"d547741f","supportsInterface(bytes4)":"01ffc9a7","transferOwnership(address)":"f2fde38b","unregister(uint256,uint256,address)":"b150f6fe"},"id":0}