{"abi":[{"type":"function","name":"BADGE_ANDROIDS","inputs":[],"outputs":[{"name":"","type":"uint256","internalType":"uint256"}],"stateMutability":"view"},{"type":"function","name":"BADGE_BOUNCERS","inputs":[],"outputs":[{"name":"","type":"uint256","internalType":"uint256"}],"stateMutability":"view"},{"type":"function","name":"BADGE_DRUMMERS","inputs":[],"outputs":[{"name":"","type":"uint256","internalType":"uint256"}],"stateMutability":"view"},{"type":"function","name":"BADGE_MASTERS","inputs":[],"outputs":[{"name":"","type":"uint256","internalType":"uint256"}],"stateMutability":"view"},{"type":"function","name":"BADGE_MONKS","inputs":[],"outputs":[{"name":"","type":"uint256","internalType":"uint256"}],"stateMutability":"view"},{"type":"function","name":"BADGE_RAVERS","inputs":[],"outputs":[{"name":"","type":"uint256","internalType":"uint256"}],"stateMutability":"view"},{"type":"function","name":"BADGE_ROBOTS","inputs":[],"outputs":[{"name":"","type":"uint256","internalType":"uint256"}],"stateMutability":"view"},{"type":"function","name":"BADGE_SHINTO","inputs":[],"outputs":[{"name":"","type":"uint256","internalType":"uint256"}],"stateMutability":"view"},{"type":"function","name":"MOVEMENT_BASED","inputs":[],"outputs":[{"name":"","type":"uint256","internalType":"uint256"}],"stateMutability":"view"},{"type":"function","name":"MOVEMENT_BOOSTED","inputs":[],"outputs":[{"name":"","type":"uint256","internalType":"uint256"}],"stateMutability":"view"},{"type":"function","name":"MOVEMENT_NEUTRAL","inputs":[],"outputs":[{"name":"","type":"uint256","internalType":"uint256"}],"stateMutability":"view"},{"type":"function","name":"UPGRADE_INTERFACE_VERSION","inputs":[],"outputs":[{"name":"","type":"string","internalType":"string"}],"stateMutability":"view"},{"type":"function","name":"acceptOwnership","inputs":[],"outputs":[],"stateMutability":"nonpayable"},{"type":"function","name":"approve","inputs":[{"name":"to","type":"address","internalType":"address"},{"name":"tokenId","type":"uint256","internalType":"uint256"}],"outputs":[],"stateMutability":"nonpayable"},{"type":"function","name":"badgeBalances","inputs":[{"name":"_owner","type":"address","internalType":"address"}],"outputs":[{"name":"","type":"bool[]","internalType":"bool[]"}],"stateMutability":"view"},{"type":"function","name":"badgeBalancesV2","inputs":[{"name":"_owner","type":"address","internalType":"address"}],"outputs":[{"name":"balances","type":"bool[]","internalType":"bool[]"}],"stateMutability":"view"},{"type":"function","name":"badges","inputs":[{"name":"_tokenId","type":"uint256","internalType":"uint256"}],"outputs":[{"name":"_badgeId","type":"uint256","internalType":"uint256"}],"stateMutability":"view"},{"type":"function","name":"balanceOf","inputs":[{"name":"owner","type":"address","internalType":"address"}],"outputs":[{"name":"","type":"uint256","internalType":"uint256"}],"stateMutability":"view"},{"type":"function","name":"baseURI","inputs":[],"outputs":[{"name":"","type":"string","internalType":"string"}],"stateMutability":"view"},{"type":"function","name":"blacklist","inputs":[],"outputs":[{"name":"","type":"address","internalType":"contract IMinimalBlacklist"}],"stateMutability":"view"},{"type":"function","name":"canMint","inputs":[{"name":"_signature","type":"bytes","internalType":"bytes"},{"name":"_minter","type":"address","internalType":"address"},{"name":"_tokenId","type":"uint256","internalType":"uint256"}],"outputs":[{"name":"","type":"bool","internalType":"bool"}],"stateMutability":"view"},{"type":"function","name":"getApproved","inputs":[{"name":"tokenId","type":"uint256","internalType":"uint256"}],"outputs":[{"name":"","type":"address","internalType":"address"}],"stateMutability":"view"},{"type":"function","name":"getHash","inputs":[{"name":"_minter","type":"address","internalType":"address"},{"name":"_tokenId","type":"uint256","internalType":"uint256"}],"outputs":[{"name":"","type":"bytes32","internalType":"bytes32"}],"stateMutability":"pure"},{"type":"function","name":"getTokenId","inputs":[{"name":"_user","type":"address","internalType":"address"},{"name":"_badgeId","type":"uint256","internalType":"uint256"}],"outputs":[{"name":"","type":"uint256","internalType":"uint256"}],"stateMutability":"view"},{"type":"function","name":"initialize","inputs":[{"name":"_owner","type":"address","internalType":"address"},{"name":"_rootURI","type":"string","internalType":"string"},{"name":"_mintSigner","type":"address","internalType":"address"},{"name":"_blacklistAddress","type":"address","internalType":"contract IMinimalBlacklist"}],"outputs":[],"stateMutability":"nonpayable"},{"type":"function","name":"initialize","inputs":[{"name":"_owner","type":"address","internalType":"address"},{"name":"_mintSigner","type":"address","internalType":"address"},{"name":"_blacklist","type":"address","internalType":"contract IMinimalBlacklist"}],"outputs":[],"stateMutability":"nonpayable"},{"type":"function","name":"isApprovedForAll","inputs":[{"name":"owner","type":"address","internalType":"address"},{"name":"operator","type":"address","internalType":"address"}],"outputs":[{"name":"","type":"bool","internalType":"bool"}],"stateMutability":"view"},{"type":"function","name":"mint","inputs":[{"name":"_signature","type":"bytes","internalType":"bytes"},{"name":"_badgeId","type":"uint256","internalType":"uint256"}],"outputs":[],"stateMutability":"nonpayable"},{"type":"function","name":"mint","inputs":[{"name":"_signature","type":"bytes","internalType":"bytes"},{"name":"_minter","type":"address","internalType":"address"},{"name":"_badgeId","type":"uint256","internalType":"uint256"}],"outputs":[],"stateMutability":"nonpayable"},{"type":"function","name":"mintSigner","inputs":[],"outputs":[{"name":"","type":"address","internalType":"address"}],"stateMutability":"view"},{"type":"function","name":"minted","inputs":[{"name":"signatureHash","type":"bytes32","internalType":"bytes32"}],"outputs":[{"name":"hasMinted","type":"bool","internalType":"bool"}],"stateMutability":"view"},{"type":"function","name":"movementBadges","inputs":[{"name":"movementBadgeHash","type":"bytes32","internalType":"bytes32"},{"name":"","type":"uint256","internalType":"uint256"}],"outputs":[{"name":"movementBadge","type":"uint256","internalType":"uint256"}],"stateMutability":"view"},{"type":"function","name":"movements","inputs":[{"name":"_user","type":"address","internalType":"address"}],"outputs":[{"name":"_movement","type":"uint256","internalType":"uint256"}],"stateMutability":"view"},{"type":"function","name":"name","inputs":[],"outputs":[{"name":"","type":"string","internalType":"string"}],"stateMutability":"view"},{"type":"function","name":"owner","inputs":[],"outputs":[{"name":"","type":"address","internalType":"address"}],"stateMutability":"view"},{"type":"function","name":"ownerOf","inputs":[{"name":"tokenId","type":"uint256","internalType":"uint256"}],"outputs":[{"name":"","type":"address","internalType":"address"}],"stateMutability":"view"},{"type":"function","name":"pendingOwner","inputs":[],"outputs":[{"name":"","type":"address","internalType":"address"}],"stateMutability":"view"},{"type":"function","name":"proxiableUUID","inputs":[],"outputs":[{"name":"","type":"bytes32","internalType":"bytes32"}],"stateMutability":"view"},{"type":"function","name":"recruitmentContract","inputs":[],"outputs":[{"name":"","type":"address","internalType":"contract BadgeRecruitment"}],"stateMutability":"view"},{"type":"function","name":"recruitmentContractV2","inputs":[],"outputs":[{"name":"","type":"address","internalType":"contract BadgeRecruitmentV2"}],"stateMutability":"view"},{"type":"function","name":"recruitmentLockDuration","inputs":[],"outputs":[{"name":"","type":"uint256","internalType":"uint256"}],"stateMutability":"view"},{"type":"function","name":"renounceOwnership","inputs":[],"outputs":[],"stateMutability":"nonpayable"},{"type":"function","name":"resetMigration","inputs":[{"name":"_tokenId","type":"uint256","internalType":"uint256"},{"name":"_badgeId","type":"uint256","internalType":"uint256"},{"name":"_cycleId","type":"uint256","internalType":"uint256"}],"outputs":[],"stateMutability":"nonpayable"},{"type":"function","name":"safeTransferFrom","inputs":[{"name":"from","type":"address","internalType":"address"},{"name":"to","type":"address","internalType":"address"},{"name":"tokenId","type":"uint256","internalType":"uint256"}],"outputs":[],"stateMutability":"nonpayable"},{"type":"function","name":"safeTransferFrom","inputs":[{"name":"from","type":"address","internalType":"address"},{"name":"to","type":"address","internalType":"address"},{"name":"tokenId","type":"uint256","internalType":"uint256"},{"name":"data","type":"bytes","internalType":"bytes"}],"outputs":[],"stateMutability":"nonpayable"},{"type":"function","name":"season2EndTimestamp","inputs":[],"outputs":[{"name":"","type":"uint256","internalType":"uint256"}],"stateMutability":"view"},{"type":"function","name":"season3EndTimestamp","inputs":[],"outputs":[{"name":"","type":"uint256","internalType":"uint256"}],"stateMutability":"view"},{"type":"function","name":"setApprovalForAll","inputs":[{"name":"operator","type":"address","internalType":"address"},{"name":"approved","type":"bool","internalType":"bool"}],"outputs":[],"stateMutability":"nonpayable"},{"type":"function","name":"setMovement","inputs":[{"name":"_movementId","type":"uint256","internalType":"uint256"}],"outputs":[],"stateMutability":"nonpayable"},{"type":"function","name":"setMovement","inputs":[{"name":"_user","type":"address","internalType":"address"},{"name":"_movementId","type":"uint256","internalType":"uint256"}],"outputs":[],"stateMutability":"nonpayable"},{"type":"function","name":"setRecruitmentContract","inputs":[{"name":"_recruitmentContract","type":"address","internalType":"address"}],"outputs":[],"stateMutability":"nonpayable"},{"type":"function","name":"setRecruitmentContractV2","inputs":[{"name":"_recruitmentContractV2","type":"address","internalType":"address"}],"outputs":[],"stateMutability":"nonpayable"},{"type":"function","name":"setRecruitmentLockDuration","inputs":[{"name":"_duration","type":"uint256","internalType":"uint256"}],"outputs":[],"stateMutability":"nonpayable"},{"type":"function","name":"setSeason2EndTimestamp","inputs":[{"name":"_ts","type":"uint256","internalType":"uint256"}],"outputs":[],"stateMutability":"nonpayable"},{"type":"function","name":"setSeason3EndTimestamp","inputs":[{"name":"_ts","type":"uint256","internalType":"uint256"}],"outputs":[],"stateMutability":"nonpayable"},{"type":"function","name":"setUri","inputs":[{"name":"_uri","type":"string","internalType":"string"}],"outputs":[],"stateMutability":"nonpayable"},{"type":"function","name":"startRecruitment","inputs":[{"name":"","type":"uint256","internalType":"uint256"}],"outputs":[],"stateMutability":"nonpayable"},{"type":"function","name":"startRecruitment","inputs":[{"name":"_badgeId","type":"uint256","internalType":"uint256"},{"name":"_tokenId","type":"uint256","internalType":"uint256"}],"outputs":[],"stateMutability":"nonpayable"},{"type":"function","name":"supportsInterface","inputs":[{"name":"interfaceId","type":"bytes4","internalType":"bytes4"}],"outputs":[{"name":"","type":"bool","internalType":"bool"}],"stateMutability":"view"},{"type":"function","name":"symbol","inputs":[],"outputs":[{"name":"","type":"string","internalType":"string"}],"stateMutability":"view"},{"type":"function","name":"tokenByIndex","inputs":[{"name":"index","type":"uint256","internalType":"uint256"}],"outputs":[{"name":"","type":"uint256","internalType":"uint256"}],"stateMutability":"view"},{"type":"function","name":"tokenOfOwnerByIndex","inputs":[{"name":"owner","type":"address","internalType":"address"},{"name":"index","type":"uint256","internalType":"uint256"}],"outputs":[{"name":"","type":"uint256","internalType":"uint256"}],"stateMutability":"view"},{"type":"function","name":"tokenURI","inputs":[{"name":"_tokenId","type":"uint256","internalType":"uint256"}],"outputs":[{"name":"","type":"string","internalType":"string"}],"stateMutability":"view"},{"type":"function","name":"totalBadgeSupply","inputs":[],"outputs":[{"name":"balances","type":"uint256[]","internalType":"uint256[]"}],"stateMutability":"view"},{"type":"function","name":"totalSupply","inputs":[],"outputs":[{"name":"","type":"uint256","internalType":"uint256"}],"stateMutability":"view"},{"type":"function","name":"transferFrom","inputs":[{"name":"from","type":"address","internalType":"address"},{"name":"to","type":"address","internalType":"address"},{"name":"tokenId","type":"uint256","internalType":"uint256"}],"outputs":[],"stateMutability":"nonpayable"},{"type":"function","name":"transferOwnership","inputs":[{"name":"newOwner","type":"address","internalType":"address"}],"outputs":[],"stateMutability":"nonpayable"},{"type":"function","name":"unlockTimestamps","inputs":[{"name":"tokenId","type":"uint256","internalType":"uint256"}],"outputs":[{"name":"unlockTimestamp","type":"uint256","internalType":"uint256"}],"stateMutability":"view"},{"type":"function","name":"updateBlacklist","inputs":[{"name":"_blacklist","type":"address","internalType":"contract IMinimalBlacklist"}],"outputs":[],"stateMutability":"nonpayable"},{"type":"function","name":"updateMintSigner","inputs":[{"name":"_mintSigner","type":"address","internalType":"address"}],"outputs":[],"stateMutability":"nonpayable"},{"type":"function","name":"upgradeToAndCall","inputs":[{"name":"newImplementation","type":"address","internalType":"address"},{"name":"data","type":"bytes","internalType":"bytes"}],"outputs":[],"stateMutability":"payable"},{"type":"function","name":"userBadges","inputs":[{"name":"_user","type":"address","internalType":"address"},{"name":"_badgeId","type":"uint256","internalType":"uint256"}],"outputs":[{"name":"_tokenId","type":"uint256","internalType":"uint256"}],"stateMutability":"view"},{"type":"function","name":"version","inputs":[],"outputs":[{"name":"","type":"string","internalType":"string"}],"stateMutability":"pure"},{"type":"event","name":"Approval","inputs":[{"name":"owner","type":"address","indexed":true,"internalType":"address"},{"name":"approved","type":"address","indexed":true,"internalType":"address"},{"name":"tokenId","type":"uint256","indexed":true,"internalType":"uint256"}],"anonymous":false},{"type":"event","name":"ApprovalForAll","inputs":[{"name":"owner","type":"address","indexed":true,"internalType":"address"},{"name":"operator","type":"address","indexed":true,"internalType":"address"},{"name":"approved","type":"bool","indexed":false,"internalType":"bool"}],"anonymous":false},{"type":"event","name":"BadgeCreated","inputs":[{"name":"_tokenId","type":"uint256","indexed":false,"internalType":"uint256"},{"name":"_minter","type":"address","indexed":false,"internalType":"address"},{"name":"_badgeId","type":"uint256","indexed":false,"internalType":"uint256"}],"anonymous":false},{"type":"event","name":"BlacklistUpdated","inputs":[{"name":"_blacklist","type":"address","indexed":false,"internalType":"address"}],"anonymous":false},{"type":"event","name":"Initialized","inputs":[{"name":"version","type":"uint64","indexed":false,"internalType":"uint64"}],"anonymous":false},{"type":"event","name":"MintConsumed","inputs":[{"name":"_minter","type":"address","indexed":false,"internalType":"address"},{"name":"_tokenId","type":"uint256","indexed":false,"internalType":"uint256"}],"anonymous":false},{"type":"event","name":"MintSignerUpdated","inputs":[{"name":"_mintSigner","type":"address","indexed":false,"internalType":"address"}],"anonymous":false},{"type":"event","name":"MovementSet","inputs":[{"name":"_user","type":"address","indexed":false,"internalType":"address"},{"name":"_movementId","type":"uint256","indexed":false,"internalType":"uint256"}],"anonymous":false},{"type":"event","name":"OwnershipTransferStarted","inputs":[{"name":"previousOwner","type":"address","indexed":true,"internalType":"address"},{"name":"newOwner","type":"address","indexed":true,"internalType":"address"}],"anonymous":false},{"type":"event","name":"OwnershipTransferred","inputs":[{"name":"previousOwner","type":"address","indexed":true,"internalType":"address"},{"name":"newOwner","type":"address","indexed":true,"internalType":"address"}],"anonymous":false},{"type":"event","name":"Transfer","inputs":[{"name":"from","type":"address","indexed":true,"internalType":"address"},{"name":"to","type":"address","indexed":true,"internalType":"address"},{"name":"tokenId","type":"uint256","indexed":true,"internalType":"uint256"}],"anonymous":false},{"type":"event","name":"Upgraded","inputs":[{"name":"implementation","type":"address","indexed":true,"internalType":"address"}],"anonymous":false},{"type":"event","name":"UriSet","inputs":[{"name":"_uri","type":"string","indexed":false,"internalType":"string"}],"anonymous":false},{"type":"error","name":"ADDRESS_BLACKLISTED","inputs":[]},{"type":"error","name":"AddressEmptyCode","inputs":[{"name":"target","type":"address","internalType":"address"}]},{"type":"error","name":"BADGE_LOCKED","inputs":[]},{"type":"error","name":"BADGE_LOCKED_SEASON_2","inputs":[]},{"type":"error","name":"ERC1967InvalidImplementation","inputs":[{"name":"implementation","type":"address","internalType":"address"}]},{"type":"error","name":"ERC1967NonPayable","inputs":[]},{"type":"error","name":"ERC721EnumerableForbiddenBatchMint","inputs":[]},{"type":"error","name":"ERC721IncorrectOwner","inputs":[{"name":"sender","type":"address","internalType":"address"},{"name":"tokenId","type":"uint256","internalType":"uint256"},{"name":"owner","type":"address","internalType":"address"}]},{"type":"error","name":"ERC721InsufficientApproval","inputs":[{"name":"operator","type":"address","internalType":"address"},{"name":"tokenId","type":"uint256","internalType":"uint256"}]},{"type":"error","name":"ERC721InvalidApprover","inputs":[{"name":"approver","type":"address","internalType":"address"}]},{"type":"error","name":"ERC721InvalidOperator","inputs":[{"name":"operator","type":"address","internalType":"address"}]},{"type":"error","name":"ERC721InvalidOwner","inputs":[{"name":"owner","type":"address","internalType":"address"}]},{"type":"error","name":"ERC721InvalidReceiver","inputs":[{"name":"receiver","type":"address","internalType":"address"}]},{"type":"error","name":"ERC721InvalidSender","inputs":[{"name":"sender","type":"address","internalType":"address"}]},{"type":"error","name":"ERC721NonexistentToken","inputs":[{"name":"tokenId","type":"uint256","internalType":"uint256"}]},{"type":"error","name":"ERC721OutOfBoundsIndex","inputs":[{"name":"owner","type":"address","internalType":"address"},{"name":"index","type":"uint256","internalType":"uint256"}]},{"type":"error","name":"FailedInnerCall","inputs":[]},{"type":"error","name":"INVALID_BADGE_ID","inputs":[]},{"type":"error","name":"INVALID_INPUT","inputs":[]},{"type":"error","name":"INVALID_MOVEMENT_ID","inputs":[]},{"type":"error","name":"InvalidInitialization","inputs":[]},{"type":"error","name":"MINTER_NOT_WHITELISTED","inputs":[]},{"type":"error","name":"MINTS_EXCEEDED","inputs":[]},{"type":"error","name":"NOT_IMPLEMENTED","inputs":[]},{"type":"error","name":"NOT_OWNER","inputs":[]},{"type":"error","name":"NotInitializing","inputs":[]},{"type":"error","name":"ONLY_MINT_SIGNER","inputs":[]},{"type":"error","name":"OwnableInvalidOwner","inputs":[{"name":"owner","type":"address","internalType":"address"}]},{"type":"error","name":"OwnableUnauthorizedAccount","inputs":[{"name":"account","type":"address","internalType":"address"}]},{"type":"error","name":"RECRUITMENT_ALREADY_COMPLETED","inputs":[]},{"type":"error","name":"RECRUITMENT_LOCK_DURATION_NOT_SET","inputs":[]},{"type":"error","name":"RECRUITMENT_NOT_FOUND","inputs":[]},{"type":"error","name":"UUPSUnauthorizedCallContext","inputs":[]},{"type":"error","name":"UUPSUnsupportedProxiableUUID","inputs":[{"name":"slot","type":"bytes32","internalType":"bytes32"}]}],"bytecode":{"object":"0x60a06040523060805234801562000014575f80fd5b506200001f62000025565b620000d9565b7ff0c57e16840df040f15088dc2f81fe391c3923bec73e23a9662efc9c229c6a00805468010000000000000000900460ff1615620000765760405163f92ee8a960e01b815260040160405180910390fd5b80546001600160401b0390811614620000d65780546001600160401b0319166001600160401b0390811782556040519081527fc7f505b2f371ae2175ee4913f4499e1f2633a7b5936321eed1cdaeb6115181d29060200160405180910390a15b50565b608051613bcf620001005f395f81816120ac015281816120d501526122140152613bcf5ff3fe608060405260043610610415575f3560e01c80638e228b6411610220578063c0c53b8b11610129578063e84be852116100b3578063f2fde38b11610078578063f2fde38b14610bdc578063f571049b14610bfb578063f7da8ce314610c1a578063f896d3a014610c39578063ff2c26ec14610c58575f80fd5b8063e84be85214610b42578063e985e9c514610b61578063ed05582b14610b80578063f17af48d14610b9f578063f23ff9d914610bbd575f80fd5b8063d5def7c2116100f9578063d5def7c214610ac6578063d944061e14610ac6578063df91cc2314610ad9578063e1aff31214610b0f578063e30c397814610b2e575f80fd5b8063c0c53b8b14610a48578063c87b56dd14610a67578063c8860d9814610a86578063ca0259c014610aa5575f80fd5b8063a4b5fa56116101aa578063b4e7409f1161017a578063b4e7409f14610903578063b58c439e146109cc578063b88d4fde146109eb578063b8f88d6414610a0a578063bacb6d4e14610a29575f80fd5b8063a4b5fa5614610955578063a7fb03ab14610974578063ad3cb1cc14610988578063b378b448146109b8575f80fd5b806398e36d8b116101f057806398e36d8b146108d857806398ef238a146109035780639b642de1146109175780639cc2816414610507578063a22cb46514610936575f80fd5b80638e228b641461085b5780639224747d1461087a578063950290c8146108a557806395d89b41146108c4575f80fd5b806345d46748116103225780636c0360eb116102ac57806373e9c1f91161027c57806373e9c1f9146107d257806375b9c015146107f157806379ba5097146108055780638ccc5f80146108195780638da5cb5b14610847575f80fd5b80636c0360eb14610760578063700b1acd1461077457806370a082311461079f578063715018a6146107be575f80fd5b806352d1902d116102f257806352d1902d146106b857806354fd4d50146106cc578063599fdaa2146106f65780635c6f8ca3146107155780636352211e14610741575f80fd5b806345d467481461065d5780634808b109146106725780634f1ef286146106865780634f6ccce714610699575f80fd5b806323604864116103a35780632f745c59116103735780632f745c59146105cc5780633136964c146105eb57806332c8f5041461060a578063378b57041461061f57806342842e0e1461063e575f80fd5b8063236048641461055a57806323b872dd1461056f57806329f99b9f1461058e5780632f19062f146105ad575f80fd5b8063095ea7b3116103e9578063095ea7b3146104c65780630e0c8b0a146104e55780630f5f04bf1461050757806318160ddd1461051b5780631fcfe19c1461053b575f80fd5b80622576121461041957806301ffc9a71461043a57806306fdde031461046e578063081812fc1461048f575b5f80fd5b348015610424575f80fd5b5061043861043336600461335c565b610c77565b005b348015610445575f80fd5b506104596104543660046133b2565b610c86565b60405190151581526020015b60405180910390f35b348015610479575f80fd5b50610482610cb0565b604051610465919061341a565b34801561049a575f80fd5b506104ae6104a936600461342c565b610d51565b6040516001600160a01b039091168152602001610465565b3480156104d1575f80fd5b506104386104e0366004613457565b610d65565b3480156104f0575f80fd5b506104f9600681565b604051908152602001610465565b348015610512575f80fd5b506104f9600181565b348015610526575f80fd5b505f80516020613b7a833981519152546104f9565b348015610546575f80fd5b50610438610555366004613481565b610d70565b348015610565575f80fd5b506104f960675481565b34801561057a575f80fd5b506104386105893660046134d6565b610d88565b348015610599575f80fd5b506104f96105a8366004613457565b610e16565b3480156105b8575f80fd5b506104386105c736600461342c565b610e3d565b3480156105d7575f80fd5b506104f96105e6366004613457565b610e4a565b3480156105f6575f80fd5b506104f9610605366004613503565b610ebb565b348015610615575f80fd5b506104f960625481565b34801561062a575f80fd5b50610438610639366004613523565b610edd565b348015610649575f80fd5b506104386106583660046134d6565b610f3a565b348015610668575f80fd5b506104f960665481565b34801561067d575f80fd5b506104f9600781565b61043861069436600461353e565b610f54565b3480156106a4575f80fd5b506104f96106b336600461342c565b610f6f565b3480156106c3575f80fd5b506104f9610fe1565b3480156106d7575f80fd5b50604080518082019091526002815261563760f01b6020820152610482565b348015610701575f80fd5b506065546104ae906001600160a01b031681565b348015610720575f80fd5b5061073461072f366004613523565b610ffc565b604051610465919061358a565b34801561074c575f80fd5b506104ae61075b36600461342c565b6111b0565b34801561076b575f80fd5b506104826111ba565b34801561077f575f80fd5b506104f961078e366004613523565b60346020525f908152604090205481565b3480156107aa575f80fd5b506104f96107b9366004613523565b61124a565b3480156107c9575f80fd5b506104386112a2565b3480156107dd575f80fd5b506104386107ec3660046135cf565b6112b5565b3480156107fc575f80fd5b506104f9600581565b348015610810575f80fd5b50610438611373565b348015610824575f80fd5b5061045961083336600461342c565b60016020525f908152604090205460ff1681565b348015610852575f80fd5b506104ae6113b8565b348015610866575f80fd5b5061043861087536600461342c565b6113ec565b348015610885575f80fd5b506104f961089436600461342c565b60646020525f908152604090205481565b3480156108b0575f80fd5b506104386108bf36600461342c565b6113f9565b3480156108cf575f80fd5b50610482611412565b3480156108e3575f80fd5b506104f96108f236600461342c565b60336020525f908152604090205481565b34801561090e575f80fd5b506104f9600281565b348015610922575f80fd5b506104386109313660046135f8565b611450565b348015610941575f80fd5b5061043861095036600461363e565b611494565b348015610960575f80fd5b506002546104ae906001600160a01b031681565b34801561097f575f80fd5b506104f9600481565b348015610993575f80fd5b50610482604051806040016040528060058152602001640352e302e360dc1b81525081565b3480156109c3575f80fd5b506104f9600381565b3480156109d7575f80fd5b506104596109e6366004613481565b61149f565b3480156109f6575f80fd5b50610438610a05366004613675565b611566565b348015610a15575f80fd5b50610438610a243660046136dc565b61157d565b348015610a34575f80fd5b50610438610a4336600461342c565b6116eb565b348015610a53575f80fd5b50610438610a6236600461374c565b6116f8565b348015610a72575f80fd5b50610482610a8136600461342c565b611808565b348015610a91575f80fd5b506063546104ae906001600160a01b031681565b348015610ab0575f80fd5b50610ab9611880565b6040516104659190613794565b348015610ad1575f80fd5b506104f95f81565b348015610ae4575f80fd5b506104f9610af3366004613457565b603560209081525f928352604080842090915290825290205481565b348015610b1a575f80fd5b50610438610b2936600461342c565b61191a565b348015610b39575f80fd5b506104ae611927565b348015610b4d575f80fd5b50610438610b5c366004613523565b61194f565b348015610b6c575f80fd5b50610459610b7b3660046137cb565b611979565b348015610b8b575f80fd5b506104f9610b9a366004613457565b6119c5565b348015610baa575f80fd5b505f546104ae906001600160a01b031681565b348015610bc8575f80fd5b50610438610bd7366004613503565b611a1e565b348015610be7575f80fd5b50610438610bf6366004613523565b611ba3565b348015610c06575f80fd5b50610438610c15366004613523565b611c28565b348015610c25575f80fd5b50610734610c34366004613523565b611c7d565b348015610c44575f80fd5b50610438610c53366004613523565b611d9a565b348015610c63575f80fd5b50610438610c72366004613457565b611dc4565b610c82823383611dd6565b5050565b5f6001600160e01b0319821663780e9d6360e01b1480610caa5750610caa82611e8f565b92915050565b5f80516020613b3a8339815191528054606091908190610ccf906137f7565b80601f0160208091040260200160405190810160405280929190818152602001828054610cfb906137f7565b8015610d465780601f10610d1d57610100808354040283529160200191610d46565b820191905f5260205f20905b815481529060010190602001808311610d2957829003601f168201915b505050505091505090565b5f610d5b82611ede565b50610caa82611f15565b610c82828233611f4e565b610d78611f5b565b610d83838383611dd6565b505050565b6001600160a01b038216610db657604051633250574960e11b81525f60048201526024015b60405180910390fd5b5f610dc2838333611f8d565b9050836001600160a01b0316816001600160a01b031614610e10576040516364283d7b60e01b81526001600160a01b0380861660048301526024820184905282166044820152606401610dad565b50505050565b6001600160a01b03919091165f908152603560209081526040808320938352929052205490565b610e473382612028565b50565b5f5f80516020613b1a833981519152610e628461124a565b8310610e935760405163295f44f760e21b81526001600160a01b038516600482015260248101849052604401610dad565b6001600160a01b0384165f908152602091825260408082208583529092522054905092915050565b6036602052815f5260405f208160028110610ed4575f80fd5b01549150829050565b610ee5611f5b565b600280546001600160a01b0319166001600160a01b0383169081179091556040519081527f75cdf6842d867a09260947ac775619527788d913a79fc3b41da1815fa377af65906020015b60405180910390a150565b610d8383838360405180602001604052805f815250611566565b610f5c6120a1565b610f6582612145565b610c82828261214d565b5f5f80516020613b1a833981519152610f935f80516020613b7a8339815191525490565b8310610fbb5760405163295f44f760e21b81525f600482015260248101849052604401610dad565b806002018381548110610fd057610fd061382f565b905f5260205f200154915050919050565b5f610fea612209565b505f80516020613b5a83398151915290565b60408051600880825261012082019092526060915f9190602082016101008036833701905050905061102e835f610e16565b5f1415815f815181106110435761104361382f565b9115156020928302919091019091015261105e836001610e16565b5f1415816001815181106110745761107461382f565b9115156020928302919091019091015261108f836002610e16565b5f1415816002815181106110a5576110a561382f565b911515602092830291909101909101526110c0836003610e16565b5f1415816003815181106110d6576110d661382f565b911515602092830291909101909101526110f1836004610e16565b5f1415816004815181106111075761110761382f565b91151560209283029190910190910152611122836005610e16565b5f1415816005815181106111385761113861382f565b91151560209283029190910190910152611153836006610e16565b5f1415816006815181106111695761116961382f565b91151560209283029190910190910152611184836007610e16565b5f14158160078151811061119a5761119a61382f565b9115156020928302919091019091015292915050565b5f610caa82611ede565b6060603280546111c9906137f7565b80601f01602080910402602001604051908101604052809291908181526020018280546111f5906137f7565b80156112405780601f1061121757610100808354040283529160200191611240565b820191905f5260205f20905b81548152906001019060200180831161122357829003601f168201915b5050505050905090565b5f5f80516020613b3a8339815191526001600160a01b038316611282576040516322718ad960e21b81525f6004820152602401610dad565b6001600160a01b039092165f908152600390920160205250604090205490565b6112aa611f5b565b6112b35f612252565b565b336112bf846111b0565b6001600160a01b0316146112e6576040516338ebc58960e11b815260040160405180910390fd5b6065546001600160a01b0316637671afc0336040516001600160e01b031960e084901b1681526001600160a01b0390911660048201526024810186905260448101859052606481018490526084015f604051808303815f87803b15801561134b575f80fd5b505af115801561135d573d5f803e3d5ffd5b5050505f93845250506064602052506040812055565b338061137d611927565b6001600160a01b0316146113af5760405163118cdaa760e01b81526001600160a01b0382166004820152602401610dad565b610e4781612252565b5f807f9016d09d72d40fdae2fd8ceac6b6234c7706214fd39c1cd1e609a0528c1993005b546001600160a01b031692915050565b6113f4611f5b565b606755565b6040516343f6e4ab60e01b815260040160405180910390fd5b7f80bb2b638cc20bc4d0a60d66940f3ab4a00c1d7b313497ca82fb0b4ab007930180546060915f80516020613b3a83398151915291610ccf906137f7565b611458611f5b565b60326114648282613887565b507fd09d05534067f74dbc9e6af794edbd29e904d7698e428d0bc1378e45889acdd781604051610f2f919061341a565b610c8233838361228a565b60025460405163fe575a8760e01b81526001600160a01b0384811660048301525f92169063fe575a8790602401602060405180830381865afa1580156114e7573d5f803e3d5ffd5b505050506040513d601f19601f8201168201806040525081019061150b9190613946565b1561152957604051637874e36360e01b815260040160405180910390fd5b83516020808601919091205f9081526001909152604090205460ff161561155157505f61155f565b61155c848484612339565b90505b9392505050565b611571848484610d88565b610e108484848461236e565b7ff0c57e16840df040f15088dc2f81fe391c3923bec73e23a9662efc9c229c6a008054600160401b810460ff1615906001600160401b03165f811580156115c15750825b90505f826001600160401b031660011480156115dc5750303b155b9050811580156115ea575080155b156116085760405163f92ee8a960e01b815260040160405180910390fd5b845467ffffffffffffffff19166001178555831561163257845460ff60401b1916600160401b1785555b61168260405180604001604052806013815260200172547261696c626c617a6572732042616467657360681b815250604051806040016040528060038152602001622a212160e91b815250612494565b603261168e8982613887565b5061169a8988886124a6565b83156116e057845460ff60401b19168555604051600181527fc7f505b2f371ae2175ee4913f4499e1f2633a7b5936321eed1cdaeb6115181d29060200160405180910390a15b505050505050505050565b6116f3611f5b565b606255565b7ff0c57e16840df040f15088dc2f81fe391c3923bec73e23a9662efc9c229c6a008054600160401b810460ff1615906001600160401b03165f8115801561173c5750825b90505f826001600160401b031660011480156117575750303b155b905081158015611765575080155b156117835760405163f92ee8a960e01b815260040160405180910390fd5b845467ffffffffffffffff1916600117855583156117ad57845460ff60401b1916600160401b1785555b6117b88888886124a6565b83156117fe57845460ff60401b19168555604051600181527fc7f505b2f371ae2175ee4913f4499e1f2633a7b5936321eed1cdaeb6115181d29060200160405180910390a15b5050505050505050565b60605f60345f611817856111b0565b6001600160a01b0316815260208082019290925260409081015f9081205486825260339093522054909150603261184d836124fa565b611856836124fa565b6040516020016118689392919061397c565b60405160208183030381529060405292505050919050565b60605f6118985f80516020613b7a8339815191525490565b6040805160088082526101208201909252919250602082016101008036833701905050915060015b818111611915575f8181526033602052604090205483518490829081106118e9576118e961382f565b6020026020010180518091906118fe90613a3e565b90525081905061190d81613a3e565b9150506118c0565b505090565b611922611f5b565b606655565b5f807f237e158222e3e6968b72b9db0d8043aacf074ad9f650f0d1606b4d82ee432c006113dc565b611957611f5b565b606380546001600160a01b0319166001600160a01b0392909216919091179055565b6001600160a01b039182165f9081527f80bb2b638cc20bc4d0a60d66940f3ab4a00c1d7b313497ca82fb0b4ab00793056020908152604080832093909416825291909152205460ff1690565b604080516001600160a01b03841660208201529081018290525f9060600160408051601f198184030181528282528051602091820120908301520160405160208183030381529060405280519060200120905092915050565b5f81815260646020526040902054819015801590611a3d575060665442105b15611a5b57604051635119f4d360e11b815260040160405180910390fd5b6067545f82815260646020526040902054148015611a7a575060665442115b8015611a87575060675442105b15611aa55760405163f384830d60e01b815260040160405180910390fd5b6062545f03611ac7576040516321d9ef2160e21b815260040160405180910390fd5b33611ad1836111b0565b6001600160a01b031614611af8576040516338ebc58960e11b815260040160405180910390fd5b606654421015611b18576066545f83815260646020526040902055611b2a565b6067545f838152606460205260409020555b6065546001600160a01b031663a6471ecf336040516001600160e01b031960e084901b1681526001600160a01b03909116600482015260248101869052604481018590526064015f604051808303815f87803b158015611b88575f80fd5b505af1158015611b9a573d5f803e3d5ffd5b50505050505050565b611bab611f5b565b7f237e158222e3e6968b72b9db0d8043aacf074ad9f650f0d1606b4d82ee432c0080546001600160a01b0319166001600160a01b0383169081178255611bef6113b8565b6001600160a01b03167f38d16b8cac22d99fc7c124b9cd0de2d3fa1faef420bfe791d8c362d765e2270060405160405180910390a35050565b611c30611f5b565b5f80546001600160a01b0319166001600160a01b0383169081179091556040519081527f81c142d9a4b33dfaba82444370b6b077fc2cb507c30c41a7c967f695ed72651f90602001610f2f565b60605f611c898361124a565b90505f816001600160401b03811115611ca457611ca46132c0565b604051908082528060200260200182016040528015611ccd578160200160208202803683370190505b5090505f5b82811015611d0957611ce48582610e4a565b828281518110611cf657611cf661382f565b6020908102919091010152600101611cd2565b5060408051600880825261012082019092529060208201610100803683370190505092505f5b82811015611d92575f60335f848481518110611d4d57611d4d61382f565b602002602001015181526020019081526020015f205490506001858281518110611d7957611d7961382f565b9115156020928302919091019091015250600101611d2f565b505050919050565b611da2611f5b565b606580546001600160a01b0319166001600160a01b0392909216919091179055565b611dcc611f5b565b610c828282612028565b6007811115611df857604051635557cd3560e11b815260040160405180910390fd5b611e03838383612589565b5f611e195f80516020613b7a8339815191525490565b611e24906001613a56565b5f8181526033602052604090208390559050611e40838261261a565b604080518281526001600160a01b03851660208201529081018390527f73ec18fe90e8b3de52d7e88ff3108708ed0e9714e5327b038c182b64cedaae709060600160405180910390a150505050565b5f6001600160e01b031982166380ac58cd60e01b1480611ebf57506001600160e01b03198216635b5e139f60e01b145b80610caa57506301ffc9a760e01b6001600160e01b0319831614610caa565b5f80611ee98361267b565b90506001600160a01b038116610caa57604051637e27328960e01b815260048101849052602401610dad565b5f9081527f80bb2b638cc20bc4d0a60d66940f3ab4a00c1d7b313497ca82fb0b4ab007930460205260409020546001600160a01b031690565b610d8383838360016126b4565b33611f646113b8565b6001600160a01b0316146112b35760405163118cdaa760e01b8152336004820152602401610dad565b5f82815260646020526040812054839015801590611fac575060665442105b15611fca57604051635119f4d360e11b815260040160405180910390fd5b6067545f82815260646020526040902054148015611fe9575060665442115b8015611ff6575060675442105b156120145760405163f384830d60e01b815260040160405180910390fd5b61201f8585856127c7565b95945050505050565b600281111561204a57604051632c4d11b760e11b815260040160405180910390fd5b6001600160a01b0382165f81815260346020908152604091829020849055815192835282018390527fc8f3ae17becdf8c098ef081092d0420324d1318397bd7ac8e90d900c56a50a76910160405180910390a15050565b306001600160a01b037f000000000000000000000000000000000000000000000000000000000000000016148061212757507f00000000000000000000000000000000000000000000000000000000000000006001600160a01b031661211b5f80516020613b5a833981519152546001600160a01b031690565b6001600160a01b031614155b156112b35760405163703e46dd60e11b815260040160405180910390fd5b610e47611f5b565b816001600160a01b03166352d1902d6040518163ffffffff1660e01b8152600401602060405180830381865afa9250505080156121a7575060408051601f3d908101601f191682019092526121a491810190613a69565b60015b6121cf57604051634c9c8ce360e01b81526001600160a01b0383166004820152602401610dad565b5f80516020613b5a83398151915281146121ff57604051632a87526960e21b815260048101829052602401610dad565b610d838383612859565b306001600160a01b037f000000000000000000000000000000000000000000000000000000000000000016146112b35760405163703e46dd60e11b815260040160405180910390fd5b7f237e158222e3e6968b72b9db0d8043aacf074ad9f650f0d1606b4d82ee432c0080546001600160a01b0319168155610c82826128ae565b5f80516020613b3a8339815191526001600160a01b0383166122ca57604051630b61174360e31b81526001600160a01b0384166004820152602401610dad565b6001600160a01b038481165f818152600584016020908152604080832094881680845294825291829020805460ff191687151590811790915591519182527f17307eab39ab6107e8899845ad3d59bd9653f200f220920489ca2b5937696c31910160405180910390a350505050565b5f8061234584846119c5565b90505f612352828761291e565b50505f546001600160a01b039081169116149695505050505050565b6001600160a01b0383163b15610e1057604051630a85bd0160e11b81526001600160a01b0384169063150b7a02906123b0903390889087908790600401613a80565b6020604051808303815f875af19250505080156123ea575060408051601f3d908101601f191682019092526123e791810190613abc565b60015b612451573d808015612417576040519150601f19603f3d011682016040523d82523d5f602084013e61241c565b606091505b5080515f0361244957604051633250574960e11b81526001600160a01b0385166004820152602401610dad565b805181602001fd5b6001600160e01b03198116630a85bd0160e11b1461248d57604051633250574960e11b81526001600160a01b0385166004820152602401610dad565b5050505050565b61249c612967565b610c8282826129b0565b6124c46001600160a01b038416156124be5783612252565b33612252565b6124cc6129e0565b5f80546001600160a01b039384166001600160a01b0319918216179091556002805492909316911617905550565b60605f612506836129e8565b60010190505f816001600160401b03811115612524576125246132c0565b6040519080825280601f01601f19166020018201604052801561254e576020820181803683370190505b5090508181016020015b5f19016f181899199a1a9b1b9c1cb0b131b232b360811b600a86061a8153600a850494508461255857509392505050565b61259483838361149f565b6125b157604051639ea134e960e01b815260040160405180910390fd5b82516020808501919091205f9081526001808352604091829020805460ff1916909117905580516001600160a01b03851681529182018390527ff71d0afb6ca23454b34db8bf7baf45f79e8c2f41e5499375ea2289312b2d317b910160405180910390a1505050565b6001600160a01b03821661264357604051633250574960e11b81525f6004820152602401610dad565b5f61264f83835f611f8d565b90506001600160a01b03811615610d83576040516339e3563760e11b81525f6004820152602401610dad565b5f9081527f80bb2b638cc20bc4d0a60d66940f3ab4a00c1d7b313497ca82fb0b4ab007930260205260409020546001600160a01b031690565b5f80516020613b3a83398151915281806126d657506001600160a01b03831615155b15612797575f6126e585611ede565b90506001600160a01b038416158015906127115750836001600160a01b0316816001600160a01b031614155b801561272457506127228185611979565b155b1561274d5760405163a9fbf51f60e01b81526001600160a01b0385166004820152602401610dad565b82156127955784866001600160a01b0316826001600160a01b03167f8c5be1e5ebec7d5bd14f71427d1e84f3dd0314c0f7b2291e5b200ac8c7c3b92560405160405180910390a45b505b5f93845260040160205250506040902080546001600160a01b0319166001600160a01b0392909216919091179055565b5f828152606460205260408120548390158015906127e6575060665442105b1561280457604051635119f4d360e11b815260040160405180910390fd5b6067545f82815260646020526040902054148015612823575060665442115b8015612830575060675442105b1561284e5760405163f384830d60e01b815260040160405180910390fd5b61201f858585612abf565b61286282612af8565b6040516001600160a01b038316907fbc7cd75a20ee27fd9adebab32041f755214dbc6bffa90cc0225b39da2e5c2d3b905f90a28051156128a657610d838282612b5b565b610c82612bc4565b7f9016d09d72d40fdae2fd8ceac6b6234c7706214fd39c1cd1e609a0528c19930080546001600160a01b031981166001600160a01b03848116918217845560405192169182907f8be0079c531659141344cd1fd0a4f28419497f9722a3daafe3b4186f6b6457e0905f90a3505050565b5f805f8351604103612955576020840151604085015160608601515f1a61294788828585612be3565b955095509550505050612960565b505081515f91506002905b9250925092565b7ff0c57e16840df040f15088dc2f81fe391c3923bec73e23a9662efc9c229c6a0054600160401b900460ff166112b357604051631afcd79f60e31b815260040160405180910390fd5b6129b8612967565b5f80516020613b3a833981519152806129d18482613887565b5060018101610e108382613887565b6112b3612967565b5f8072184f03e93ff9f4daa797ed6e38ed64bf6a1f0160401b8310612a265772184f03e93ff9f4daa797ed6e38ed64bf6a1f0160401b830492506040015b6d04ee2d6d415b85acef81000000008310612a52576d04ee2d6d415b85acef8100000000830492506020015b662386f26fc100008310612a7057662386f26fc10000830492506010015b6305f5e1008310612a88576305f5e100830492506008015b6127108310612a9c57612710830492506004015b60648310612aae576064830492506002015b600a8310610caa5760010192915050565b5f82815260646020526040812054421015612aed57604051635119f4d360e11b815260040160405180910390fd5b61155c848484612cab565b806001600160a01b03163b5f03612b2d57604051634c9c8ce360e01b81526001600160a01b0382166004820152602401610dad565b5f80516020613b5a83398151915280546001600160a01b0319166001600160a01b0392909216919091179055565b60605f80846001600160a01b031684604051612b779190613ad7565b5f60405180830381855af49150503d805f8114612baf576040519150601f19603f3d011682016040523d82523d5f602084013e612bb4565b606091505b509150915061201f858383612d4e565b34156112b35760405163b398979f60e01b815260040160405180910390fd5b5f80807f7fffffffffffffffffffffffffffffff5d576e7357a4501ddfe92f46681b20a0841115612c1c57505f91506003905082612ca1565b604080515f808252602082018084528a905260ff891692820192909252606081018790526080810186905260019060a0016020604051602081039080840390855afa158015612c6d573d5f803e3d5ffd5b5050604051601f1901519150506001600160a01b038116612c9857505f925060019150829050612ca1565b92505f91508190505b9450945094915050565b6002545f906001600160a01b031663fe575a87336040516001600160e01b031960e084901b1681526001600160a01b039091166004820152602401602060405180830381865afa158015612d01573d5f803e3d5ffd5b505050506040513d601f19601f82011682018060405250810190612d259190613946565b15612d4357604051637874e36360e01b815260040160405180910390fd5b61155c848484612daa565b606082612d6357612d5e82612e13565b61155f565b8151158015612d7a57506001600160a01b0384163b155b15612da357604051639996b31560e01b81526001600160a01b0385166004820152602401610dad565b508061155f565b5f8060355f612db88661267b565b6001600160a01b03908116825260208083019390935260409182015f9081208882526033855283822080548352908552838220959095559088168152603583528181209354815292909152902083905561155c848484612e3c565b805115612e235780518082602001fd5b604051630a12f52160e11b815260040160405180910390fd5b5f80612e49858585612f32565b90506001600160a01b038116612ed057612ecb845f80516020613b7a83398151915280545f8381527f645e039705490088daad89bae25049a34f4a9072d398537b1ab2425f24cbed0360205260408120829055600182018355919091527fa42f15e5d656f8155fd7419d740a6073999f19cd6e061449ce4a257150545bf20155565b612ef3565b846001600160a01b0316816001600160a01b031614612ef357612ef38185613034565b6001600160a01b038516612f0f57612f0a846130d3565b61155c565b846001600160a01b0316816001600160a01b03161461155c5761155c85856131a0565b5f5f80516020613b3a83398151915281612f4b8561267b565b90506001600160a01b03841615612f6757612f678185876131f8565b6001600160a01b03811615612fa357612f825f865f806126b4565b6001600160a01b0381165f908152600383016020526040902080545f190190555b6001600160a01b03861615612fd3576001600160a01b0386165f9081526003830160205260409020805460010190555b5f85815260028301602052604080822080546001600160a01b0319166001600160a01b038a811691821790925591518893918516917fddf252ad1be2c89b69c2b068fc378daa952ba7f163c4a11628f55a4df523b3ef91a495945050505050565b5f80516020613b1a8339815191525f61304c8461124a565b5f84815260018401602052604090205490915080821461309f576001600160a01b0385165f9081526020848152604080832085845282528083205484845281842081905583526001860190915290208190555b505f92835260018201602090815260408085208590556001600160a01b039095168452918252838320908352905290812055565b5f80516020613b7a833981519152545f80516020613b1a833981519152905f906130ff90600190613af2565b5f84815260038401602052604081205460028501805493945090928490811061312a5761312a61382f565b905f5260205f20015490508084600201838154811061314b5761314b61382f565b5f9182526020808320909101929092558281526003860190915260408082208490558682528120556002840180548061318657613186613b05565b600190038181905f5260205f20015f905590555050505050565b5f80516020613b1a8339815191525f60016131ba8561124a565b6131c49190613af2565b6001600160a01b039094165f9081526020838152604080832087845282528083208690559482526001909301909252502055565b61320383838361325c565b610d83576001600160a01b03831661323157604051637e27328960e01b815260048101829052602401610dad565b60405163177e802f60e01b81526001600160a01b038316600482015260248101829052604401610dad565b5f6001600160a01b0383161580159061155c5750826001600160a01b0316846001600160a01b0316148061329557506132958484611979565b8061155c5750826001600160a01b03166132ae83611f15565b6001600160a01b031614949350505050565b634e487b7160e01b5f52604160045260245ffd5b5f82601f8301126132e3575f80fd5b81356001600160401b03808211156132fd576132fd6132c0565b604051601f8301601f19908116603f01168101908282118183101715613325576133256132c0565b8160405283815286602085880101111561333d575f80fd5b836020870160208301375f602085830101528094505050505092915050565b5f806040838503121561336d575f80fd5b82356001600160401b03811115613382575f80fd5b61338e858286016132d4565b95602094909401359450505050565b6001600160e01b031981168114610e47575f80fd5b5f602082840312156133c2575f80fd5b813561155f8161339d565b5f5b838110156133e75781810151838201526020016133cf565b50505f910152565b5f81518084526134068160208601602086016133cd565b601f01601f19169290920160200192915050565b602081525f61155f60208301846133ef565b5f6020828403121561343c575f80fd5b5035919050565b6001600160a01b0381168114610e47575f80fd5b5f8060408385031215613468575f80fd5b823561347381613443565b946020939093013593505050565b5f805f60608486031215613493575f80fd5b83356001600160401b038111156134a8575f80fd5b6134b4868287016132d4565b93505060208401356134c581613443565b929592945050506040919091013590565b5f805f606084860312156134e8575f80fd5b83356134f381613443565b925060208401356134c581613443565b5f8060408385031215613514575f80fd5b50508035926020909101359150565b5f60208284031215613533575f80fd5b813561155f81613443565b5f806040838503121561354f575f80fd5b823561355a81613443565b915060208301356001600160401b03811115613574575f80fd5b613580858286016132d4565b9150509250929050565b602080825282518282018190525f9190848201906040850190845b818110156135c35783511515835292840192918401916001016135a5565b50909695505050505050565b5f805f606084860312156135e1575f80fd5b505081359360208301359350604090920135919050565b5f60208284031215613608575f80fd5b81356001600160401b0381111561361d575f80fd5b613629848285016132d4565b949350505050565b8015158114610e47575f80fd5b5f806040838503121561364f575f80fd5b823561365a81613443565b9150602083013561366a81613631565b809150509250929050565b5f805f8060808587031215613688575f80fd5b843561369381613443565b935060208501356136a381613443565b92506040850135915060608501356001600160401b038111156136c4575f80fd5b6136d0878288016132d4565b91505092959194509250565b5f805f80608085870312156136ef575f80fd5b84356136fa81613443565b935060208501356001600160401b03811115613714575f80fd5b613720878288016132d4565b935050604085013561373181613443565b9150606085013561374181613443565b939692955090935050565b5f805f6060848603121561375e575f80fd5b833561376981613443565b9250602084013561377981613443565b9150604084013561378981613443565b809150509250925092565b602080825282518282018190525f9190848201906040850190845b818110156135c3578351835292840192918401916001016137af565b5f80604083850312156137dc575f80fd5b82356137e781613443565b9150602083013561366a81613443565b600181811c9082168061380b57607f821691505b60208210810361382957634e487b7160e01b5f52602260045260245ffd5b50919050565b634e487b7160e01b5f52603260045260245ffd5b601f821115610d8357805f5260205f20601f840160051c810160208510156138685750805b601f840160051c820191505b8181101561248d575f8155600101613874565b81516001600160401b038111156138a0576138a06132c0565b6138b4816138ae84546137f7565b84613843565b602080601f8311600181146138e7575f84156138d05750858301515b5f19600386901b1c1916600185901b17855561393e565b5f85815260208120601f198616915b82811015613915578886015182559484019460019091019084016138f6565b508582101561393257878501515f19600388901b60f8161c191681555b505060018460011b0185555b505050505050565b5f60208284031215613956575f80fd5b815161155f81613631565b5f81516139728185602086016133cd565b9290920192915050565b5f808554613989816137f7565b600182811680156139a157600181146139b6576139e2565b60ff19841687528215158302870194506139e2565b895f526020805f205f5b858110156139d95781548a8201529084019082016139c0565b50505082870194505b50505050602f60f81b81528451613a008160018401602089016133cd565b613a1f613a19600183850101602f60f81b815260010190565b86613961565b979650505050505050565b634e487b7160e01b5f52601160045260245ffd5b5f60018201613a4f57613a4f613a2a565b5060010190565b80820180821115610caa57610caa613a2a565b5f60208284031215613a79575f80fd5b5051919050565b6001600160a01b03858116825284166020820152604081018390526080606082018190525f90613ab2908301846133ef565b9695505050505050565b5f60208284031215613acc575f80fd5b815161155f8161339d565b5f8251613ae88184602087016133cd565b9190910192915050565b81810381811115610caa57610caa613a2a565b634e487b7160e01b5f52603160045260245ffdfe645e039705490088daad89bae25049a34f4a9072d398537b1ab2425f24cbed0080bb2b638cc20bc4d0a60d66940f3ab4a00c1d7b313497ca82fb0b4ab0079300360894a13ba1a3210667c828492db98dca3e2076cc3735a920a3ca505d382bbc645e039705490088daad89bae25049a34f4a9072d398537b1ab2425f24cbed02a264697066735822122052e33ab9df68a6eb711a06c7897626c3320f01a617e9f984398ab233262ede9d64736f6c63430008180033","linkReferences":{}},"methodIdentifiers":{"BADGE_ANDROIDS()":"0e0c8b0a","BADGE_BOUNCERS()":"98ef238a","BADGE_DRUMMERS()":"75b9c015","BADGE_MASTERS()":"b378b448","BADGE_MONKS()":"a7fb03ab","BADGE_RAVERS()":"d944061e","BADGE_ROBOTS()":"0f5f04bf","BADGE_SHINTO()":"4808b109","MOVEMENT_BASED()":"9cc28164","MOVEMENT_BOOSTED()":"b4e7409f","MOVEMENT_NEUTRAL()":"d5def7c2","UPGRADE_INTERFACE_VERSION()":"ad3cb1cc","acceptOwnership()":"79ba5097","approve(address,uint256)":"095ea7b3","badgeBalances(address)":"5c6f8ca3","badgeBalancesV2(address)":"f7da8ce3","badges(uint256)":"98e36d8b","balanceOf(address)":"70a08231","baseURI()":"6c0360eb","blacklist()":"a4b5fa56","canMint(bytes,address,uint256)":"b58c439e","getApproved(uint256)":"081812fc","getHash(address,uint256)":"ed05582b","getTokenId(address,uint256)":"29f99b9f","initialize(address,address,address)":"c0c53b8b","initialize(address,string,address,address)":"b8f88d64","isApprovedForAll(address,address)":"e985e9c5","mint(bytes,address,uint256)":"1fcfe19c","mint(bytes,uint256)":"00257612","mintSigner()":"f17af48d","minted(bytes32)":"8ccc5f80","movementBadges(bytes32,uint256)":"3136964c","movements(address)":"700b1acd","name()":"06fdde03","owner()":"8da5cb5b","ownerOf(uint256)":"6352211e","pendingOwner()":"e30c3978","proxiableUUID()":"52d1902d","recruitmentContract()":"c8860d98","recruitmentContractV2()":"599fdaa2","recruitmentLockDuration()":"32c8f504","renounceOwnership()":"715018a6","resetMigration(uint256,uint256,uint256)":"73e9c1f9","safeTransferFrom(address,address,uint256)":"42842e0e","safeTransferFrom(address,address,uint256,bytes)":"b88d4fde","season2EndTimestamp()":"45d46748","season3EndTimestamp()":"23604864","setApprovalForAll(address,bool)":"a22cb465","setMovement(address,uint256)":"ff2c26ec","setMovement(uint256)":"2f19062f","setRecruitmentContract(address)":"e84be852","setRecruitmentContractV2(address)":"f896d3a0","setRecruitmentLockDuration(uint256)":"bacb6d4e","setSeason2EndTimestamp(uint256)":"e1aff312","setSeason3EndTimestamp(uint256)":"8e228b64","setUri(string)":"9b642de1","startRecruitment(uint256)":"950290c8","startRecruitment(uint256,uint256)":"f23ff9d9","supportsInterface(bytes4)":"01ffc9a7","symbol()":"95d89b41","tokenByIndex(uint256)":"4f6ccce7","tokenOfOwnerByIndex(address,uint256)":"2f745c59","tokenURI(uint256)":"c87b56dd","totalBadgeSupply()":"ca0259c0","totalSupply()":"18160ddd","transferFrom(address,address,uint256)":"23b872dd","transferOwnership(address)":"f2fde38b","unlockTimestamps(uint256)":"9224747d","updateBlacklist(address)":"378b5704","updateMintSigner(address)":"f571049b","upgradeToAndCall(address,bytes)":"4f1ef286","userBadges(address,uint256)":"df91cc23","version()":"54fd4d50"},"storageLayout":{"storage":[{"astId":3275,"contract":"contracts/trailblazers-season-2/TrailblazersS1BadgesV7.sol:TrailblazersBadgesV7","label":"mintSigner","offset":0,"slot":"0","type":"t_address"},{"astId":3280,"contract":"contracts/trailblazers-season-2/TrailblazersS1BadgesV7.sol:TrailblazersBadgesV7","label":"minted","offset":0,"slot":"1","type":"t_mapping(t_bytes32,t_bool)"},{"astId":3284,"contract":"contracts/trailblazers-season-2/TrailblazersS1BadgesV7.sol:TrailblazersBadgesV7","label":"blacklist","offset":0,"slot":"2","type":"t_contract(IMinimalBlacklist)61422"},{"astId":3289,"contract":"contracts/trailblazers-season-2/TrailblazersS1BadgesV7.sol:TrailblazersBadgesV7","label":"__gap","offset":0,"slot":"3","type":"t_array(t_uint256)47_storage"},{"astId":3593,"contract":"contracts/trailblazers-season-2/TrailblazersS1BadgesV7.sol:TrailblazersBadgesV7","label":"_baseURIExtended","offset":0,"slot":"50","type":"t_string_storage"},{"astId":3598,"contract":"contracts/trailblazers-season-2/TrailblazersS1BadgesV7.sol:TrailblazersBadgesV7","label":"badges","offset":0,"slot":"51","type":"t_mapping(t_uint256,t_uint256)"},{"astId":3603,"contract":"contracts/trailblazers-season-2/TrailblazersS1BadgesV7.sol:TrailblazersBadgesV7","label":"movements","offset":0,"slot":"52","type":"t_mapping(t_address,t_uint256)"},{"astId":3610,"contract":"contracts/trailblazers-season-2/TrailblazersS1BadgesV7.sol:TrailblazersBadgesV7","label":"userBadges","offset":0,"slot":"53","type":"t_mapping(t_address,t_mapping(t_uint256,t_uint256))"},{"astId":3617,"contract":"contracts/trailblazers-season-2/TrailblazersS1BadgesV7.sol:TrailblazersBadgesV7","label":"movementBadges","offset":0,"slot":"54","type":"t_mapping(t_bytes32,t_array(t_uint256)2_storage)"},{"astId":3622,"contract":"contracts/trailblazers-season-2/TrailblazersS1BadgesV7.sol:TrailblazersBadgesV7","label":"__gap","offset":0,"slot":"55","type":"t_array(t_uint256)43_storage"},{"astId":6985,"contract":"contracts/trailblazers-season-2/TrailblazersS1BadgesV7.sol:TrailblazersBadgesV7","label":"recruitmentLockDuration","offset":0,"slot":"98","type":"t_uint256"},{"astId":6989,"contract":"contracts/trailblazers-season-2/TrailblazersS1BadgesV7.sol:TrailblazersBadgesV7","label":"recruitmentContract","offset":0,"slot":"99","type":"t_contract(BadgeRecruitment)5789"},{"astId":6994,"contract":"contracts/trailblazers-season-2/TrailblazersS1BadgesV7.sol:TrailblazersBadgesV7","label":"unlockTimestamps","offset":0,"slot":"100","type":"t_mapping(t_uint256,t_uint256)"},{"astId":7140,"contract":"contracts/trailblazers-season-2/TrailblazersS1BadgesV7.sol:TrailblazersBadgesV7","label":"recruitmentContractV2","offset":0,"slot":"101","type":"t_contract(BadgeRecruitmentV2)6139"},{"astId":7285,"contract":"contracts/trailblazers-season-2/TrailblazersS1BadgesV7.sol:TrailblazersBadgesV7","label":"season2EndTimestamp","offset":0,"slot":"102","type":"t_uint256"},{"astId":7287,"contract":"contracts/trailblazers-season-2/TrailblazersS1BadgesV7.sol:TrailblazersBadgesV7","label":"season3EndTimestamp","offset":0,"slot":"103","type":"t_uint256"}],"types":{"t_address":{"encoding":"inplace","label":"address","numberOfBytes":"20"},"t_array(t_uint256)2_storage":{"encoding":"inplace","label":"uint256[2]","numberOfBytes":"64","base":"t_uint256"},"t_array(t_uint256)43_storage":{"encoding":"inplace","label":"uint256[43]","numberOfBytes":"1376","base":"t_uint256"},"t_array(t_uint256)47_storage":{"encoding":"inplace","label":"uint256[47]","numberOfBytes":"1504","base":"t_uint256"},"t_bool":{"encoding":"inplace","label":"bool","numberOfBytes":"1"},"t_bytes32":{"encoding":"inplace","label":"bytes32","numberOfBytes":"32"},"t_contract(BadgeRecruitment)5789":{"encoding":"inplace","label":"contract BadgeRecruitment","numberOfBytes":"20"},"t_contract(BadgeRecruitmentV2)6139":{"encoding":"inplace","label":"contract BadgeRecruitmentV2","numberOfBytes":"20"},"t_contract(IMinimalBlacklist)61422":{"encoding":"inplace","label":"contract IMinimalBlacklist","numberOfBytes":"20"},"t_mapping(t_address,t_mapping(t_uint256,t_uint256))":{"encoding":"mapping","key":"t_address","label":"mapping(address => mapping(uint256 => uint256))","numberOfBytes":"32","value":"t_mapping(t_uint256,t_uint256)"},"t_mapping(t_address,t_uint256)":{"encoding":"mapping","key":"t_address","label":"mapping(address => uint256)","numberOfBytes":"32","value":"t_uint256"},"t_mapping(t_bytes32,t_array(t_uint256)2_storage)":{"encoding":"mapping","key":"t_bytes32","label":"mapping(bytes32 => uint256[2])","numberOfBytes":"32","value":"t_array(t_uint256)2_storage"},"t_mapping(t_bytes32,t_bool)":{"encoding":"mapping","key":"t_bytes32","label":"mapping(bytes32 => bool)","numberOfBytes":"32","value":"t_bool"},"t_mapping(t_uint256,t_uint256)":{"encoding":"mapping","key":"t_uint256","label":"mapping(uint256 => uint256)","numberOfBytes":"32","value":"t_uint256"},"t_string_storage":{"encoding":"bytes","label":"string","numberOfBytes":"32"},"t_uint256":{"encoding":"inplace","label":"uint256","numberOfBytes":"32"}}},"id":21}