{"abi":[{"type":"function","name":"DEFAULT_ADMIN_ROLE","inputs":[],"outputs":[{"name":"","type":"bytes32","internalType":"bytes32"}],"stateMutability":"view"},{"type":"function","name":"UPGRADE_INTERFACE_VERSION","inputs":[],"outputs":[{"name":"","type":"string","internalType":"string"}],"stateMutability":"view"},{"type":"function","name":"abortLeague","inputs":[],"outputs":[],"stateMutability":"nonpayable"},{"type":"function","name":"acceptOwnership","inputs":[],"outputs":[],"stateMutability":"nonpayable"},{"type":"function","name":"config","inputs":[],"outputs":[{"name":"leagueDuration","type":"uint64","internalType":"uint64"},{"name":"s1Badges","type":"address","internalType":"address"},{"name":"s2Badges","type":"address","internalType":"address"}],"stateMutability":"view"},{"type":"function","name":"currentLeagueId","inputs":[],"outputs":[{"name":"","type":"uint256","internalType":"uint256"}],"stateMutability":"view"},{"type":"function","name":"executeLeague","inputs":[{"name":"_seed","type":"uint256","internalType":"uint256"}],"outputs":[],"stateMutability":"nonpayable"},{"type":"function","name":"executeLeagueAndStartNext","inputs":[{"name":"_seed","type":"uint256","internalType":"uint256"}],"outputs":[],"stateMutability":"nonpayable"},{"type":"function","name":"getChampionId","inputs":[{"name":"_leagueId","type":"uint256","internalType":"uint256"},{"name":"_owner","type":"address","internalType":"address"},{"name":"_badgeSeason","type":"uint256","internalType":"uint256"},{"name":"_tokenId","type":"uint256","internalType":"uint256"}],"outputs":[{"name":"","type":"bytes32","internalType":"bytes32"}],"stateMutability":"pure"},{"type":"function","name":"getCurrentLeague","inputs":[],"outputs":[{"name":"league","type":"tuple","internalType":"struct FactionBattleArena.League","components":[{"name":"openTime","type":"uint256","internalType":"uint256"},{"name":"executeTime","type":"uint256","internalType":"uint256"},{"name":"seed","type":"uint256","internalType":"uint256"}]}],"stateMutability":"view"},{"type":"function","name":"getRoleAdmin","inputs":[{"name":"role","type":"bytes32","internalType":"bytes32"}],"outputs":[{"name":"","type":"bytes32","internalType":"bytes32"}],"stateMutability":"view"},{"type":"function","name":"grantRole","inputs":[{"name":"role","type":"bytes32","internalType":"bytes32"},{"name":"account","type":"address","internalType":"address"}],"outputs":[],"stateMutability":"nonpayable"},{"type":"function","name":"hasRole","inputs":[{"name":"role","type":"bytes32","internalType":"bytes32"},{"name":"account","type":"address","internalType":"address"}],"outputs":[{"name":"","type":"bool","internalType":"bool"}],"stateMutability":"view"},{"type":"function","name":"initialize","inputs":[{"name":"_config","type":"tuple","internalType":"struct FactionBattleArena.Config","components":[{"name":"leagueDuration","type":"uint64","internalType":"uint64"},{"name":"s1Badges","type":"address","internalType":"address"},{"name":"s2Badges","type":"address","internalType":"address"}]}],"outputs":[],"stateMutability":"nonpayable"},{"type":"function","name":"leagues","inputs":[{"name":"leagueId","type":"uint256","internalType":"uint256"}],"outputs":[{"name":"openTime","type":"uint256","internalType":"uint256"},{"name":"executeTime","type":"uint256","internalType":"uint256"},{"name":"seed","type":"uint256","internalType":"uint256"}],"stateMutability":"view"},{"type":"function","name":"owner","inputs":[],"outputs":[{"name":"","type":"address","internalType":"address"}],"stateMutability":"view"},{"type":"function","name":"paused","inputs":[],"outputs":[{"name":"","type":"bool","internalType":"bool"}],"stateMutability":"view"},{"type":"function","name":"pendingOwner","inputs":[],"outputs":[{"name":"","type":"address","internalType":"address"}],"stateMutability":"view"},{"type":"function","name":"proxiableUUID","inputs":[],"outputs":[{"name":"","type":"bytes32","internalType":"bytes32"}],"stateMutability":"view"},{"type":"function","name":"registerParticipant","inputs":[{"name":"_badgeSeason","type":"uint256","internalType":"uint256"},{"name":"_badgeId","type":"uint256","internalType":"uint256"},{"name":"_tokenId","type":"uint256","internalType":"uint256"}],"outputs":[],"stateMutability":"nonpayable"},{"type":"function","name":"renounceOwnership","inputs":[],"outputs":[],"stateMutability":"nonpayable"},{"type":"function","name":"renounceRole","inputs":[{"name":"role","type":"bytes32","internalType":"bytes32"},{"name":"callerConfirmation","type":"address","internalType":"address"}],"outputs":[],"stateMutability":"nonpayable"},{"type":"function","name":"revokeRole","inputs":[{"name":"role","type":"bytes32","internalType":"bytes32"},{"name":"account","type":"address","internalType":"address"}],"outputs":[],"stateMutability":"nonpayable"},{"type":"function","name":"startLeague","inputs":[{"name":"_startTs","type":"uint256","internalType":"uint256"}],"outputs":[],"stateMutability":"nonpayable"},{"type":"function","name":"startLeague","inputs":[],"outputs":[],"stateMutability":"nonpayable"},{"type":"function","name":"supportsInterface","inputs":[{"name":"interfaceId","type":"bytes4","internalType":"bytes4"}],"outputs":[{"name":"","type":"bool","internalType":"bool"}],"stateMutability":"view"},{"type":"function","name":"transferOwnership","inputs":[{"name":"newOwner","type":"address","internalType":"address"}],"outputs":[],"stateMutability":"nonpayable"},{"type":"function","name":"upgradeToAndCall","inputs":[{"name":"newImplementation","type":"address","internalType":"address"},{"name":"data","type":"bytes","internalType":"bytes"}],"outputs":[],"stateMutability":"payable"},{"type":"event","name":"Initialized","inputs":[{"name":"version","type":"uint64","indexed":false,"internalType":"uint64"}],"anonymous":false},{"type":"event","name":"LeagueCreated","inputs":[{"name":"leagueId","type":"uint256","indexed":true,"internalType":"uint256"},{"name":"openTime","type":"uint256","indexed":false,"internalType":"uint256"},{"name":"executeTime","type":"uint256","indexed":false,"internalType":"uint256"}],"anonymous":false},{"type":"event","name":"LeagueExecuted","inputs":[{"name":"leagueId","type":"uint256","indexed":false,"internalType":"uint256"},{"name":"seed","type":"uint256","indexed":false,"internalType":"uint256"}],"anonymous":false},{"type":"event","name":"OwnershipTransferStarted","inputs":[{"name":"previousOwner","type":"address","indexed":true,"internalType":"address"},{"name":"newOwner","type":"address","indexed":true,"internalType":"address"}],"anonymous":false},{"type":"event","name":"OwnershipTransferred","inputs":[{"name":"previousOwner","type":"address","indexed":true,"internalType":"address"},{"name":"newOwner","type":"address","indexed":true,"internalType":"address"}],"anonymous":false},{"type":"event","name":"ParticipantRegistered","inputs":[{"name":"leagueId","type":"uint256","indexed":true,"internalType":"uint256"},{"name":"owner","type":"address","indexed":true,"internalType":"address"},{"name":"participantId","type":"bytes32","indexed":false,"internalType":"bytes32"},{"name":"badgeSeason","type":"uint256","indexed":false,"internalType":"uint256"},{"name":"badgeId","type":"uint256","indexed":false,"internalType":"uint256"},{"name":"movementType","type":"uint8","indexed":false,"internalType":"enum FactionBattleArena.MovementType"},{"name":"tokenId","type":"uint256","indexed":false,"internalType":"uint256"}],"anonymous":false},{"type":"event","name":"Paused","inputs":[{"name":"account","type":"address","indexed":false,"internalType":"address"}],"anonymous":false},{"type":"event","name":"RoleAdminChanged","inputs":[{"name":"role","type":"bytes32","indexed":true,"internalType":"bytes32"},{"name":"previousAdminRole","type":"bytes32","indexed":true,"internalType":"bytes32"},{"name":"newAdminRole","type":"bytes32","indexed":true,"internalType":"bytes32"}],"anonymous":false},{"type":"event","name":"RoleGranted","inputs":[{"name":"role","type":"bytes32","indexed":true,"internalType":"bytes32"},{"name":"account","type":"address","indexed":true,"internalType":"address"},{"name":"sender","type":"address","indexed":true,"internalType":"address"}],"anonymous":false},{"type":"event","name":"RoleRevoked","inputs":[{"name":"role","type":"bytes32","indexed":true,"internalType":"bytes32"},{"name":"account","type":"address","indexed":true,"internalType":"address"},{"name":"sender","type":"address","indexed":true,"internalType":"address"}],"anonymous":false},{"type":"event","name":"Unpaused","inputs":[{"name":"account","type":"address","indexed":false,"internalType":"address"}],"anonymous":false},{"type":"event","name":"Upgraded","inputs":[{"name":"implementation","type":"address","indexed":true,"internalType":"address"}],"anonymous":false},{"type":"error","name":"AccessControlBadConfirmation","inputs":[]},{"type":"error","name":"AccessControlUnauthorizedAccount","inputs":[{"name":"account","type":"address","internalType":"address"},{"name":"neededRole","type":"bytes32","internalType":"bytes32"}]},{"type":"error","name":"AddressEmptyCode","inputs":[{"name":"target","type":"address","internalType":"address"}]},{"type":"error","name":"ERC1967InvalidImplementation","inputs":[{"name":"implementation","type":"address","internalType":"address"}]},{"type":"error","name":"ERC1967NonPayable","inputs":[]},{"type":"error","name":"EXECUTION_TOO_EARLY","inputs":[]},{"type":"error","name":"EnforcedPause","inputs":[]},{"type":"error","name":"ExpectedPause","inputs":[]},{"type":"error","name":"FailedInnerCall","inputs":[]},{"type":"error","name":"INVALID_SEASON","inputs":[]},{"type":"error","name":"InvalidInitialization","inputs":[]},{"type":"error","name":"NotInitializing","inputs":[]},{"type":"error","name":"OwnableInvalidOwner","inputs":[{"name":"owner","type":"address","internalType":"address"}]},{"type":"error","name":"OwnableUnauthorizedAccount","inputs":[{"name":"account","type":"address","internalType":"address"}]},{"type":"error","name":"TOKEN_ALREADY_REGISTERED","inputs":[]},{"type":"error","name":"TOKEN_NOT_OWNED","inputs":[]},{"type":"error","name":"UUPSUnauthorizedCallContext","inputs":[]},{"type":"error","name":"UUPSUnsupportedProxiableUUID","inputs":[{"name":"slot","type":"bytes32","internalType":"bytes32"}]}],"bytecode":{"object":"0x60a0604052306080525f600455348015610017575f80fd5b50608051611a0561003e5f395f818161111f0152818161114801526112870152611a055ff3fe6080604052600436106101af575f3560e01c806379ba5097116100e7578063c3b7a80f11610087578063d547741f11610062578063d547741f1461053e578063e30c39781461055d578063ef7f032f14610571578063f2fde38b14610590575f80fd5b8063c3b7a80f146104b7578063c648fefe146104cb578063ced2eafe1461051f575f80fd5b80639be259aa116100c25780639be259aa146104295780639d28532d14610448578063a217fddf14610467578063ad3cb1cc1461047a575f80fd5b806379ba5097146103ca5780638da5cb5b146103de57806391d148541461040a575f80fd5b80633971605e1161015257806352d1902d1161012d57806352d1902d146103045780635c975abb14610318578063715018a61461034e57806379502c5514610362575f80fd5b80633971605e146102c8578063496963b1146102dc5780634f1ef286146102f1575f80fd5b8063248a9ca31161018d578063248a9ca31461023e5780632f2ff15d1461026b57806336568abe1461028a578063388fc7a8146102a9575f80fd5b806301ffc9a7146101b35780630c1e1c1e146101e7578063224b4fd01461021d575b5f80fd5b3480156101be575f80fd5b506101d26101cd3660046115c8565b6105af565b60405190151581526020015b60405180910390f35b3480156101f2575f80fd5b506101fb6105bf565b60408051825181526020808401519082015291810151908201526060016101de565b348015610228575f80fd5b5061023c6102373660046115ef565b610620565b005b348015610249575f80fd5b5061025d6102583660046115ef565b610671565b6040519081526020016101de565b348015610276575f80fd5b5061023c61028536600461161a565b610691565b348015610295575f80fd5b5061023c6102a436600461161a565b6106b3565b3480156102b4575f80fd5b5061023c6102c33660046115ef565b6106eb565b3480156102d3575f80fd5b5061023c610730565b3480156102e7575f80fd5b5061025d60045481565b61023c6102ff3660046116b6565b61073a565b34801561030f575f80fd5b5061025d610759565b348015610323575f80fd5b507fcd5ed15c6e187e77e9aee88184c21f4f2182ab5827cb3b7e07fbedcd63f033005460ff166101d2565b348015610359575f80fd5b5061023c610774565b34801561036d575f80fd5b505f5460015461039a9167ffffffffffffffff8116916001600160a01b03600160401b9092048216911683565b6040805167ffffffffffffffff90941684526001600160a01b0392831660208501529116908201526060016101de565b3480156103d5575f80fd5b5061023c610785565b3480156103e9575f80fd5b506103f26107cf565b6040516001600160a01b0390911681526020016101de565b348015610415575f80fd5b506101d261042436600461161a565b610803565b348015610434575f80fd5b5061025d610443366004611758565b610839565b348015610453575f80fd5b5061023c6104623660046115ef565b61088f565b348015610472575f80fd5b5061025d5f81565b348015610485575f80fd5b506104aa604051806040016040528060058152602001640352e302e360dc1b81525081565b6040516101de91906117b4565b3480156104c2575f80fd5b5061023c6108d4565b3480156104d6575f80fd5b506105046104e53660046115ef565b600260208190525f918252604090912080546001820154919092015483565b604080519384526020840192909252908201526060016101de565b34801561052a575f80fd5b5061023c6105393660046117e6565b610919565b348015610549575f80fd5b5061023c61055836600461161a565b610a8b565b348015610568575f80fd5b506103f2610aa7565b34801561057c575f80fd5b5061023c61058b366004611844565b610acf565b34801561059b575f80fd5b5061023c6105aa36600461186d565b610dbd565b5f6105b982610e42565b92915050565b6105e060405180606001604052805f81526020015f81526020015f81525090565b60025f60045481526020019081526020015f206040518060600160405290815f820154815260200160018201548152602001600282015481525050905090565b610628610e76565b6004545f9081526002602052604090206001015442101561065c57604051631a0b977d60e21b815260040160405180910390fd5b61066581610ea8565b61066e42610f31565b50565b5f9081525f805160206119b0833981519152602052604090206001015490565b61069a82610671565b6106a381610ff0565b6106ad8383610ffa565b50505050565b6001600160a01b03811633146106dc5760405163334bd91960e11b815260040160405180910390fd5b6106e6828261109b565b505050565b6106f3610e76565b6004545f9081526002602052604090206001015442101561072757604051631a0b977d60e21b815260040160405180910390fd5b61066e81610f31565b610738610e76565b565b610742611114565b61074b826111b8565b61075582826111c0565b5050565b5f61076261127c565b505f8051602061199083398151915290565b61077c610e76565b6107385f6112c5565b338061078f610aa7565b6001600160a01b0316146107c65760405163118cdaa760e01b81526001600160a01b03821660048201526024015b60405180910390fd5b61066e816112c5565b5f807f9016d09d72d40fdae2fd8ceac6b6234c7706214fd39c1cd1e609a0528c1993005b546001600160a01b031692915050565b5f9182525f805160206119b0833981519152602090815260408084206001600160a01b0393909316845291905290205460ff1690565b6040516bffffffffffffffffffffffff19606085901b1660208201526034810183905260548101829052607481018590525f90609401604051602081830303815290604052805190602001209050949350505050565b610897610e76565b6004545f908152600260205260409020600101544210156108cb57604051631a0b977d60e21b815260040160405180910390fd5b61066e81610ea8565b6108dc610e76565b6004545f9081526002602052604090206001015442101561091057604051631a0b977d60e21b815260040160405180910390fd5b61073842610f31565b7ff0c57e16840df040f15088dc2f81fe391c3923bec73e23a9662efc9c229c6a008054600160401b810460ff16159067ffffffffffffffff165f8115801561095e5750825b90505f8267ffffffffffffffff16600114801561097a5750303b155b905081158015610988575080155b156109a65760405163f92ee8a960e01b815260040160405180910390fd5b845467ffffffffffffffff1916600117855583156109d057845460ff60401b1916600160401b1785555b6109d86112fd565b6109e25f33610ffa565b506109ec336112c5565b85515f8054602089015167ffffffffffffffff9093166001600160e01b031990911617600160401b6001600160a01b03938416021790556040870151600180546001600160a01b031916919092161790558315610a8357845460ff60401b19168555604051600181527fc7f505b2f371ae2175ee4913f4499e1f2633a7b5936321eed1cdaeb6115181d29060200160405180910390a15b505050505050565b610a9482610671565b610a9d81610ff0565b6106ad838361109b565b5f807f237e158222e3e6968b72b9db0d8043aacf074ad9f650f0d1606b4d82ee432c006107f3565b6004545f90815260036020908152604080832084845290915290205460ff1615610b0c5760405163fa0a0c2960e01b815260040160405180910390fd5b826001148015610b9a5750335f546040516331a9108f60e11b8152600481018490526001600160a01b0392831692600160401b90920490911690636352211e90602401602060405180830381865afa158015610b6a573d5f803e3d5ffd5b505050506040513d601f19601f82011682018060405250810190610b8e9190611888565b6001600160a01b031614155b15610bb857604051634e9806e960e01b815260040160405180910390fd5b826002148015610c4357506001546001600160a01b031662fdd58e336040516001600160e01b031960e084901b1681526001600160a01b03909116600482015260248101849052604401602060405180830381865afa158015610c1d573d5f803e3d5ffd5b505050506040513d601f19601f82011682018060405250810190610c4191906118a3565b155b15610c6157604051634e9806e960e01b815260040160405180910390fd5b6001831080610c705750600283115b15610c8e57604051636c0731a160e11b815260040160405180910390fd5b5f83600114610d2b57600180546040516346c1c31160e11b8152600481018590526001600160a01b0390911690638d83862290602401606060405180830381865afa158015610cdf573d5f803e3d5ffd5b505050506040513d601f19601f82011682018060405250810190610d0391906118ce565b604001516002811115610d1857610d186118ba565b14610d24576002610d2d565b6001610d2d565b5f5b90505f610d44600454610d3d3390565b8786610839565b9050336001600160a01b03166004547fb3935e4d646f556d594f68acec0656b4cd3d1fa5a1967cbe2b83f6a0259063328388888789604051610d8a959493929190611911565b60405180910390a350506004545f90815260036020908152604080832093835292905220805460ff191660011790555050565b610dc5610e76565b7f237e158222e3e6968b72b9db0d8043aacf074ad9f650f0d1606b4d82ee432c0080546001600160a01b0319166001600160a01b0383169081178255610e096107cf565b6001600160a01b03167f38d16b8cac22d99fc7c124b9cd0de2d3fa1faef420bfe791d8c362d765e2270060405160405180910390a35050565b5f6001600160e01b03198216637965db0b60e01b14806105b957506301ffc9a760e01b6001600160e01b03198316146105b9565b33610e7f6107cf565b6001600160a01b0316146107385760405163118cdaa760e01b81523360048201526024016107bd565b600480545f8181526002602081815260408084208151606081018352815481526001820180548286019081528285018b8152989097528585528151835595519095559451949092018490559354815190815293840192909252917f7bf23a388478abb3715d4f0e04d163040560efd0a952324f6d9a247ab4029034910160405180910390a15050565b600160045f828254610f439190611955565b909155505060408051606081019091528181525f546020820190610f719067ffffffffffffffff1684611955565b81525f6020918201819052600480548252600280845260408084208651815586860151600180830191909155968201519201919091559054808352918190208054940154815194855292840192909252917ffaabeab5116bbb2ebd8acf77ec1a8000fb995c8b51a051e430b529366bb3560c910160405180910390a250565b61066e8133611305565b5f5f805160206119b08339815191526110138484610803565b611092575f848152602082815260408083206001600160a01b03871684529091529020805460ff191660011790556110483390565b6001600160a01b0316836001600160a01b0316857f2f8788117e7eff1d82e926ec794901d17c78024a50270940304540a733656f0d60405160405180910390a460019150506105b9565b5f9150506105b9565b5f5f805160206119b08339815191526110b48484610803565b15611092575f848152602082815260408083206001600160a01b0387168085529252808320805460ff1916905551339287917ff6391f5c32d9c69d2a47ea670b442974b53935d1edc7fd64eb21e047a839171b9190a460019150506105b9565b306001600160a01b037f000000000000000000000000000000000000000000000000000000000000000016148061119a57507f00000000000000000000000000000000000000000000000000000000000000006001600160a01b031661118e5f80516020611990833981519152546001600160a01b031690565b6001600160a01b031614155b156107385760405163703e46dd60e11b815260040160405180910390fd5b61066e610e76565b816001600160a01b03166352d1902d6040518163ffffffff1660e01b8152600401602060405180830381865afa92505050801561121a575060408051601f3d908101601f19168201909252611217918101906118a3565b60015b61124257604051634c9c8ce360e01b81526001600160a01b03831660048201526024016107bd565b5f80516020611990833981519152811461127257604051632a87526960e21b8152600481018290526024016107bd565b6106e6838361133e565b306001600160a01b037f000000000000000000000000000000000000000000000000000000000000000016146107385760405163703e46dd60e11b815260040160405180910390fd5b7f237e158222e3e6968b72b9db0d8043aacf074ad9f650f0d1606b4d82ee432c0080546001600160a01b031916815561075582611393565b610738611403565b61130f8282610803565b6107555760405163e2517d3f60e01b81526001600160a01b0382166004820152602481018390526044016107bd565b6113478261144c565b6040516001600160a01b038316907fbc7cd75a20ee27fd9adebab32041f755214dbc6bffa90cc0225b39da2e5c2d3b905f90a280511561138b576106e682826114af565b610755611521565b7f9016d09d72d40fdae2fd8ceac6b6234c7706214fd39c1cd1e609a0528c19930080546001600160a01b031981166001600160a01b03848116918217845560405192169182907f8be0079c531659141344cd1fd0a4f28419497f9722a3daafe3b4186f6b6457e0905f90a3505050565b7ff0c57e16840df040f15088dc2f81fe391c3923bec73e23a9662efc9c229c6a0054600160401b900460ff1661073857604051631afcd79f60e31b815260040160405180910390fd5b806001600160a01b03163b5f0361148157604051634c9c8ce360e01b81526001600160a01b03821660048201526024016107bd565b5f8051602061199083398151915280546001600160a01b0319166001600160a01b0392909216919091179055565b60605f80846001600160a01b0316846040516114cb9190611974565b5f60405180830381855af49150503d805f8114611503576040519150601f19603f3d011682016040523d82523d5f602084013e611508565b606091505b5091509150611518858383611540565b95945050505050565b34156107385760405163b398979f60e01b815260040160405180910390fd5b606082611555576115508261159f565b611598565b815115801561156c57506001600160a01b0384163b155b1561159557604051639996b31560e01b81526001600160a01b03851660048201526024016107bd565b50805b9392505050565b8051156115af5780518082602001fd5b604051630a12f52160e11b815260040160405180910390fd5b5f602082840312156115d8575f80fd5b81356001600160e01b031981168114611598575f80fd5b5f602082840312156115ff575f80fd5b5035919050565b6001600160a01b038116811461066e575f80fd5b5f806040838503121561162b575f80fd5b82359150602083013561163d81611606565b809150509250929050565b634e487b7160e01b5f52604160045260245ffd5b6040516060810167ffffffffffffffff8111828210171561167f5761167f611648565b60405290565b604051601f8201601f1916810167ffffffffffffffff811182821017156116ae576116ae611648565b604052919050565b5f80604083850312156116c7575f80fd5b82356116d281611606565b915060208381013567ffffffffffffffff808211156116ef575f80fd5b818601915086601f830112611702575f80fd5b81358181111561171457611714611648565b611726601f8201601f19168501611685565b9150808252878482850101111561173b575f80fd5b80848401858401375f848284010152508093505050509250929050565b5f805f806080858703121561176b575f80fd5b84359350602085013561177d81611606565b93969395505050506040820135916060013590565b5f5b838110156117ac578181015183820152602001611794565b50505f910152565b602081525f82518060208401526117d2816040850160208701611792565b601f01601f19169190910160400192915050565b5f606082840312156117f6575f80fd5b6117fe61165c565b823567ffffffffffffffff81168114611815575f80fd5b8152602083013561182581611606565b6020820152604083013561183881611606565b60408201529392505050565b5f805f60608486031215611856575f80fd5b505081359360208301359350604090920135919050565b5f6020828403121561187d575f80fd5b813561159881611606565b5f60208284031215611898575f80fd5b815161159881611606565b5f602082840312156118b3575f80fd5b5051919050565b634e487b7160e01b5f52602160045260245ffd5b5f606082840312156118de575f80fd5b6118e661165c565b825181526020830151600881106118fb575f80fd5b6020820152604083015160038110611838575f80fd5b858152602081018590526040810184905260a081016003841061194257634e487b7160e01b5f52602160045260245ffd5b6060820193909352608001529392505050565b808201808211156105b957634e487b7160e01b5f52601160045260245ffd5b5f8251611985818460208701611792565b919091019291505056fe360894a13ba1a3210667c828492db98dca3e2076cc3735a920a3ca505d382bbc02dd7bc7dec4dceedda775e58dd541e08a116c6c53815c0bd028192f7b626800a2646970667358221220eea4a43e9773404f1a9a905968ab4d94a3d4358df083b7ca0a52f53d5f043c0e64736f6c63430008180033","linkReferences":{}},"methodIdentifiers":{"DEFAULT_ADMIN_ROLE()":"a217fddf","UPGRADE_INTERFACE_VERSION()":"ad3cb1cc","abortLeague()":"3971605e","acceptOwnership()":"79ba5097","config()":"79502c55","currentLeagueId()":"496963b1","executeLeague(uint256)":"9d28532d","executeLeagueAndStartNext(uint256)":"224b4fd0","getChampionId(uint256,address,uint256,uint256)":"9be259aa","getCurrentLeague()":"0c1e1c1e","getRoleAdmin(bytes32)":"248a9ca3","grantRole(bytes32,address)":"2f2ff15d","hasRole(bytes32,address)":"91d14854","initialize((uint64,address,address))":"ced2eafe","leagues(uint256)":"c648fefe","owner()":"8da5cb5b","paused()":"5c975abb","pendingOwner()":"e30c3978","proxiableUUID()":"52d1902d","registerParticipant(uint256,uint256,uint256)":"ef7f032f","renounceOwnership()":"715018a6","renounceRole(bytes32,address)":"36568abe","revokeRole(bytes32,address)":"d547741f","startLeague()":"c3b7a80f","startLeague(uint256)":"388fc7a8","supportsInterface(bytes4)":"01ffc9a7","transferOwnership(address)":"f2fde38b","upgradeToAndCall(address,bytes)":"4f1ef286"},"id":17}