{"abi":[{"type":"function","name":"BADGE_ANDROIDS","inputs":[],"outputs":[{"name":"","type":"uint256","internalType":"uint256"}],"stateMutability":"view"},{"type":"function","name":"BADGE_BOUNCERS","inputs":[],"outputs":[{"name":"","type":"uint256","internalType":"uint256"}],"stateMutability":"view"},{"type":"function","name":"BADGE_DRUMMERS","inputs":[],"outputs":[{"name":"","type":"uint256","internalType":"uint256"}],"stateMutability":"view"},{"type":"function","name":"BADGE_MASTERS","inputs":[],"outputs":[{"name":"","type":"uint256","internalType":"uint256"}],"stateMutability":"view"},{"type":"function","name":"BADGE_MONKS","inputs":[],"outputs":[{"name":"","type":"uint256","internalType":"uint256"}],"stateMutability":"view"},{"type":"function","name":"BADGE_RAVERS","inputs":[],"outputs":[{"name":"","type":"uint256","internalType":"uint256"}],"stateMutability":"view"},{"type":"function","name":"BADGE_ROBOTS","inputs":[],"outputs":[{"name":"","type":"uint256","internalType":"uint256"}],"stateMutability":"view"},{"type":"function","name":"BADGE_SHINTO","inputs":[],"outputs":[{"name":"","type":"uint256","internalType":"uint256"}],"stateMutability":"view"},{"type":"function","name":"MOVEMENT_BASED","inputs":[],"outputs":[{"name":"","type":"uint256","internalType":"uint256"}],"stateMutability":"view"},{"type":"function","name":"MOVEMENT_BOOSTED","inputs":[],"outputs":[{"name":"","type":"uint256","internalType":"uint256"}],"stateMutability":"view"},{"type":"function","name":"MOVEMENT_NEUTRAL","inputs":[],"outputs":[{"name":"","type":"uint256","internalType":"uint256"}],"stateMutability":"view"},{"type":"function","name":"UPGRADE_INTERFACE_VERSION","inputs":[],"outputs":[{"name":"","type":"string","internalType":"string"}],"stateMutability":"view"},{"type":"function","name":"acceptOwnership","inputs":[],"outputs":[],"stateMutability":"nonpayable"},{"type":"function","name":"approve","inputs":[{"name":"to","type":"address","internalType":"address"},{"name":"tokenId","type":"uint256","internalType":"uint256"}],"outputs":[],"stateMutability":"nonpayable"},{"type":"function","name":"badgeBalances","inputs":[{"name":"_owner","type":"address","internalType":"address"}],"outputs":[{"name":"","type":"bool[]","internalType":"bool[]"}],"stateMutability":"view"},{"type":"function","name":"badgeBalancesV2","inputs":[{"name":"_owner","type":"address","internalType":"address"}],"outputs":[{"name":"balances","type":"bool[]","internalType":"bool[]"}],"stateMutability":"view"},{"type":"function","name":"badges","inputs":[{"name":"_tokenId","type":"uint256","internalType":"uint256"}],"outputs":[{"name":"_badgeId","type":"uint256","internalType":"uint256"}],"stateMutability":"view"},{"type":"function","name":"balanceOf","inputs":[{"name":"owner","type":"address","internalType":"address"}],"outputs":[{"name":"","type":"uint256","internalType":"uint256"}],"stateMutability":"view"},{"type":"function","name":"baseURI","inputs":[],"outputs":[{"name":"","type":"string","internalType":"string"}],"stateMutability":"view"},{"type":"function","name":"blacklist","inputs":[],"outputs":[{"name":"","type":"address","internalType":"contract IMinimalBlacklist"}],"stateMutability":"view"},{"type":"function","name":"canMint","inputs":[{"name":"_signature","type":"bytes","internalType":"bytes"},{"name":"_minter","type":"address","internalType":"address"},{"name":"_tokenId","type":"uint256","internalType":"uint256"}],"outputs":[{"name":"","type":"bool","internalType":"bool"}],"stateMutability":"view"},{"type":"function","name":"getApproved","inputs":[{"name":"tokenId","type":"uint256","internalType":"uint256"}],"outputs":[{"name":"","type":"address","internalType":"address"}],"stateMutability":"view"},{"type":"function","name":"getCurrentSeasonEndTimestamp","inputs":[],"outputs":[{"name":"","type":"uint256","internalType":"uint256"}],"stateMutability":"view"},{"type":"function","name":"getCurrentSeasonId","inputs":[],"outputs":[{"name":"","type":"uint256","internalType":"uint256"}],"stateMutability":"view"},{"type":"function","name":"getHash","inputs":[{"name":"_minter","type":"address","internalType":"address"},{"name":"_tokenId","type":"uint256","internalType":"uint256"}],"outputs":[{"name":"","type":"bytes32","internalType":"bytes32"}],"stateMutability":"pure"},{"type":"function","name":"getTokenId","inputs":[{"name":"_user","type":"address","internalType":"address"},{"name":"_badgeId","type":"uint256","internalType":"uint256"}],"outputs":[{"name":"","type":"uint256","internalType":"uint256"}],"stateMutability":"view"},{"type":"function","name":"initialize","inputs":[{"name":"_owner","type":"address","internalType":"address"},{"name":"_rootURI","type":"string","internalType":"string"},{"name":"_mintSigner","type":"address","internalType":"address"},{"name":"_blacklistAddress","type":"address","internalType":"contract IMinimalBlacklist"}],"outputs":[],"stateMutability":"nonpayable"},{"type":"function","name":"initialize","inputs":[{"name":"_owner","type":"address","internalType":"address"},{"name":"_mintSigner","type":"address","internalType":"address"},{"name":"_blacklist","type":"address","internalType":"contract IMinimalBlacklist"}],"outputs":[],"stateMutability":"nonpayable"},{"type":"function","name":"isApprovedForAll","inputs":[{"name":"owner","type":"address","internalType":"address"},{"name":"operator","type":"address","internalType":"address"}],"outputs":[{"name":"","type":"bool","internalType":"bool"}],"stateMutability":"view"},{"type":"function","name":"isLocked","inputs":[{"name":"_tokenId","type":"uint256","internalType":"uint256"}],"outputs":[{"name":"","type":"bool","internalType":"bool"}],"stateMutability":"view"},{"type":"function","name":"lastKnownSeason","inputs":[],"outputs":[{"name":"","type":"uint256","internalType":"uint256"}],"stateMutability":"view"},{"type":"function","name":"mint","inputs":[{"name":"_signature","type":"bytes","internalType":"bytes"},{"name":"_badgeId","type":"uint256","internalType":"uint256"}],"outputs":[],"stateMutability":"nonpayable"},{"type":"function","name":"mint","inputs":[{"name":"_signature","type":"bytes","internalType":"bytes"},{"name":"_minter","type":"address","internalType":"address"},{"name":"_badgeId","type":"uint256","internalType":"uint256"}],"outputs":[],"stateMutability":"nonpayable"},{"type":"function","name":"mintSigner","inputs":[],"outputs":[{"name":"","type":"address","internalType":"address"}],"stateMutability":"view"},{"type":"function","name":"minted","inputs":[{"name":"signatureHash","type":"bytes32","internalType":"bytes32"}],"outputs":[{"name":"hasMinted","type":"bool","internalType":"bool"}],"stateMutability":"view"},{"type":"function","name":"movementBadges","inputs":[{"name":"movementBadgeHash","type":"bytes32","internalType":"bytes32"},{"name":"","type":"uint256","internalType":"uint256"}],"outputs":[{"name":"movementBadge","type":"uint256","internalType":"uint256"}],"stateMutability":"view"},{"type":"function","name":"movements","inputs":[{"name":"_user","type":"address","internalType":"address"}],"outputs":[{"name":"_movement","type":"uint256","internalType":"uint256"}],"stateMutability":"view"},{"type":"function","name":"name","inputs":[],"outputs":[{"name":"","type":"string","internalType":"string"}],"stateMutability":"view"},{"type":"function","name":"owner","inputs":[],"outputs":[{"name":"","type":"address","internalType":"address"}],"stateMutability":"view"},{"type":"function","name":"ownerOf","inputs":[{"name":"tokenId","type":"uint256","internalType":"uint256"}],"outputs":[{"name":"","type":"address","internalType":"address"}],"stateMutability":"view"},{"type":"function","name":"pendingOwner","inputs":[],"outputs":[{"name":"","type":"address","internalType":"address"}],"stateMutability":"view"},{"type":"function","name":"proxiableUUID","inputs":[],"outputs":[{"name":"","type":"bytes32","internalType":"bytes32"}],"stateMutability":"view"},{"type":"function","name":"recruitmentContract","inputs":[],"outputs":[{"name":"","type":"address","internalType":"contract BadgeRecruitment"}],"stateMutability":"view"},{"type":"function","name":"recruitmentContractV2","inputs":[],"outputs":[{"name":"","type":"address","internalType":"contract BadgeRecruitmentV2"}],"stateMutability":"view"},{"type":"function","name":"recruitmentLockDuration","inputs":[],"outputs":[{"name":"","type":"uint256","internalType":"uint256"}],"stateMutability":"view"},{"type":"function","name":"renounceOwnership","inputs":[],"outputs":[],"stateMutability":"nonpayable"},{"type":"function","name":"resetMigration","inputs":[{"name":"_tokenId","type":"uint256","internalType":"uint256"},{"name":"_badgeId","type":"uint256","internalType":"uint256"},{"name":"_cycleId","type":"uint256","internalType":"uint256"}],"outputs":[],"stateMutability":"nonpayable"},{"type":"function","name":"safeTransferFrom","inputs":[{"name":"from","type":"address","internalType":"address"},{"name":"to","type":"address","internalType":"address"},{"name":"tokenId","type":"uint256","internalType":"uint256"}],"outputs":[],"stateMutability":"nonpayable"},{"type":"function","name":"safeTransferFrom","inputs":[{"name":"from","type":"address","internalType":"address"},{"name":"to","type":"address","internalType":"address"},{"name":"tokenId","type":"uint256","internalType":"uint256"},{"name":"data","type":"bytes","internalType":"bytes"}],"outputs":[],"stateMutability":"nonpayable"},{"type":"function","name":"season2EndTimestamp","inputs":[],"outputs":[{"name":"","type":"uint256","internalType":"uint256"}],"stateMutability":"view"},{"type":"function","name":"season3EndTimestamp","inputs":[],"outputs":[{"name":"","type":"uint256","internalType":"uint256"}],"stateMutability":"view"},{"type":"function","name":"seasonEndTimestamps","inputs":[{"name":"season","type":"uint256","internalType":"uint256"}],"outputs":[{"name":"endTimestamp","type":"uint256","internalType":"uint256"}],"stateMutability":"view"},{"type":"function","name":"setApprovalForAll","inputs":[{"name":"operator","type":"address","internalType":"address"},{"name":"approved","type":"bool","internalType":"bool"}],"outputs":[],"stateMutability":"nonpayable"},{"type":"function","name":"setMovement","inputs":[{"name":"_movementId","type":"uint256","internalType":"uint256"}],"outputs":[],"stateMutability":"nonpayable"},{"type":"function","name":"setMovement","inputs":[{"name":"_user","type":"address","internalType":"address"},{"name":"_movementId","type":"uint256","internalType":"uint256"}],"outputs":[],"stateMutability":"nonpayable"},{"type":"function","name":"setRecruitmentContract","inputs":[{"name":"_recruitmentContract","type":"address","internalType":"address"}],"outputs":[],"stateMutability":"nonpayable"},{"type":"function","name":"setRecruitmentContractV2","inputs":[{"name":"_recruitmentContractV2","type":"address","internalType":"address"}],"outputs":[],"stateMutability":"nonpayable"},{"type":"function","name":"setRecruitmentLockDuration","inputs":[{"name":"_duration","type":"uint256","internalType":"uint256"}],"outputs":[],"stateMutability":"nonpayable"},{"type":"function","name":"setSeason2EndTimestamp","inputs":[{"name":"_ts","type":"uint256","internalType":"uint256"}],"outputs":[],"stateMutability":"nonpayable"},{"type":"function","name":"setSeason3EndTimestamp","inputs":[{"name":"_ts","type":"uint256","internalType":"uint256"}],"outputs":[],"stateMutability":"nonpayable"},{"type":"function","name":"setSeasonEndTimestamp","inputs":[{"name":"_season","type":"uint256","internalType":"uint256"},{"name":"_timestamp","type":"uint256","internalType":"uint256"}],"outputs":[],"stateMutability":"nonpayable"},{"type":"function","name":"setUri","inputs":[{"name":"_uri","type":"string","internalType":"string"}],"outputs":[],"stateMutability":"nonpayable"},{"type":"function","name":"startRecruitment","inputs":[{"name":"","type":"uint256","internalType":"uint256"}],"outputs":[],"stateMutability":"nonpayable"},{"type":"function","name":"startRecruitment","inputs":[{"name":"_badgeId","type":"uint256","internalType":"uint256"},{"name":"_tokenId","type":"uint256","internalType":"uint256"}],"outputs":[],"stateMutability":"nonpayable"},{"type":"function","name":"supportsInterface","inputs":[{"name":"interfaceId","type":"bytes4","internalType":"bytes4"}],"outputs":[{"name":"","type":"bool","internalType":"bool"}],"stateMutability":"view"},{"type":"function","name":"symbol","inputs":[],"outputs":[{"name":"","type":"string","internalType":"string"}],"stateMutability":"view"},{"type":"function","name":"tokenByIndex","inputs":[{"name":"index","type":"uint256","internalType":"uint256"}],"outputs":[{"name":"","type":"uint256","internalType":"uint256"}],"stateMutability":"view"},{"type":"function","name":"tokenOfOwnerByIndex","inputs":[{"name":"owner","type":"address","internalType":"address"},{"name":"index","type":"uint256","internalType":"uint256"}],"outputs":[{"name":"","type":"uint256","internalType":"uint256"}],"stateMutability":"view"},{"type":"function","name":"tokenURI","inputs":[{"name":"_tokenId","type":"uint256","internalType":"uint256"}],"outputs":[{"name":"","type":"string","internalType":"string"}],"stateMutability":"view"},{"type":"function","name":"totalBadgeSupply","inputs":[],"outputs":[{"name":"balances","type":"uint256[]","internalType":"uint256[]"}],"stateMutability":"view"},{"type":"function","name":"totalSupply","inputs":[],"outputs":[{"name":"","type":"uint256","internalType":"uint256"}],"stateMutability":"view"},{"type":"function","name":"transferFrom","inputs":[{"name":"from","type":"address","internalType":"address"},{"name":"to","type":"address","internalType":"address"},{"name":"tokenId","type":"uint256","internalType":"uint256"}],"outputs":[],"stateMutability":"nonpayable"},{"type":"function","name":"transferOwnership","inputs":[{"name":"newOwner","type":"address","internalType":"address"}],"outputs":[],"stateMutability":"nonpayable"},{"type":"function","name":"unlockTimestamps","inputs":[{"name":"tokenId","type":"uint256","internalType":"uint256"}],"outputs":[{"name":"unlockTimestamp","type":"uint256","internalType":"uint256"}],"stateMutability":"view"},{"type":"function","name":"updateBlacklist","inputs":[{"name":"_blacklist","type":"address","internalType":"contract IMinimalBlacklist"}],"outputs":[],"stateMutability":"nonpayable"},{"type":"function","name":"updateMintSigner","inputs":[{"name":"_mintSigner","type":"address","internalType":"address"}],"outputs":[],"stateMutability":"nonpayable"},{"type":"function","name":"upgradeToAndCall","inputs":[{"name":"newImplementation","type":"address","internalType":"address"},{"name":"data","type":"bytes","internalType":"bytes"}],"outputs":[],"stateMutability":"payable"},{"type":"function","name":"userBadges","inputs":[{"name":"_user","type":"address","internalType":"address"},{"name":"_badgeId","type":"uint256","internalType":"uint256"}],"outputs":[{"name":"_tokenId","type":"uint256","internalType":"uint256"}],"stateMutability":"view"},{"type":"function","name":"version","inputs":[],"outputs":[{"name":"","type":"string","internalType":"string"}],"stateMutability":"pure"},{"type":"event","name":"Approval","inputs":[{"name":"owner","type":"address","indexed":true,"internalType":"address"},{"name":"approved","type":"address","indexed":true,"internalType":"address"},{"name":"tokenId","type":"uint256","indexed":true,"internalType":"uint256"}],"anonymous":false},{"type":"event","name":"ApprovalForAll","inputs":[{"name":"owner","type":"address","indexed":true,"internalType":"address"},{"name":"operator","type":"address","indexed":true,"internalType":"address"},{"name":"approved","type":"bool","indexed":false,"internalType":"bool"}],"anonymous":false},{"type":"event","name":"BadgeCreated","inputs":[{"name":"_tokenId","type":"uint256","indexed":false,"internalType":"uint256"},{"name":"_minter","type":"address","indexed":false,"internalType":"address"},{"name":"_badgeId","type":"uint256","indexed":false,"internalType":"uint256"}],"anonymous":false},{"type":"event","name":"BlacklistUpdated","inputs":[{"name":"_blacklist","type":"address","indexed":false,"internalType":"address"}],"anonymous":false},{"type":"event","name":"Initialized","inputs":[{"name":"version","type":"uint64","indexed":false,"internalType":"uint64"}],"anonymous":false},{"type":"event","name":"MintConsumed","inputs":[{"name":"_minter","type":"address","indexed":false,"internalType":"address"},{"name":"_tokenId","type":"uint256","indexed":false,"internalType":"uint256"}],"anonymous":false},{"type":"event","name":"MintSignerUpdated","inputs":[{"name":"_mintSigner","type":"address","indexed":false,"internalType":"address"}],"anonymous":false},{"type":"event","name":"MovementSet","inputs":[{"name":"_user","type":"address","indexed":false,"internalType":"address"},{"name":"_movementId","type":"uint256","indexed":false,"internalType":"uint256"}],"anonymous":false},{"type":"event","name":"OwnershipTransferStarted","inputs":[{"name":"previousOwner","type":"address","indexed":true,"internalType":"address"},{"name":"newOwner","type":"address","indexed":true,"internalType":"address"}],"anonymous":false},{"type":"event","name":"OwnershipTransferred","inputs":[{"name":"previousOwner","type":"address","indexed":true,"internalType":"address"},{"name":"newOwner","type":"address","indexed":true,"internalType":"address"}],"anonymous":false},{"type":"event","name":"Transfer","inputs":[{"name":"from","type":"address","indexed":true,"internalType":"address"},{"name":"to","type":"address","indexed":true,"internalType":"address"},{"name":"tokenId","type":"uint256","indexed":true,"internalType":"uint256"}],"anonymous":false},{"type":"event","name":"Upgraded","inputs":[{"name":"implementation","type":"address","indexed":true,"internalType":"address"}],"anonymous":false},{"type":"event","name":"UriSet","inputs":[{"name":"_uri","type":"string","indexed":false,"internalType":"string"}],"anonymous":false},{"type":"error","name":"ADDRESS_BLACKLISTED","inputs":[]},{"type":"error","name":"AddressEmptyCode","inputs":[{"name":"target","type":"address","internalType":"address"}]},{"type":"error","name":"BADGE_LOCKED","inputs":[]},{"type":"error","name":"BADGE_LOCKED_SEASON_2","inputs":[]},{"type":"error","name":"BADGE_STILL_LOCKED","inputs":[{"name":"seasonId","type":"uint256","internalType":"uint256"},{"name":"seasonEnd","type":"uint256","internalType":"uint256"},{"name":"ts","type":"uint256","internalType":"uint256"}]},{"type":"error","name":"ERC1967InvalidImplementation","inputs":[{"name":"implementation","type":"address","internalType":"address"}]},{"type":"error","name":"ERC1967NonPayable","inputs":[]},{"type":"error","name":"ERC721EnumerableForbiddenBatchMint","inputs":[]},{"type":"error","name":"ERC721IncorrectOwner","inputs":[{"name":"sender","type":"address","internalType":"address"},{"name":"tokenId","type":"uint256","internalType":"uint256"},{"name":"owner","type":"address","internalType":"address"}]},{"type":"error","name":"ERC721InsufficientApproval","inputs":[{"name":"operator","type":"address","internalType":"address"},{"name":"tokenId","type":"uint256","internalType":"uint256"}]},{"type":"error","name":"ERC721InvalidApprover","inputs":[{"name":"approver","type":"address","internalType":"address"}]},{"type":"error","name":"ERC721InvalidOperator","inputs":[{"name":"operator","type":"address","internalType":"address"}]},{"type":"error","name":"ERC721InvalidOwner","inputs":[{"name":"owner","type":"address","internalType":"address"}]},{"type":"error","name":"ERC721InvalidReceiver","inputs":[{"name":"receiver","type":"address","internalType":"address"}]},{"type":"error","name":"ERC721InvalidSender","inputs":[{"name":"sender","type":"address","internalType":"address"}]},{"type":"error","name":"ERC721NonexistentToken","inputs":[{"name":"tokenId","type":"uint256","internalType":"uint256"}]},{"type":"error","name":"ERC721OutOfBoundsIndex","inputs":[{"name":"owner","type":"address","internalType":"address"},{"name":"index","type":"uint256","internalType":"uint256"}]},{"type":"error","name":"FailedInnerCall","inputs":[]},{"type":"error","name":"INVALID_BADGE_ID","inputs":[]},{"type":"error","name":"INVALID_INPUT","inputs":[]},{"type":"error","name":"INVALID_MOVEMENT_ID","inputs":[]},{"type":"error","name":"InvalidInitialization","inputs":[]},{"type":"error","name":"MINTER_NOT_WHITELISTED","inputs":[]},{"type":"error","name":"MINTS_EXCEEDED","inputs":[]},{"type":"error","name":"NOT_IMPLEMENTED","inputs":[]},{"type":"error","name":"NOT_OWNER","inputs":[]},{"type":"error","name":"NO_ACTIVE_SEASON","inputs":[]},{"type":"error","name":"NotInitializing","inputs":[]},{"type":"error","name":"ONLY_MINT_SIGNER","inputs":[]},{"type":"error","name":"OwnableInvalidOwner","inputs":[{"name":"owner","type":"address","internalType":"address"}]},{"type":"error","name":"OwnableUnauthorizedAccount","inputs":[{"name":"account","type":"address","internalType":"address"}]},{"type":"error","name":"RECRUITMENT_ALREADY_COMPLETED","inputs":[]},{"type":"error","name":"RECRUITMENT_LOCK_DURATION_NOT_SET","inputs":[]},{"type":"error","name":"RECRUITMENT_NOT_FOUND","inputs":[]},{"type":"error","name":"UUPSUnauthorizedCallContext","inputs":[]},{"type":"error","name":"UUPSUnsupportedProxiableUUID","inputs":[{"name":"slot","type":"bytes32","internalType":"bytes32"}]}],"bytecode":{"object":"0x60a06040523060805234801562000014575f80fd5b506200001f62000025565b620000d9565b7ff0c57e16840df040f15088dc2f81fe391c3923bec73e23a9662efc9c229c6a00805468010000000000000000900460ff1615620000765760405163f92ee8a960e01b815260040160405180910390fd5b80546001600160401b0390811614620000d65780546001600160401b0319166001600160401b0390811782556040519081527fc7f505b2f371ae2175ee4913f4499e1f2633a7b5936321eed1cdaeb6115181d29060200160405180910390a15b50565b608051613cb5620001005f395f818161225d0152818161228601526123c50152613cb55ff3fe608060405260043610610457575f3560e01c80638da5cb5b11610241578063c76422ff11610134578063e985e9c5116100b3578063f571049b11610078578063f571049b14610cc5578063f6aacfb114610ce4578063f7da8ce314610d03578063f896d3a014610d22578063ff2c26ec14610d41575f80fd5b8063e985e9c514610c2b578063ed05582b14610c4a578063f17af48d14610c69578063f23ff9d914610c87578063f2fde38b14610ca6575f80fd5b8063d944061e116100f9578063d944061e14610b90578063df91cc2314610ba3578063e1aff31214610bd9578063e30c397814610bf8578063e84be85214610c0c575f80fd5b8063c76422ff14610b06578063c87b56dd14610b31578063c8860d9814610b50578063ca0259c014610b6f578063d5def7c214610b90575f80fd5b8063a4b5fa56116101c0578063b58c439e11610185578063b58c439e14610a6b578063b88d4fde14610a8a578063b8f88d6414610aa9578063bacb6d4e14610ac8578063c0c53b8b14610ae7575f80fd5b8063a4b5fa56146109f4578063a7fb03ab14610a13578063ad3cb1cc14610a27578063b378b44814610a57578063b4e7409f146109a2575f80fd5b806398e36d8b1161020657806398e36d8b1461097757806398ef238a146109a25780639b642de1146109b65780639cc281641461055d578063a22cb465146109d5575f80fd5b80638da5cb5b146108e65780638e228b64146108fa5780639224747d14610919578063950290c81461094457806395d89b4114610963575f80fd5b806342842e0e116103595780636352211e116102d857806373e9c1f91161029d57806373e9c1f91461085c57806375b9c0151461087b57806379ba50971461088f5780637b85f161146108a35780638ccc5f80146108b8575f80fd5b80636352211e146107cb5780636c0360eb146107ea578063700b1acd146107fe57806370a0823114610829578063715018a614610848575f80fd5b806352d1902d1161031e57806352d1902d1461072d57806354fd4d5014610741578063599fdaa21461076c5780635c6f8ca31461078b5780635e75a6c3146107b7575f80fd5b806342842e0e146106b357806345d46748146106d25780634808b109146106e75780634f1ef286146106fb5780634f6ccce71461070e575f80fd5b80631fcfe19c116103e55780632f19062f116103aa5780632f19062f146106225780632f745c59146106415780633136964c1461066057806332c8f5041461067f578063378b570414610694575f80fd5b80631fcfe19c1461059157806323604864146105b057806323b872dd146105c5578063275b629e146105e457806329f99b9f14610603575f80fd5b8063081812fc1161042b578063081812fc146104f3578063095ea7b31461052a5780630e0c8b0a146105495780630f5f04bf1461055d57806318160ddd14610571575f80fd5b80622576121461045b57806301ffc9a71461047c57806303cfb2fa146104b057806306fdde03146104d2575b5f80fd5b348015610466575f80fd5b5061047a610475366004613442565b610d60565b005b348015610487575f80fd5b5061049b610496366004613498565b610d6f565b60405190151581526020015b60405180910390f35b3480156104bb575f80fd5b506104c4610d99565b6040519081526020016104a7565b3480156104dd575f80fd5b506104e6610db7565b6040516104a79190613500565b3480156104fe575f80fd5b5061051261050d366004613512565b610e58565b6040516001600160a01b0390911681526020016104a7565b348015610535575f80fd5b5061047a61054436600461353d565b610e6c565b348015610554575f80fd5b506104c4600681565b348015610568575f80fd5b506104c4600181565b34801561057c575f80fd5b505f80516020613c60833981519152546104c4565b34801561059c575f80fd5b5061047a6105ab366004613567565b610e77565b3480156105bb575f80fd5b506104c460675481565b3480156105d0575f80fd5b5061047a6105df3660046135bc565b610e8f565b3480156105ef575f80fd5b5061047a6105fe3660046135e9565b610f1d565b34801561060e575f80fd5b506104c461061d36600461353d565b610f45565b34801561062d575f80fd5b5061047a61063c366004613512565b610f6c565b34801561064c575f80fd5b506104c461065b36600461353d565b610f79565b34801561066b575f80fd5b506104c461067a3660046135e9565b610fea565b34801561068a575f80fd5b506104c460625481565b34801561069f575f80fd5b5061047a6106ae366004613609565b61100c565b3480156106be575f80fd5b5061047a6106cd3660046135bc565b611069565b3480156106dd575f80fd5b506104c460665481565b3480156106f2575f80fd5b506104c4600781565b61047a610709366004613624565b611083565b348015610719575f80fd5b506104c4610728366004613512565b61109e565b348015610738575f80fd5b506104c4611110565b34801561074c575f80fd5b5060408051808201909152600381526256313160e81b60208201526104e6565b348015610777575f80fd5b50606554610512906001600160a01b031681565b348015610796575f80fd5b506107aa6107a5366004613609565b61112b565b6040516104a79190613670565b3480156107c2575f80fd5b506104c46112df565b3480156107d6575f80fd5b506105126107e5366004613512565b611331565b3480156107f5575f80fd5b506104e661133b565b348015610809575f80fd5b506104c4610818366004613609565b60346020525f908152604090205481565b348015610834575f80fd5b506104c4610843366004613609565b6113cb565b348015610853575f80fd5b5061047a611423565b348015610867575f80fd5b5061047a6108763660046136b5565b611436565b348015610886575f80fd5b506104c4600581565b34801561089a575f80fd5b5061047a6114f4565b3480156108ae575f80fd5b506104c460695481565b3480156108c3575f80fd5b5061049b6108d2366004613512565b60016020525f908152604090205460ff1681565b3480156108f1575f80fd5b50610512611539565b348015610905575f80fd5b5061047a610914366004613512565b61156d565b348015610924575f80fd5b506104c4610933366004613512565b60646020525f908152604090205481565b34801561094f575f80fd5b5061047a61095e366004613512565b61157a565b34801561096e575f80fd5b506104e6611593565b348015610982575f80fd5b506104c4610991366004613512565b60336020525f908152604090205481565b3480156109ad575f80fd5b506104c4600281565b3480156109c1575f80fd5b5061047a6109d03660046136de565b6115d1565b3480156109e0575f80fd5b5061047a6109ef366004613724565b611615565b3480156109ff575f80fd5b50600254610512906001600160a01b031681565b348015610a1e575f80fd5b506104c4600481565b348015610a32575f80fd5b506104e6604051806040016040528060058152602001640352e302e360dc1b81525081565b348015610a62575f80fd5b506104c4600381565b348015610a76575f80fd5b5061049b610a85366004613567565b611620565b348015610a95575f80fd5b5061047a610aa436600461375b565b6116e7565b348015610ab4575f80fd5b5061047a610ac33660046137c2565b6116fe565b348015610ad3575f80fd5b5061047a610ae2366004613512565b61186c565b348015610af2575f80fd5b5061047a610b01366004613832565b611879565b348015610b11575f80fd5b506104c4610b20366004613512565b60686020525f908152604090205481565b348015610b3c575f80fd5b506104e6610b4b366004613512565b611989565b348015610b5b575f80fd5b50606354610512906001600160a01b031681565b348015610b7a575f80fd5b50610b83611a01565b6040516104a7919061387a565b348015610b9b575f80fd5b506104c45f81565b348015610bae575f80fd5b506104c4610bbd36600461353d565b603560209081525f928352604080842090915290825290205481565b348015610be4575f80fd5b5061047a610bf3366004613512565b611a9b565b348015610c03575f80fd5b50610512611aa8565b348015610c17575f80fd5b5061047a610c26366004613609565b611ad0565b348015610c36575f80fd5b5061049b610c453660046138b1565b611afa565b348015610c55575f80fd5b506104c4610c6436600461353d565b611b46565b348015610c74575f80fd5b505f54610512906001600160a01b031681565b348015610c92575f80fd5b5061047a610ca13660046135e9565b611b9f565b348015610cb1575f80fd5b5061047a610cc0366004613609565b611d49565b348015610cd0575f80fd5b5061047a610cdf366004613609565b611dce565b348015610cef575f80fd5b5061049b610cfe366004613512565b611e23565b348015610d0e575f80fd5b506107aa610d1d366004613609565b611e6d565b348015610d2d575f80fd5b5061047a610d3c366004613609565b611f8a565b348015610d4c575f80fd5b5061047a610d5b36600461353d565b611fb4565b610d6b823383611fc6565b5050565b5f6001600160e01b0319821663780e9d6360e01b1480610d935750610d938261207f565b92915050565b5f80610da36112df565b5f9081526068602052604090205492915050565b5f80516020613c208339815191528054606091908190610dd6906138dd565b80601f0160208091040260200160405190810160405280929190818152602001828054610e02906138dd565b8015610e4d5780601f10610e2457610100808354040283529160200191610e4d565b820191905f5260205f20905b815481529060010190602001808311610e3057829003601f168201915b505050505091505090565b5f610e62826120ce565b50610d9382612105565b610d6b82823361213e565b610e7f61214b565b610e8a838383611fc6565b505050565b6001600160a01b038216610ebd57604051633250574960e11b81525f60048201526024015b60405180910390fd5b5f610ec983833361217d565b9050836001600160a01b0316816001600160a01b031614610f17576040516364283d7b60e01b81526001600160a01b0380861660048301526024820184905282166044820152606401610eb4565b50505050565b610f2561214b565b5f828152606860205260409020819055606954821115610d6b5750606955565b6001600160a01b03919091165f908152603560209081526040808320938352929052205490565b610f7633826121d9565b50565b5f5f80516020613c00833981519152610f91846113cb565b8310610fc25760405163295f44f760e21b81526001600160a01b038516600482015260248101849052604401610eb4565b6001600160a01b0384165f908152602091825260408082208583529092522054905092915050565b6036602052815f5260405f208160028110611003575f80fd5b01549150829050565b61101461214b565b600280546001600160a01b0319166001600160a01b0383169081179091556040519081527f75cdf6842d867a09260947ac775619527788d913a79fc3b41da1815fa377af65906020015b60405180910390a150565b610e8a83838360405180602001604052805f8152506116e7565b61108b612252565b611094826122f6565b610d6b82826122fe565b5f5f80516020613c008339815191526110c25f80516020613c608339815191525490565b83106110ea5760405163295f44f760e21b81525f600482015260248101849052604401610eb4565b8060020183815481106110ff576110ff613915565b905f5260205f200154915050919050565b5f6111196123ba565b505f80516020613c4083398151915290565b60408051600880825261012082019092526060915f9190602082016101008036833701905050905061115d835f610f45565b5f1415815f8151811061117257611172613915565b9115156020928302919091019091015261118d836001610f45565b5f1415816001815181106111a3576111a3613915565b911515602092830291909101909101526111be836002610f45565b5f1415816002815181106111d4576111d4613915565b911515602092830291909101909101526111ef836003610f45565b5f14158160038151811061120557611205613915565b91151560209283029190910190910152611220836004610f45565b5f14158160048151811061123657611236613915565b91151560209283029190910190910152611251836005610f45565b5f14158160058151811061126757611267613915565b91151560209283029190910190910152611282836006610f45565b5f14158160068151811061129857611298613915565b911515602092830291909101909101526112b3836007610f45565b5f1415816007815181106112c9576112c9613915565b9115156020928302919091019091015292915050565b5f805b6069548111611317575f8181526068602052604090205442101561130557919050565b8061130f8161393d565b9150506112e2565b5060405163c6f8523360e01b815260040160405180910390fd5b5f610d93826120ce565b60606032805461134a906138dd565b80601f0160208091040260200160405190810160405280929190818152602001828054611376906138dd565b80156113c15780601f10611398576101008083540402835291602001916113c1565b820191905f5260205f20905b8154815290600101906020018083116113a457829003601f168201915b5050505050905090565b5f5f80516020613c208339815191526001600160a01b038316611403576040516322718ad960e21b81525f6004820152602401610eb4565b6001600160a01b039092165f908152600390920160205250604090205490565b61142b61214b565b6114345f612403565b565b3361144084611331565b6001600160a01b031614611467576040516338ebc58960e11b815260040160405180910390fd5b6065546001600160a01b0316637671afc0336040516001600160e01b031960e084901b1681526001600160a01b0390911660048201526024810186905260448101859052606481018490526084015f604051808303815f87803b1580156114cc575f80fd5b505af11580156114de573d5f803e3d5ffd5b5050505f93845250506064602052506040812055565b33806114fe611aa8565b6001600160a01b0316146115305760405163118cdaa760e01b81526001600160a01b0382166004820152602401610eb4565b610f7681612403565b5f807f9016d09d72d40fdae2fd8ceac6b6234c7706214fd39c1cd1e609a0528c1993005b546001600160a01b031692915050565b61157561214b565b606755565b6040516343f6e4ab60e01b815260040160405180910390fd5b7f80bb2b638cc20bc4d0a60d66940f3ab4a00c1d7b313497ca82fb0b4ab007930180546060915f80516020613c2083398151915291610dd6906138dd565b6115d961214b565b60326115e58282613999565b507fd09d05534067f74dbc9e6af794edbd29e904d7698e428d0bc1378e45889acdd78160405161105e9190613500565b610d6b33838361243b565b60025460405163fe575a8760e01b81526001600160a01b0384811660048301525f92169063fe575a8790602401602060405180830381865afa158015611668573d5f803e3d5ffd5b505050506040513d601f19601f8201168201806040525081019061168c9190613a58565b156116aa57604051637874e36360e01b815260040160405180910390fd5b83516020808601919091205f9081526001909152604090205460ff16156116d257505f6116e0565b6116dd8484846124ea565b90505b9392505050565b6116f2848484610e8f565b610f178484848461251f565b7ff0c57e16840df040f15088dc2f81fe391c3923bec73e23a9662efc9c229c6a008054600160401b810460ff1615906001600160401b03165f811580156117425750825b90505f826001600160401b0316600114801561175d5750303b155b90508115801561176b575080155b156117895760405163f92ee8a960e01b815260040160405180910390fd5b845467ffffffffffffffff1916600117855583156117b357845460ff60401b1916600160401b1785555b61180360405180604001604052806013815260200172547261696c626c617a6572732042616467657360681b815250604051806040016040528060038152602001622a212160e91b815250612645565b603261180f8982613999565b5061181b898888612657565b831561186157845460ff60401b19168555604051600181527fc7f505b2f371ae2175ee4913f4499e1f2633a7b5936321eed1cdaeb6115181d29060200160405180910390a15b505050505050505050565b61187461214b565b606255565b7ff0c57e16840df040f15088dc2f81fe391c3923bec73e23a9662efc9c229c6a008054600160401b810460ff1615906001600160401b03165f811580156118bd5750825b90505f826001600160401b031660011480156118d85750303b155b9050811580156118e6575080155b156119045760405163f92ee8a960e01b815260040160405180910390fd5b845467ffffffffffffffff19166001178555831561192e57845460ff60401b1916600160401b1785555b611939888888612657565b831561197f57845460ff60401b19168555604051600181527fc7f505b2f371ae2175ee4913f4499e1f2633a7b5936321eed1cdaeb6115181d29060200160405180910390a15b5050505050505050565b60605f60345f61199885611331565b6001600160a01b0316815260208082019290925260409081015f908120548682526033909352205490915060326119ce836126ab565b6119d7836126ab565b6040516020016119e993929190613a8e565b60405160208183030381529060405292505050919050565b60605f611a195f80516020613c608339815191525490565b6040805160088082526101208201909252919250602082016101008036833701905050915060015b818111611a96575f818152603360205260409020548351849082908110611a6a57611a6a613915565b602002602001018051809190611a7f9061393d565b905250819050611a8e8161393d565b915050611a41565b505090565b611aa361214b565b606655565b5f807f237e158222e3e6968b72b9db0d8043aacf074ad9f650f0d1606b4d82ee432c0061155d565b611ad861214b565b606380546001600160a01b0319166001600160a01b0392909216919091179055565b6001600160a01b039182165f9081527f80bb2b638cc20bc4d0a60d66940f3ab4a00c1d7b313497ca82fb0b4ab00793056020908152604080832093909416825291909152205460ff1690565b604080516001600160a01b03841660208201529081018290525f9060600160408051601f198184030181528282528051602091820120908301520160405160208183030381529060405280519060200120905092915050565b6062545f03611bc1576040516321d9ef2160e21b815260040160405180910390fd5b33611bcb82611331565b6001600160a01b031614611bf2576040516338ebc58960e11b815260040160405180910390fd5b5f611bfb610d99565b9050600483148015611c4557505f8281526064602090815260408220546003909252606890527f621935e5e2d2334e817fa0366e6727cdfbb18abed03a929d20a8be2175643efe54145b15611c7f577f80333aa37bbc0dd2312116cfc6d7c23756afe8292d63da7b97b36300cc5e273f545f83815260646020526040902055611cd0565b611c8882611e23565b15611cbf57611c956112df565b6040516324fa1fa360e21b8152600481019190915260248101829052426044820152606401610eb4565b5f8281526064602052604090208190555b6065546001600160a01b031663a6471ecf336040516001600160e01b031960e084901b1681526001600160a01b03909116600482015260248101869052604481018590526064015f604051808303815f87803b158015611d2e575f80fd5b505af1158015611d40573d5f803e3d5ffd5b50505050505050565b611d5161214b565b7f237e158222e3e6968b72b9db0d8043aacf074ad9f650f0d1606b4d82ee432c0080546001600160a01b0319166001600160a01b0383169081178255611d95611539565b6001600160a01b03167f38d16b8cac22d99fc7c124b9cd0de2d3fa1faef420bfe791d8c362d765e2270060405160405180910390a35050565b611dd661214b565b5f80546001600160a01b0319166001600160a01b0383169081179091556040519081527f81c142d9a4b33dfaba82444370b6b077fc2cb507c30c41a7c967f695ed72651f9060200161105e565b5f8181526064602052604081205481611e3a610d99565b90505f82118015611e4a57508042105b8015611e5557508142105b15611e64575060019392505050565b505f9392505050565b60605f611e79836113cb565b90505f816001600160401b03811115611e9457611e946133a6565b604051908082528060200260200182016040528015611ebd578160200160208202803683370190505b5090505f5b82811015611ef957611ed48582610f79565b828281518110611ee657611ee6613915565b6020908102919091010152600101611ec2565b5060408051600880825261012082019092529060208201610100803683370190505092505f5b82811015611f82575f60335f848481518110611f3d57611f3d613915565b602002602001015181526020019081526020015f205490506001858281518110611f6957611f69613915565b9115156020928302919091019091015250600101611f1f565b505050919050565b611f9261214b565b606580546001600160a01b0319166001600160a01b0392909216919091179055565b611fbc61214b565b610d6b82826121d9565b6007811115611fe857604051635557cd3560e11b815260040160405180910390fd5b611ff383838361273a565b5f6120095f80516020613c608339815191525490565b612014906001613b3c565b5f818152603360205260409020839055905061203083826127cb565b604080518281526001600160a01b03851660208201529081018390527f73ec18fe90e8b3de52d7e88ff3108708ed0e9714e5327b038c182b64cedaae709060600160405180910390a150505050565b5f6001600160e01b031982166380ac58cd60e01b14806120af57506001600160e01b03198216635b5e139f60e01b145b80610d9357506301ffc9a760e01b6001600160e01b0319831614610d93565b5f806120d98361282c565b90506001600160a01b038116610d9357604051637e27328960e01b815260048101849052602401610eb4565b5f9081527f80bb2b638cc20bc4d0a60d66940f3ab4a00c1d7b313497ca82fb0b4ab007930460205260409020546001600160a01b031690565b610e8a8383836001612865565b33612154611539565b6001600160a01b0316146114345760405163118cdaa760e01b8152336004820152602401610eb4565b5f8261218881611e23565b156121c5576121956112df565b61219d610d99565b6040516324fa1fa360e21b815260048101929092526024820152426044820152606401610eb4565b6121d0858585612978565b95945050505050565b60028111156121fb57604051632c4d11b760e11b815260040160405180910390fd5b6001600160a01b0382165f81815260346020908152604091829020849055815192835282018390527fc8f3ae17becdf8c098ef081092d0420324d1318397bd7ac8e90d900c56a50a76910160405180910390a15050565b306001600160a01b037f00000000000000000000000000000000000000000000000000000000000000001614806122d857507f00000000000000000000000000000000000000000000000000000000000000006001600160a01b03166122cc5f80516020613c40833981519152546001600160a01b031690565b6001600160a01b031614155b156114345760405163703e46dd60e11b815260040160405180910390fd5b610f7661214b565b816001600160a01b03166352d1902d6040518163ffffffff1660e01b8152600401602060405180830381865afa925050508015612358575060408051601f3d908101601f1916820190925261235591810190613b4f565b60015b61238057604051634c9c8ce360e01b81526001600160a01b0383166004820152602401610eb4565b5f80516020613c4083398151915281146123b057604051632a87526960e21b815260048101829052602401610eb4565b610e8a8383612a1b565b306001600160a01b037f000000000000000000000000000000000000000000000000000000000000000016146114345760405163703e46dd60e11b815260040160405180910390fd5b7f237e158222e3e6968b72b9db0d8043aacf074ad9f650f0d1606b4d82ee432c0080546001600160a01b0319168155610d6b82612a70565b5f80516020613c208339815191526001600160a01b03831661247b57604051630b61174360e31b81526001600160a01b0384166004820152602401610eb4565b6001600160a01b038481165f818152600584016020908152604080832094881680845294825291829020805460ff191687151590811790915591519182527f17307eab39ab6107e8899845ad3d59bd9653f200f220920489ca2b5937696c31910160405180910390a350505050565b5f806124f68484611b46565b90505f6125038287612ae0565b50505f546001600160a01b039081169116149695505050505050565b6001600160a01b0383163b15610f1757604051630a85bd0160e11b81526001600160a01b0384169063150b7a0290612561903390889087908790600401613b66565b6020604051808303815f875af192505050801561259b575060408051601f3d908101601f1916820190925261259891810190613ba2565b60015b612602573d8080156125c8576040519150601f19603f3d011682016040523d82523d5f602084013e6125cd565b606091505b5080515f036125fa57604051633250574960e11b81526001600160a01b0385166004820152602401610eb4565b805181602001fd5b6001600160e01b03198116630a85bd0160e11b1461263e57604051633250574960e11b81526001600160a01b0385166004820152602401610eb4565b5050505050565b61264d612b29565b610d6b8282612b72565b6126756001600160a01b0384161561266f5783612403565b33612403565b61267d612ba2565b5f80546001600160a01b039384166001600160a01b0319918216179091556002805492909316911617905550565b60605f6126b783612baa565b60010190505f816001600160401b038111156126d5576126d56133a6565b6040519080825280601f01601f1916602001820160405280156126ff576020820181803683370190505b5090508181016020015b5f19016f181899199a1a9b1b9c1cb0b131b232b360811b600a86061a8153600a850494508461270957509392505050565b612745838383611620565b61276257604051639ea134e960e01b815260040160405180910390fd5b82516020808501919091205f9081526001808352604091829020805460ff1916909117905580516001600160a01b03851681529182018390527ff71d0afb6ca23454b34db8bf7baf45f79e8c2f41e5499375ea2289312b2d317b910160405180910390a1505050565b6001600160a01b0382166127f457604051633250574960e11b81525f6004820152602401610eb4565b5f61280083835f61217d565b90506001600160a01b03811615610e8a576040516339e3563760e11b81525f6004820152602401610eb4565b5f9081527f80bb2b638cc20bc4d0a60d66940f3ab4a00c1d7b313497ca82fb0b4ab007930260205260409020546001600160a01b031690565b5f80516020613c20833981519152818061288757506001600160a01b03831615155b15612948575f612896856120ce565b90506001600160a01b038416158015906128c25750836001600160a01b0316816001600160a01b031614155b80156128d557506128d38185611afa565b155b156128fe5760405163a9fbf51f60e01b81526001600160a01b0385166004820152602401610eb4565b82156129465784866001600160a01b0316826001600160a01b03167f8c5be1e5ebec7d5bd14f71427d1e84f3dd0314c0f7b2291e5b200ac8c7c3b92560405160405180910390a45b505b5f93845260040160205250506040902080546001600160a01b0319166001600160a01b0392909216919091179055565b6002545f906001600160a01b031663fe575a87336040516001600160e01b031960e084901b1681526001600160a01b039091166004820152602401602060405180830381865afa1580156129ce573d5f803e3d5ffd5b505050506040513d601f19601f820116820180604052508101906129f29190613a58565b15612a1057604051637874e36360e01b815260040160405180910390fd5b6116dd848484612c81565b612a2482612cea565b6040516001600160a01b038316907fbc7cd75a20ee27fd9adebab32041f755214dbc6bffa90cc0225b39da2e5c2d3b905f90a2805115612a6857610e8a8282612d4d565b610d6b612db6565b7f9016d09d72d40fdae2fd8ceac6b6234c7706214fd39c1cd1e609a0528c19930080546001600160a01b031981166001600160a01b03848116918217845560405192169182907f8be0079c531659141344cd1fd0a4f28419497f9722a3daafe3b4186f6b6457e0905f90a3505050565b5f805f8351604103612b17576020840151604085015160608601515f1a612b0988828585612dd5565b955095509550505050612b22565b505081515f91506002905b9250925092565b7ff0c57e16840df040f15088dc2f81fe391c3923bec73e23a9662efc9c229c6a0054600160401b900460ff1661143457604051631afcd79f60e31b815260040160405180910390fd5b612b7a612b29565b5f80516020613c2083398151915280612b938482613999565b5060018101610f178382613999565b611434612b29565b5f8072184f03e93ff9f4daa797ed6e38ed64bf6a1f0160401b8310612be85772184f03e93ff9f4daa797ed6e38ed64bf6a1f0160401b830492506040015b6d04ee2d6d415b85acef81000000008310612c14576d04ee2d6d415b85acef8100000000830492506020015b662386f26fc100008310612c3257662386f26fc10000830492506010015b6305f5e1008310612c4a576305f5e100830492506008015b6127108310612c5e57612710830492506004015b60648310612c70576064830492506002015b600a8310610d935760010192915050565b5f8060355f612c8f8661282c565b6001600160a01b03908116825260208083019390935260409182015f908120888252603385528382208054835290855283822095909555908816815260358352818120935481529290915290208390556116dd848484612e9d565b806001600160a01b03163b5f03612d1f57604051634c9c8ce360e01b81526001600160a01b0382166004820152602401610eb4565b5f80516020613c4083398151915280546001600160a01b0319166001600160a01b0392909216919091179055565b60605f80846001600160a01b031684604051612d699190613bbd565b5f60405180830381855af49150503d805f8114612da1576040519150601f19603f3d011682016040523d82523d5f602084013e612da6565b606091505b50915091506121d0858383612f93565b34156114345760405163b398979f60e01b815260040160405180910390fd5b5f80807f7fffffffffffffffffffffffffffffff5d576e7357a4501ddfe92f46681b20a0841115612e0e57505f91506003905082612e93565b604080515f808252602082018084528a905260ff891692820192909252606081018790526080810186905260019060a0016020604051602081039080840390855afa158015612e5f573d5f803e3d5ffd5b5050604051601f1901519150506001600160a01b038116612e8a57505f925060019150829050612e93565b92505f91508190505b9450945094915050565b5f80612eaa858585612fef565b90506001600160a01b038116612f3157612f2c845f80516020613c6083398151915280545f8381527f645e039705490088daad89bae25049a34f4a9072d398537b1ab2425f24cbed0360205260408120829055600182018355919091527fa42f15e5d656f8155fd7419d740a6073999f19cd6e061449ce4a257150545bf20155565b612f54565b846001600160a01b0316816001600160a01b031614612f5457612f5481856130f1565b6001600160a01b038516612f7057612f6b84613190565b6116dd565b846001600160a01b0316816001600160a01b0316146116dd576116dd858561325d565b606082612fa857612fa3826132b5565b6116e0565b8151158015612fbf57506001600160a01b0384163b155b15612fe857604051639996b31560e01b81526001600160a01b0385166004820152602401610eb4565b50806116e0565b5f5f80516020613c20833981519152816130088561282c565b90506001600160a01b03841615613024576130248185876132de565b6001600160a01b038116156130605761303f5f865f80612865565b6001600160a01b0381165f908152600383016020526040902080545f190190555b6001600160a01b03861615613090576001600160a01b0386165f9081526003830160205260409020805460010190555b5f85815260028301602052604080822080546001600160a01b0319166001600160a01b038a811691821790925591518893918516917fddf252ad1be2c89b69c2b068fc378daa952ba7f163c4a11628f55a4df523b3ef91a495945050505050565b5f80516020613c008339815191525f613109846113cb565b5f84815260018401602052604090205490915080821461315c576001600160a01b0385165f9081526020848152604080832085845282528083205484845281842081905583526001860190915290208190555b505f92835260018201602090815260408085208590556001600160a01b039095168452918252838320908352905290812055565b5f80516020613c60833981519152545f80516020613c00833981519152905f906131bc90600190613bd8565b5f8481526003840160205260408120546002850180549394509092849081106131e7576131e7613915565b905f5260205f20015490508084600201838154811061320857613208613915565b5f9182526020808320909101929092558281526003860190915260408082208490558682528120556002840180548061324357613243613beb565b600190038181905f5260205f20015f905590555050505050565b5f80516020613c008339815191525f6001613277856113cb565b6132819190613bd8565b6001600160a01b039094165f9081526020838152604080832087845282528083208690559482526001909301909252502055565b8051156132c55780518082602001fd5b604051630a12f52160e11b815260040160405180910390fd5b6132e9838383613342565b610e8a576001600160a01b03831661331757604051637e27328960e01b815260048101829052602401610eb4565b60405163177e802f60e01b81526001600160a01b038316600482015260248101829052604401610eb4565b5f6001600160a01b038316158015906116dd5750826001600160a01b0316846001600160a01b0316148061337b575061337b8484611afa565b806116dd5750826001600160a01b031661339483612105565b6001600160a01b031614949350505050565b634e487b7160e01b5f52604160045260245ffd5b5f82601f8301126133c9575f80fd5b81356001600160401b03808211156133e3576133e36133a6565b604051601f8301601f19908116603f0116810190828211818310171561340b5761340b6133a6565b81604052838152866020858801011115613423575f80fd5b836020870160208301375f602085830101528094505050505092915050565b5f8060408385031215613453575f80fd5b82356001600160401b03811115613468575f80fd5b613474858286016133ba565b95602094909401359450505050565b6001600160e01b031981168114610f76575f80fd5b5f602082840312156134a8575f80fd5b81356116e081613483565b5f5b838110156134cd5781810151838201526020016134b5565b50505f910152565b5f81518084526134ec8160208601602086016134b3565b601f01601f19169290920160200192915050565b602081525f6116e060208301846134d5565b5f60208284031215613522575f80fd5b5035919050565b6001600160a01b0381168114610f76575f80fd5b5f806040838503121561354e575f80fd5b823561355981613529565b946020939093013593505050565b5f805f60608486031215613579575f80fd5b83356001600160401b0381111561358e575f80fd5b61359a868287016133ba565b93505060208401356135ab81613529565b929592945050506040919091013590565b5f805f606084860312156135ce575f80fd5b83356135d981613529565b925060208401356135ab81613529565b5f80604083850312156135fa575f80fd5b50508035926020909101359150565b5f60208284031215613619575f80fd5b81356116e081613529565b5f8060408385031215613635575f80fd5b823561364081613529565b915060208301356001600160401b0381111561365a575f80fd5b613666858286016133ba565b9150509250929050565b602080825282518282018190525f9190848201906040850190845b818110156136a957835115158352928401929184019160010161368b565b50909695505050505050565b5f805f606084860312156136c7575f80fd5b505081359360208301359350604090920135919050565b5f602082840312156136ee575f80fd5b81356001600160401b03811115613703575f80fd5b61370f848285016133ba565b949350505050565b8015158114610f76575f80fd5b5f8060408385031215613735575f80fd5b823561374081613529565b9150602083013561375081613717565b809150509250929050565b5f805f806080858703121561376e575f80fd5b843561377981613529565b9350602085013561378981613529565b92506040850135915060608501356001600160401b038111156137aa575f80fd5b6137b6878288016133ba565b91505092959194509250565b5f805f80608085870312156137d5575f80fd5b84356137e081613529565b935060208501356001600160401b038111156137fa575f80fd5b613806878288016133ba565b935050604085013561381781613529565b9150606085013561382781613529565b939692955090935050565b5f805f60608486031215613844575f80fd5b833561384f81613529565b9250602084013561385f81613529565b9150604084013561386f81613529565b809150509250925092565b602080825282518282018190525f9190848201906040850190845b818110156136a957835183529284019291840191600101613895565b5f80604083850312156138c2575f80fd5b82356138cd81613529565b9150602083013561375081613529565b600181811c908216806138f157607f821691505b60208210810361390f57634e487b7160e01b5f52602260045260245ffd5b50919050565b634e487b7160e01b5f52603260045260245ffd5b634e487b7160e01b5f52601160045260245ffd5b5f6001820161394e5761394e613929565b5060010190565b601f821115610e8a57805f5260205f20601f840160051c8101602085101561397a5750805b601f840160051c820191505b8181101561263e575f8155600101613986565b81516001600160401b038111156139b2576139b26133a6565b6139c6816139c084546138dd565b84613955565b602080601f8311600181146139f9575f84156139e25750858301515b5f19600386901b1c1916600185901b178555613a50565b5f85815260208120601f198616915b82811015613a2757888601518255948401946001909101908401613a08565b5085821015613a4457878501515f19600388901b60f8161c191681555b505060018460011b0185555b505050505050565b5f60208284031215613a68575f80fd5b81516116e081613717565b5f8151613a848185602086016134b3565b9290920192915050565b5f808554613a9b816138dd565b60018281168015613ab35760018114613ac857613af4565b60ff1984168752821515830287019450613af4565b895f526020805f205f5b85811015613aeb5781548a820152908401908201613ad2565b50505082870194505b50505050602f60f81b81528451613b128160018401602089016134b3565b613b31613b2b600183850101602f60f81b815260010190565b86613a73565b979650505050505050565b80820180821115610d9357610d93613929565b5f60208284031215613b5f575f80fd5b5051919050565b6001600160a01b03858116825284166020820152604081018390526080606082018190525f90613b98908301846134d5565b9695505050505050565b5f60208284031215613bb2575f80fd5b81516116e081613483565b5f8251613bce8184602087016134b3565b9190910192915050565b81810381811115610d9357610d93613929565b634e487b7160e01b5f52603160045260245ffdfe645e039705490088daad89bae25049a34f4a9072d398537b1ab2425f24cbed0080bb2b638cc20bc4d0a60d66940f3ab4a00c1d7b313497ca82fb0b4ab0079300360894a13ba1a3210667c828492db98dca3e2076cc3735a920a3ca505d382bbc645e039705490088daad89bae25049a34f4a9072d398537b1ab2425f24cbed02a26469706673582212209df840930b0628fd78312af42b37f92df7742effe9b8d94584d0692e26dbfb2f64736f6c63430008180033","linkReferences":{}},"methodIdentifiers":{"BADGE_ANDROIDS()":"0e0c8b0a","BADGE_BOUNCERS()":"98ef238a","BADGE_DRUMMERS()":"75b9c015","BADGE_MASTERS()":"b378b448","BADGE_MONKS()":"a7fb03ab","BADGE_RAVERS()":"d944061e","BADGE_ROBOTS()":"0f5f04bf","BADGE_SHINTO()":"4808b109","MOVEMENT_BASED()":"9cc28164","MOVEMENT_BOOSTED()":"b4e7409f","MOVEMENT_NEUTRAL()":"d5def7c2","UPGRADE_INTERFACE_VERSION()":"ad3cb1cc","acceptOwnership()":"79ba5097","approve(address,uint256)":"095ea7b3","badgeBalances(address)":"5c6f8ca3","badgeBalancesV2(address)":"f7da8ce3","badges(uint256)":"98e36d8b","balanceOf(address)":"70a08231","baseURI()":"6c0360eb","blacklist()":"a4b5fa56","canMint(bytes,address,uint256)":"b58c439e","getApproved(uint256)":"081812fc","getCurrentSeasonEndTimestamp()":"03cfb2fa","getCurrentSeasonId()":"5e75a6c3","getHash(address,uint256)":"ed05582b","getTokenId(address,uint256)":"29f99b9f","initialize(address,address,address)":"c0c53b8b","initialize(address,string,address,address)":"b8f88d64","isApprovedForAll(address,address)":"e985e9c5","isLocked(uint256)":"f6aacfb1","lastKnownSeason()":"7b85f161","mint(bytes,address,uint256)":"1fcfe19c","mint(bytes,uint256)":"00257612","mintSigner()":"f17af48d","minted(bytes32)":"8ccc5f80","movementBadges(bytes32,uint256)":"3136964c","movements(address)":"700b1acd","name()":"06fdde03","owner()":"8da5cb5b","ownerOf(uint256)":"6352211e","pendingOwner()":"e30c3978","proxiableUUID()":"52d1902d","recruitmentContract()":"c8860d98","recruitmentContractV2()":"599fdaa2","recruitmentLockDuration()":"32c8f504","renounceOwnership()":"715018a6","resetMigration(uint256,uint256,uint256)":"73e9c1f9","safeTransferFrom(address,address,uint256)":"42842e0e","safeTransferFrom(address,address,uint256,bytes)":"b88d4fde","season2EndTimestamp()":"45d46748","season3EndTimestamp()":"23604864","seasonEndTimestamps(uint256)":"c76422ff","setApprovalForAll(address,bool)":"a22cb465","setMovement(address,uint256)":"ff2c26ec","setMovement(uint256)":"2f19062f","setRecruitmentContract(address)":"e84be852","setRecruitmentContractV2(address)":"f896d3a0","setRecruitmentLockDuration(uint256)":"bacb6d4e","setSeason2EndTimestamp(uint256)":"e1aff312","setSeason3EndTimestamp(uint256)":"8e228b64","setSeasonEndTimestamp(uint256,uint256)":"275b629e","setUri(string)":"9b642de1","startRecruitment(uint256)":"950290c8","startRecruitment(uint256,uint256)":"f23ff9d9","supportsInterface(bytes4)":"01ffc9a7","symbol()":"95d89b41","tokenByIndex(uint256)":"4f6ccce7","tokenOfOwnerByIndex(address,uint256)":"2f745c59","tokenURI(uint256)":"c87b56dd","totalBadgeSupply()":"ca0259c0","totalSupply()":"18160ddd","transferFrom(address,address,uint256)":"23b872dd","transferOwnership(address)":"f2fde38b","unlockTimestamps(uint256)":"9224747d","updateBlacklist(address)":"378b5704","updateMintSigner(address)":"f571049b","upgradeToAndCall(address,bytes)":"4f1ef286","userBadges(address,uint256)":"df91cc23","version()":"54fd4d50"},"storageLayout":{"storage":[{"astId":3275,"contract":"contracts/trailblazers-season-4/TrailblazersS1BadgesV11.sol:TrailblazersBadgesV11","label":"mintSigner","offset":0,"slot":"0","type":"t_address"},{"astId":3280,"contract":"contracts/trailblazers-season-4/TrailblazersS1BadgesV11.sol:TrailblazersBadgesV11","label":"minted","offset":0,"slot":"1","type":"t_mapping(t_bytes32,t_bool)"},{"astId":3284,"contract":"contracts/trailblazers-season-4/TrailblazersS1BadgesV11.sol:TrailblazersBadgesV11","label":"blacklist","offset":0,"slot":"2","type":"t_contract(IMinimalBlacklist)62079"},{"astId":3289,"contract":"contracts/trailblazers-season-4/TrailblazersS1BadgesV11.sol:TrailblazersBadgesV11","label":"__gap","offset":0,"slot":"3","type":"t_array(t_uint256)47_storage"},{"astId":3593,"contract":"contracts/trailblazers-season-4/TrailblazersS1BadgesV11.sol:TrailblazersBadgesV11","label":"_baseURIExtended","offset":0,"slot":"50","type":"t_string_storage"},{"astId":3598,"contract":"contracts/trailblazers-season-4/TrailblazersS1BadgesV11.sol:TrailblazersBadgesV11","label":"badges","offset":0,"slot":"51","type":"t_mapping(t_uint256,t_uint256)"},{"astId":3603,"contract":"contracts/trailblazers-season-4/TrailblazersS1BadgesV11.sol:TrailblazersBadgesV11","label":"movements","offset":0,"slot":"52","type":"t_mapping(t_address,t_uint256)"},{"astId":3610,"contract":"contracts/trailblazers-season-4/TrailblazersS1BadgesV11.sol:TrailblazersBadgesV11","label":"userBadges","offset":0,"slot":"53","type":"t_mapping(t_address,t_mapping(t_uint256,t_uint256))"},{"astId":3617,"contract":"contracts/trailblazers-season-4/TrailblazersS1BadgesV11.sol:TrailblazersBadgesV11","label":"movementBadges","offset":0,"slot":"54","type":"t_mapping(t_bytes32,t_array(t_uint256)2_storage)"},{"astId":3622,"contract":"contracts/trailblazers-season-4/TrailblazersS1BadgesV11.sol:TrailblazersBadgesV11","label":"__gap","offset":0,"slot":"55","type":"t_array(t_uint256)43_storage"},{"astId":6985,"contract":"contracts/trailblazers-season-4/TrailblazersS1BadgesV11.sol:TrailblazersBadgesV11","label":"recruitmentLockDuration","offset":0,"slot":"98","type":"t_uint256"},{"astId":6989,"contract":"contracts/trailblazers-season-4/TrailblazersS1BadgesV11.sol:TrailblazersBadgesV11","label":"recruitmentContract","offset":0,"slot":"99","type":"t_contract(BadgeRecruitment)5789"},{"astId":6994,"contract":"contracts/trailblazers-season-4/TrailblazersS1BadgesV11.sol:TrailblazersBadgesV11","label":"unlockTimestamps","offset":0,"slot":"100","type":"t_mapping(t_uint256,t_uint256)"},{"astId":7140,"contract":"contracts/trailblazers-season-4/TrailblazersS1BadgesV11.sol:TrailblazersBadgesV11","label":"recruitmentContractV2","offset":0,"slot":"101","type":"t_contract(BadgeRecruitmentV2)6139"},{"astId":7285,"contract":"contracts/trailblazers-season-4/TrailblazersS1BadgesV11.sol:TrailblazersBadgesV11","label":"season2EndTimestamp","offset":0,"slot":"102","type":"t_uint256"},{"astId":7287,"contract":"contracts/trailblazers-season-4/TrailblazersS1BadgesV11.sol:TrailblazersBadgesV11","label":"season3EndTimestamp","offset":0,"slot":"103","type":"t_uint256"},{"astId":8200,"contract":"contracts/trailblazers-season-4/TrailblazersS1BadgesV11.sol:TrailblazersBadgesV11","label":"seasonEndTimestamps","offset":0,"slot":"104","type":"t_mapping(t_uint256,t_uint256)"},{"astId":8203,"contract":"contracts/trailblazers-season-4/TrailblazersS1BadgesV11.sol:TrailblazersBadgesV11","label":"lastKnownSeason","offset":0,"slot":"105","type":"t_uint256"}],"types":{"t_address":{"encoding":"inplace","label":"address","numberOfBytes":"20"},"t_array(t_uint256)2_storage":{"encoding":"inplace","label":"uint256[2]","numberOfBytes":"64","base":"t_uint256"},"t_array(t_uint256)43_storage":{"encoding":"inplace","label":"uint256[43]","numberOfBytes":"1376","base":"t_uint256"},"t_array(t_uint256)47_storage":{"encoding":"inplace","label":"uint256[47]","numberOfBytes":"1504","base":"t_uint256"},"t_bool":{"encoding":"inplace","label":"bool","numberOfBytes":"1"},"t_bytes32":{"encoding":"inplace","label":"bytes32","numberOfBytes":"32"},"t_contract(BadgeRecruitment)5789":{"encoding":"inplace","label":"contract BadgeRecruitment","numberOfBytes":"20"},"t_contract(BadgeRecruitmentV2)6139":{"encoding":"inplace","label":"contract BadgeRecruitmentV2","numberOfBytes":"20"},"t_contract(IMinimalBlacklist)62079":{"encoding":"inplace","label":"contract IMinimalBlacklist","numberOfBytes":"20"},"t_mapping(t_address,t_mapping(t_uint256,t_uint256))":{"encoding":"mapping","key":"t_address","label":"mapping(address => mapping(uint256 => uint256))","numberOfBytes":"32","value":"t_mapping(t_uint256,t_uint256)"},"t_mapping(t_address,t_uint256)":{"encoding":"mapping","key":"t_address","label":"mapping(address => uint256)","numberOfBytes":"32","value":"t_uint256"},"t_mapping(t_bytes32,t_array(t_uint256)2_storage)":{"encoding":"mapping","key":"t_bytes32","label":"mapping(bytes32 => uint256[2])","numberOfBytes":"32","value":"t_array(t_uint256)2_storage"},"t_mapping(t_bytes32,t_bool)":{"encoding":"mapping","key":"t_bytes32","label":"mapping(bytes32 => bool)","numberOfBytes":"32","value":"t_bool"},"t_mapping(t_uint256,t_uint256)":{"encoding":"mapping","key":"t_uint256","label":"mapping(uint256 => uint256)","numberOfBytes":"32","value":"t_uint256"},"t_string_storage":{"encoding":"bytes","label":"string","numberOfBytes":"32"},"t_uint256":{"encoding":"inplace","label":"uint256","numberOfBytes":"32"}}},"id":24}