{"abi":[{"type":"constructor","inputs":[],"stateMutability":"nonpayable"},{"type":"function","name":"DEFAULT_ADMIN_ROLE","inputs":[],"outputs":[{"name":"","type":"bytes32","internalType":"bytes32"}],"stateMutability":"view"},{"type":"function","name":"EVENT_MANAGER_ROLE","inputs":[],"outputs":[{"name":"","type":"bytes32","internalType":"bytes32"}],"stateMutability":"view"},{"type":"function","name":"acceptOwnership","inputs":[],"outputs":[],"stateMutability":"nonpayable"},{"type":"function","name":"closeRegistration","inputs":[{"name":"_eventId","type":"uint256","internalType":"uint256"}],"outputs":[],"stateMutability":"nonpayable"},{"type":"function","name":"createEvent","inputs":[{"name":"_name","type":"string","internalType":"string"}],"outputs":[],"stateMutability":"nonpayable"},{"type":"function","name":"eventStages","inputs":[{"name":"eventId","type":"uint256","internalType":"uint256"},{"name":"registrant","type":"address","internalType":"address"}],"outputs":[{"name":"stage","type":"uint256","internalType":"uint256"}],"stateMutability":"view"},{"type":"function","name":"events","inputs":[{"name":"eventId","type":"uint256","internalType":"uint256"}],"outputs":[{"name":"id","type":"uint256","internalType":"uint256"},{"name":"name","type":"string","internalType":"string"},{"name":"exists","type":"bool","internalType":"bool"},{"name":"registrationOpen","type":"bool","internalType":"bool"}],"stateMutability":"view"},{"type":"function","name":"getEvent","inputs":[{"name":"_eventId","type":"uint256","internalType":"uint256"}],"outputs":[{"name":"id","type":"uint256","internalType":"uint256"},{"name":"name","type":"string","internalType":"string"},{"name":"registrationOpen_","type":"bool","internalType":"bool"}],"stateMutability":"view"},{"type":"function","name":"getRegisteredEvents","inputs":[{"name":"_user","type":"address","internalType":"address"}],"outputs":[{"name":"","type":"uint256[]","internalType":"uint256[]"}],"stateMutability":"view"},{"type":"function","name":"getRoleAdmin","inputs":[{"name":"role","type":"bytes32","internalType":"bytes32"}],"outputs":[{"name":"","type":"bytes32","internalType":"bytes32"}],"stateMutability":"view"},{"type":"function","name":"grantEventManagerRole","inputs":[{"name":"account","type":"address","internalType":"address"}],"outputs":[],"stateMutability":"nonpayable"},{"type":"function","name":"grantRole","inputs":[{"name":"role","type":"bytes32","internalType":"bytes32"},{"name":"account","type":"address","internalType":"address"}],"outputs":[],"stateMutability":"nonpayable"},{"type":"function","name":"hasRole","inputs":[{"name":"role","type":"bytes32","internalType":"bytes32"},{"name":"account","type":"address","internalType":"address"}],"outputs":[{"name":"","type":"bool","internalType":"bool"}],"stateMutability":"view"},{"type":"function","name":"initialize","inputs":[],"outputs":[],"stateMutability":"nonpayable"},{"type":"function","name":"isRegistered","inputs":[{"name":"eventId","type":"uint256","internalType":"uint256"},{"name":"registrant","type":"address","internalType":"address"}],"outputs":[{"name":"timestamp","type":"uint256","internalType":"uint256"}],"stateMutability":"view"},{"type":"function","name":"openRegistration","inputs":[{"name":"_eventId","type":"uint256","internalType":"uint256"}],"outputs":[],"stateMutability":"nonpayable"},{"type":"function","name":"owner","inputs":[],"outputs":[{"name":"","type":"address","internalType":"address"}],"stateMutability":"view"},{"type":"function","name":"pendingOwner","inputs":[],"outputs":[{"name":"","type":"address","internalType":"address"}],"stateMutability":"view"},{"type":"function","name":"register","inputs":[{"name":"_eventId","type":"uint256","internalType":"uint256"},{"name":"_phase","type":"uint256","internalType":"uint256"}],"outputs":[],"stateMutability":"nonpayable"},{"type":"function","name":"renounceOwnership","inputs":[],"outputs":[],"stateMutability":"nonpayable"},{"type":"function","name":"renounceRole","inputs":[{"name":"role","type":"bytes32","internalType":"bytes32"},{"name":"callerConfirmation","type":"address","internalType":"address"}],"outputs":[],"stateMutability":"nonpayable"},{"type":"function","name":"revokeEventManagerRole","inputs":[{"name":"account","type":"address","internalType":"address"}],"outputs":[],"stateMutability":"nonpayable"},{"type":"function","name":"revokeRole","inputs":[{"name":"role","type":"bytes32","internalType":"bytes32"},{"name":"account","type":"address","internalType":"address"}],"outputs":[],"stateMutability":"nonpayable"},{"type":"function","name":"supportsInterface","inputs":[{"name":"interfaceId","type":"bytes4","internalType":"bytes4"}],"outputs":[{"name":"","type":"bool","internalType":"bool"}],"stateMutability":"view"},{"type":"function","name":"transferOwnership","inputs":[{"name":"newOwner","type":"address","internalType":"address"}],"outputs":[],"stateMutability":"nonpayable"},{"type":"function","name":"unregister","inputs":[{"name":"_eventId","type":"uint256","internalType":"uint256"},{"name":"_user","type":"address","internalType":"address"}],"outputs":[],"stateMutability":"nonpayable"},{"type":"event","name":"EventCreated","inputs":[{"name":"id","type":"uint256","indexed":false,"internalType":"uint256"},{"name":"name","type":"string","indexed":false,"internalType":"string"}],"anonymous":false},{"type":"event","name":"Initialized","inputs":[{"name":"version","type":"uint64","indexed":false,"internalType":"uint64"}],"anonymous":false},{"type":"event","name":"OwnershipTransferStarted","inputs":[{"name":"previousOwner","type":"address","indexed":true,"internalType":"address"},{"name":"newOwner","type":"address","indexed":true,"internalType":"address"}],"anonymous":false},{"type":"event","name":"OwnershipTransferred","inputs":[{"name":"previousOwner","type":"address","indexed":true,"internalType":"address"},{"name":"newOwner","type":"address","indexed":true,"internalType":"address"}],"anonymous":false},{"type":"event","name":"Registered","inputs":[{"name":"registrant","type":"address","indexed":true,"internalType":"address"},{"name":"eventId","type":"uint256","indexed":false,"internalType":"uint256"}],"anonymous":false},{"type":"event","name":"RegistrationClosed","inputs":[{"name":"eventId","type":"uint256","indexed":false,"internalType":"uint256"}],"anonymous":false},{"type":"event","name":"RegistrationOpened","inputs":[{"name":"eventId","type":"uint256","indexed":false,"internalType":"uint256"}],"anonymous":false},{"type":"event","name":"RoleAdminChanged","inputs":[{"name":"role","type":"bytes32","indexed":true,"internalType":"bytes32"},{"name":"previousAdminRole","type":"bytes32","indexed":true,"internalType":"bytes32"},{"name":"newAdminRole","type":"bytes32","indexed":true,"internalType":"bytes32"}],"anonymous":false},{"type":"event","name":"RoleGranted","inputs":[{"name":"role","type":"bytes32","indexed":true,"internalType":"bytes32"},{"name":"account","type":"address","indexed":true,"internalType":"address"},{"name":"sender","type":"address","indexed":true,"internalType":"address"}],"anonymous":false},{"type":"event","name":"RoleRevoked","inputs":[{"name":"role","type":"bytes32","indexed":true,"internalType":"bytes32"},{"name":"account","type":"address","indexed":true,"internalType":"address"},{"name":"sender","type":"address","indexed":true,"internalType":"address"}],"anonymous":false},{"type":"event","name":"Unregistered","inputs":[{"name":"registrant","type":"address","indexed":true,"internalType":"address"},{"name":"eventId","type":"uint256","indexed":false,"internalType":"uint256"}],"anonymous":false},{"type":"error","name":"AccessControlBadConfirmation","inputs":[]},{"type":"error","name":"AccessControlUnauthorizedAccount","inputs":[{"name":"account","type":"address","internalType":"address"},{"name":"neededRole","type":"bytes32","internalType":"bytes32"}]},{"type":"error","name":"InvalidInitialization","inputs":[]},{"type":"error","name":"NotInitializing","inputs":[]},{"type":"error","name":"OwnableInvalidOwner","inputs":[{"name":"owner","type":"address","internalType":"address"}]},{"type":"error","name":"OwnableUnauthorizedAccount","inputs":[{"name":"account","type":"address","internalType":"address"}]}],"bytecode":{"object":"0x608060405234801561000f575f80fd5b5061001a5f33610020565b506100ee565b5f8281527f02dd7bc7dec4dceedda775e58dd541e08a116c6c53815c0bd028192f7b626800602081815260408084206001600160a01b038616855290915282205460ff166100e3575f848152602082815260408083206001600160a01b03871684529091529020805460ff191660011790556100993390565b6001600160a01b0316836001600160a01b0316857f2f8788117e7eff1d82e926ec794901d17c78024a50270940304540a733656f0d60405160405180910390a460019150506100e8565b5f9150505b92915050565b611948806100fb5f395ff3fe608060405234801561000f575f80fd5b5060043610610187575f3560e01c806391d14854116100d9578063cca84a0c11610093578063da2449081161006e578063da2449081461038d578063e30c3978146103a0578063ee69654a146103a8578063f2fde38b146103bb575f80fd5b8063cca84a0c14610354578063d547741f14610367578063d66d6c101461037a575f80fd5b806391d14854146102ca5780639bc2bc71146102dd578063a217fddf146102f0578063a903b497146102f7578063ab31803f1461030a578063b81f6e181461032a575f80fd5b80635e54a14011610144578063780629271161011f578063780629271461027057806379ba50971461029a5780638129fc1c146102a25780638da5cb5b146102aa575f80fd5b80635e54a140146102335780636d1884e014610246578063715018a614610268575f80fd5b806301ffc9a71461018b5780630b791430146101b3578063248a9ca3146101d65780632f2ff15d146101f757806336568abe1461020c578063594868731461021f575b5f80fd5b61019e6101993660046114b3565b6103ce565b60405190151581526020015b60405180910390f35b6101c66101c13660046114e1565b610404565b6040516101aa949392919061153b565b6101e96101e43660046114e1565b6104b8565b6040519081526020016101aa565b61020a610205366004611586565b6104d8565b005b61020a61021a366004611586565b6104fa565b6101e95f805160206118d383398151915281565b61020a6102413660046114e1565b610532565b6102596102543660046114e1565b610628565b6040516101aa939291906115b0565b61020a610753565b6101e961027e366004611586565b600260209081525f928352604080842090915290825290205481565b61020a610766565b61020a6107ae565b6102b26108db565b6040516001600160a01b0390911681526020016101aa565b61019e6102d8366004611586565b61090f565b61020a6102eb3660046115ee565b610945565b6101e95f81565b61020a610305366004611699565b610a62565b61031d610318366004611699565b610a87565b6040516101aa91906116b2565b6101e9610338366004611586565b600160209081525f928352604080842090915290825290205481565b61020a6103623660046114e1565b610bd2565b61020a610375366004611586565b610cbd565b61020a6103883660046116f5565b610cd9565b61020a61039b366004611699565b610faa565b6102b2610fcb565b61020a6103b6366004611586565b610ff3565b61020a6103c9366004611699565b6111a6565b5f6001600160e01b03198216637965db0b60e01b14806103fe57506301ffc9a760e01b6001600160e01b03198316145b92915050565b5f602081905290815260409020805460018201805491929161042590611715565b80601f016020809104026020016040519081016040528092919081815260200182805461045190611715565b801561049c5780601f106104735761010080835404028352916020019161049c565b820191905f5260205f20905b81548152906001019060200180831161047f57829003601f168201915b5050506002909301549192505060ff8082169161010090041684565b5f9081525f805160206118f3833981519152602052604090206001015490565b6104e1826104b8565b6104ea8161122b565b6104f48383611235565b50505050565b6001600160a01b03811633146105235760405163334bd91960e11b815260040160405180910390fd5b61052d82826112d6565b505050565b5f805160206118d38339815191526105498161122b565b5f8281526020819052604090206002015460ff166105825760405162461bcd60e51b81526004016105799061174d565b60405180910390fd5b5f82815260208190526040902060020154610100900460ff166105d85760405162461bcd60e51b815260206004820152600e60248201526d105b1c9958591e4818db1bdcd95960921b6044820152606401610579565b5f8281526020818152604091829020600201805461ff001916905590518381527f383b6ce38b867405b4f42fa404692e07842868068badd063c9bfeb0e7f263f6291015b60405180910390a15050565b5f81815260208190526040812060020154606090829060ff1661065d5760405162461bcd60e51b81526004016105799061174d565b5f805f8681526020019081526020015f206040518060800160405290815f820154815260200160018201805461069290611715565b80601f01602080910402602001604051908101604052809291908181526020018280546106be90611715565b80156107095780601f106106e057610100808354040283529160200191610709565b820191905f5260205f20905b8154815290600101906020018083116106ec57829003601f168201915b50505091835250506002919091015460ff80821615156020808501919091526101009092041615156040909201919091528151908201516060909201519097919650945092505050565b61075b61134f565b6107645f611381565b565b3380610770610fcb565b6001600160a01b0316146107a25760405163118cdaa760e01b81526001600160a01b0382166004820152602401610579565b6107ab81611381565b50565b7ff0c57e16840df040f15088dc2f81fe391c3923bec73e23a9662efc9c229c6a008054600160401b810460ff16159067ffffffffffffffff165f811580156107f35750825b90505f8267ffffffffffffffff16600114801561080f5750303b155b90508115801561081d575080155b1561083b5760405163f92ee8a960e01b815260040160405180910390fd5b845467ffffffffffffffff19166001178555831561086557845460ff60401b1916600160401b1785555b61086d6113b9565b6108845f805160206118d383398151915233611235565b5061088e33611381565b83156108d457845460ff60401b19168555604051600181527fc7f505b2f371ae2175ee4913f4499e1f2633a7b5936321eed1cdaeb6115181d29060200160405180910390a15b5050505050565b5f807f9016d09d72d40fdae2fd8ceac6b6234c7706214fd39c1cd1e609a0528c1993005b546001600160a01b031692915050565b5f9182525f805160206118f3833981519152602090815260408084206001600160a01b0393909316845291905290205460ff1690565b5f805160206118d383398151915261095c8161122b565b6003546040805160808101825282815260208082018681526001838501819052606084018190525f868152928390529390912082518155905191929091908201906109a790826117ba565b506040828101516002909201805460609094015115156101000261ff00199315159390931661ffff199094169390931791909117909155517f9ce3d6db707bca4ba0eabed8fba1e2c013a1c0bc1132a764170a7854d198c73d90610a0e908390869061187a565b60405180910390a16040518181527fe0a3eabfba8d6b242de244fdd6f0372ee66d472686b2cfd89420ef24c04622019060200160405180910390a160038054905f610a588361189a565b9190505550505050565b5f610a6c8161122b565b610a835f805160206118d3833981519152836104d8565b5050565b60605f60035467ffffffffffffffff811115610aa557610aa56115da565b604051908082528060200260200182016040528015610ace578160200160208202803683370190505b5090505f805b600354811015610b39575f8181526001602090815260408083206001600160a01b038916845290915290205415610b315780838381518110610b1857610b186118be565b602090810291909101015281610b2d8161189a565b9250505b600101610ad4565b505f8167ffffffffffffffff811115610b5457610b546115da565b604051908082528060200260200182016040528015610b7d578160200160208202803683370190505b5090505f5b82811015610bc957838181518110610b9c57610b9c6118be565b6020026020010151828281518110610bb657610bb66118be565b6020908102919091010152600101610b82565b50949350505050565b5f805160206118d3833981519152610be98161122b565b5f8281526020819052604090206002015460ff16610c195760405162461bcd60e51b81526004016105799061174d565b5f82815260208190526040902060020154610100900460ff1615610c6e5760405162461bcd60e51b815260206004820152600c60248201526b20b63932b0b23c9037b832b760a11b6044820152606401610579565b5f8281526020819052604090819020600201805461ff001916610100179055517fe0a3eabfba8d6b242de244fdd6f0372ee66d472686b2cfd89420ef24c04622019061061c9084815260200190565b610cc6826104b8565b610ccf8161122b565b6104f483836112d6565b5f805f8481526020019081526020015f206040518060800160405290815f8201548152602001600182018054610d0e90611715565b80601f0160208091040260200160405190810160405280929190818152602001828054610d3a90611715565b8015610d855780601f10610d5c57610100808354040283529160200191610d85565b820191905f5260205f20905b815481529060010190602001808311610d6857829003601f168201915b50505091835250506002919091015460ff80821615156020840152610100909104161515604091820152810151909150610dd15760405162461bcd60e51b81526004016105799061174d565b8060600151610e195760405162461bcd60e51b8152602060048201526014602482015273149959da5cdd1c985d1a5bdb9cc818db1bdcd95960621b6044820152606401610579565b81600103610ea3575f8381526002602090815260408083203384529091529020541580610e5d57505f83815260026020818152604080842033855290915290912054145b610e9e5760405162461bcd60e51b8152602060048201526012602482015271416c726561647920696e207374616765203160701b6044820152606401610579565b610f43565b81600203610f0b575f838152600260209081526040808320338452909152902054600114610e9e5760405162461bcd60e51b81526020600482015260156024820152742737ba103932b0b23c903337b91039ba30b3b2901960591b6044820152606401610579565b60405162461bcd60e51b815260206004820152600d60248201526c496e76616c696420706861736560981b6044820152606401610579565b5f8381526001602090815260408083203380855290835281842042905586845260028352818420818552835292819020859055518581527f6f3bf3fa84e4763a43b3d23f9d79be242d6d5c834941ff4c1111b67469e1150c910160405180910390a2505050565b5f610fb48161122b565b610a835f805160206118d383398151915283610cbd565b5f807f237e158222e3e6968b72b9db0d8043aacf074ad9f650f0d1606b4d82ee432c006108ff565b5f805160206118d383398151915261100a8161122b565b5f805f8581526020019081526020015f206040518060800160405290815f820154815260200160018201805461103f90611715565b80601f016020809104026020016040519081016040528092919081815260200182805461106b90611715565b80156110b65780601f1061108d576101008083540402835291602001916110b6565b820191905f5260205f20905b81548152906001019060200180831161109957829003601f168201915b50505091835250506002919091015460ff808216151560208401526101009091041615156040918201528101519091506111025760405162461bcd60e51b81526004016105799061174d565b806060015161114a5760405162461bcd60e51b8152602060048201526014602482015273149959da5cdd1c985d1a5bdb9cc818db1bdcd95960621b6044820152606401610579565b5f8481526001602090815260408083206001600160a01b03871680855290835281842093909355518681527f15f7469572dc44ee54c08cc4adf4e1031d7b6254626e8894015195a560039d09910160405180910390a250505050565b6111ae61134f565b7f237e158222e3e6968b72b9db0d8043aacf074ad9f650f0d1606b4d82ee432c0080546001600160a01b0319166001600160a01b03831690811782556111f26108db565b6001600160a01b03167f38d16b8cac22d99fc7c124b9cd0de2d3fa1faef420bfe791d8c362d765e2270060405160405180910390a35050565b6107ab81336113c1565b5f5f805160206118f383398151915261124e848461090f565b6112cd575f848152602082815260408083206001600160a01b03871684529091529020805460ff191660011790556112833390565b6001600160a01b0316836001600160a01b0316857f2f8788117e7eff1d82e926ec794901d17c78024a50270940304540a733656f0d60405160405180910390a460019150506103fe565b5f9150506103fe565b5f5f805160206118f38339815191526112ef848461090f565b156112cd575f848152602082815260408083206001600160a01b0387168085529252808320805460ff1916905551339287917ff6391f5c32d9c69d2a47ea670b442974b53935d1edc7fd64eb21e047a839171b9190a460019150506103fe565b336113586108db565b6001600160a01b0316146107645760405163118cdaa760e01b8152336004820152602401610579565b7f237e158222e3e6968b72b9db0d8043aacf074ad9f650f0d1606b4d82ee432c0080546001600160a01b0319168155610a83826113fa565b61076461146a565b6113cb828261090f565b610a835760405163e2517d3f60e01b81526001600160a01b038216600482015260248101839052604401610579565b7f9016d09d72d40fdae2fd8ceac6b6234c7706214fd39c1cd1e609a0528c19930080546001600160a01b031981166001600160a01b03848116918217845560405192169182907f8be0079c531659141344cd1fd0a4f28419497f9722a3daafe3b4186f6b6457e0905f90a3505050565b7ff0c57e16840df040f15088dc2f81fe391c3923bec73e23a9662efc9c229c6a0054600160401b900460ff1661076457604051631afcd79f60e31b815260040160405180910390fd5b5f602082840312156114c3575f80fd5b81356001600160e01b0319811681146114da575f80fd5b9392505050565b5f602082840312156114f1575f80fd5b5035919050565b5f81518084525f5b8181101561151c57602081850181015186830182015201611500565b505f602082860101526020601f19601f83011685010191505092915050565b848152608060208201525f61155360808301866114f8565b93151560408301525090151560609091015292915050565b80356001600160a01b0381168114611581575f80fd5b919050565b5f8060408385031215611597575f80fd5b823591506115a76020840161156b565b90509250929050565b838152606060208201525f6115c860608301856114f8565b90508215156040830152949350505050565b634e487b7160e01b5f52604160045260245ffd5b5f602082840312156115fe575f80fd5b813567ffffffffffffffff80821115611615575f80fd5b818401915084601f830112611628575f80fd5b81358181111561163a5761163a6115da565b604051601f8201601f19908116603f01168101908382118183101715611662576116626115da565b8160405282815287602084870101111561167a575f80fd5b826020860160208301375f928101602001929092525095945050505050565b5f602082840312156116a9575f80fd5b6114da8261156b565b602080825282518282018190525f9190848201906040850190845b818110156116e9578351835292840192918401916001016116cd565b50909695505050505050565b5f8060408385031215611706575f80fd5b50508035926020909101359150565b600181811c9082168061172957607f821691505b60208210810361174757634e487b7160e01b5f52602260045260245ffd5b50919050565b6020808252600f908201526e115d995b9d081b9bdd08199bdd5b99608a1b604082015260600190565b601f82111561052d57805f5260205f20601f840160051c8101602085101561179b5750805b601f840160051c820191505b818110156108d4575f81556001016117a7565b815167ffffffffffffffff8111156117d4576117d46115da565b6117e8816117e28454611715565b84611776565b602080601f83116001811461181b575f84156118045750858301515b5f19600386901b1c1916600185901b178555611872565b5f85815260208120601f198616915b828110156118495788860151825594840194600190910190840161182a565b508582101561186657878501515f19600388901b60f8161c191681555b505060018460011b0185555b505050505050565b828152604060208201525f61189260408301846114f8565b949350505050565b5f600182016118b757634e487b7160e01b5f52601160045260245ffd5b5060010190565b634e487b7160e01b5f52603260045260245ffdfea961ef34a96635180dfffd0ae574060d6c6af619ce89175a103711bf5ce8270802dd7bc7dec4dceedda775e58dd541e08a116c6c53815c0bd028192f7b626800a26469706673582212204a36734950bc02a72f7ace748b1af13dfc88329e407b698241ca5df16fa2694a64736f6c63430008180033","linkReferences":{}},"methodIdentifiers":{"DEFAULT_ADMIN_ROLE()":"a217fddf","EVENT_MANAGER_ROLE()":"59486873","acceptOwnership()":"79ba5097","closeRegistration(uint256)":"5e54a140","createEvent(string)":"9bc2bc71","eventStages(uint256,address)":"78062927","events(uint256)":"0b791430","getEvent(uint256)":"6d1884e0","getRegisteredEvents(address)":"ab31803f","getRoleAdmin(bytes32)":"248a9ca3","grantEventManagerRole(address)":"a903b497","grantRole(bytes32,address)":"2f2ff15d","hasRole(bytes32,address)":"91d14854","initialize()":"8129fc1c","isRegistered(uint256,address)":"b81f6e18","openRegistration(uint256)":"cca84a0c","owner()":"8da5cb5b","pendingOwner()":"e30c3978","register(uint256,uint256)":"d66d6c10","renounceOwnership()":"715018a6","renounceRole(bytes32,address)":"36568abe","revokeEventManagerRole(address)":"da244908","revokeRole(bytes32,address)":"d547741f","supportsInterface(bytes4)":"01ffc9a7","transferOwnership(address)":"f2fde38b","unregister(uint256,address)":"ee69654a"},"id":0}