{"abi":[{"type":"constructor","inputs":[],"stateMutability":"nonpayable"},{"type":"function","name":"DEFAULT_ADMIN_ROLE","inputs":[],"outputs":[{"name":"","type":"bytes32","internalType":"bytes32"}],"stateMutability":"view"},{"type":"function","name":"EVENT_MANAGER_ROLE","inputs":[],"outputs":[{"name":"","type":"bytes32","internalType":"bytes32"}],"stateMutability":"view"},{"type":"function","name":"acceptOwnership","inputs":[],"outputs":[],"stateMutability":"nonpayable"},{"type":"function","name":"closeRegistration","inputs":[{"name":"_eventId","type":"uint256","internalType":"uint256"}],"outputs":[],"stateMutability":"nonpayable"},{"type":"function","name":"createEvent","inputs":[{"name":"_name","type":"string","internalType":"string"}],"outputs":[],"stateMutability":"nonpayable"},{"type":"function","name":"events","inputs":[{"name":"eventId","type":"uint256","internalType":"uint256"}],"outputs":[{"name":"id","type":"uint256","internalType":"uint256"},{"name":"name","type":"string","internalType":"string"},{"name":"exists","type":"bool","internalType":"bool"},{"name":"registrationOpen","type":"bool","internalType":"bool"}],"stateMutability":"view"},{"type":"function","name":"getEvent","inputs":[{"name":"_eventId","type":"uint256","internalType":"uint256"}],"outputs":[{"name":"id","type":"uint256","internalType":"uint256"},{"name":"name","type":"string","internalType":"string"},{"name":"registrationOpen_","type":"bool","internalType":"bool"}],"stateMutability":"view"},{"type":"function","name":"getRegisteredEvents","inputs":[{"name":"_user","type":"address","internalType":"address"}],"outputs":[{"name":"","type":"uint256[]","internalType":"uint256[]"}],"stateMutability":"view"},{"type":"function","name":"getRoleAdmin","inputs":[{"name":"role","type":"bytes32","internalType":"bytes32"}],"outputs":[{"name":"","type":"bytes32","internalType":"bytes32"}],"stateMutability":"view"},{"type":"function","name":"grantEventManagerRole","inputs":[{"name":"account","type":"address","internalType":"address"}],"outputs":[],"stateMutability":"nonpayable"},{"type":"function","name":"grantRole","inputs":[{"name":"role","type":"bytes32","internalType":"bytes32"},{"name":"account","type":"address","internalType":"address"}],"outputs":[],"stateMutability":"nonpayable"},{"type":"function","name":"hasRole","inputs":[{"name":"role","type":"bytes32","internalType":"bytes32"},{"name":"account","type":"address","internalType":"address"}],"outputs":[{"name":"","type":"bool","internalType":"bool"}],"stateMutability":"view"},{"type":"function","name":"initialize","inputs":[],"outputs":[],"stateMutability":"nonpayable"},{"type":"function","name":"isRegistered","inputs":[{"name":"eventId","type":"uint256","internalType":"uint256"},{"name":"registrant","type":"address","internalType":"address"}],"outputs":[{"name":"timestamp","type":"uint256","internalType":"uint256"}],"stateMutability":"view"},{"type":"function","name":"openRegistration","inputs":[{"name":"_eventId","type":"uint256","internalType":"uint256"}],"outputs":[],"stateMutability":"nonpayable"},{"type":"function","name":"owner","inputs":[],"outputs":[{"name":"","type":"address","internalType":"address"}],"stateMutability":"view"},{"type":"function","name":"pendingOwner","inputs":[],"outputs":[{"name":"","type":"address","internalType":"address"}],"stateMutability":"view"},{"type":"function","name":"register","inputs":[{"name":"_eventId","type":"uint256","internalType":"uint256"}],"outputs":[],"stateMutability":"nonpayable"},{"type":"function","name":"renounceOwnership","inputs":[],"outputs":[],"stateMutability":"nonpayable"},{"type":"function","name":"renounceRole","inputs":[{"name":"role","type":"bytes32","internalType":"bytes32"},{"name":"callerConfirmation","type":"address","internalType":"address"}],"outputs":[],"stateMutability":"nonpayable"},{"type":"function","name":"revokeEventManagerRole","inputs":[{"name":"account","type":"address","internalType":"address"}],"outputs":[],"stateMutability":"nonpayable"},{"type":"function","name":"revokeRole","inputs":[{"name":"role","type":"bytes32","internalType":"bytes32"},{"name":"account","type":"address","internalType":"address"}],"outputs":[],"stateMutability":"nonpayable"},{"type":"function","name":"supportsInterface","inputs":[{"name":"interfaceId","type":"bytes4","internalType":"bytes4"}],"outputs":[{"name":"","type":"bool","internalType":"bool"}],"stateMutability":"view"},{"type":"function","name":"transferOwnership","inputs":[{"name":"newOwner","type":"address","internalType":"address"}],"outputs":[],"stateMutability":"nonpayable"},{"type":"function","name":"unregister","inputs":[{"name":"_eventId","type":"uint256","internalType":"uint256"},{"name":"_user","type":"address","internalType":"address"}],"outputs":[],"stateMutability":"nonpayable"},{"type":"event","name":"EventCreated","inputs":[{"name":"id","type":"uint256","indexed":false,"internalType":"uint256"},{"name":"name","type":"string","indexed":false,"internalType":"string"}],"anonymous":false},{"type":"event","name":"Initialized","inputs":[{"name":"version","type":"uint64","indexed":false,"internalType":"uint64"}],"anonymous":false},{"type":"event","name":"OwnershipTransferStarted","inputs":[{"name":"previousOwner","type":"address","indexed":true,"internalType":"address"},{"name":"newOwner","type":"address","indexed":true,"internalType":"address"}],"anonymous":false},{"type":"event","name":"OwnershipTransferred","inputs":[{"name":"previousOwner","type":"address","indexed":true,"internalType":"address"},{"name":"newOwner","type":"address","indexed":true,"internalType":"address"}],"anonymous":false},{"type":"event","name":"Registered","inputs":[{"name":"registrant","type":"address","indexed":true,"internalType":"address"},{"name":"eventId","type":"uint256","indexed":false,"internalType":"uint256"}],"anonymous":false},{"type":"event","name":"RegistrationClosed","inputs":[{"name":"eventId","type":"uint256","indexed":false,"internalType":"uint256"}],"anonymous":false},{"type":"event","name":"RegistrationOpened","inputs":[{"name":"eventId","type":"uint256","indexed":false,"internalType":"uint256"}],"anonymous":false},{"type":"event","name":"RoleAdminChanged","inputs":[{"name":"role","type":"bytes32","indexed":true,"internalType":"bytes32"},{"name":"previousAdminRole","type":"bytes32","indexed":true,"internalType":"bytes32"},{"name":"newAdminRole","type":"bytes32","indexed":true,"internalType":"bytes32"}],"anonymous":false},{"type":"event","name":"RoleGranted","inputs":[{"name":"role","type":"bytes32","indexed":true,"internalType":"bytes32"},{"name":"account","type":"address","indexed":true,"internalType":"address"},{"name":"sender","type":"address","indexed":true,"internalType":"address"}],"anonymous":false},{"type":"event","name":"RoleRevoked","inputs":[{"name":"role","type":"bytes32","indexed":true,"internalType":"bytes32"},{"name":"account","type":"address","indexed":true,"internalType":"address"},{"name":"sender","type":"address","indexed":true,"internalType":"address"}],"anonymous":false},{"type":"event","name":"Unregistered","inputs":[{"name":"registrant","type":"address","indexed":true,"internalType":"address"},{"name":"eventId","type":"uint256","indexed":false,"internalType":"uint256"}],"anonymous":false},{"type":"error","name":"AccessControlBadConfirmation","inputs":[]},{"type":"error","name":"AccessControlUnauthorizedAccount","inputs":[{"name":"account","type":"address","internalType":"address"},{"name":"neededRole","type":"bytes32","internalType":"bytes32"}]},{"type":"error","name":"InvalidInitialization","inputs":[]},{"type":"error","name":"NotInitializing","inputs":[]},{"type":"error","name":"OwnableInvalidOwner","inputs":[{"name":"owner","type":"address","internalType":"address"}]},{"type":"error","name":"OwnableUnauthorizedAccount","inputs":[{"name":"account","type":"address","internalType":"address"}]}],"bytecode":{"object":"0x608060405234801561000f575f80fd5b5061001a5f33610020565b506100ee565b5f8281527f02dd7bc7dec4dceedda775e58dd541e08a116c6c53815c0bd028192f7b626800602081815260408084206001600160a01b038616855290915282205460ff166100e3575f848152602082815260408083206001600160a01b03871684529091529020805460ff191660011790556100993390565b6001600160a01b0316836001600160a01b0316857f2f8788117e7eff1d82e926ec794901d17c78024a50270940304540a733656f0d60405160405180910390a460019150506100e8565b5f9150505b92915050565b6117a4806100fb5f395ff3fe608060405234801561000f575f80fd5b506004361061016d575f3560e01c806391d14854116100d9578063cca84a0c11610093578063e30c39781161006e578063e30c397814610349578063ee69654a14610351578063f207564e14610364578063f2fde38b14610377575f80fd5b8063cca84a0c14610310578063d547741f14610323578063da24490814610336575f80fd5b806391d14854146102865780639bc2bc7114610299578063a217fddf146102ac578063a903b497146102b3578063ab31803f146102c6578063b81f6e18146102e6575f80fd5b80635e54a1401161012a5780635e54a140146102195780636d1884e01461022c578063715018a61461024e57806379ba5097146102565780638129fc1c1461025e5780638da5cb5b14610266575f80fd5b806301ffc9a7146101715780630b79143014610199578063248a9ca3146101bc5780632f2ff15d146101dd57806336568abe146101f25780635948687314610205575b5f80fd5b61018461017f36600461132f565b61038a565b60405190151581526020015b60405180910390f35b6101ac6101a736600461135d565b6103c0565b60405161019094939291906113b7565b6101cf6101ca36600461135d565b610474565b604051908152602001610190565b6101f06101eb366004611402565b610494565b005b6101f0610200366004611402565b6104b6565b6101cf5f8051602061172f83398151915281565b6101f061022736600461135d565b6104ee565b61023f61023a36600461135d565b6105e4565b6040516101909392919061142c565b6101f061070f565b6101f0610722565b6101f061076a565b61026e610897565b6040516001600160a01b039091168152602001610190565b610184610294366004611402565b6108cb565b6101f06102a736600461146a565b610901565b6101cf5f81565b6101f06102c1366004611515565b610a1e565b6102d96102d4366004611515565b610a43565b604051610190919061152e565b6101cf6102f4366004611402565b600160209081525f928352604080842090915290825290205481565b6101f061031e36600461135d565b610b8e565b6101f0610331366004611402565b610c79565b6101f0610344366004611515565b610c95565b61026e610cb6565b6101f061035f366004611402565b610cde565b6101f061037236600461135d565b610e91565b6101f0610385366004611515565b611022565b5f6001600160e01b03198216637965db0b60e01b14806103ba57506301ffc9a760e01b6001600160e01b03198316145b92915050565b5f60208190529081526040902080546001820180549192916103e190611571565b80601f016020809104026020016040519081016040528092919081815260200182805461040d90611571565b80156104585780601f1061042f57610100808354040283529160200191610458565b820191905f5260205f20905b81548152906001019060200180831161043b57829003601f168201915b5050506002909301549192505060ff8082169161010090041684565b5f9081525f8051602061174f833981519152602052604090206001015490565b61049d82610474565b6104a6816110a7565b6104b083836110b1565b50505050565b6001600160a01b03811633146104df5760405163334bd91960e11b815260040160405180910390fd5b6104e98282611152565b505050565b5f8051602061172f833981519152610505816110a7565b5f8281526020819052604090206002015460ff1661053e5760405162461bcd60e51b8152600401610535906115a9565b60405180910390fd5b5f82815260208190526040902060020154610100900460ff166105945760405162461bcd60e51b815260206004820152600e60248201526d105b1c9958591e4818db1bdcd95960921b6044820152606401610535565b5f8281526020818152604091829020600201805461ff001916905590518381527f383b6ce38b867405b4f42fa404692e07842868068badd063c9bfeb0e7f263f6291015b60405180910390a15050565b5f81815260208190526040812060020154606090829060ff166106195760405162461bcd60e51b8152600401610535906115a9565b5f805f8681526020019081526020015f206040518060800160405290815f820154815260200160018201805461064e90611571565b80601f016020809104026020016040519081016040528092919081815260200182805461067a90611571565b80156106c55780601f1061069c576101008083540402835291602001916106c5565b820191905f5260205f20905b8154815290600101906020018083116106a857829003601f168201915b50505091835250506002919091015460ff80821615156020808501919091526101009092041615156040909201919091528151908201516060909201519097919650945092505050565b6107176111cb565b6107205f6111fd565b565b338061072c610cb6565b6001600160a01b03161461075e5760405163118cdaa760e01b81526001600160a01b0382166004820152602401610535565b610767816111fd565b50565b7ff0c57e16840df040f15088dc2f81fe391c3923bec73e23a9662efc9c229c6a008054600160401b810460ff16159067ffffffffffffffff165f811580156107af5750825b90505f8267ffffffffffffffff1660011480156107cb5750303b155b9050811580156107d9575080155b156107f75760405163f92ee8a960e01b815260040160405180910390fd5b845467ffffffffffffffff19166001178555831561082157845460ff60401b1916600160401b1785555b610829611235565b6108405f8051602061172f833981519152336110b1565b5061084a336111fd565b831561089057845460ff60401b19168555604051600181527fc7f505b2f371ae2175ee4913f4499e1f2633a7b5936321eed1cdaeb6115181d29060200160405180910390a15b5050505050565b5f807f9016d09d72d40fdae2fd8ceac6b6234c7706214fd39c1cd1e609a0528c1993005b546001600160a01b031692915050565b5f9182525f8051602061174f833981519152602090815260408084206001600160a01b0393909316845291905290205460ff1690565b5f8051602061172f833981519152610918816110a7565b6002546040805160808101825282815260208082018681526001838501819052606084018190525f868152928390529390912082518155905191929091908201906109639082611616565b506040828101516002909201805460609094015115156101000261ff00199315159390931661ffff199094169390931791909117909155517f9ce3d6db707bca4ba0eabed8fba1e2c013a1c0bc1132a764170a7854d198c73d906109ca90839086906116d6565b60405180910390a16040518181527fe0a3eabfba8d6b242de244fdd6f0372ee66d472686b2cfd89420ef24c04622019060200160405180910390a160028054905f610a14836116f6565b9190505550505050565b5f610a28816110a7565b610a3f5f8051602061172f83398151915283610494565b5050565b60605f60025467ffffffffffffffff811115610a6157610a61611456565b604051908082528060200260200182016040528015610a8a578160200160208202803683370190505b5090505f805b600254811015610af5575f8181526001602090815260408083206001600160a01b038916845290915290205415610aed5780838381518110610ad457610ad461171a565b602090810291909101015281610ae9816116f6565b9250505b600101610a90565b505f8167ffffffffffffffff811115610b1057610b10611456565b604051908082528060200260200182016040528015610b39578160200160208202803683370190505b5090505f5b82811015610b8557838181518110610b5857610b5861171a565b6020026020010151828281518110610b7257610b7261171a565b6020908102919091010152600101610b3e565b50949350505050565b5f8051602061172f833981519152610ba5816110a7565b5f8281526020819052604090206002015460ff16610bd55760405162461bcd60e51b8152600401610535906115a9565b5f82815260208190526040902060020154610100900460ff1615610c2a5760405162461bcd60e51b815260206004820152600c60248201526b20b63932b0b23c9037b832b760a11b6044820152606401610535565b5f8281526020819052604090819020600201805461ff001916610100179055517fe0a3eabfba8d6b242de244fdd6f0372ee66d472686b2cfd89420ef24c0462201906105d89084815260200190565b610c8282610474565b610c8b816110a7565b6104b08383611152565b5f610c9f816110a7565b610a3f5f8051602061172f83398151915283610c79565b5f807f237e158222e3e6968b72b9db0d8043aacf074ad9f650f0d1606b4d82ee432c006108bb565b5f8051602061172f833981519152610cf5816110a7565b5f805f8581526020019081526020015f206040518060800160405290815f8201548152602001600182018054610d2a90611571565b80601f0160208091040260200160405190810160405280929190818152602001828054610d5690611571565b8015610da15780601f10610d7857610100808354040283529160200191610da1565b820191905f5260205f20905b815481529060010190602001808311610d8457829003601f168201915b50505091835250506002919091015460ff80821615156020840152610100909104161515604091820152810151909150610ded5760405162461bcd60e51b8152600401610535906115a9565b8060600151610e355760405162461bcd60e51b8152602060048201526014602482015273149959da5cdd1c985d1a5bdb9cc818db1bdcd95960621b6044820152606401610535565b5f8481526001602090815260408083206001600160a01b03871680855290835281842093909355518681527f15f7469572dc44ee54c08cc4adf4e1031d7b6254626e8894015195a560039d09910160405180910390a250505050565b5f805f8381526020019081526020015f206040518060800160405290815f8201548152602001600182018054610ec690611571565b80601f0160208091040260200160405190810160405280929190818152602001828054610ef290611571565b8015610f3d5780601f10610f1457610100808354040283529160200191610f3d565b820191905f5260205f20905b815481529060010190602001808311610f2057829003601f168201915b50505091835250506002919091015460ff80821615156020840152610100909104161515604091820152810151909150610f895760405162461bcd60e51b8152600401610535906115a9565b8060600151610fd15760405162461bcd60e51b8152602060048201526014602482015273149959da5cdd1c985d1a5bdb9cc818db1bdcd95960621b6044820152606401610535565b5f8281526001602090815260408083203380855290835292819020429055518481527f6f3bf3fa84e4763a43b3d23f9d79be242d6d5c834941ff4c1111b67469e1150c910160405180910390a25050565b61102a6111cb565b7f237e158222e3e6968b72b9db0d8043aacf074ad9f650f0d1606b4d82ee432c0080546001600160a01b0319166001600160a01b038316908117825561106e610897565b6001600160a01b03167f38d16b8cac22d99fc7c124b9cd0de2d3fa1faef420bfe791d8c362d765e2270060405160405180910390a35050565b610767813361123d565b5f5f8051602061174f8339815191526110ca84846108cb565b611149575f848152602082815260408083206001600160a01b03871684529091529020805460ff191660011790556110ff3390565b6001600160a01b0316836001600160a01b0316857f2f8788117e7eff1d82e926ec794901d17c78024a50270940304540a733656f0d60405160405180910390a460019150506103ba565b5f9150506103ba565b5f5f8051602061174f83398151915261116b84846108cb565b15611149575f848152602082815260408083206001600160a01b0387168085529252808320805460ff1916905551339287917ff6391f5c32d9c69d2a47ea670b442974b53935d1edc7fd64eb21e047a839171b9190a460019150506103ba565b336111d4610897565b6001600160a01b0316146107205760405163118cdaa760e01b8152336004820152602401610535565b7f237e158222e3e6968b72b9db0d8043aacf074ad9f650f0d1606b4d82ee432c0080546001600160a01b0319168155610a3f82611276565b6107206112e6565b61124782826108cb565b610a3f5760405163e2517d3f60e01b81526001600160a01b038216600482015260248101839052604401610535565b7f9016d09d72d40fdae2fd8ceac6b6234c7706214fd39c1cd1e609a0528c19930080546001600160a01b031981166001600160a01b03848116918217845560405192169182907f8be0079c531659141344cd1fd0a4f28419497f9722a3daafe3b4186f6b6457e0905f90a3505050565b7ff0c57e16840df040f15088dc2f81fe391c3923bec73e23a9662efc9c229c6a0054600160401b900460ff1661072057604051631afcd79f60e31b815260040160405180910390fd5b5f6020828403121561133f575f80fd5b81356001600160e01b031981168114611356575f80fd5b9392505050565b5f6020828403121561136d575f80fd5b5035919050565b5f81518084525f5b818110156113985760208185018101518683018201520161137c565b505f602082860101526020601f19601f83011685010191505092915050565b848152608060208201525f6113cf6080830186611374565b93151560408301525090151560609091015292915050565b80356001600160a01b03811681146113fd575f80fd5b919050565b5f8060408385031215611413575f80fd5b82359150611423602084016113e7565b90509250929050565b838152606060208201525f6114446060830185611374565b90508215156040830152949350505050565b634e487b7160e01b5f52604160045260245ffd5b5f6020828403121561147a575f80fd5b813567ffffffffffffffff80821115611491575f80fd5b818401915084601f8301126114a4575f80fd5b8135818111156114b6576114b6611456565b604051601f8201601f19908116603f011681019083821181831017156114de576114de611456565b816040528281528760208487010111156114f6575f80fd5b826020860160208301375f928101602001929092525095945050505050565b5f60208284031215611525575f80fd5b611356826113e7565b602080825282518282018190525f9190848201906040850190845b8181101561156557835183529284019291840191600101611549565b50909695505050505050565b600181811c9082168061158557607f821691505b6020821081036115a357634e487b7160e01b5f52602260045260245ffd5b50919050565b6020808252600f908201526e115d995b9d081b9bdd08199bdd5b99608a1b604082015260600190565b601f8211156104e957805f5260205f20601f840160051c810160208510156115f75750805b601f840160051c820191505b81811015610890575f8155600101611603565b815167ffffffffffffffff81111561163057611630611456565b6116448161163e8454611571565b846115d2565b602080601f831160018114611677575f84156116605750858301515b5f19600386901b1c1916600185901b1785556116ce565b5f85815260208120601f198616915b828110156116a557888601518255948401946001909101908401611686565b50858210156116c257878501515f19600388901b60f8161c191681555b505060018460011b0185555b505050505050565b828152604060208201525f6116ee6040830184611374565b949350505050565b5f6001820161171357634e487b7160e01b5f52601160045260245ffd5b5060010190565b634e487b7160e01b5f52603260045260245ffdfea961ef34a96635180dfffd0ae574060d6c6af619ce89175a103711bf5ce8270802dd7bc7dec4dceedda775e58dd541e08a116c6c53815c0bd028192f7b626800a2646970667358221220171537a7cc83947e7a0f32e4f73eb25728d8ff8d03711531e1fbb69edefb166764736f6c63430008180033","linkReferences":{}},"methodIdentifiers":{"DEFAULT_ADMIN_ROLE()":"a217fddf","EVENT_MANAGER_ROLE()":"59486873","acceptOwnership()":"79ba5097","closeRegistration(uint256)":"5e54a140","createEvent(string)":"9bc2bc71","events(uint256)":"0b791430","getEvent(uint256)":"6d1884e0","getRegisteredEvents(address)":"ab31803f","getRoleAdmin(bytes32)":"248a9ca3","grantEventManagerRole(address)":"a903b497","grantRole(bytes32,address)":"2f2ff15d","hasRole(bytes32,address)":"91d14854","initialize()":"8129fc1c","isRegistered(uint256,address)":"b81f6e18","openRegistration(uint256)":"cca84a0c","owner()":"8da5cb5b","pendingOwner()":"e30c3978","register(uint256)":"f207564e","renounceOwnership()":"715018a6","renounceRole(bytes32,address)":"36568abe","revokeEventManagerRole(address)":"da244908","revokeRole(bytes32,address)":"d547741f","supportsInterface(bytes4)":"01ffc9a7","transferOwnership(address)":"f2fde38b","unregister(uint256,address)":"ee69654a"},"id":1}