{"abi":[{"type":"constructor","inputs":[],"stateMutability":"nonpayable"},{"type":"function","name":"DEFAULT_ADMIN_ROLE","inputs":[],"outputs":[{"name":"","type":"bytes32","internalType":"bytes32"}],"stateMutability":"view"},{"type":"function","name":"EVENT_MANAGER_ROLE","inputs":[],"outputs":[{"name":"","type":"bytes32","internalType":"bytes32"}],"stateMutability":"view"},{"type":"function","name":"acceptOwnership","inputs":[],"outputs":[],"stateMutability":"nonpayable"},{"type":"function","name":"closeRegistration","inputs":[{"name":"_eventId","type":"uint256","internalType":"uint256"}],"outputs":[],"stateMutability":"nonpayable"},{"type":"function","name":"createEvent","inputs":[{"name":"_name","type":"string","internalType":"string"}],"outputs":[],"stateMutability":"nonpayable"},{"type":"function","name":"eventStages","inputs":[{"name":"eventId","type":"uint256","internalType":"uint256"},{"name":"registrant","type":"address","internalType":"address"}],"outputs":[{"name":"stage","type":"uint256","internalType":"uint256"}],"stateMutability":"view"},{"type":"function","name":"events","inputs":[{"name":"eventId","type":"uint256","internalType":"uint256"}],"outputs":[{"name":"id","type":"uint256","internalType":"uint256"},{"name":"name","type":"string","internalType":"string"},{"name":"exists","type":"bool","internalType":"bool"},{"name":"registrationOpen","type":"bool","internalType":"bool"}],"stateMutability":"view"},{"type":"function","name":"getEvent","inputs":[{"name":"_eventId","type":"uint256","internalType":"uint256"}],"outputs":[{"name":"id","type":"uint256","internalType":"uint256"},{"name":"name","type":"string","internalType":"string"},{"name":"registrationOpen_","type":"bool","internalType":"bool"}],"stateMutability":"view"},{"type":"function","name":"getRegisteredEvents","inputs":[{"name":"_user","type":"address","internalType":"address"}],"outputs":[{"name":"","type":"uint256[]","internalType":"uint256[]"}],"stateMutability":"view"},{"type":"function","name":"getRoleAdmin","inputs":[{"name":"role","type":"bytes32","internalType":"bytes32"}],"outputs":[{"name":"","type":"bytes32","internalType":"bytes32"}],"stateMutability":"view"},{"type":"function","name":"grantEventManagerRole","inputs":[{"name":"account","type":"address","internalType":"address"}],"outputs":[],"stateMutability":"nonpayable"},{"type":"function","name":"grantRole","inputs":[{"name":"role","type":"bytes32","internalType":"bytes32"},{"name":"account","type":"address","internalType":"address"}],"outputs":[],"stateMutability":"nonpayable"},{"type":"function","name":"hasRole","inputs":[{"name":"role","type":"bytes32","internalType":"bytes32"},{"name":"account","type":"address","internalType":"address"}],"outputs":[{"name":"","type":"bool","internalType":"bool"}],"stateMutability":"view"},{"type":"function","name":"initialize","inputs":[],"outputs":[],"stateMutability":"nonpayable"},{"type":"function","name":"isRegistered","inputs":[{"name":"eventId","type":"uint256","internalType":"uint256"},{"name":"registrant","type":"address","internalType":"address"}],"outputs":[{"name":"timestamp","type":"uint256","internalType":"uint256"}],"stateMutability":"view"},{"type":"function","name":"openRegistration","inputs":[{"name":"_eventId","type":"uint256","internalType":"uint256"}],"outputs":[],"stateMutability":"nonpayable"},{"type":"function","name":"owner","inputs":[],"outputs":[{"name":"","type":"address","internalType":"address"}],"stateMutability":"view"},{"type":"function","name":"pendingOwner","inputs":[],"outputs":[{"name":"","type":"address","internalType":"address"}],"stateMutability":"view"},{"type":"function","name":"register","inputs":[{"name":"_eventId","type":"uint256","internalType":"uint256"},{"name":"_phase","type":"uint256","internalType":"uint256"}],"outputs":[],"stateMutability":"nonpayable"},{"type":"function","name":"renounceOwnership","inputs":[],"outputs":[],"stateMutability":"nonpayable"},{"type":"function","name":"renounceRole","inputs":[{"name":"role","type":"bytes32","internalType":"bytes32"},{"name":"callerConfirmation","type":"address","internalType":"address"}],"outputs":[],"stateMutability":"nonpayable"},{"type":"function","name":"revokeEventManagerRole","inputs":[{"name":"account","type":"address","internalType":"address"}],"outputs":[],"stateMutability":"nonpayable"},{"type":"function","name":"revokeRole","inputs":[{"name":"role","type":"bytes32","internalType":"bytes32"},{"name":"account","type":"address","internalType":"address"}],"outputs":[],"stateMutability":"nonpayable"},{"type":"function","name":"supportsInterface","inputs":[{"name":"interfaceId","type":"bytes4","internalType":"bytes4"}],"outputs":[{"name":"","type":"bool","internalType":"bool"}],"stateMutability":"view"},{"type":"function","name":"transferOwnership","inputs":[{"name":"newOwner","type":"address","internalType":"address"}],"outputs":[],"stateMutability":"nonpayable"},{"type":"function","name":"unregister","inputs":[{"name":"_eventId","type":"uint256","internalType":"uint256"},{"name":"_user","type":"address","internalType":"address"}],"outputs":[],"stateMutability":"nonpayable"},{"type":"event","name":"EventCreated","inputs":[{"name":"id","type":"uint256","indexed":false,"internalType":"uint256"},{"name":"name","type":"string","indexed":false,"internalType":"string"}],"anonymous":false},{"type":"event","name":"Initialized","inputs":[{"name":"version","type":"uint64","indexed":false,"internalType":"uint64"}],"anonymous":false},{"type":"event","name":"OwnershipTransferStarted","inputs":[{"name":"previousOwner","type":"address","indexed":true,"internalType":"address"},{"name":"newOwner","type":"address","indexed":true,"internalType":"address"}],"anonymous":false},{"type":"event","name":"OwnershipTransferred","inputs":[{"name":"previousOwner","type":"address","indexed":true,"internalType":"address"},{"name":"newOwner","type":"address","indexed":true,"internalType":"address"}],"anonymous":false},{"type":"event","name":"Registered","inputs":[{"name":"registrant","type":"address","indexed":true,"internalType":"address"},{"name":"eventId","type":"uint256","indexed":false,"internalType":"uint256"}],"anonymous":false},{"type":"event","name":"RegistrationClosed","inputs":[{"name":"eventId","type":"uint256","indexed":false,"internalType":"uint256"}],"anonymous":false},{"type":"event","name":"RegistrationOpened","inputs":[{"name":"eventId","type":"uint256","indexed":false,"internalType":"uint256"}],"anonymous":false},{"type":"event","name":"RoleAdminChanged","inputs":[{"name":"role","type":"bytes32","indexed":true,"internalType":"bytes32"},{"name":"previousAdminRole","type":"bytes32","indexed":true,"internalType":"bytes32"},{"name":"newAdminRole","type":"bytes32","indexed":true,"internalType":"bytes32"}],"anonymous":false},{"type":"event","name":"RoleGranted","inputs":[{"name":"role","type":"bytes32","indexed":true,"internalType":"bytes32"},{"name":"account","type":"address","indexed":true,"internalType":"address"},{"name":"sender","type":"address","indexed":true,"internalType":"address"}],"anonymous":false},{"type":"event","name":"RoleRevoked","inputs":[{"name":"role","type":"bytes32","indexed":true,"internalType":"bytes32"},{"name":"account","type":"address","indexed":true,"internalType":"address"},{"name":"sender","type":"address","indexed":true,"internalType":"address"}],"anonymous":false},{"type":"event","name":"Unregistered","inputs":[{"name":"registrant","type":"address","indexed":true,"internalType":"address"},{"name":"eventId","type":"uint256","indexed":false,"internalType":"uint256"}],"anonymous":false},{"type":"error","name":"AccessControlBadConfirmation","inputs":[]},{"type":"error","name":"AccessControlUnauthorizedAccount","inputs":[{"name":"account","type":"address","internalType":"address"},{"name":"neededRole","type":"bytes32","internalType":"bytes32"}]},{"type":"error","name":"AlreadyClosed","inputs":[]},{"type":"error","name":"AlreadyOpen","inputs":[]},{"type":"error","name":"EventNotFound","inputs":[]},{"type":"error","name":"InvalidInitialization","inputs":[]},{"type":"error","name":"InvalidPhase","inputs":[]},{"type":"error","name":"NotInitializing","inputs":[]},{"type":"error","name":"NotReadyForStage2","inputs":[]},{"type":"error","name":"OwnableInvalidOwner","inputs":[{"name":"owner","type":"address","internalType":"address"}]},{"type":"error","name":"OwnableUnauthorizedAccount","inputs":[{"name":"account","type":"address","internalType":"address"}]},{"type":"error","name":"RegistrationsClosed","inputs":[]},{"type":"error","name":"bla","inputs":[]}],"bytecode":{"object":"0x608060405234801561000f575f80fd5b5061001a5f33610020565b506100ee565b5f8281527f02dd7bc7dec4dceedda775e58dd541e08a116c6c53815c0bd028192f7b626800602081815260408084206001600160a01b038616855290915282205460ff166100e3575f848152602082815260408083206001600160a01b03871684529091529020805460ff191660011790556100993390565b6001600160a01b0316836001600160a01b0316857f2f8788117e7eff1d82e926ec794901d17c78024a50270940304540a733656f0d60405160405180910390a460019150506100e8565b5f9150505b92915050565b61184d806100fb5f395ff3fe608060405234801561000f575f80fd5b5060043610610187575f3560e01c806391d14854116100d9578063cca84a0c11610093578063da2449081161006e578063da2449081461038d578063e30c3978146103a0578063ee69654a146103a8578063f2fde38b146103bb575f80fd5b8063cca84a0c14610354578063d547741f14610367578063d66d6c101461037a575f80fd5b806391d14854146102ca5780639bc2bc71146102dd578063a217fddf146102f0578063a903b497146102f7578063ab31803f1461030a578063b81f6e181461032a575f80fd5b80635e54a14011610144578063780629271161011f578063780629271461027057806379ba50971461029a5780638129fc1c146102a25780638da5cb5b146102aa575f80fd5b80635e54a140146102335780636d1884e014610246578063715018a614610268575f80fd5b806301ffc9a71461018b5780630b791430146101b3578063248a9ca3146101d65780632f2ff15d146101f757806336568abe1461020c578063594868731461021f575b5f80fd5b61019e6101993660046113e1565b6103ce565b60405190151581526020015b60405180910390f35b6101c66101c136600461140f565b610404565b6040516101aa9493929190611469565b6101e96101e436600461140f565b6104b8565b6040519081526020016101aa565b61020a6102053660046114b4565b6104d8565b005b61020a61021a3660046114b4565b6104fa565b6101e95f805160206117d883398151915281565b61020a61024136600461140f565b610532565b61025961025436600461140f565b610608565b6040516101aa939291906114de565b61020a610738565b6101e961027e3660046114b4565b600260209081525f928352604080842090915290825290205481565b61020a61074b565b61020a610798565b6102b26108c5565b6040516001600160a01b0390911681526020016101aa565b61019e6102d83660046114b4565b6108f9565b61020a6102eb36600461151c565b61092f565b6101e95f81565b61020a6103053660046115c7565b610a4c565b61031d6103183660046115c7565b610a71565b6040516101aa91906115e0565b6101e96103383660046114b4565b600160209081525f928352604080842090915290825290205481565b61020a61036236600461140f565b610bbc565b61020a6103753660046114b4565b610c92565b61020a610388366004611623565b610cae565b61020a61039b3660046115c7565b610ef5565b6102b2610f16565b61020a6103b63660046114b4565b610f3e565b61020a6103c93660046115c7565b6110d4565b5f6001600160e01b03198216637965db0b60e01b14806103fe57506301ffc9a760e01b6001600160e01b03198316145b92915050565b5f602081905290815260409020805460018201805491929161042590611643565b80601f016020809104026020016040519081016040528092919081815260200182805461045190611643565b801561049c5780601f106104735761010080835404028352916020019161049c565b820191905f5260205f20905b81548152906001019060200180831161047f57829003601f168201915b5050506002909301549192505060ff8082169161010090041684565b5f9081525f805160206117f8833981519152602052604090206001015490565b6104e1826104b8565b6104ea81611159565b6104f48383611163565b50505050565b6001600160a01b03811633146105235760405163334bd91960e11b815260040160405180910390fd5b61052d8282611204565b505050565b5f805160206117d883398151915261054981611159565b5f8281526020819052604081206002015460ff161515900361057e57604051635add554360e01b815260040160405180910390fd5b5f82815260208190526040812060020154610100900460ff16151590036105b857604051634d65bf2960e11b815260040160405180910390fd5b5f8281526020818152604091829020600201805461ff001916905590518381527f383b6ce38b867405b4f42fa404692e07842868068badd063c9bfeb0e7f263f6291015b60405180910390a15050565b5f81815260208190526040812060020154606090829060ff161515810361064257604051635add554360e01b815260040160405180910390fd5b5f805f8681526020019081526020015f206040518060800160405290815f820154815260200160018201805461067790611643565b80601f01602080910402602001604051908101604052809291908181526020018280546106a390611643565b80156106ee5780601f106106c5576101008083540402835291602001916106ee565b820191905f5260205f20905b8154815290600101906020018083116106d157829003601f168201915b50505091835250506002919091015460ff80821615156020808501919091526101009092041615156040909201919091528151908201516060909201519097919650945092505050565b61074061127d565b6107495f6112af565b565b3380610755610f16565b6001600160a01b03161461078c5760405163118cdaa760e01b81526001600160a01b03821660048201526024015b60405180910390fd5b610795816112af565b50565b7ff0c57e16840df040f15088dc2f81fe391c3923bec73e23a9662efc9c229c6a008054600160401b810460ff16159067ffffffffffffffff165f811580156107dd5750825b90505f8267ffffffffffffffff1660011480156107f95750303b155b905081158015610807575080155b156108255760405163f92ee8a960e01b815260040160405180910390fd5b845467ffffffffffffffff19166001178555831561084f57845460ff60401b1916600160401b1785555b6108576112e7565b61086e5f805160206117d883398151915233611163565b50610878336112af565b83156108be57845460ff60401b19168555604051600181527fc7f505b2f371ae2175ee4913f4499e1f2633a7b5936321eed1cdaeb6115181d29060200160405180910390a15b5050505050565b5f807f9016d09d72d40fdae2fd8ceac6b6234c7706214fd39c1cd1e609a0528c1993005b546001600160a01b031692915050565b5f9182525f805160206117f8833981519152602090815260408084206001600160a01b0393909316845291905290205460ff1690565b5f805160206117d883398151915261094681611159565b6003546040805160808101825282815260208082018681526001838501819052606084018190525f8681529283905293909120825181559051919290919082019061099190826116bf565b506040828101516002909201805460609094015115156101000261ff00199315159390931661ffff199094169390931791909117909155517f9ce3d6db707bca4ba0eabed8fba1e2c013a1c0bc1132a764170a7854d198c73d906109f8908390869061177f565b60405180910390a16040518181527fe0a3eabfba8d6b242de244fdd6f0372ee66d472686b2cfd89420ef24c04622019060200160405180910390a160038054905f610a428361179f565b9190505550505050565b5f610a5681611159565b610a6d5f805160206117d8833981519152836104d8565b5050565b60605f60035467ffffffffffffffff811115610a8f57610a8f611508565b604051908082528060200260200182016040528015610ab8578160200160208202803683370190505b5090505f805b600354811015610b23575f8181526001602090815260408083206001600160a01b038916845290915290205415610b1b5780838381518110610b0257610b026117c3565b602090810291909101015281610b178161179f565b9250505b600101610abe565b505f8167ffffffffffffffff811115610b3e57610b3e611508565b604051908082528060200260200182016040528015610b67578160200160208202803683370190505b5090505f5b82811015610bb357838181518110610b8657610b866117c3565b6020026020010151828281518110610ba057610ba06117c3565b6020908102919091010152600101610b6c565b50949350505050565b5f805160206117d8833981519152610bd381611159565b5f8281526020819052604081206002015460ff1615159003610c0857604051635add554360e01b815260040160405180910390fd5b5f82815260208190526040902060020154610100900460ff161515600103610c4357604051632597e36560e21b815260040160405180910390fd5b5f8281526020819052604090819020600201805461ff001916610100179055517fe0a3eabfba8d6b242de244fdd6f0372ee66d472686b2cfd89420ef24c0462201906105fc9084815260200190565b610c9b826104b8565b610ca481611159565b6104f48383611204565b5f805f8481526020019081526020015f206040518060800160405290815f8201548152602001600182018054610ce390611643565b80601f0160208091040260200160405190810160405280929190818152602001828054610d0f90611643565b8015610d5a5780601f10610d3157610100808354040283529160200191610d5a565b820191905f5260205f20905b815481529060010190602001808311610d3d57829003601f168201915b50505091835250506002919091015460ff8082161515602084015261010090910416151560409182015281015190915015155f03610dab57604051635add554360e01b815260040160405180910390fd5b606081015115155f03610dd157604051632596f79960e01b815260040160405180910390fd5b81600114158015610de3575081600214155b15610e015760405163268dbf6760e21b815260040160405180910390fd5b816001148015610e2957505f8381526002602090815260408083203384529091529020546001145b15610e475760405163b205345560e01b815260040160405180910390fd5b816002148015610e7057505f838152600260209081526040808320338452909152902054600114155b15610e8e5760405163b205345560e01b815260040160405180910390fd5b5f8381526001602090815260408083203380855290835281842042905586845260028352818420818552835292819020859055518581527f6f3bf3fa84e4763a43b3d23f9d79be242d6d5c834941ff4c1111b67469e1150c910160405180910390a2505050565b5f610eff81611159565b610a6d5f805160206117d883398151915283610c92565b5f807f237e158222e3e6968b72b9db0d8043aacf074ad9f650f0d1606b4d82ee432c006108e9565b5f805160206117d8833981519152610f5581611159565b5f805f8581526020019081526020015f206040518060800160405290815f8201548152602001600182018054610f8a90611643565b80601f0160208091040260200160405190810160405280929190818152602001828054610fb690611643565b80156110015780601f10610fd857610100808354040283529160200191611001565b820191905f5260205f20905b815481529060010190602001808311610fe457829003601f168201915b50505091835250506002919091015460ff8082161515602084015261010090910416151560409182015281015190915015155f0361105257604051635add554360e01b815260040160405180910390fd5b606081015115155f0361107857604051632596f79960e01b815260040160405180910390fd5b5f8481526001602090815260408083206001600160a01b03871680855290835281842093909355518681527f15f7469572dc44ee54c08cc4adf4e1031d7b6254626e8894015195a560039d09910160405180910390a250505050565b6110dc61127d565b7f237e158222e3e6968b72b9db0d8043aacf074ad9f650f0d1606b4d82ee432c0080546001600160a01b0319166001600160a01b03831690811782556111206108c5565b6001600160a01b03167f38d16b8cac22d99fc7c124b9cd0de2d3fa1faef420bfe791d8c362d765e2270060405160405180910390a35050565b61079581336112ef565b5f5f805160206117f883398151915261117c84846108f9565b6111fb575f848152602082815260408083206001600160a01b03871684529091529020805460ff191660011790556111b13390565b6001600160a01b0316836001600160a01b0316857f2f8788117e7eff1d82e926ec794901d17c78024a50270940304540a733656f0d60405160405180910390a460019150506103fe565b5f9150506103fe565b5f5f805160206117f883398151915261121d84846108f9565b156111fb575f848152602082815260408083206001600160a01b0387168085529252808320805460ff1916905551339287917ff6391f5c32d9c69d2a47ea670b442974b53935d1edc7fd64eb21e047a839171b9190a460019150506103fe565b336112866108c5565b6001600160a01b0316146107495760405163118cdaa760e01b8152336004820152602401610783565b7f237e158222e3e6968b72b9db0d8043aacf074ad9f650f0d1606b4d82ee432c0080546001600160a01b0319168155610a6d82611328565b610749611398565b6112f982826108f9565b610a6d5760405163e2517d3f60e01b81526001600160a01b038216600482015260248101839052604401610783565b7f9016d09d72d40fdae2fd8ceac6b6234c7706214fd39c1cd1e609a0528c19930080546001600160a01b031981166001600160a01b03848116918217845560405192169182907f8be0079c531659141344cd1fd0a4f28419497f9722a3daafe3b4186f6b6457e0905f90a3505050565b7ff0c57e16840df040f15088dc2f81fe391c3923bec73e23a9662efc9c229c6a0054600160401b900460ff1661074957604051631afcd79f60e31b815260040160405180910390fd5b5f602082840312156113f1575f80fd5b81356001600160e01b031981168114611408575f80fd5b9392505050565b5f6020828403121561141f575f80fd5b5035919050565b5f81518084525f5b8181101561144a5760208185018101518683018201520161142e565b505f602082860101526020601f19601f83011685010191505092915050565b848152608060208201525f6114816080830186611426565b93151560408301525090151560609091015292915050565b80356001600160a01b03811681146114af575f80fd5b919050565b5f80604083850312156114c5575f80fd5b823591506114d560208401611499565b90509250929050565b838152606060208201525f6114f66060830185611426565b90508215156040830152949350505050565b634e487b7160e01b5f52604160045260245ffd5b5f6020828403121561152c575f80fd5b813567ffffffffffffffff80821115611543575f80fd5b818401915084601f830112611556575f80fd5b81358181111561156857611568611508565b604051601f8201601f19908116603f0116810190838211818310171561159057611590611508565b816040528281528760208487010111156115a8575f80fd5b826020860160208301375f928101602001929092525095945050505050565b5f602082840312156115d7575f80fd5b61140882611499565b602080825282518282018190525f9190848201906040850190845b81811015611617578351835292840192918401916001016115fb565b50909695505050505050565b5f8060408385031215611634575f80fd5b50508035926020909101359150565b600181811c9082168061165757607f821691505b60208210810361167557634e487b7160e01b5f52602260045260245ffd5b50919050565b601f82111561052d57805f5260205f20601f840160051c810160208510156116a05750805b601f840160051c820191505b818110156108be575f81556001016116ac565b815167ffffffffffffffff8111156116d9576116d9611508565b6116ed816116e78454611643565b8461167b565b602080601f831160018114611720575f84156117095750858301515b5f19600386901b1c1916600185901b178555611777565b5f85815260208120601f198616915b8281101561174e5788860151825594840194600190910190840161172f565b508582101561176b57878501515f19600388901b60f8161c191681555b505060018460011b0185555b505050505050565b828152604060208201525f6117976040830184611426565b949350505050565b5f600182016117bc57634e487b7160e01b5f52601160045260245ffd5b5060010190565b634e487b7160e01b5f52603260045260245ffdfea961ef34a96635180dfffd0ae574060d6c6af619ce89175a103711bf5ce8270802dd7bc7dec4dceedda775e58dd541e08a116c6c53815c0bd028192f7b626800a26469706673582212200247ca4e207b8a7fbdc233b303c7a093b0d847c0317a9f81a412e4031ebb6a4464736f6c63430008180033","linkReferences":{}},"methodIdentifiers":{"DEFAULT_ADMIN_ROLE()":"a217fddf","EVENT_MANAGER_ROLE()":"59486873","acceptOwnership()":"79ba5097","closeRegistration(uint256)":"5e54a140","createEvent(string)":"9bc2bc71","eventStages(uint256,address)":"78062927","events(uint256)":"0b791430","getEvent(uint256)":"6d1884e0","getRegisteredEvents(address)":"ab31803f","getRoleAdmin(bytes32)":"248a9ca3","grantEventManagerRole(address)":"a903b497","grantRole(bytes32,address)":"2f2ff15d","hasRole(bytes32,address)":"91d14854","initialize()":"8129fc1c","isRegistered(uint256,address)":"b81f6e18","openRegistration(uint256)":"cca84a0c","owner()":"8da5cb5b","pendingOwner()":"e30c3978","register(uint256,uint256)":"d66d6c10","renounceOwnership()":"715018a6","renounceRole(bytes32,address)":"36568abe","revokeEventManagerRole(address)":"da244908","revokeRole(bytes32,address)":"d547741f","supportsInterface(bytes4)":"01ffc9a7","transferOwnership(address)":"f2fde38b","unregister(uint256,address)":"ee69654a"},"id":0}