{"abi":[{"type":"function","name":"BADGE_ANDROIDS","inputs":[],"outputs":[{"name":"","type":"uint256","internalType":"uint256"}],"stateMutability":"view"},{"type":"function","name":"BADGE_BOUNCERS","inputs":[],"outputs":[{"name":"","type":"uint256","internalType":"uint256"}],"stateMutability":"view"},{"type":"function","name":"BADGE_DRUMMERS","inputs":[],"outputs":[{"name":"","type":"uint256","internalType":"uint256"}],"stateMutability":"view"},{"type":"function","name":"BADGE_MASTERS","inputs":[],"outputs":[{"name":"","type":"uint256","internalType":"uint256"}],"stateMutability":"view"},{"type":"function","name":"BADGE_MONKS","inputs":[],"outputs":[{"name":"","type":"uint256","internalType":"uint256"}],"stateMutability":"view"},{"type":"function","name":"BADGE_RAVERS","inputs":[],"outputs":[{"name":"","type":"uint256","internalType":"uint256"}],"stateMutability":"view"},{"type":"function","name":"BADGE_ROBOTS","inputs":[],"outputs":[{"name":"","type":"uint256","internalType":"uint256"}],"stateMutability":"view"},{"type":"function","name":"BADGE_SHINTO","inputs":[],"outputs":[{"name":"","type":"uint256","internalType":"uint256"}],"stateMutability":"view"},{"type":"function","name":"MOVEMENT_BASED","inputs":[],"outputs":[{"name":"","type":"uint256","internalType":"uint256"}],"stateMutability":"view"},{"type":"function","name":"MOVEMENT_BOOSTED","inputs":[],"outputs":[{"name":"","type":"uint256","internalType":"uint256"}],"stateMutability":"view"},{"type":"function","name":"MOVEMENT_NEUTRAL","inputs":[],"outputs":[{"name":"","type":"uint256","internalType":"uint256"}],"stateMutability":"view"},{"type":"function","name":"UPGRADE_INTERFACE_VERSION","inputs":[],"outputs":[{"name":"","type":"string","internalType":"string"}],"stateMutability":"view"},{"type":"function","name":"acceptOwnership","inputs":[],"outputs":[],"stateMutability":"nonpayable"},{"type":"function","name":"approve","inputs":[{"name":"to","type":"address","internalType":"address"},{"name":"tokenId","type":"uint256","internalType":"uint256"}],"outputs":[],"stateMutability":"nonpayable"},{"type":"function","name":"badgeBalances","inputs":[{"name":"_owner","type":"address","internalType":"address"}],"outputs":[{"name":"","type":"bool[]","internalType":"bool[]"}],"stateMutability":"view"},{"type":"function","name":"badgeBalancesV2","inputs":[{"name":"_owner","type":"address","internalType":"address"}],"outputs":[{"name":"balances","type":"bool[]","internalType":"bool[]"}],"stateMutability":"view"},{"type":"function","name":"badges","inputs":[{"name":"_tokenId","type":"uint256","internalType":"uint256"}],"outputs":[{"name":"_badgeId","type":"uint256","internalType":"uint256"}],"stateMutability":"view"},{"type":"function","name":"balanceOf","inputs":[{"name":"owner","type":"address","internalType":"address"}],"outputs":[{"name":"","type":"uint256","internalType":"uint256"}],"stateMutability":"view"},{"type":"function","name":"baseURI","inputs":[],"outputs":[{"name":"","type":"string","internalType":"string"}],"stateMutability":"view"},{"type":"function","name":"blacklist","inputs":[],"outputs":[{"name":"","type":"address","internalType":"contract IMinimalBlacklist"}],"stateMutability":"view"},{"type":"function","name":"canMint","inputs":[{"name":"_signature","type":"bytes","internalType":"bytes"},{"name":"_minter","type":"address","internalType":"address"},{"name":"_tokenId","type":"uint256","internalType":"uint256"}],"outputs":[{"name":"","type":"bool","internalType":"bool"}],"stateMutability":"view"},{"type":"function","name":"getApproved","inputs":[{"name":"tokenId","type":"uint256","internalType":"uint256"}],"outputs":[{"name":"","type":"address","internalType":"address"}],"stateMutability":"view"},{"type":"function","name":"getCurrentSeasonEndTimestamp","inputs":[],"outputs":[{"name":"","type":"uint256","internalType":"uint256"}],"stateMutability":"view"},{"type":"function","name":"getCurrentSeasonId","inputs":[],"outputs":[{"name":"","type":"uint256","internalType":"uint256"}],"stateMutability":"view"},{"type":"function","name":"getHash","inputs":[{"name":"_minter","type":"address","internalType":"address"},{"name":"_tokenId","type":"uint256","internalType":"uint256"}],"outputs":[{"name":"","type":"bytes32","internalType":"bytes32"}],"stateMutability":"pure"},{"type":"function","name":"getTokenId","inputs":[{"name":"_user","type":"address","internalType":"address"},{"name":"_badgeId","type":"uint256","internalType":"uint256"}],"outputs":[{"name":"","type":"uint256","internalType":"uint256"}],"stateMutability":"view"},{"type":"function","name":"initialize","inputs":[{"name":"_owner","type":"address","internalType":"address"},{"name":"_rootURI","type":"string","internalType":"string"},{"name":"_mintSigner","type":"address","internalType":"address"},{"name":"_blacklistAddress","type":"address","internalType":"contract IMinimalBlacklist"}],"outputs":[],"stateMutability":"nonpayable"},{"type":"function","name":"initialize","inputs":[{"name":"_owner","type":"address","internalType":"address"},{"name":"_mintSigner","type":"address","internalType":"address"},{"name":"_blacklist","type":"address","internalType":"contract IMinimalBlacklist"}],"outputs":[],"stateMutability":"nonpayable"},{"type":"function","name":"isApprovedForAll","inputs":[{"name":"owner","type":"address","internalType":"address"},{"name":"operator","type":"address","internalType":"address"}],"outputs":[{"name":"","type":"bool","internalType":"bool"}],"stateMutability":"view"},{"type":"function","name":"isLocked","inputs":[{"name":"tokenId","type":"uint256","internalType":"uint256"}],"outputs":[{"name":"","type":"bool","internalType":"bool"}],"stateMutability":"view"},{"type":"function","name":"lastKnownSeason","inputs":[],"outputs":[{"name":"","type":"uint256","internalType":"uint256"}],"stateMutability":"view"},{"type":"function","name":"mint","inputs":[{"name":"_signature","type":"bytes","internalType":"bytes"},{"name":"_badgeId","type":"uint256","internalType":"uint256"}],"outputs":[],"stateMutability":"nonpayable"},{"type":"function","name":"mint","inputs":[{"name":"_signature","type":"bytes","internalType":"bytes"},{"name":"_minter","type":"address","internalType":"address"},{"name":"_badgeId","type":"uint256","internalType":"uint256"}],"outputs":[],"stateMutability":"nonpayable"},{"type":"function","name":"mintSigner","inputs":[],"outputs":[{"name":"","type":"address","internalType":"address"}],"stateMutability":"view"},{"type":"function","name":"minted","inputs":[{"name":"signatureHash","type":"bytes32","internalType":"bytes32"}],"outputs":[{"name":"hasMinted","type":"bool","internalType":"bool"}],"stateMutability":"view"},{"type":"function","name":"movementBadges","inputs":[{"name":"movementBadgeHash","type":"bytes32","internalType":"bytes32"},{"name":"","type":"uint256","internalType":"uint256"}],"outputs":[{"name":"movementBadge","type":"uint256","internalType":"uint256"}],"stateMutability":"view"},{"type":"function","name":"movements","inputs":[{"name":"_user","type":"address","internalType":"address"}],"outputs":[{"name":"_movement","type":"uint256","internalType":"uint256"}],"stateMutability":"view"},{"type":"function","name":"name","inputs":[],"outputs":[{"name":"","type":"string","internalType":"string"}],"stateMutability":"view"},{"type":"function","name":"owner","inputs":[],"outputs":[{"name":"","type":"address","internalType":"address"}],"stateMutability":"view"},{"type":"function","name":"ownerOf","inputs":[{"name":"tokenId","type":"uint256","internalType":"uint256"}],"outputs":[{"name":"","type":"address","internalType":"address"}],"stateMutability":"view"},{"type":"function","name":"pendingOwner","inputs":[],"outputs":[{"name":"","type":"address","internalType":"address"}],"stateMutability":"view"},{"type":"function","name":"proxiableUUID","inputs":[],"outputs":[{"name":"","type":"bytes32","internalType":"bytes32"}],"stateMutability":"view"},{"type":"function","name":"recruitmentContract","inputs":[],"outputs":[{"name":"","type":"address","internalType":"contract BadgeRecruitment"}],"stateMutability":"view"},{"type":"function","name":"recruitmentContractV2","inputs":[],"outputs":[{"name":"","type":"address","internalType":"contract BadgeRecruitmentV2"}],"stateMutability":"view"},{"type":"function","name":"recruitmentLockDuration","inputs":[],"outputs":[{"name":"","type":"uint256","internalType":"uint256"}],"stateMutability":"view"},{"type":"function","name":"renounceOwnership","inputs":[],"outputs":[],"stateMutability":"nonpayable"},{"type":"function","name":"resetMigration","inputs":[{"name":"_tokenId","type":"uint256","internalType":"uint256"},{"name":"_badgeId","type":"uint256","internalType":"uint256"},{"name":"_cycleId","type":"uint256","internalType":"uint256"}],"outputs":[],"stateMutability":"nonpayable"},{"type":"function","name":"safeTransferFrom","inputs":[{"name":"from","type":"address","internalType":"address"},{"name":"to","type":"address","internalType":"address"},{"name":"tokenId","type":"uint256","internalType":"uint256"}],"outputs":[],"stateMutability":"nonpayable"},{"type":"function","name":"safeTransferFrom","inputs":[{"name":"from","type":"address","internalType":"address"},{"name":"to","type":"address","internalType":"address"},{"name":"tokenId","type":"uint256","internalType":"uint256"},{"name":"data","type":"bytes","internalType":"bytes"}],"outputs":[],"stateMutability":"nonpayable"},{"type":"function","name":"season2EndTimestamp","inputs":[],"outputs":[{"name":"","type":"uint256","internalType":"uint256"}],"stateMutability":"view"},{"type":"function","name":"season3EndTimestamp","inputs":[],"outputs":[{"name":"","type":"uint256","internalType":"uint256"}],"stateMutability":"view"},{"type":"function","name":"seasonEndTimestamps","inputs":[{"name":"season","type":"uint256","internalType":"uint256"}],"outputs":[{"name":"endTimestamp","type":"uint256","internalType":"uint256"}],"stateMutability":"view"},{"type":"function","name":"setApprovalForAll","inputs":[{"name":"operator","type":"address","internalType":"address"},{"name":"approved","type":"bool","internalType":"bool"}],"outputs":[],"stateMutability":"nonpayable"},{"type":"function","name":"setMovement","inputs":[{"name":"_movementId","type":"uint256","internalType":"uint256"}],"outputs":[],"stateMutability":"nonpayable"},{"type":"function","name":"setMovement","inputs":[{"name":"_user","type":"address","internalType":"address"},{"name":"_movementId","type":"uint256","internalType":"uint256"}],"outputs":[],"stateMutability":"nonpayable"},{"type":"function","name":"setRecruitmentContract","inputs":[{"name":"_recruitmentContract","type":"address","internalType":"address"}],"outputs":[],"stateMutability":"nonpayable"},{"type":"function","name":"setRecruitmentContractV2","inputs":[{"name":"_recruitmentContractV2","type":"address","internalType":"address"}],"outputs":[],"stateMutability":"nonpayable"},{"type":"function","name":"setRecruitmentLockDuration","inputs":[{"name":"_duration","type":"uint256","internalType":"uint256"}],"outputs":[],"stateMutability":"nonpayable"},{"type":"function","name":"setSeason2EndTimestamp","inputs":[{"name":"_ts","type":"uint256","internalType":"uint256"}],"outputs":[],"stateMutability":"nonpayable"},{"type":"function","name":"setSeason3EndTimestamp","inputs":[{"name":"_ts","type":"uint256","internalType":"uint256"}],"outputs":[],"stateMutability":"nonpayable"},{"type":"function","name":"setSeasonEndTimestamp","inputs":[{"name":"_season","type":"uint256","internalType":"uint256"},{"name":"_timestamp","type":"uint256","internalType":"uint256"}],"outputs":[],"stateMutability":"nonpayable"},{"type":"function","name":"setUri","inputs":[{"name":"_uri","type":"string","internalType":"string"}],"outputs":[],"stateMutability":"nonpayable"},{"type":"function","name":"startRecruitment","inputs":[{"name":"","type":"uint256","internalType":"uint256"}],"outputs":[],"stateMutability":"nonpayable"},{"type":"function","name":"startRecruitment","inputs":[{"name":"_badgeId","type":"uint256","internalType":"uint256"},{"name":"_tokenId","type":"uint256","internalType":"uint256"}],"outputs":[],"stateMutability":"nonpayable"},{"type":"function","name":"supportsInterface","inputs":[{"name":"interfaceId","type":"bytes4","internalType":"bytes4"}],"outputs":[{"name":"","type":"bool","internalType":"bool"}],"stateMutability":"view"},{"type":"function","name":"symbol","inputs":[],"outputs":[{"name":"","type":"string","internalType":"string"}],"stateMutability":"view"},{"type":"function","name":"tokenByIndex","inputs":[{"name":"index","type":"uint256","internalType":"uint256"}],"outputs":[{"name":"","type":"uint256","internalType":"uint256"}],"stateMutability":"view"},{"type":"function","name":"tokenOfOwnerByIndex","inputs":[{"name":"owner","type":"address","internalType":"address"},{"name":"index","type":"uint256","internalType":"uint256"}],"outputs":[{"name":"","type":"uint256","internalType":"uint256"}],"stateMutability":"view"},{"type":"function","name":"tokenURI","inputs":[{"name":"_tokenId","type":"uint256","internalType":"uint256"}],"outputs":[{"name":"","type":"string","internalType":"string"}],"stateMutability":"view"},{"type":"function","name":"totalBadgeSupply","inputs":[],"outputs":[{"name":"balances","type":"uint256[]","internalType":"uint256[]"}],"stateMutability":"view"},{"type":"function","name":"totalSupply","inputs":[],"outputs":[{"name":"","type":"uint256","internalType":"uint256"}],"stateMutability":"view"},{"type":"function","name":"transferFrom","inputs":[{"name":"from","type":"address","internalType":"address"},{"name":"to","type":"address","internalType":"address"},{"name":"tokenId","type":"uint256","internalType":"uint256"}],"outputs":[],"stateMutability":"nonpayable"},{"type":"function","name":"transferOwnership","inputs":[{"name":"newOwner","type":"address","internalType":"address"}],"outputs":[],"stateMutability":"nonpayable"},{"type":"function","name":"unlockTimestamps","inputs":[{"name":"tokenId","type":"uint256","internalType":"uint256"}],"outputs":[{"name":"unlockTimestamp","type":"uint256","internalType":"uint256"}],"stateMutability":"view"},{"type":"function","name":"updateBlacklist","inputs":[{"name":"_blacklist","type":"address","internalType":"contract IMinimalBlacklist"}],"outputs":[],"stateMutability":"nonpayable"},{"type":"function","name":"updateMintSigner","inputs":[{"name":"_mintSigner","type":"address","internalType":"address"}],"outputs":[],"stateMutability":"nonpayable"},{"type":"function","name":"upgradeToAndCall","inputs":[{"name":"newImplementation","type":"address","internalType":"address"},{"name":"data","type":"bytes","internalType":"bytes"}],"outputs":[],"stateMutability":"payable"},{"type":"function","name":"userBadges","inputs":[{"name":"_user","type":"address","internalType":"address"},{"name":"_badgeId","type":"uint256","internalType":"uint256"}],"outputs":[{"name":"_tokenId","type":"uint256","internalType":"uint256"}],"stateMutability":"view"},{"type":"function","name":"version","inputs":[],"outputs":[{"name":"","type":"string","internalType":"string"}],"stateMutability":"pure"},{"type":"event","name":"Approval","inputs":[{"name":"owner","type":"address","indexed":true,"internalType":"address"},{"name":"approved","type":"address","indexed":true,"internalType":"address"},{"name":"tokenId","type":"uint256","indexed":true,"internalType":"uint256"}],"anonymous":false},{"type":"event","name":"ApprovalForAll","inputs":[{"name":"owner","type":"address","indexed":true,"internalType":"address"},{"name":"operator","type":"address","indexed":true,"internalType":"address"},{"name":"approved","type":"bool","indexed":false,"internalType":"bool"}],"anonymous":false},{"type":"event","name":"BadgeCreated","inputs":[{"name":"_tokenId","type":"uint256","indexed":false,"internalType":"uint256"},{"name":"_minter","type":"address","indexed":false,"internalType":"address"},{"name":"_badgeId","type":"uint256","indexed":false,"internalType":"uint256"}],"anonymous":false},{"type":"event","name":"BlacklistUpdated","inputs":[{"name":"_blacklist","type":"address","indexed":false,"internalType":"address"}],"anonymous":false},{"type":"event","name":"Initialized","inputs":[{"name":"version","type":"uint64","indexed":false,"internalType":"uint64"}],"anonymous":false},{"type":"event","name":"MintConsumed","inputs":[{"name":"_minter","type":"address","indexed":false,"internalType":"address"},{"name":"_tokenId","type":"uint256","indexed":false,"internalType":"uint256"}],"anonymous":false},{"type":"event","name":"MintSignerUpdated","inputs":[{"name":"_mintSigner","type":"address","indexed":false,"internalType":"address"}],"anonymous":false},{"type":"event","name":"MovementSet","inputs":[{"name":"_user","type":"address","indexed":false,"internalType":"address"},{"name":"_movementId","type":"uint256","indexed":false,"internalType":"uint256"}],"anonymous":false},{"type":"event","name":"OwnershipTransferStarted","inputs":[{"name":"previousOwner","type":"address","indexed":true,"internalType":"address"},{"name":"newOwner","type":"address","indexed":true,"internalType":"address"}],"anonymous":false},{"type":"event","name":"OwnershipTransferred","inputs":[{"name":"previousOwner","type":"address","indexed":true,"internalType":"address"},{"name":"newOwner","type":"address","indexed":true,"internalType":"address"}],"anonymous":false},{"type":"event","name":"Transfer","inputs":[{"name":"from","type":"address","indexed":true,"internalType":"address"},{"name":"to","type":"address","indexed":true,"internalType":"address"},{"name":"tokenId","type":"uint256","indexed":true,"internalType":"uint256"}],"anonymous":false},{"type":"event","name":"Upgraded","inputs":[{"name":"implementation","type":"address","indexed":true,"internalType":"address"}],"anonymous":false},{"type":"event","name":"UriSet","inputs":[{"name":"_uri","type":"string","indexed":false,"internalType":"string"}],"anonymous":false},{"type":"error","name":"ADDRESS_BLACKLISTED","inputs":[]},{"type":"error","name":"AddressEmptyCode","inputs":[{"name":"target","type":"address","internalType":"address"}]},{"type":"error","name":"BADGE_LOCKED","inputs":[]},{"type":"error","name":"BADGE_LOCKED_SEASON_2","inputs":[]},{"type":"error","name":"BADGE_STILL_LOCKED","inputs":[{"name":"seasonId","type":"uint256","internalType":"uint256"},{"name":"seasonEnd","type":"uint256","internalType":"uint256"},{"name":"ts","type":"uint256","internalType":"uint256"}]},{"type":"error","name":"ERC1967InvalidImplementation","inputs":[{"name":"implementation","type":"address","internalType":"address"}]},{"type":"error","name":"ERC1967NonPayable","inputs":[]},{"type":"error","name":"ERC721EnumerableForbiddenBatchMint","inputs":[]},{"type":"error","name":"ERC721IncorrectOwner","inputs":[{"name":"sender","type":"address","internalType":"address"},{"name":"tokenId","type":"uint256","internalType":"uint256"},{"name":"owner","type":"address","internalType":"address"}]},{"type":"error","name":"ERC721InsufficientApproval","inputs":[{"name":"operator","type":"address","internalType":"address"},{"name":"tokenId","type":"uint256","internalType":"uint256"}]},{"type":"error","name":"ERC721InvalidApprover","inputs":[{"name":"approver","type":"address","internalType":"address"}]},{"type":"error","name":"ERC721InvalidOperator","inputs":[{"name":"operator","type":"address","internalType":"address"}]},{"type":"error","name":"ERC721InvalidOwner","inputs":[{"name":"owner","type":"address","internalType":"address"}]},{"type":"error","name":"ERC721InvalidReceiver","inputs":[{"name":"receiver","type":"address","internalType":"address"}]},{"type":"error","name":"ERC721InvalidSender","inputs":[{"name":"sender","type":"address","internalType":"address"}]},{"type":"error","name":"ERC721NonexistentToken","inputs":[{"name":"tokenId","type":"uint256","internalType":"uint256"}]},{"type":"error","name":"ERC721OutOfBoundsIndex","inputs":[{"name":"owner","type":"address","internalType":"address"},{"name":"index","type":"uint256","internalType":"uint256"}]},{"type":"error","name":"FailedInnerCall","inputs":[]},{"type":"error","name":"INVALID_BADGE_ID","inputs":[]},{"type":"error","name":"INVALID_INPUT","inputs":[]},{"type":"error","name":"INVALID_MOVEMENT_ID","inputs":[]},{"type":"error","name":"InvalidInitialization","inputs":[]},{"type":"error","name":"MINTER_NOT_WHITELISTED","inputs":[]},{"type":"error","name":"MINTS_EXCEEDED","inputs":[]},{"type":"error","name":"NOT_IMPLEMENTED","inputs":[]},{"type":"error","name":"NOT_OWNER","inputs":[]},{"type":"error","name":"NO_ACTIVE_SEASON","inputs":[]},{"type":"error","name":"NotInitializing","inputs":[]},{"type":"error","name":"ONLY_MINT_SIGNER","inputs":[]},{"type":"error","name":"OwnableInvalidOwner","inputs":[{"name":"owner","type":"address","internalType":"address"}]},{"type":"error","name":"OwnableUnauthorizedAccount","inputs":[{"name":"account","type":"address","internalType":"address"}]},{"type":"error","name":"RECRUITMENT_ALREADY_COMPLETED","inputs":[]},{"type":"error","name":"RECRUITMENT_LOCK_DURATION_NOT_SET","inputs":[]},{"type":"error","name":"RECRUITMENT_NOT_FOUND","inputs":[]},{"type":"error","name":"UUPSUnauthorizedCallContext","inputs":[]},{"type":"error","name":"UUPSUnsupportedProxiableUUID","inputs":[{"name":"slot","type":"bytes32","internalType":"bytes32"}]}],"bytecode":{"object":"0x60a06040523060805234801562000014575f80fd5b506200001f62000025565b620000d9565b7ff0c57e16840df040f15088dc2f81fe391c3923bec73e23a9662efc9c229c6a00805468010000000000000000900460ff1615620000765760405163f92ee8a960e01b815260040160405180910390fd5b80546001600160401b0390811614620000d65780546001600160401b0319166001600160401b0390811782556040519081527fc7f505b2f371ae2175ee4913f4499e1f2633a7b5936321eed1cdaeb6115181d29060200160405180910390a15b50565b608051613c4c620001005f395f81816121f60152818161221f015261235e0152613c4c5ff3fe608060405260043610610457575f3560e01c80638da5cb5b11610241578063c76422ff11610134578063e985e9c5116100b3578063f571049b11610078578063f571049b14610cc4578063f6aacfb114610ce3578063f7da8ce314610d02578063f896d3a014610d21578063ff2c26ec14610d40575f80fd5b8063e985e9c514610c2a578063ed05582b14610c49578063f17af48d14610c68578063f23ff9d914610c86578063f2fde38b14610ca5575f80fd5b8063d944061e116100f9578063d944061e14610b8f578063df91cc2314610ba2578063e1aff31214610bd8578063e30c397814610bf7578063e84be85214610c0b575f80fd5b8063c76422ff14610b05578063c87b56dd14610b30578063c8860d9814610b4f578063ca0259c014610b6e578063d5def7c214610b8f575f80fd5b8063a4b5fa56116101c0578063b58c439e11610185578063b58c439e14610a6a578063b88d4fde14610a89578063b8f88d6414610aa8578063bacb6d4e14610ac7578063c0c53b8b14610ae6575f80fd5b8063a4b5fa56146109f3578063a7fb03ab14610a12578063ad3cb1cc14610a26578063b378b44814610a56578063b4e7409f146109a1575f80fd5b806398e36d8b1161020657806398e36d8b1461097657806398ef238a146109a15780639b642de1146109b55780639cc281641461055d578063a22cb465146109d4575f80fd5b80638da5cb5b146108e55780638e228b64146108f95780639224747d14610918578063950290c81461094357806395d89b4114610962575f80fd5b806342842e0e116103595780636352211e116102d857806373e9c1f91161029d57806373e9c1f91461085b57806375b9c0151461087a57806379ba50971461088e5780637b85f161146108a25780638ccc5f80146108b7575f80fd5b80636352211e146107ca5780636c0360eb146107e9578063700b1acd146107fd57806370a0823114610828578063715018a614610847575f80fd5b806352d1902d1161031e57806352d1902d1461072d57806354fd4d5014610741578063599fdaa21461076b5780635c6f8ca31461078a5780635e75a6c3146107b6575f80fd5b806342842e0e146106b357806345d46748146106d25780634808b109146106e75780634f1ef286146106fb5780634f6ccce71461070e575f80fd5b80631fcfe19c116103e55780632f19062f116103aa5780632f19062f146106225780632f745c59146106415780633136964c1461066057806332c8f5041461067f578063378b570414610694575f80fd5b80631fcfe19c1461059157806323604864146105b057806323b872dd146105c5578063275b629e146105e457806329f99b9f14610603575f80fd5b8063081812fc1161042b578063081812fc146104f3578063095ea7b31461052a5780630e0c8b0a146105495780630f5f04bf1461055d57806318160ddd14610571575f80fd5b80622576121461045b57806301ffc9a71461047c57806303cfb2fa146104b057806306fdde03146104d2575b5f80fd5b348015610466575f80fd5b5061047a6104753660046133e4565b610d5f565b005b348015610487575f80fd5b5061049b61049636600461343a565b610d6e565b60405190151581526020015b60405180910390f35b3480156104bb575f80fd5b506104c4610d98565b6040519081526020016104a7565b3480156104dd575f80fd5b506104e6610db6565b6040516104a791906134a2565b3480156104fe575f80fd5b5061051261050d3660046134b4565b610e57565b6040516001600160a01b0390911681526020016104a7565b348015610535575f80fd5b5061047a6105443660046134df565b610e6b565b348015610554575f80fd5b506104c4600681565b348015610568575f80fd5b506104c4600181565b34801561057c575f80fd5b505f80516020613bf7833981519152546104c4565b34801561059c575f80fd5b5061047a6105ab366004613509565b610e76565b3480156105bb575f80fd5b506104c460675481565b3480156105d0575f80fd5b5061047a6105df36600461355e565b610e8e565b3480156105ef575f80fd5b5061047a6105fe36600461358b565b610f1c565b34801561060e575f80fd5b506104c461061d3660046134df565b610f44565b34801561062d575f80fd5b5061047a61063c3660046134b4565b610f6b565b34801561064c575f80fd5b506104c461065b3660046134df565b610f78565b34801561066b575f80fd5b506104c461067a36600461358b565b610fe9565b34801561068a575f80fd5b506104c460625481565b34801561069f575f80fd5b5061047a6106ae3660046135ab565b61100b565b3480156106be575f80fd5b5061047a6106cd36600461355e565b611068565b3480156106dd575f80fd5b506104c460665481565b3480156106f2575f80fd5b506104c4600781565b61047a6107093660046135c6565b611082565b348015610719575f80fd5b506104c46107283660046134b4565b61109d565b348015610738575f80fd5b506104c461110f565b34801561074c575f80fd5b50604080518082019091526002815261563960f01b60208201526104e6565b348015610776575f80fd5b50606554610512906001600160a01b031681565b348015610795575f80fd5b506107a96107a43660046135ab565b61112a565b6040516104a79190613612565b3480156107c1575f80fd5b506104c46112de565b3480156107d5575f80fd5b506105126107e43660046134b4565b611330565b3480156107f4575f80fd5b506104e661133a565b348015610808575f80fd5b506104c46108173660046135ab565b60346020525f908152604090205481565b348015610833575f80fd5b506104c46108423660046135ab565b6113ca565b348015610852575f80fd5b5061047a611422565b348015610866575f80fd5b5061047a610875366004613657565b611435565b348015610885575f80fd5b506104c4600581565b348015610899575f80fd5b5061047a6114f3565b3480156108ad575f80fd5b506104c460695481565b3480156108c2575f80fd5b5061049b6108d13660046134b4565b60016020525f908152604090205460ff1681565b3480156108f0575f80fd5b50610512611538565b348015610904575f80fd5b5061047a6109133660046134b4565b61156c565b348015610923575f80fd5b506104c46109323660046134b4565b60646020525f908152604090205481565b34801561094e575f80fd5b5061047a61095d3660046134b4565b611579565b34801561096d575f80fd5b506104e6611592565b348015610981575f80fd5b506104c46109903660046134b4565b60336020525f908152604090205481565b3480156109ac575f80fd5b506104c4600281565b3480156109c0575f80fd5b5061047a6109cf366004613680565b6115d0565b3480156109df575f80fd5b5061047a6109ee3660046136c6565b611614565b3480156109fe575f80fd5b50600254610512906001600160a01b031681565b348015610a1d575f80fd5b506104c4600481565b348015610a31575f80fd5b506104e6604051806040016040528060058152602001640352e302e360dc1b81525081565b348015610a61575f80fd5b506104c4600381565b348015610a75575f80fd5b5061049b610a84366004613509565b61161f565b348015610a94575f80fd5b5061047a610aa33660046136fd565b6116e6565b348015610ab3575f80fd5b5061047a610ac2366004613764565b6116fd565b348015610ad2575f80fd5b5061047a610ae13660046134b4565b61186b565b348015610af1575f80fd5b5061047a610b003660046137d4565b611878565b348015610b10575f80fd5b506104c4610b1f3660046134b4565b60686020525f908152604090205481565b348015610b3b575f80fd5b506104e6610b4a3660046134b4565b611988565b348015610b5a575f80fd5b50606354610512906001600160a01b031681565b348015610b79575f80fd5b50610b82611a00565b6040516104a7919061381c565b348015610b9a575f80fd5b506104c45f81565b348015610bad575f80fd5b506104c4610bbc3660046134df565b603560209081525f928352604080842090915290825290205481565b348015610be3575f80fd5b5061047a610bf23660046134b4565b611a9a565b348015610c02575f80fd5b50610512611aa7565b348015610c16575f80fd5b5061047a610c253660046135ab565b611acf565b348015610c35575f80fd5b5061049b610c44366004613853565b611af9565b348015610c54575f80fd5b506104c4610c633660046134df565b611b45565b348015610c73575f80fd5b505f54610512906001600160a01b031681565b348015610c91575f80fd5b5061047a610ca036600461358b565b611b9e565b348015610cb0575f80fd5b5061047a610cbf3660046135ab565b611cf3565b348015610ccf575f80fd5b5061047a610cde3660046135ab565b611d78565b348015610cee575f80fd5b5061049b610cfd3660046134b4565b611dcd565b348015610d0d575f80fd5b506107a9610d1c3660046135ab565b611e0b565b348015610d2c575f80fd5b5061047a610d3b3660046135ab565b611f28565b348015610d4b575f80fd5b5061047a610d5a3660046134df565b611f52565b610d6a823383611f64565b5050565b5f6001600160e01b0319821663780e9d6360e01b1480610d925750610d928261201d565b92915050565b5f80610da26112de565b5f9081526068602052604090205492915050565b5f80516020613bb78339815191528054606091908190610dd59061387f565b80601f0160208091040260200160405190810160405280929190818152602001828054610e019061387f565b8015610e4c5780601f10610e2357610100808354040283529160200191610e4c565b820191905f5260205f20905b815481529060010190602001808311610e2f57829003601f168201915b505050505091505090565b5f610e618261206c565b50610d92826120a3565b610d6a8282336120dc565b610e7e6120e9565b610e89838383611f64565b505050565b6001600160a01b038216610ebc57604051633250574960e11b81525f60048201526024015b60405180910390fd5b5f610ec883833361211b565b9050836001600160a01b0316816001600160a01b031614610f16576040516364283d7b60e01b81526001600160a01b0380861660048301526024820184905282166044820152606401610eb3565b50505050565b610f246120e9565b5f828152606860205260409020819055606954821115610d6a5750606955565b6001600160a01b03919091165f908152603560209081526040808320938352929052205490565b610f753382612172565b50565b5f5f80516020613b97833981519152610f90846113ca565b8310610fc15760405163295f44f760e21b81526001600160a01b038516600482015260248101849052604401610eb3565b6001600160a01b0384165f908152602091825260408082208583529092522054905092915050565b6036602052815f5260405f208160028110611002575f80fd5b01549150829050565b6110136120e9565b600280546001600160a01b0319166001600160a01b0383169081179091556040519081527f75cdf6842d867a09260947ac775619527788d913a79fc3b41da1815fa377af65906020015b60405180910390a150565b610e8983838360405180602001604052805f8152506116e6565b61108a6121eb565b6110938261228f565b610d6a8282612297565b5f5f80516020613b978339815191526110c15f80516020613bf78339815191525490565b83106110e95760405163295f44f760e21b81525f600482015260248101849052604401610eb3565b8060020183815481106110fe576110fe6138b7565b905f5260205f200154915050919050565b5f611118612353565b505f80516020613bd783398151915290565b60408051600880825261012082019092526060915f9190602082016101008036833701905050905061115c835f610f44565b5f1415815f81518110611171576111716138b7565b9115156020928302919091019091015261118c836001610f44565b5f1415816001815181106111a2576111a26138b7565b911515602092830291909101909101526111bd836002610f44565b5f1415816002815181106111d3576111d36138b7565b911515602092830291909101909101526111ee836003610f44565b5f141581600381518110611204576112046138b7565b9115156020928302919091019091015261121f836004610f44565b5f141581600481518110611235576112356138b7565b91151560209283029190910190910152611250836005610f44565b5f141581600581518110611266576112666138b7565b91151560209283029190910190910152611281836006610f44565b5f141581600681518110611297576112976138b7565b911515602092830291909101909101526112b2836007610f44565b5f1415816007815181106112c8576112c86138b7565b9115156020928302919091019091015292915050565b5f805b6069548111611316575f8181526068602052604090205442101561130457919050565b8061130e816138df565b9150506112e1565b5060405163c6f8523360e01b815260040160405180910390fd5b5f610d928261206c565b6060603280546113499061387f565b80601f01602080910402602001604051908101604052809291908181526020018280546113759061387f565b80156113c05780601f10611397576101008083540402835291602001916113c0565b820191905f5260205f20905b8154815290600101906020018083116113a357829003601f168201915b5050505050905090565b5f5f80516020613bb78339815191526001600160a01b038316611402576040516322718ad960e21b81525f6004820152602401610eb3565b6001600160a01b039092165f908152600390920160205250604090205490565b61142a6120e9565b6114335f61239c565b565b3361143f84611330565b6001600160a01b031614611466576040516338ebc58960e11b815260040160405180910390fd5b6065546001600160a01b0316637671afc0336040516001600160e01b031960e084901b1681526001600160a01b0390911660048201526024810186905260448101859052606481018490526084015f604051808303815f87803b1580156114cb575f80fd5b505af11580156114dd573d5f803e3d5ffd5b5050505f93845250506064602052506040812055565b33806114fd611aa7565b6001600160a01b03161461152f5760405163118cdaa760e01b81526001600160a01b0382166004820152602401610eb3565b610f758161239c565b5f807f9016d09d72d40fdae2fd8ceac6b6234c7706214fd39c1cd1e609a0528c1993005b546001600160a01b031692915050565b6115746120e9565b606755565b6040516343f6e4ab60e01b815260040160405180910390fd5b7f80bb2b638cc20bc4d0a60d66940f3ab4a00c1d7b313497ca82fb0b4ab007930180546060915f80516020613bb783398151915291610dd59061387f565b6115d86120e9565b60326115e4828261393b565b507fd09d05534067f74dbc9e6af794edbd29e904d7698e428d0bc1378e45889acdd78160405161105d91906134a2565b610d6a3383836123d4565b60025460405163fe575a8760e01b81526001600160a01b0384811660048301525f92169063fe575a8790602401602060405180830381865afa158015611667573d5f803e3d5ffd5b505050506040513d601f19601f8201168201806040525081019061168b91906139fa565b156116a957604051637874e36360e01b815260040160405180910390fd5b83516020808601919091205f9081526001909152604090205460ff16156116d157505f6116df565b6116dc848484612483565b90505b9392505050565b6116f1848484610e8e565b610f16848484846124b8565b7ff0c57e16840df040f15088dc2f81fe391c3923bec73e23a9662efc9c229c6a008054600160401b810460ff1615906001600160401b03165f811580156117415750825b90505f826001600160401b0316600114801561175c5750303b155b90508115801561176a575080155b156117885760405163f92ee8a960e01b815260040160405180910390fd5b845467ffffffffffffffff1916600117855583156117b257845460ff60401b1916600160401b1785555b61180260405180604001604052806013815260200172547261696c626c617a6572732042616467657360681b815250604051806040016040528060038152602001622a212160e91b8152506125de565b603261180e898261393b565b5061181a8988886125f0565b831561186057845460ff60401b19168555604051600181527fc7f505b2f371ae2175ee4913f4499e1f2633a7b5936321eed1cdaeb6115181d29060200160405180910390a15b505050505050505050565b6118736120e9565b606255565b7ff0c57e16840df040f15088dc2f81fe391c3923bec73e23a9662efc9c229c6a008054600160401b810460ff1615906001600160401b03165f811580156118bc5750825b90505f826001600160401b031660011480156118d75750303b155b9050811580156118e5575080155b156119035760405163f92ee8a960e01b815260040160405180910390fd5b845467ffffffffffffffff19166001178555831561192d57845460ff60401b1916600160401b1785555b6119388888886125f0565b831561197e57845460ff60401b19168555604051600181527fc7f505b2f371ae2175ee4913f4499e1f2633a7b5936321eed1cdaeb6115181d29060200160405180910390a15b5050505050505050565b60605f60345f61199785611330565b6001600160a01b0316815260208082019290925260409081015f908120548682526033909352205490915060326119cd83612644565b6119d683612644565b6040516020016119e893929190613a30565b60405160208183030381529060405292505050919050565b60605f611a185f80516020613bf78339815191525490565b6040805160088082526101208201909252919250602082016101008036833701905050915060015b818111611a95575f818152603360205260409020548351849082908110611a6957611a696138b7565b602002602001018051809190611a7e906138df565b905250819050611a8d816138df565b915050611a40565b505090565b611aa26120e9565b606655565b5f807f237e158222e3e6968b72b9db0d8043aacf074ad9f650f0d1606b4d82ee432c0061155c565b611ad76120e9565b606380546001600160a01b0319166001600160a01b0392909216919091179055565b6001600160a01b039182165f9081527f80bb2b638cc20bc4d0a60d66940f3ab4a00c1d7b313497ca82fb0b4ab00793056020908152604080832093909416825291909152205460ff1690565b604080516001600160a01b03841660208201529081018290525f9060600160408051601f198184030181528282528051602091820120908301520160405160208183030381529060405280519060200120905092915050565b5f818152606460205260408120548291611bb6610d98565b90505f82118015611bc657508042105b8015611bd157508142105b15611c0857611bde6112de565b6040516324fa1fa360e21b8152600481019190915260248101829052426044820152606401610eb3565b6062545f03611c2a576040516321d9ef2160e21b815260040160405180910390fd5b33611c3485611330565b6001600160a01b031614611c5b576040516338ebc58960e11b815260040160405180910390fd5b5f611c64610d98565b5f8681526064602052604090208190556065549091506001600160a01b031663a6471ecf336040516001600160e01b031960e084901b1681526001600160a01b03909116600482015260248101899052604481018890526064015f604051808303815f87803b158015611cd5575f80fd5b505af1158015611ce7573d5f803e3d5ffd5b50505050505050505050565b611cfb6120e9565b7f237e158222e3e6968b72b9db0d8043aacf074ad9f650f0d1606b4d82ee432c0080546001600160a01b0319166001600160a01b0383169081178255611d3f611538565b6001600160a01b03167f38d16b8cac22d99fc7c124b9cd0de2d3fa1faef420bfe791d8c362d765e2270060405160405180910390a35050565b611d806120e9565b5f80546001600160a01b0319166001600160a01b0383169081179091556040519081527f81c142d9a4b33dfaba82444370b6b077fc2cb507c30c41a7c967f695ed72651f9060200161105d565b5f80611dd7610d98565b5f8481526064602052604090205490915015801590611df557508042105b15611e035750600192915050565b505f92915050565b60605f611e17836113ca565b90505f816001600160401b03811115611e3257611e32613348565b604051908082528060200260200182016040528015611e5b578160200160208202803683370190505b5090505f5b82811015611e9757611e728582610f78565b828281518110611e8457611e846138b7565b6020908102919091010152600101611e60565b5060408051600880825261012082019092529060208201610100803683370190505092505f5b82811015611f20575f60335f848481518110611edb57611edb6138b7565b602002602001015181526020019081526020015f205490506001858281518110611f0757611f076138b7565b9115156020928302919091019091015250600101611ebd565b505050919050565b611f306120e9565b606580546001600160a01b0319166001600160a01b0392909216919091179055565b611f5a6120e9565b610d6a8282612172565b6007811115611f8657604051635557cd3560e11b815260040160405180910390fd5b611f918383836126d3565b5f611fa75f80516020613bf78339815191525490565b611fb2906001613ad3565b5f8181526033602052604090208390559050611fce8382612764565b604080518281526001600160a01b03851660208201529081018390527f73ec18fe90e8b3de52d7e88ff3108708ed0e9714e5327b038c182b64cedaae709060600160405180910390a150505050565b5f6001600160e01b031982166380ac58cd60e01b148061204d57506001600160e01b03198216635b5e139f60e01b145b80610d9257506301ffc9a760e01b6001600160e01b0319831614610d92565b5f80612077836127c5565b90506001600160a01b038116610d9257604051637e27328960e01b815260048101849052602401610eb3565b5f9081527f80bb2b638cc20bc4d0a60d66940f3ab4a00c1d7b313497ca82fb0b4ab007930460205260409020546001600160a01b031690565b610e8983838360016127fe565b336120f2611538565b6001600160a01b0316146114335760405163118cdaa760e01b8152336004820152602401610eb3565b5f82815260646020526040812054839082612134610d98565b90505f8211801561214457508042105b801561214f57508142105b1561215c57611bde6112de565b612167878787612911565b979650505050505050565b600281111561219457604051632c4d11b760e11b815260040160405180910390fd5b6001600160a01b0382165f81815260346020908152604091829020849055815192835282018390527fc8f3ae17becdf8c098ef081092d0420324d1318397bd7ac8e90d900c56a50a76910160405180910390a15050565b306001600160a01b037f000000000000000000000000000000000000000000000000000000000000000016148061227157507f00000000000000000000000000000000000000000000000000000000000000006001600160a01b03166122655f80516020613bd7833981519152546001600160a01b031690565b6001600160a01b031614155b156114335760405163703e46dd60e11b815260040160405180910390fd5b610f756120e9565b816001600160a01b03166352d1902d6040518163ffffffff1660e01b8152600401602060405180830381865afa9250505080156122f1575060408051601f3d908101601f191682019092526122ee91810190613ae6565b60015b61231957604051634c9c8ce360e01b81526001600160a01b0383166004820152602401610eb3565b5f80516020613bd7833981519152811461234957604051632a87526960e21b815260048101829052602401610eb3565b610e8983836129b4565b306001600160a01b037f000000000000000000000000000000000000000000000000000000000000000016146114335760405163703e46dd60e11b815260040160405180910390fd5b7f237e158222e3e6968b72b9db0d8043aacf074ad9f650f0d1606b4d82ee432c0080546001600160a01b0319168155610d6a82612a09565b5f80516020613bb78339815191526001600160a01b03831661241457604051630b61174360e31b81526001600160a01b0384166004820152602401610eb3565b6001600160a01b038481165f818152600584016020908152604080832094881680845294825291829020805460ff191687151590811790915591519182527f17307eab39ab6107e8899845ad3d59bd9653f200f220920489ca2b5937696c31910160405180910390a350505050565b5f8061248f8484611b45565b90505f61249c8287612a79565b50505f546001600160a01b039081169116149695505050505050565b6001600160a01b0383163b15610f1657604051630a85bd0160e11b81526001600160a01b0384169063150b7a02906124fa903390889087908790600401613afd565b6020604051808303815f875af1925050508015612534575060408051601f3d908101601f1916820190925261253191810190613b39565b60015b61259b573d808015612561576040519150601f19603f3d011682016040523d82523d5f602084013e612566565b606091505b5080515f0361259357604051633250574960e11b81526001600160a01b0385166004820152602401610eb3565b805181602001fd5b6001600160e01b03198116630a85bd0160e11b146125d757604051633250574960e11b81526001600160a01b0385166004820152602401610eb3565b5050505050565b6125e6612ac2565b610d6a8282612b0b565b61260e6001600160a01b03841615612608578361239c565b3361239c565b612616612b3b565b5f80546001600160a01b039384166001600160a01b0319918216179091556002805492909316911617905550565b60605f61265083612b43565b60010190505f816001600160401b0381111561266e5761266e613348565b6040519080825280601f01601f191660200182016040528015612698576020820181803683370190505b5090508181016020015b5f19016f181899199a1a9b1b9c1cb0b131b232b360811b600a86061a8153600a85049450846126a257509392505050565b6126de83838361161f565b6126fb57604051639ea134e960e01b815260040160405180910390fd5b82516020808501919091205f9081526001808352604091829020805460ff1916909117905580516001600160a01b03851681529182018390527ff71d0afb6ca23454b34db8bf7baf45f79e8c2f41e5499375ea2289312b2d317b910160405180910390a1505050565b6001600160a01b03821661278d57604051633250574960e11b81525f6004820152602401610eb3565b5f61279983835f61211b565b90506001600160a01b03811615610e89576040516339e3563760e11b81525f6004820152602401610eb3565b5f9081527f80bb2b638cc20bc4d0a60d66940f3ab4a00c1d7b313497ca82fb0b4ab007930260205260409020546001600160a01b031690565b5f80516020613bb7833981519152818061282057506001600160a01b03831615155b156128e1575f61282f8561206c565b90506001600160a01b0384161580159061285b5750836001600160a01b0316816001600160a01b031614155b801561286e575061286c8185611af9565b155b156128975760405163a9fbf51f60e01b81526001600160a01b0385166004820152602401610eb3565b82156128df5784866001600160a01b0316826001600160a01b03167f8c5be1e5ebec7d5bd14f71427d1e84f3dd0314c0f7b2291e5b200ac8c7c3b92560405160405180910390a45b505b5f93845260040160205250506040902080546001600160a01b0319166001600160a01b0392909216919091179055565b6002545f906001600160a01b031663fe575a87336040516001600160e01b031960e084901b1681526001600160a01b039091166004820152602401602060405180830381865afa158015612967573d5f803e3d5ffd5b505050506040513d601f19601f8201168201806040525081019061298b91906139fa565b156129a957604051637874e36360e01b815260040160405180910390fd5b6116dc848484612c1a565b6129bd82612c83565b6040516001600160a01b038316907fbc7cd75a20ee27fd9adebab32041f755214dbc6bffa90cc0225b39da2e5c2d3b905f90a2805115612a0157610e898282612ce6565b610d6a612d58565b7f9016d09d72d40fdae2fd8ceac6b6234c7706214fd39c1cd1e609a0528c19930080546001600160a01b031981166001600160a01b03848116918217845560405192169182907f8be0079c531659141344cd1fd0a4f28419497f9722a3daafe3b4186f6b6457e0905f90a3505050565b5f805f8351604103612ab0576020840151604085015160608601515f1a612aa288828585612d77565b955095509550505050612abb565b505081515f91506002905b9250925092565b7ff0c57e16840df040f15088dc2f81fe391c3923bec73e23a9662efc9c229c6a0054600160401b900460ff1661143357604051631afcd79f60e31b815260040160405180910390fd5b612b13612ac2565b5f80516020613bb783398151915280612b2c848261393b565b5060018101610f16838261393b565b611433612ac2565b5f8072184f03e93ff9f4daa797ed6e38ed64bf6a1f0160401b8310612b815772184f03e93ff9f4daa797ed6e38ed64bf6a1f0160401b830492506040015b6d04ee2d6d415b85acef81000000008310612bad576d04ee2d6d415b85acef8100000000830492506020015b662386f26fc100008310612bcb57662386f26fc10000830492506010015b6305f5e1008310612be3576305f5e100830492506008015b6127108310612bf757612710830492506004015b60648310612c09576064830492506002015b600a8310610d925760010192915050565b5f8060355f612c28866127c5565b6001600160a01b03908116825260208083019390935260409182015f908120888252603385528382208054835290855283822095909555908816815260358352818120935481529290915290208390556116dc848484612e3f565b806001600160a01b03163b5f03612cb857604051634c9c8ce360e01b81526001600160a01b0382166004820152602401610eb3565b5f80516020613bd783398151915280546001600160a01b0319166001600160a01b0392909216919091179055565b60605f80846001600160a01b031684604051612d029190613b54565b5f60405180830381855af49150503d805f8114612d3a576040519150601f19603f3d011682016040523d82523d5f602084013e612d3f565b606091505b5091509150612d4f858383612f35565b95945050505050565b34156114335760405163b398979f60e01b815260040160405180910390fd5b5f80807f7fffffffffffffffffffffffffffffff5d576e7357a4501ddfe92f46681b20a0841115612db057505f91506003905082612e35565b604080515f808252602082018084528a905260ff891692820192909252606081018790526080810186905260019060a0016020604051602081039080840390855afa158015612e01573d5f803e3d5ffd5b5050604051601f1901519150506001600160a01b038116612e2c57505f925060019150829050612e35565b92505f91508190505b9450945094915050565b5f80612e4c858585612f91565b90506001600160a01b038116612ed357612ece845f80516020613bf783398151915280545f8381527f645e039705490088daad89bae25049a34f4a9072d398537b1ab2425f24cbed0360205260408120829055600182018355919091527fa42f15e5d656f8155fd7419d740a6073999f19cd6e061449ce4a257150545bf20155565b612ef6565b846001600160a01b0316816001600160a01b031614612ef657612ef68185613093565b6001600160a01b038516612f1257612f0d84613132565b6116dc565b846001600160a01b0316816001600160a01b0316146116dc576116dc85856131ff565b606082612f4a57612f4582613257565b6116df565b8151158015612f6157506001600160a01b0384163b155b15612f8a57604051639996b31560e01b81526001600160a01b0385166004820152602401610eb3565b50806116df565b5f5f80516020613bb783398151915281612faa856127c5565b90506001600160a01b03841615612fc657612fc6818587613280565b6001600160a01b0381161561300257612fe15f865f806127fe565b6001600160a01b0381165f908152600383016020526040902080545f190190555b6001600160a01b03861615613032576001600160a01b0386165f9081526003830160205260409020805460010190555b5f85815260028301602052604080822080546001600160a01b0319166001600160a01b038a811691821790925591518893918516917fddf252ad1be2c89b69c2b068fc378daa952ba7f163c4a11628f55a4df523b3ef91a495945050505050565b5f80516020613b978339815191525f6130ab846113ca565b5f8481526001840160205260409020549091508082146130fe576001600160a01b0385165f9081526020848152604080832085845282528083205484845281842081905583526001860190915290208190555b505f92835260018201602090815260408085208590556001600160a01b039095168452918252838320908352905290812055565b5f80516020613bf7833981519152545f80516020613b97833981519152905f9061315e90600190613b6f565b5f848152600384016020526040812054600285018054939450909284908110613189576131896138b7565b905f5260205f2001549050808460020183815481106131aa576131aa6138b7565b5f918252602080832090910192909255828152600386019091526040808220849055868252812055600284018054806131e5576131e5613b82565b600190038181905f5260205f20015f905590555050505050565b5f80516020613b978339815191525f6001613219856113ca565b6132239190613b6f565b6001600160a01b039094165f9081526020838152604080832087845282528083208690559482526001909301909252502055565b8051156132675780518082602001fd5b604051630a12f52160e11b815260040160405180910390fd5b61328b8383836132e4565b610e89576001600160a01b0383166132b957604051637e27328960e01b815260048101829052602401610eb3565b60405163177e802f60e01b81526001600160a01b038316600482015260248101829052604401610eb3565b5f6001600160a01b038316158015906116dc5750826001600160a01b0316846001600160a01b0316148061331d575061331d8484611af9565b806116dc5750826001600160a01b0316613336836120a3565b6001600160a01b031614949350505050565b634e487b7160e01b5f52604160045260245ffd5b5f82601f83011261336b575f80fd5b81356001600160401b038082111561338557613385613348565b604051601f8301601f19908116603f011681019082821181831017156133ad576133ad613348565b816040528381528660208588010111156133c5575f80fd5b836020870160208301375f602085830101528094505050505092915050565b5f80604083850312156133f5575f80fd5b82356001600160401b0381111561340a575f80fd5b6134168582860161335c565b95602094909401359450505050565b6001600160e01b031981168114610f75575f80fd5b5f6020828403121561344a575f80fd5b81356116df81613425565b5f5b8381101561346f578181015183820152602001613457565b50505f910152565b5f815180845261348e816020860160208601613455565b601f01601f19169290920160200192915050565b602081525f6116df6020830184613477565b5f602082840312156134c4575f80fd5b5035919050565b6001600160a01b0381168114610f75575f80fd5b5f80604083850312156134f0575f80fd5b82356134fb816134cb565b946020939093013593505050565b5f805f6060848603121561351b575f80fd5b83356001600160401b03811115613530575f80fd5b61353c8682870161335c565b935050602084013561354d816134cb565b929592945050506040919091013590565b5f805f60608486031215613570575f80fd5b833561357b816134cb565b9250602084013561354d816134cb565b5f806040838503121561359c575f80fd5b50508035926020909101359150565b5f602082840312156135bb575f80fd5b81356116df816134cb565b5f80604083850312156135d7575f80fd5b82356135e2816134cb565b915060208301356001600160401b038111156135fc575f80fd5b6136088582860161335c565b9150509250929050565b602080825282518282018190525f9190848201906040850190845b8181101561364b57835115158352928401929184019160010161362d565b50909695505050505050565b5f805f60608486031215613669575f80fd5b505081359360208301359350604090920135919050565b5f60208284031215613690575f80fd5b81356001600160401b038111156136a5575f80fd5b6136b18482850161335c565b949350505050565b8015158114610f75575f80fd5b5f80604083850312156136d7575f80fd5b82356136e2816134cb565b915060208301356136f2816136b9565b809150509250929050565b5f805f8060808587031215613710575f80fd5b843561371b816134cb565b9350602085013561372b816134cb565b92506040850135915060608501356001600160401b0381111561374c575f80fd5b6137588782880161335c565b91505092959194509250565b5f805f8060808587031215613777575f80fd5b8435613782816134cb565b935060208501356001600160401b0381111561379c575f80fd5b6137a88782880161335c565b93505060408501356137b9816134cb565b915060608501356137c9816134cb565b939692955090935050565b5f805f606084860312156137e6575f80fd5b83356137f1816134cb565b92506020840135613801816134cb565b91506040840135613811816134cb565b809150509250925092565b602080825282518282018190525f9190848201906040850190845b8181101561364b57835183529284019291840191600101613837565b5f8060408385031215613864575f80fd5b823561386f816134cb565b915060208301356136f2816134cb565b600181811c9082168061389357607f821691505b6020821081036138b157634e487b7160e01b5f52602260045260245ffd5b50919050565b634e487b7160e01b5f52603260045260245ffd5b634e487b7160e01b5f52601160045260245ffd5b5f600182016138f0576138f06138cb565b5060010190565b601f821115610e8957805f5260205f20601f840160051c8101602085101561391c5750805b601f840160051c820191505b818110156125d7575f8155600101613928565b81516001600160401b0381111561395457613954613348565b61396881613962845461387f565b846138f7565b602080601f83116001811461399b575f84156139845750858301515b5f19600386901b1c1916600185901b1785556139f2565b5f85815260208120601f198616915b828110156139c9578886015182559484019460019091019084016139aa565b50858210156139e657878501515f19600388901b60f8161c191681555b505060018460011b0185555b505050505050565b5f60208284031215613a0a575f80fd5b81516116df816136b9565b5f8151613a26818560208601613455565b9290920192915050565b5f808554613a3d8161387f565b60018281168015613a555760018114613a6a57613a96565b60ff1984168752821515830287019450613a96565b895f526020805f205f5b85811015613a8d5781548a820152908401908201613a74565b50505082870194505b50505050602f60f81b81528451613ab4816001840160208901613455565b612167613acd600183850101602f60f81b815260010190565b86613a15565b80820180821115610d9257610d926138cb565b5f60208284031215613af6575f80fd5b5051919050565b6001600160a01b03858116825284166020820152604081018390526080606082018190525f90613b2f90830184613477565b9695505050505050565b5f60208284031215613b49575f80fd5b81516116df81613425565b5f8251613b65818460208701613455565b9190910192915050565b81810381811115610d9257610d926138cb565b634e487b7160e01b5f52603160045260245ffdfe645e039705490088daad89bae25049a34f4a9072d398537b1ab2425f24cbed0080bb2b638cc20bc4d0a60d66940f3ab4a00c1d7b313497ca82fb0b4ab0079300360894a13ba1a3210667c828492db98dca3e2076cc3735a920a3ca505d382bbc645e039705490088daad89bae25049a34f4a9072d398537b1ab2425f24cbed02a26469706673582212204290aefb985a586d2012a37f0d172e458ea1d8680ea38579ef923e931a124e8a64736f6c63430008180033","linkReferences":{}},"methodIdentifiers":{"BADGE_ANDROIDS()":"0e0c8b0a","BADGE_BOUNCERS()":"98ef238a","BADGE_DRUMMERS()":"75b9c015","BADGE_MASTERS()":"b378b448","BADGE_MONKS()":"a7fb03ab","BADGE_RAVERS()":"d944061e","BADGE_ROBOTS()":"0f5f04bf","BADGE_SHINTO()":"4808b109","MOVEMENT_BASED()":"9cc28164","MOVEMENT_BOOSTED()":"b4e7409f","MOVEMENT_NEUTRAL()":"d5def7c2","UPGRADE_INTERFACE_VERSION()":"ad3cb1cc","acceptOwnership()":"79ba5097","approve(address,uint256)":"095ea7b3","badgeBalances(address)":"5c6f8ca3","badgeBalancesV2(address)":"f7da8ce3","badges(uint256)":"98e36d8b","balanceOf(address)":"70a08231","baseURI()":"6c0360eb","blacklist()":"a4b5fa56","canMint(bytes,address,uint256)":"b58c439e","getApproved(uint256)":"081812fc","getCurrentSeasonEndTimestamp()":"03cfb2fa","getCurrentSeasonId()":"5e75a6c3","getHash(address,uint256)":"ed05582b","getTokenId(address,uint256)":"29f99b9f","initialize(address,address,address)":"c0c53b8b","initialize(address,string,address,address)":"b8f88d64","isApprovedForAll(address,address)":"e985e9c5","isLocked(uint256)":"f6aacfb1","lastKnownSeason()":"7b85f161","mint(bytes,address,uint256)":"1fcfe19c","mint(bytes,uint256)":"00257612","mintSigner()":"f17af48d","minted(bytes32)":"8ccc5f80","movementBadges(bytes32,uint256)":"3136964c","movements(address)":"700b1acd","name()":"06fdde03","owner()":"8da5cb5b","ownerOf(uint256)":"6352211e","pendingOwner()":"e30c3978","proxiableUUID()":"52d1902d","recruitmentContract()":"c8860d98","recruitmentContractV2()":"599fdaa2","recruitmentLockDuration()":"32c8f504","renounceOwnership()":"715018a6","resetMigration(uint256,uint256,uint256)":"73e9c1f9","safeTransferFrom(address,address,uint256)":"42842e0e","safeTransferFrom(address,address,uint256,bytes)":"b88d4fde","season2EndTimestamp()":"45d46748","season3EndTimestamp()":"23604864","seasonEndTimestamps(uint256)":"c76422ff","setApprovalForAll(address,bool)":"a22cb465","setMovement(address,uint256)":"ff2c26ec","setMovement(uint256)":"2f19062f","setRecruitmentContract(address)":"e84be852","setRecruitmentContractV2(address)":"f896d3a0","setRecruitmentLockDuration(uint256)":"bacb6d4e","setSeason2EndTimestamp(uint256)":"e1aff312","setSeason3EndTimestamp(uint256)":"8e228b64","setSeasonEndTimestamp(uint256,uint256)":"275b629e","setUri(string)":"9b642de1","startRecruitment(uint256)":"950290c8","startRecruitment(uint256,uint256)":"f23ff9d9","supportsInterface(bytes4)":"01ffc9a7","symbol()":"95d89b41","tokenByIndex(uint256)":"4f6ccce7","tokenOfOwnerByIndex(address,uint256)":"2f745c59","tokenURI(uint256)":"c87b56dd","totalBadgeSupply()":"ca0259c0","totalSupply()":"18160ddd","transferFrom(address,address,uint256)":"23b872dd","transferOwnership(address)":"f2fde38b","unlockTimestamps(uint256)":"9224747d","updateBlacklist(address)":"378b5704","updateMintSigner(address)":"f571049b","upgradeToAndCall(address,bytes)":"4f1ef286","userBadges(address,uint256)":"df91cc23","version()":"54fd4d50"},"storageLayout":{"storage":[{"astId":3275,"contract":"contracts/trailblazers-season-4/TrailblazersS1BadgesV9.sol:TrailblazersBadgesV9","label":"mintSigner","offset":0,"slot":"0","type":"t_address"},{"astId":3280,"contract":"contracts/trailblazers-season-4/TrailblazersS1BadgesV9.sol:TrailblazersBadgesV9","label":"minted","offset":0,"slot":"1","type":"t_mapping(t_bytes32,t_bool)"},{"astId":3284,"contract":"contracts/trailblazers-season-4/TrailblazersS1BadgesV9.sol:TrailblazersBadgesV9","label":"blacklist","offset":0,"slot":"2","type":"t_contract(IMinimalBlacklist)61679"},{"astId":3289,"contract":"contracts/trailblazers-season-4/TrailblazersS1BadgesV9.sol:TrailblazersBadgesV9","label":"__gap","offset":0,"slot":"3","type":"t_array(t_uint256)47_storage"},{"astId":3593,"contract":"contracts/trailblazers-season-4/TrailblazersS1BadgesV9.sol:TrailblazersBadgesV9","label":"_baseURIExtended","offset":0,"slot":"50","type":"t_string_storage"},{"astId":3598,"contract":"contracts/trailblazers-season-4/TrailblazersS1BadgesV9.sol:TrailblazersBadgesV9","label":"badges","offset":0,"slot":"51","type":"t_mapping(t_uint256,t_uint256)"},{"astId":3603,"contract":"contracts/trailblazers-season-4/TrailblazersS1BadgesV9.sol:TrailblazersBadgesV9","label":"movements","offset":0,"slot":"52","type":"t_mapping(t_address,t_uint256)"},{"astId":3610,"contract":"contracts/trailblazers-season-4/TrailblazersS1BadgesV9.sol:TrailblazersBadgesV9","label":"userBadges","offset":0,"slot":"53","type":"t_mapping(t_address,t_mapping(t_uint256,t_uint256))"},{"astId":3617,"contract":"contracts/trailblazers-season-4/TrailblazersS1BadgesV9.sol:TrailblazersBadgesV9","label":"movementBadges","offset":0,"slot":"54","type":"t_mapping(t_bytes32,t_array(t_uint256)2_storage)"},{"astId":3622,"contract":"contracts/trailblazers-season-4/TrailblazersS1BadgesV9.sol:TrailblazersBadgesV9","label":"__gap","offset":0,"slot":"55","type":"t_array(t_uint256)43_storage"},{"astId":6985,"contract":"contracts/trailblazers-season-4/TrailblazersS1BadgesV9.sol:TrailblazersBadgesV9","label":"recruitmentLockDuration","offset":0,"slot":"98","type":"t_uint256"},{"astId":6989,"contract":"contracts/trailblazers-season-4/TrailblazersS1BadgesV9.sol:TrailblazersBadgesV9","label":"recruitmentContract","offset":0,"slot":"99","type":"t_contract(BadgeRecruitment)5789"},{"astId":6994,"contract":"contracts/trailblazers-season-4/TrailblazersS1BadgesV9.sol:TrailblazersBadgesV9","label":"unlockTimestamps","offset":0,"slot":"100","type":"t_mapping(t_uint256,t_uint256)"},{"astId":7140,"contract":"contracts/trailblazers-season-4/TrailblazersS1BadgesV9.sol:TrailblazersBadgesV9","label":"recruitmentContractV2","offset":0,"slot":"101","type":"t_contract(BadgeRecruitmentV2)6139"},{"astId":7285,"contract":"contracts/trailblazers-season-4/TrailblazersS1BadgesV9.sol:TrailblazersBadgesV9","label":"season2EndTimestamp","offset":0,"slot":"102","type":"t_uint256"},{"astId":7287,"contract":"contracts/trailblazers-season-4/TrailblazersS1BadgesV9.sol:TrailblazersBadgesV9","label":"season3EndTimestamp","offset":0,"slot":"103","type":"t_uint256"},{"astId":7800,"contract":"contracts/trailblazers-season-4/TrailblazersS1BadgesV9.sol:TrailblazersBadgesV9","label":"seasonEndTimestamps","offset":0,"slot":"104","type":"t_mapping(t_uint256,t_uint256)"},{"astId":7803,"contract":"contracts/trailblazers-season-4/TrailblazersS1BadgesV9.sol:TrailblazersBadgesV9","label":"lastKnownSeason","offset":0,"slot":"105","type":"t_uint256"}],"types":{"t_address":{"encoding":"inplace","label":"address","numberOfBytes":"20"},"t_array(t_uint256)2_storage":{"encoding":"inplace","label":"uint256[2]","numberOfBytes":"64","base":"t_uint256"},"t_array(t_uint256)43_storage":{"encoding":"inplace","label":"uint256[43]","numberOfBytes":"1376","base":"t_uint256"},"t_array(t_uint256)47_storage":{"encoding":"inplace","label":"uint256[47]","numberOfBytes":"1504","base":"t_uint256"},"t_bool":{"encoding":"inplace","label":"bool","numberOfBytes":"1"},"t_bytes32":{"encoding":"inplace","label":"bytes32","numberOfBytes":"32"},"t_contract(BadgeRecruitment)5789":{"encoding":"inplace","label":"contract BadgeRecruitment","numberOfBytes":"20"},"t_contract(BadgeRecruitmentV2)6139":{"encoding":"inplace","label":"contract BadgeRecruitmentV2","numberOfBytes":"20"},"t_contract(IMinimalBlacklist)61679":{"encoding":"inplace","label":"contract IMinimalBlacklist","numberOfBytes":"20"},"t_mapping(t_address,t_mapping(t_uint256,t_uint256))":{"encoding":"mapping","key":"t_address","label":"mapping(address => mapping(uint256 => uint256))","numberOfBytes":"32","value":"t_mapping(t_uint256,t_uint256)"},"t_mapping(t_address,t_uint256)":{"encoding":"mapping","key":"t_address","label":"mapping(address => uint256)","numberOfBytes":"32","value":"t_uint256"},"t_mapping(t_bytes32,t_array(t_uint256)2_storage)":{"encoding":"mapping","key":"t_bytes32","label":"mapping(bytes32 => uint256[2])","numberOfBytes":"32","value":"t_array(t_uint256)2_storage"},"t_mapping(t_bytes32,t_bool)":{"encoding":"mapping","key":"t_bytes32","label":"mapping(bytes32 => bool)","numberOfBytes":"32","value":"t_bool"},"t_mapping(t_uint256,t_uint256)":{"encoding":"mapping","key":"t_uint256","label":"mapping(uint256 => uint256)","numberOfBytes":"32","value":"t_uint256"},"t_string_storage":{"encoding":"bytes","label":"string","numberOfBytes":"32"},"t_uint256":{"encoding":"inplace","label":"uint256","numberOfBytes":"32"}}},"id":23}