{"abi":[{"type":"constructor","inputs":[],"stateMutability":"nonpayable"},{"type":"function","name":"add","inputs":[{"name":"_address","type":"address","internalType":"address"}],"outputs":[],"stateMutability":"nonpayable"},{"type":"function","name":"blacklist","inputs":[{"name":"","type":"uint256","internalType":"uint256"}],"outputs":[{"name":"","type":"address","internalType":"address"}],"stateMutability":"view"},{"type":"function","name":"isBlacklisted","inputs":[{"name":"_address","type":"address","internalType":"address"}],"outputs":[{"name":"","type":"bool","internalType":"bool"}],"stateMutability":"view"}],"bytecode":{"object":"0x608060405234801561000f575f80fd5b505f8054600181810183558280527f290decd9548b62a8d60345a988386fc84ba6bc95484008f6362f93160ef3e56391820180546001600160a01b0319908116739965507d1a55bcc2695c58ba16fb37d819b0a4dc179091558354808301855583018054821673976ea74026e726554db657fa54763abd0c3a0aa9179055835480830185558301805482167314dc79964da2c08b23698b3d3cc7ca32193d9955179055835480830185558301805482167323618e81e3f5cdf7f54c3d65f7fbc0abf5b21e8f179055835491820190935501805490911673a0ee7a142d267c1f36714e4a8f75612f20a797201790556102038061010a5f395ff3fe608060405234801561000f575f80fd5b506004361061003f575f3560e01c80630a3b0a4f146100435780630f2a0919146100a1578063fe575a87146100d1575b5f80fd5b61009f610051366004610175565b5f80546001810182559080527f290decd9548b62a8d60345a988386fc84ba6bc95484008f6362f93160ef3e5630180546001600160a01b0319166001600160a01b0392909216919091179055565b005b6100b46100af3660046101a2565b6100f4565b6040516001600160a01b0390911681526020015b60405180910390f35b6100e46100df366004610175565b61011b565b60405190151581526020016100c8565b5f8181548110610102575f80fd5b5f918252602090912001546001600160a01b0316905081565b5f805b5f5481101561016d57826001600160a01b03165f8281548110610143576101436101b9565b5f918252602090912001546001600160a01b0316036101655750600192915050565b60010161011e565b505f92915050565b5f60208284031215610185575f80fd5b81356001600160a01b038116811461019b575f80fd5b9392505050565b5f602082840312156101b2575f80fd5b5035919050565b634e487b7160e01b5f52603260045260245ffdfea26469706673582212200aed361f3ffe6f9d1e37f427896b3b18689e5818855322b6cae88419d82876b164736f6c63430008180033","linkReferences":{}},"methodIdentifiers":{"add(address)":"0a3b0a4f","blacklist(uint256)":"0f2a0919","isBlacklisted(address)":"fe575a87"},"storageLayout":{"storage":[{"astId":81860,"contract":"test/util/Blacklist.sol:MockBlacklist","label":"blacklist","offset":0,"slot":"0","type":"t_array(t_address)dyn_storage"}],"types":{"t_address":{"encoding":"inplace","label":"address","numberOfBytes":"20"},"t_array(t_address)dyn_storage":{"encoding":"dynamic_array","label":"address[]","numberOfBytes":"32","base":"t_address"}}},"id":154}