{"abi":[{"type":"function","name":"BADGE_ANDROIDS","inputs":[],"outputs":[{"name":"","type":"uint256","internalType":"uint256"}],"stateMutability":"view"},{"type":"function","name":"BADGE_BOUNCERS","inputs":[],"outputs":[{"name":"","type":"uint256","internalType":"uint256"}],"stateMutability":"view"},{"type":"function","name":"BADGE_DRUMMERS","inputs":[],"outputs":[{"name":"","type":"uint256","internalType":"uint256"}],"stateMutability":"view"},{"type":"function","name":"BADGE_MASTERS","inputs":[],"outputs":[{"name":"","type":"uint256","internalType":"uint256"}],"stateMutability":"view"},{"type":"function","name":"BADGE_MONKS","inputs":[],"outputs":[{"name":"","type":"uint256","internalType":"uint256"}],"stateMutability":"view"},{"type":"function","name":"BADGE_RAVERS","inputs":[],"outputs":[{"name":"","type":"uint256","internalType":"uint256"}],"stateMutability":"view"},{"type":"function","name":"BADGE_ROBOTS","inputs":[],"outputs":[{"name":"","type":"uint256","internalType":"uint256"}],"stateMutability":"view"},{"type":"function","name":"BADGE_SHINTO","inputs":[],"outputs":[{"name":"","type":"uint256","internalType":"uint256"}],"stateMutability":"view"},{"type":"function","name":"MOVEMENT_BASED","inputs":[],"outputs":[{"name":"","type":"uint256","internalType":"uint256"}],"stateMutability":"view"},{"type":"function","name":"MOVEMENT_BOOSTED","inputs":[],"outputs":[{"name":"","type":"uint256","internalType":"uint256"}],"stateMutability":"view"},{"type":"function","name":"MOVEMENT_NEUTRAL","inputs":[],"outputs":[{"name":"","type":"uint256","internalType":"uint256"}],"stateMutability":"view"},{"type":"function","name":"UPGRADE_INTERFACE_VERSION","inputs":[],"outputs":[{"name":"","type":"string","internalType":"string"}],"stateMutability":"view"},{"type":"function","name":"acceptOwnership","inputs":[],"outputs":[],"stateMutability":"nonpayable"},{"type":"function","name":"approve","inputs":[{"name":"to","type":"address","internalType":"address"},{"name":"tokenId","type":"uint256","internalType":"uint256"}],"outputs":[],"stateMutability":"nonpayable"},{"type":"function","name":"badgeBalances","inputs":[{"name":"_owner","type":"address","internalType":"address"}],"outputs":[{"name":"","type":"bool[]","internalType":"bool[]"}],"stateMutability":"view"},{"type":"function","name":"badgeBalancesV2","inputs":[{"name":"_owner","type":"address","internalType":"address"}],"outputs":[{"name":"balances","type":"bool[]","internalType":"bool[]"}],"stateMutability":"view"},{"type":"function","name":"badges","inputs":[{"name":"_tokenId","type":"uint256","internalType":"uint256"}],"outputs":[{"name":"_badgeId","type":"uint256","internalType":"uint256"}],"stateMutability":"view"},{"type":"function","name":"balanceOf","inputs":[{"name":"owner","type":"address","internalType":"address"}],"outputs":[{"name":"","type":"uint256","internalType":"uint256"}],"stateMutability":"view"},{"type":"function","name":"baseURI","inputs":[],"outputs":[{"name":"","type":"string","internalType":"string"}],"stateMutability":"view"},{"type":"function","name":"blacklist","inputs":[],"outputs":[{"name":"","type":"address","internalType":"contract IMinimalBlacklist"}],"stateMutability":"view"},{"type":"function","name":"canMint","inputs":[{"name":"_signature","type":"bytes","internalType":"bytes"},{"name":"_minter","type":"address","internalType":"address"},{"name":"_tokenId","type":"uint256","internalType":"uint256"}],"outputs":[{"name":"","type":"bool","internalType":"bool"}],"stateMutability":"view"},{"type":"function","name":"getApproved","inputs":[{"name":"tokenId","type":"uint256","internalType":"uint256"}],"outputs":[{"name":"","type":"address","internalType":"address"}],"stateMutability":"view"},{"type":"function","name":"getHash","inputs":[{"name":"_minter","type":"address","internalType":"address"},{"name":"_tokenId","type":"uint256","internalType":"uint256"}],"outputs":[{"name":"","type":"bytes32","internalType":"bytes32"}],"stateMutability":"pure"},{"type":"function","name":"getTokenId","inputs":[{"name":"_user","type":"address","internalType":"address"},{"name":"_badgeId","type":"uint256","internalType":"uint256"}],"outputs":[{"name":"","type":"uint256","internalType":"uint256"}],"stateMutability":"view"},{"type":"function","name":"initialize","inputs":[{"name":"_owner","type":"address","internalType":"address"},{"name":"_rootURI","type":"string","internalType":"string"},{"name":"_mintSigner","type":"address","internalType":"address"},{"name":"_blacklistAddress","type":"address","internalType":"contract IMinimalBlacklist"}],"outputs":[],"stateMutability":"nonpayable"},{"type":"function","name":"initialize","inputs":[{"name":"_owner","type":"address","internalType":"address"},{"name":"_mintSigner","type":"address","internalType":"address"},{"name":"_blacklist","type":"address","internalType":"contract IMinimalBlacklist"}],"outputs":[],"stateMutability":"nonpayable"},{"type":"function","name":"isApprovedForAll","inputs":[{"name":"owner","type":"address","internalType":"address"},{"name":"operator","type":"address","internalType":"address"}],"outputs":[{"name":"","type":"bool","internalType":"bool"}],"stateMutability":"view"},{"type":"function","name":"isLocked","inputs":[{"name":"tokenId","type":"uint256","internalType":"uint256"}],"outputs":[{"name":"","type":"bool","internalType":"bool"}],"stateMutability":"view"},{"type":"function","name":"mint","inputs":[{"name":"_signature","type":"bytes","internalType":"bytes"},{"name":"_badgeId","type":"uint256","internalType":"uint256"}],"outputs":[],"stateMutability":"nonpayable"},{"type":"function","name":"mint","inputs":[{"name":"_signature","type":"bytes","internalType":"bytes"},{"name":"_minter","type":"address","internalType":"address"},{"name":"_badgeId","type":"uint256","internalType":"uint256"}],"outputs":[],"stateMutability":"nonpayable"},{"type":"function","name":"mintSigner","inputs":[],"outputs":[{"name":"","type":"address","internalType":"address"}],"stateMutability":"view"},{"type":"function","name":"minted","inputs":[{"name":"signatureHash","type":"bytes32","internalType":"bytes32"}],"outputs":[{"name":"hasMinted","type":"bool","internalType":"bool"}],"stateMutability":"view"},{"type":"function","name":"movementBadges","inputs":[{"name":"movementBadgeHash","type":"bytes32","internalType":"bytes32"},{"name":"","type":"uint256","internalType":"uint256"}],"outputs":[{"name":"movementBadge","type":"uint256","internalType":"uint256"}],"stateMutability":"view"},{"type":"function","name":"movements","inputs":[{"name":"_user","type":"address","internalType":"address"}],"outputs":[{"name":"_movement","type":"uint256","internalType":"uint256"}],"stateMutability":"view"},{"type":"function","name":"name","inputs":[],"outputs":[{"name":"","type":"string","internalType":"string"}],"stateMutability":"view"},{"type":"function","name":"owner","inputs":[],"outputs":[{"name":"","type":"address","internalType":"address"}],"stateMutability":"view"},{"type":"function","name":"ownerOf","inputs":[{"name":"tokenId","type":"uint256","internalType":"uint256"}],"outputs":[{"name":"","type":"address","internalType":"address"}],"stateMutability":"view"},{"type":"function","name":"pendingOwner","inputs":[],"outputs":[{"name":"","type":"address","internalType":"address"}],"stateMutability":"view"},{"type":"function","name":"proxiableUUID","inputs":[],"outputs":[{"name":"","type":"bytes32","internalType":"bytes32"}],"stateMutability":"view"},{"type":"function","name":"recruitmentContract","inputs":[],"outputs":[{"name":"","type":"address","internalType":"contract BadgeRecruitment"}],"stateMutability":"view"},{"type":"function","name":"recruitmentContractV2","inputs":[],"outputs":[{"name":"","type":"address","internalType":"contract BadgeRecruitmentV2"}],"stateMutability":"view"},{"type":"function","name":"recruitmentLockDuration","inputs":[],"outputs":[{"name":"","type":"uint256","internalType":"uint256"}],"stateMutability":"view"},{"type":"function","name":"renounceOwnership","inputs":[],"outputs":[],"stateMutability":"nonpayable"},{"type":"function","name":"resetMigration","inputs":[{"name":"_tokenId","type":"uint256","internalType":"uint256"},{"name":"_badgeId","type":"uint256","internalType":"uint256"},{"name":"_cycleId","type":"uint256","internalType":"uint256"}],"outputs":[],"stateMutability":"nonpayable"},{"type":"function","name":"safeTransferFrom","inputs":[{"name":"from","type":"address","internalType":"address"},{"name":"to","type":"address","internalType":"address"},{"name":"tokenId","type":"uint256","internalType":"uint256"}],"outputs":[],"stateMutability":"nonpayable"},{"type":"function","name":"safeTransferFrom","inputs":[{"name":"from","type":"address","internalType":"address"},{"name":"to","type":"address","internalType":"address"},{"name":"tokenId","type":"uint256","internalType":"uint256"},{"name":"data","type":"bytes","internalType":"bytes"}],"outputs":[],"stateMutability":"nonpayable"},{"type":"function","name":"season2EndTimestamp","inputs":[],"outputs":[{"name":"","type":"uint256","internalType":"uint256"}],"stateMutability":"view"},{"type":"function","name":"season3EndTimestamp","inputs":[],"outputs":[{"name":"","type":"uint256","internalType":"uint256"}],"stateMutability":"view"},{"type":"function","name":"setApprovalForAll","inputs":[{"name":"operator","type":"address","internalType":"address"},{"name":"approved","type":"bool","internalType":"bool"}],"outputs":[],"stateMutability":"nonpayable"},{"type":"function","name":"setMovement","inputs":[{"name":"_movementId","type":"uint256","internalType":"uint256"}],"outputs":[],"stateMutability":"nonpayable"},{"type":"function","name":"setMovement","inputs":[{"name":"_user","type":"address","internalType":"address"},{"name":"_movementId","type":"uint256","internalType":"uint256"}],"outputs":[],"stateMutability":"nonpayable"},{"type":"function","name":"setRecruitmentContract","inputs":[{"name":"_recruitmentContract","type":"address","internalType":"address"}],"outputs":[],"stateMutability":"nonpayable"},{"type":"function","name":"setRecruitmentContractV2","inputs":[{"name":"_recruitmentContractV2","type":"address","internalType":"address"}],"outputs":[],"stateMutability":"nonpayable"},{"type":"function","name":"setRecruitmentLockDuration","inputs":[{"name":"_duration","type":"uint256","internalType":"uint256"}],"outputs":[],"stateMutability":"nonpayable"},{"type":"function","name":"setSeason2EndTimestamp","inputs":[{"name":"_ts","type":"uint256","internalType":"uint256"}],"outputs":[],"stateMutability":"nonpayable"},{"type":"function","name":"setSeason3EndTimestamp","inputs":[{"name":"_ts","type":"uint256","internalType":"uint256"}],"outputs":[],"stateMutability":"nonpayable"},{"type":"function","name":"setUri","inputs":[{"name":"_uri","type":"string","internalType":"string"}],"outputs":[],"stateMutability":"nonpayable"},{"type":"function","name":"startRecruitment","inputs":[{"name":"","type":"uint256","internalType":"uint256"}],"outputs":[],"stateMutability":"nonpayable"},{"type":"function","name":"startRecruitment","inputs":[{"name":"_badgeId","type":"uint256","internalType":"uint256"},{"name":"_tokenId","type":"uint256","internalType":"uint256"}],"outputs":[],"stateMutability":"nonpayable"},{"type":"function","name":"supportsInterface","inputs":[{"name":"interfaceId","type":"bytes4","internalType":"bytes4"}],"outputs":[{"name":"","type":"bool","internalType":"bool"}],"stateMutability":"view"},{"type":"function","name":"symbol","inputs":[],"outputs":[{"name":"","type":"string","internalType":"string"}],"stateMutability":"view"},{"type":"function","name":"tokenByIndex","inputs":[{"name":"index","type":"uint256","internalType":"uint256"}],"outputs":[{"name":"","type":"uint256","internalType":"uint256"}],"stateMutability":"view"},{"type":"function","name":"tokenOfOwnerByIndex","inputs":[{"name":"owner","type":"address","internalType":"address"},{"name":"index","type":"uint256","internalType":"uint256"}],"outputs":[{"name":"","type":"uint256","internalType":"uint256"}],"stateMutability":"view"},{"type":"function","name":"tokenURI","inputs":[{"name":"_tokenId","type":"uint256","internalType":"uint256"}],"outputs":[{"name":"","type":"string","internalType":"string"}],"stateMutability":"view"},{"type":"function","name":"totalBadgeSupply","inputs":[],"outputs":[{"name":"balances","type":"uint256[]","internalType":"uint256[]"}],"stateMutability":"view"},{"type":"function","name":"totalSupply","inputs":[],"outputs":[{"name":"","type":"uint256","internalType":"uint256"}],"stateMutability":"view"},{"type":"function","name":"transferFrom","inputs":[{"name":"from","type":"address","internalType":"address"},{"name":"to","type":"address","internalType":"address"},{"name":"tokenId","type":"uint256","internalType":"uint256"}],"outputs":[],"stateMutability":"nonpayable"},{"type":"function","name":"transferOwnership","inputs":[{"name":"newOwner","type":"address","internalType":"address"}],"outputs":[],"stateMutability":"nonpayable"},{"type":"function","name":"unlockTimestamps","inputs":[{"name":"tokenId","type":"uint256","internalType":"uint256"}],"outputs":[{"name":"unlockTimestamp","type":"uint256","internalType":"uint256"}],"stateMutability":"view"},{"type":"function","name":"updateBlacklist","inputs":[{"name":"_blacklist","type":"address","internalType":"contract IMinimalBlacklist"}],"outputs":[],"stateMutability":"nonpayable"},{"type":"function","name":"updateMintSigner","inputs":[{"name":"_mintSigner","type":"address","internalType":"address"}],"outputs":[],"stateMutability":"nonpayable"},{"type":"function","name":"upgradeToAndCall","inputs":[{"name":"newImplementation","type":"address","internalType":"address"},{"name":"data","type":"bytes","internalType":"bytes"}],"outputs":[],"stateMutability":"payable"},{"type":"function","name":"userBadges","inputs":[{"name":"_user","type":"address","internalType":"address"},{"name":"_badgeId","type":"uint256","internalType":"uint256"}],"outputs":[{"name":"_tokenId","type":"uint256","internalType":"uint256"}],"stateMutability":"view"},{"type":"function","name":"version","inputs":[],"outputs":[{"name":"","type":"string","internalType":"string"}],"stateMutability":"pure"},{"type":"event","name":"Approval","inputs":[{"name":"owner","type":"address","indexed":true,"internalType":"address"},{"name":"approved","type":"address","indexed":true,"internalType":"address"},{"name":"tokenId","type":"uint256","indexed":true,"internalType":"uint256"}],"anonymous":false},{"type":"event","name":"ApprovalForAll","inputs":[{"name":"owner","type":"address","indexed":true,"internalType":"address"},{"name":"operator","type":"address","indexed":true,"internalType":"address"},{"name":"approved","type":"bool","indexed":false,"internalType":"bool"}],"anonymous":false},{"type":"event","name":"BadgeCreated","inputs":[{"name":"_tokenId","type":"uint256","indexed":false,"internalType":"uint256"},{"name":"_minter","type":"address","indexed":false,"internalType":"address"},{"name":"_badgeId","type":"uint256","indexed":false,"internalType":"uint256"}],"anonymous":false},{"type":"event","name":"BlacklistUpdated","inputs":[{"name":"_blacklist","type":"address","indexed":false,"internalType":"address"}],"anonymous":false},{"type":"event","name":"Initialized","inputs":[{"name":"version","type":"uint64","indexed":false,"internalType":"uint64"}],"anonymous":false},{"type":"event","name":"MintConsumed","inputs":[{"name":"_minter","type":"address","indexed":false,"internalType":"address"},{"name":"_tokenId","type":"uint256","indexed":false,"internalType":"uint256"}],"anonymous":false},{"type":"event","name":"MintSignerUpdated","inputs":[{"name":"_mintSigner","type":"address","indexed":false,"internalType":"address"}],"anonymous":false},{"type":"event","name":"MovementSet","inputs":[{"name":"_user","type":"address","indexed":false,"internalType":"address"},{"name":"_movementId","type":"uint256","indexed":false,"internalType":"uint256"}],"anonymous":false},{"type":"event","name":"OwnershipTransferStarted","inputs":[{"name":"previousOwner","type":"address","indexed":true,"internalType":"address"},{"name":"newOwner","type":"address","indexed":true,"internalType":"address"}],"anonymous":false},{"type":"event","name":"OwnershipTransferred","inputs":[{"name":"previousOwner","type":"address","indexed":true,"internalType":"address"},{"name":"newOwner","type":"address","indexed":true,"internalType":"address"}],"anonymous":false},{"type":"event","name":"Transfer","inputs":[{"name":"from","type":"address","indexed":true,"internalType":"address"},{"name":"to","type":"address","indexed":true,"internalType":"address"},{"name":"tokenId","type":"uint256","indexed":true,"internalType":"uint256"}],"anonymous":false},{"type":"event","name":"Upgraded","inputs":[{"name":"implementation","type":"address","indexed":true,"internalType":"address"}],"anonymous":false},{"type":"event","name":"UriSet","inputs":[{"name":"_uri","type":"string","indexed":false,"internalType":"string"}],"anonymous":false},{"type":"error","name":"ADDRESS_BLACKLISTED","inputs":[]},{"type":"error","name":"AddressEmptyCode","inputs":[{"name":"target","type":"address","internalType":"address"}]},{"type":"error","name":"BADGE_LOCKED","inputs":[]},{"type":"error","name":"BADGE_LOCKED_SEASON_2","inputs":[]},{"type":"error","name":"ERC1967InvalidImplementation","inputs":[{"name":"implementation","type":"address","internalType":"address"}]},{"type":"error","name":"ERC1967NonPayable","inputs":[]},{"type":"error","name":"ERC721EnumerableForbiddenBatchMint","inputs":[]},{"type":"error","name":"ERC721IncorrectOwner","inputs":[{"name":"sender","type":"address","internalType":"address"},{"name":"tokenId","type":"uint256","internalType":"uint256"},{"name":"owner","type":"address","internalType":"address"}]},{"type":"error","name":"ERC721InsufficientApproval","inputs":[{"name":"operator","type":"address","internalType":"address"},{"name":"tokenId","type":"uint256","internalType":"uint256"}]},{"type":"error","name":"ERC721InvalidApprover","inputs":[{"name":"approver","type":"address","internalType":"address"}]},{"type":"error","name":"ERC721InvalidOperator","inputs":[{"name":"operator","type":"address","internalType":"address"}]},{"type":"error","name":"ERC721InvalidOwner","inputs":[{"name":"owner","type":"address","internalType":"address"}]},{"type":"error","name":"ERC721InvalidReceiver","inputs":[{"name":"receiver","type":"address","internalType":"address"}]},{"type":"error","name":"ERC721InvalidSender","inputs":[{"name":"sender","type":"address","internalType":"address"}]},{"type":"error","name":"ERC721NonexistentToken","inputs":[{"name":"tokenId","type":"uint256","internalType":"uint256"}]},{"type":"error","name":"ERC721OutOfBoundsIndex","inputs":[{"name":"owner","type":"address","internalType":"address"},{"name":"index","type":"uint256","internalType":"uint256"}]},{"type":"error","name":"FailedInnerCall","inputs":[]},{"type":"error","name":"INVALID_BADGE_ID","inputs":[]},{"type":"error","name":"INVALID_INPUT","inputs":[]},{"type":"error","name":"INVALID_MOVEMENT_ID","inputs":[]},{"type":"error","name":"InvalidInitialization","inputs":[]},{"type":"error","name":"MINTER_NOT_WHITELISTED","inputs":[]},{"type":"error","name":"MINTS_EXCEEDED","inputs":[]},{"type":"error","name":"NOT_IMPLEMENTED","inputs":[]},{"type":"error","name":"NOT_OWNER","inputs":[]},{"type":"error","name":"NotInitializing","inputs":[]},{"type":"error","name":"ONLY_MINT_SIGNER","inputs":[]},{"type":"error","name":"OwnableInvalidOwner","inputs":[{"name":"owner","type":"address","internalType":"address"}]},{"type":"error","name":"OwnableUnauthorizedAccount","inputs":[{"name":"account","type":"address","internalType":"address"}]},{"type":"error","name":"RECRUITMENT_ALREADY_COMPLETED","inputs":[]},{"type":"error","name":"RECRUITMENT_LOCK_DURATION_NOT_SET","inputs":[]},{"type":"error","name":"RECRUITMENT_NOT_FOUND","inputs":[]},{"type":"error","name":"UUPSUnauthorizedCallContext","inputs":[]},{"type":"error","name":"UUPSUnsupportedProxiableUUID","inputs":[{"name":"slot","type":"bytes32","internalType":"bytes32"}]}],"bytecode":{"object":"0x60a06040523060805234801562000014575f80fd5b506200001f62000025565b620000d9565b7ff0c57e16840df040f15088dc2f81fe391c3923bec73e23a9662efc9c229c6a00805468010000000000000000900460ff1615620000765760405163f92ee8a960e01b815260040160405180910390fd5b80546001600160401b0390811614620000d65780546001600160401b0319166001600160401b0390811782556040519081527fc7f505b2f371ae2175ee4913f4499e1f2633a7b5936321eed1cdaeb6115181d29060200160405180910390a15b50565b608051613b98620001005f395f81816121400152818161216901526122a80152613b985ff3fe608060405260043610610420575f3560e01c80639224747d11610220578063c87b56dd11610129578063e985e9c5116100b3578063f571049b11610078578063f571049b14610c06578063f6aacfb114610c25578063f7da8ce314610c44578063f896d3a014610c63578063ff2c26ec14610c82575f80fd5b8063e985e9c514610b6c578063ed05582b14610b8b578063f17af48d14610baa578063f23ff9d914610bc8578063f2fde38b14610be7575f80fd5b8063d944061e116100f9578063d944061e14610ad1578063df91cc2314610ae4578063e1aff31214610b1a578063e30c397814610b39578063e84be85214610b4d575f80fd5b8063c87b56dd14610a72578063c8860d9814610a91578063ca0259c014610ab0578063d5def7c214610ad1575f80fd5b8063a7fb03ab116101aa578063b58c439e1161017a578063b58c439e146109d7578063b88d4fde146109f6578063b8f88d6414610a15578063bacb6d4e14610a34578063c0c53b8b14610a53575f80fd5b8063a7fb03ab1461097f578063ad3cb1cc14610993578063b378b448146109c3578063b4e7409f1461090e575f80fd5b806398ef238a116101f057806398ef238a1461090e5780639b642de1146109225780639cc2816414610512578063a22cb46514610941578063a4b5fa5614610960575f80fd5b80639224747d14610885578063950290c8146108b057806395d89b41146108cf57806398e36d8b146108e3575f80fd5b806345d467481161032d5780636c0360eb116102b757806375b9c0151161027c57806375b9c015146107fc57806379ba5097146108105780638ccc5f80146108245780638da5cb5b146108525780638e228b6414610866575f80fd5b80636c0360eb1461076b578063700b1acd1461077f57806370a08231146107aa578063715018a6146107c957806373e9c1f9146107dd575f80fd5b806352d1902d116102fd57806352d1902d146106c357806354fd4d50146106d7578063599fdaa2146107015780635c6f8ca3146107205780636352211e1461074c575f80fd5b806345d46748146106685780634808b1091461067d5780634f1ef286146106915780634f6ccce7146106a4575f80fd5b806323604864116103ae5780632f745c591161037e5780632f745c59146105d75780633136964c146105f657806332c8f50414610615578063378b57041461062a57806342842e0e14610649575f80fd5b8063236048641461056557806323b872dd1461057a57806329f99b9f146105995780632f19062f146105b8575f80fd5b8063095ea7b3116103f4578063095ea7b3146104d15780630e0c8b0a146104f05780630f5f04bf1461051257806318160ddd146105265780631fcfe19c14610546575f80fd5b80622576121461042457806301ffc9a71461044557806306fdde0314610479578063081812fc1461049a575b5f80fd5b34801561042f575f80fd5b5061044361043e366004613325565b610ca1565b005b348015610450575f80fd5b5061046461045f36600461337b565b610cb0565b60405190151581526020015b60405180910390f35b348015610484575f80fd5b5061048d610cda565b60405161047091906133e3565b3480156104a5575f80fd5b506104b96104b43660046133f5565b610d7b565b6040516001600160a01b039091168152602001610470565b3480156104dc575f80fd5b506104436104eb366004613420565b610d8f565b3480156104fb575f80fd5b50610504600681565b604051908152602001610470565b34801561051d575f80fd5b50610504600181565b348015610531575f80fd5b505f80516020613b4383398151915254610504565b348015610551575f80fd5b5061044361056036600461344a565b610d9a565b348015610570575f80fd5b5061050460675481565b348015610585575f80fd5b5061044361059436600461349f565b610db2565b3480156105a4575f80fd5b506105046105b3366004613420565b610e40565b3480156105c3575f80fd5b506104436105d23660046133f5565b610e67565b3480156105e2575f80fd5b506105046105f1366004613420565b610e74565b348015610601575f80fd5b506105046106103660046134cc565b610ee5565b348015610620575f80fd5b5061050460625481565b348015610635575f80fd5b506104436106443660046134ec565b610f07565b348015610654575f80fd5b5061044361066336600461349f565b610f64565b348015610673575f80fd5b5061050460665481565b348015610688575f80fd5b50610504600781565b61044361069f366004613507565b610f7e565b3480156106af575f80fd5b506105046106be3660046133f5565b610f99565b3480156106ce575f80fd5b5061050461100b565b3480156106e2575f80fd5b506040805180820190915260028152610ac760f31b602082015261048d565b34801561070c575f80fd5b506065546104b9906001600160a01b031681565b34801561072b575f80fd5b5061073f61073a3660046134ec565b611026565b6040516104709190613553565b348015610757575f80fd5b506104b96107663660046133f5565b6111da565b348015610776575f80fd5b5061048d6111e4565b34801561078a575f80fd5b506105046107993660046134ec565b60346020525f908152604090205481565b3480156107b5575f80fd5b506105046107c43660046134ec565b611274565b3480156107d4575f80fd5b506104436112cc565b3480156107e8575f80fd5b506104436107f7366004613598565b6112df565b348015610807575f80fd5b50610504600581565b34801561081b575f80fd5b5061044361139d565b34801561082f575f80fd5b5061046461083e3660046133f5565b60016020525f908152604090205460ff1681565b34801561085d575f80fd5b506104b96113e2565b348015610871575f80fd5b506104436108803660046133f5565b611416565b348015610890575f80fd5b5061050461089f3660046133f5565b60646020525f908152604090205481565b3480156108bb575f80fd5b506104436108ca3660046133f5565b611423565b3480156108da575f80fd5b5061048d61143c565b3480156108ee575f80fd5b506105046108fd3660046133f5565b60336020525f908152604090205481565b348015610919575f80fd5b50610504600281565b34801561092d575f80fd5b5061044361093c3660046135c1565b61147a565b34801561094c575f80fd5b5061044361095b366004613607565b6114be565b34801561096b575f80fd5b506002546104b9906001600160a01b031681565b34801561098a575f80fd5b50610504600481565b34801561099e575f80fd5b5061048d604051806040016040528060058152602001640352e302e360dc1b81525081565b3480156109ce575f80fd5b50610504600381565b3480156109e2575f80fd5b506104646109f136600461344a565b6114c9565b348015610a01575f80fd5b50610443610a1036600461363e565b611590565b348015610a20575f80fd5b50610443610a2f3660046136a5565b6115a7565b348015610a3f575f80fd5b50610443610a4e3660046133f5565b611715565b348015610a5e575f80fd5b50610443610a6d366004613715565b611722565b348015610a7d575f80fd5b5061048d610a8c3660046133f5565b611832565b348015610a9c575f80fd5b506063546104b9906001600160a01b031681565b348015610abb575f80fd5b50610ac46118aa565b604051610470919061375d565b348015610adc575f80fd5b506105045f81565b348015610aef575f80fd5b50610504610afe366004613420565b603560209081525f928352604080842090915290825290205481565b348015610b25575f80fd5b50610443610b343660046133f5565b611944565b348015610b44575f80fd5b506104b9611951565b348015610b58575f80fd5b50610443610b673660046134ec565b611979565b348015610b77575f80fd5b50610464610b86366004613794565b6119a3565b348015610b96575f80fd5b50610504610ba5366004613420565b6119ef565b348015610bb5575f80fd5b505f546104b9906001600160a01b031681565b348015610bd3575f80fd5b50610443610be23660046134cc565b611a48565b348015610bf2575f80fd5b50610443610c013660046134ec565b611bcd565b348015610c11575f80fd5b50610443610c203660046134ec565b611c52565b348015610c30575f80fd5b50610464610c3f3660046133f5565b611ca7565b348015610c4f575f80fd5b5061073f610c5e3660046134ec565b611d11565b348015610c6e575f80fd5b50610443610c7d3660046134ec565b611e2e565b348015610c8d575f80fd5b50610443610c9c366004613420565b611e58565b610cac823383611e6a565b5050565b5f6001600160e01b0319821663780e9d6360e01b1480610cd45750610cd482611f23565b92915050565b5f80516020613b038339815191528054606091908190610cf9906137c0565b80601f0160208091040260200160405190810160405280929190818152602001828054610d25906137c0565b8015610d705780601f10610d4757610100808354040283529160200191610d70565b820191905f5260205f20905b815481529060010190602001808311610d5357829003601f168201915b505050505091505090565b5f610d8582611f72565b50610cd482611fa9565b610cac828233611fe2565b610da2611fef565b610dad838383611e6a565b505050565b6001600160a01b038216610de057604051633250574960e11b81525f60048201526024015b60405180910390fd5b5f610dec838333612021565b9050836001600160a01b0316816001600160a01b031614610e3a576040516364283d7b60e01b81526001600160a01b0380861660048301526024820184905282166044820152606401610dd7565b50505050565b6001600160a01b03919091165f908152603560209081526040808320938352929052205490565b610e7133826120bc565b50565b5f5f80516020613ae3833981519152610e8c84611274565b8310610ebd5760405163295f44f760e21b81526001600160a01b038516600482015260248101849052604401610dd7565b6001600160a01b0384165f908152602091825260408082208583529092522054905092915050565b6036602052815f5260405f208160028110610efe575f80fd5b01549150829050565b610f0f611fef565b600280546001600160a01b0319166001600160a01b0383169081179091556040519081527f75cdf6842d867a09260947ac775619527788d913a79fc3b41da1815fa377af65906020015b60405180910390a150565b610dad83838360405180602001604052805f815250611590565b610f86612135565b610f8f826121d9565b610cac82826121e1565b5f5f80516020613ae3833981519152610fbd5f80516020613b438339815191525490565b8310610fe55760405163295f44f760e21b81525f600482015260248101849052604401610dd7565b806002018381548110610ffa57610ffa6137f8565b905f5260205f200154915050919050565b5f61101461229d565b505f80516020613b2383398151915290565b60408051600880825261012082019092526060915f91906020820161010080368337019050509050611058835f610e40565b5f1415815f8151811061106d5761106d6137f8565b91151560209283029190910190910152611088836001610e40565b5f14158160018151811061109e5761109e6137f8565b911515602092830291909101909101526110b9836002610e40565b5f1415816002815181106110cf576110cf6137f8565b911515602092830291909101909101526110ea836003610e40565b5f141581600381518110611100576111006137f8565b9115156020928302919091019091015261111b836004610e40565b5f141581600481518110611131576111316137f8565b9115156020928302919091019091015261114c836005610e40565b5f141581600581518110611162576111626137f8565b9115156020928302919091019091015261117d836006610e40565b5f141581600681518110611193576111936137f8565b911515602092830291909101909101526111ae836007610e40565b5f1415816007815181106111c4576111c46137f8565b9115156020928302919091019091015292915050565b5f610cd482611f72565b6060603280546111f3906137c0565b80601f016020809104026020016040519081016040528092919081815260200182805461121f906137c0565b801561126a5780601f106112415761010080835404028352916020019161126a565b820191905f5260205f20905b81548152906001019060200180831161124d57829003601f168201915b5050505050905090565b5f5f80516020613b038339815191526001600160a01b0383166112ac576040516322718ad960e21b81525f6004820152602401610dd7565b6001600160a01b039092165f908152600390920160205250604090205490565b6112d4611fef565b6112dd5f6122e6565b565b336112e9846111da565b6001600160a01b031614611310576040516338ebc58960e11b815260040160405180910390fd5b6065546001600160a01b0316637671afc0336040516001600160e01b031960e084901b1681526001600160a01b0390911660048201526024810186905260448101859052606481018490526084015f604051808303815f87803b158015611375575f80fd5b505af1158015611387573d5f803e3d5ffd5b5050505f93845250506064602052506040812055565b33806113a7611951565b6001600160a01b0316146113d95760405163118cdaa760e01b81526001600160a01b0382166004820152602401610dd7565b610e71816122e6565b5f807f9016d09d72d40fdae2fd8ceac6b6234c7706214fd39c1cd1e609a0528c1993005b546001600160a01b031692915050565b61141e611fef565b606755565b6040516343f6e4ab60e01b815260040160405180910390fd5b7f80bb2b638cc20bc4d0a60d66940f3ab4a00c1d7b313497ca82fb0b4ab007930180546060915f80516020613b0383398151915291610cf9906137c0565b611482611fef565b603261148e8282613850565b507fd09d05534067f74dbc9e6af794edbd29e904d7698e428d0bc1378e45889acdd781604051610f5991906133e3565b610cac33838361231e565b60025460405163fe575a8760e01b81526001600160a01b0384811660048301525f92169063fe575a8790602401602060405180830381865afa158015611511573d5f803e3d5ffd5b505050506040513d601f19601f82011682018060405250810190611535919061390f565b1561155357604051637874e36360e01b815260040160405180910390fd5b83516020808601919091205f9081526001909152604090205460ff161561157b57505f611589565b6115868484846123cd565b90505b9392505050565b61159b848484610db2565b610e3a84848484612402565b7ff0c57e16840df040f15088dc2f81fe391c3923bec73e23a9662efc9c229c6a008054600160401b810460ff1615906001600160401b03165f811580156115eb5750825b90505f826001600160401b031660011480156116065750303b155b905081158015611614575080155b156116325760405163f92ee8a960e01b815260040160405180910390fd5b845467ffffffffffffffff19166001178555831561165c57845460ff60401b1916600160401b1785555b6116ac60405180604001604052806013815260200172547261696c626c617a6572732042616467657360681b815250604051806040016040528060038152602001622a212160e91b815250612528565b60326116b88982613850565b506116c489888861253a565b831561170a57845460ff60401b19168555604051600181527fc7f505b2f371ae2175ee4913f4499e1f2633a7b5936321eed1cdaeb6115181d29060200160405180910390a15b505050505050505050565b61171d611fef565b606255565b7ff0c57e16840df040f15088dc2f81fe391c3923bec73e23a9662efc9c229c6a008054600160401b810460ff1615906001600160401b03165f811580156117665750825b90505f826001600160401b031660011480156117815750303b155b90508115801561178f575080155b156117ad5760405163f92ee8a960e01b815260040160405180910390fd5b845467ffffffffffffffff1916600117855583156117d757845460ff60401b1916600160401b1785555b6117e288888861253a565b831561182857845460ff60401b19168555604051600181527fc7f505b2f371ae2175ee4913f4499e1f2633a7b5936321eed1cdaeb6115181d29060200160405180910390a15b5050505050505050565b60605f60345f611841856111da565b6001600160a01b0316815260208082019290925260409081015f908120548682526033909352205490915060326118778361258e565b6118808361258e565b60405160200161189293929190613945565b60405160208183030381529060405292505050919050565b60605f6118c25f80516020613b438339815191525490565b6040805160088082526101208201909252919250602082016101008036833701905050915060015b81811161193f575f818152603360205260409020548351849082908110611913576119136137f8565b60200260200101805180919061192890613a07565b90525081905061193781613a07565b9150506118ea565b505090565b61194c611fef565b606655565b5f807f237e158222e3e6968b72b9db0d8043aacf074ad9f650f0d1606b4d82ee432c00611406565b611981611fef565b606380546001600160a01b0319166001600160a01b0392909216919091179055565b6001600160a01b039182165f9081527f80bb2b638cc20bc4d0a60d66940f3ab4a00c1d7b313497ca82fb0b4ab00793056020908152604080832093909416825291909152205460ff1690565b604080516001600160a01b03841660208201529081018290525f9060600160408051601f198184030181528282528051602091820120908301520160405160208183030381529060405280519060200120905092915050565b5f81815260646020526040902054819015801590611a67575060665442105b15611a8557604051635119f4d360e11b815260040160405180910390fd5b6067545f82815260646020526040902054148015611aa4575060665442115b8015611ab1575060675442105b15611acf5760405163f384830d60e01b815260040160405180910390fd5b6062545f03611af1576040516321d9ef2160e21b815260040160405180910390fd5b33611afb836111da565b6001600160a01b031614611b22576040516338ebc58960e11b815260040160405180910390fd5b606654421015611b42576066545f83815260646020526040902055611b54565b6067545f838152606460205260409020555b6065546001600160a01b031663a6471ecf336040516001600160e01b031960e084901b1681526001600160a01b03909116600482015260248101869052604481018590526064015f604051808303815f87803b158015611bb2575f80fd5b505af1158015611bc4573d5f803e3d5ffd5b50505050505050565b611bd5611fef565b7f237e158222e3e6968b72b9db0d8043aacf074ad9f650f0d1606b4d82ee432c0080546001600160a01b0319166001600160a01b0383169081178255611c196113e2565b6001600160a01b03167f38d16b8cac22d99fc7c124b9cd0de2d3fa1faef420bfe791d8c362d765e2270060405160405180910390a35050565b611c5a611fef565b5f80546001600160a01b0319166001600160a01b0383169081179091556040519081527f81c142d9a4b33dfaba82444370b6b077fc2cb507c30c41a7c967f695ed72651f90602001610f59565b5f8181526064602052604081205415801590611cc4575060665442105b15611cd157506001919050565b6067545f83815260646020526040902054148015611cf0575060665442115b8015611cfd575060675442105b15611d0a57506001919050565b505f919050565b60605f611d1d83611274565b90505f816001600160401b03811115611d3857611d38613289565b604051908082528060200260200182016040528015611d61578160200160208202803683370190505b5090505f5b82811015611d9d57611d788582610e74565b828281518110611d8a57611d8a6137f8565b6020908102919091010152600101611d66565b5060408051600880825261012082019092529060208201610100803683370190505092505f5b82811015611e26575f60335f848481518110611de157611de16137f8565b602002602001015181526020019081526020015f205490506001858281518110611e0d57611e0d6137f8565b9115156020928302919091019091015250600101611dc3565b505050919050565b611e36611fef565b606580546001600160a01b0319166001600160a01b0392909216919091179055565b611e60611fef565b610cac82826120bc565b6007811115611e8c57604051635557cd3560e11b815260040160405180910390fd5b611e9783838361261d565b5f611ead5f80516020613b438339815191525490565b611eb8906001613a1f565b5f8181526033602052604090208390559050611ed483826126ae565b604080518281526001600160a01b03851660208201529081018390527f73ec18fe90e8b3de52d7e88ff3108708ed0e9714e5327b038c182b64cedaae709060600160405180910390a150505050565b5f6001600160e01b031982166380ac58cd60e01b1480611f5357506001600160e01b03198216635b5e139f60e01b145b80610cd457506301ffc9a760e01b6001600160e01b0319831614610cd4565b5f80611f7d8361270f565b90506001600160a01b038116610cd457604051637e27328960e01b815260048101849052602401610dd7565b5f9081527f80bb2b638cc20bc4d0a60d66940f3ab4a00c1d7b313497ca82fb0b4ab007930460205260409020546001600160a01b031690565b610dad8383836001612748565b33611ff86113e2565b6001600160a01b0316146112dd5760405163118cdaa760e01b8152336004820152602401610dd7565b5f82815260646020526040812054839015801590612040575060665442105b1561205e57604051635119f4d360e11b815260040160405180910390fd5b6067545f8281526064602052604090205414801561207d575060665442115b801561208a575060675442105b156120a85760405163f384830d60e01b815260040160405180910390fd5b6120b385858561285b565b95945050505050565b60028111156120de57604051632c4d11b760e11b815260040160405180910390fd5b6001600160a01b0382165f81815260346020908152604091829020849055815192835282018390527fc8f3ae17becdf8c098ef081092d0420324d1318397bd7ac8e90d900c56a50a76910160405180910390a15050565b306001600160a01b037f00000000000000000000000000000000000000000000000000000000000000001614806121bb57507f00000000000000000000000000000000000000000000000000000000000000006001600160a01b03166121af5f80516020613b23833981519152546001600160a01b031690565b6001600160a01b031614155b156112dd5760405163703e46dd60e11b815260040160405180910390fd5b610e71611fef565b816001600160a01b03166352d1902d6040518163ffffffff1660e01b8152600401602060405180830381865afa92505050801561223b575060408051601f3d908101601f1916820190925261223891810190613a32565b60015b61226357604051634c9c8ce360e01b81526001600160a01b0383166004820152602401610dd7565b5f80516020613b23833981519152811461229357604051632a87526960e21b815260048101829052602401610dd7565b610dad83836128fe565b306001600160a01b037f000000000000000000000000000000000000000000000000000000000000000016146112dd5760405163703e46dd60e11b815260040160405180910390fd5b7f237e158222e3e6968b72b9db0d8043aacf074ad9f650f0d1606b4d82ee432c0080546001600160a01b0319168155610cac82612953565b5f80516020613b038339815191526001600160a01b03831661235e57604051630b61174360e31b81526001600160a01b0384166004820152602401610dd7565b6001600160a01b038481165f818152600584016020908152604080832094881680845294825291829020805460ff191687151590811790915591519182527f17307eab39ab6107e8899845ad3d59bd9653f200f220920489ca2b5937696c31910160405180910390a350505050565b5f806123d984846119ef565b90505f6123e682876129c3565b50505f546001600160a01b039081169116149695505050505050565b6001600160a01b0383163b15610e3a57604051630a85bd0160e11b81526001600160a01b0384169063150b7a0290612444903390889087908790600401613a49565b6020604051808303815f875af192505050801561247e575060408051601f3d908101601f1916820190925261247b91810190613a85565b60015b6124e5573d8080156124ab576040519150601f19603f3d011682016040523d82523d5f602084013e6124b0565b606091505b5080515f036124dd57604051633250574960e11b81526001600160a01b0385166004820152602401610dd7565b805181602001fd5b6001600160e01b03198116630a85bd0160e11b1461252157604051633250574960e11b81526001600160a01b0385166004820152602401610dd7565b5050505050565b612530612a0c565b610cac8282612a55565b6125586001600160a01b0384161561255257836122e6565b336122e6565b612560612a85565b5f80546001600160a01b039384166001600160a01b0319918216179091556002805492909316911617905550565b60605f61259a83612a8d565b60010190505f816001600160401b038111156125b8576125b8613289565b6040519080825280601f01601f1916602001820160405280156125e2576020820181803683370190505b5090508181016020015b5f19016f181899199a1a9b1b9c1cb0b131b232b360811b600a86061a8153600a85049450846125ec57509392505050565b6126288383836114c9565b61264557604051639ea134e960e01b815260040160405180910390fd5b82516020808501919091205f9081526001808352604091829020805460ff1916909117905580516001600160a01b03851681529182018390527ff71d0afb6ca23454b34db8bf7baf45f79e8c2f41e5499375ea2289312b2d317b910160405180910390a1505050565b6001600160a01b0382166126d757604051633250574960e11b81525f6004820152602401610dd7565b5f6126e383835f612021565b90506001600160a01b03811615610dad576040516339e3563760e11b81525f6004820152602401610dd7565b5f9081527f80bb2b638cc20bc4d0a60d66940f3ab4a00c1d7b313497ca82fb0b4ab007930260205260409020546001600160a01b031690565b5f80516020613b03833981519152818061276a57506001600160a01b03831615155b1561282b575f61277985611f72565b90506001600160a01b038416158015906127a55750836001600160a01b0316816001600160a01b031614155b80156127b857506127b681856119a3565b155b156127e15760405163a9fbf51f60e01b81526001600160a01b0385166004820152602401610dd7565b82156128295784866001600160a01b0316826001600160a01b03167f8c5be1e5ebec7d5bd14f71427d1e84f3dd0314c0f7b2291e5b200ac8c7c3b92560405160405180910390a45b505b5f93845260040160205250506040902080546001600160a01b0319166001600160a01b0392909216919091179055565b6002545f906001600160a01b031663fe575a87336040516001600160e01b031960e084901b1681526001600160a01b039091166004820152602401602060405180830381865afa1580156128b1573d5f803e3d5ffd5b505050506040513d601f19601f820116820180604052508101906128d5919061390f565b156128f357604051637874e36360e01b815260040160405180910390fd5b611586848484612b64565b61290782612bcd565b6040516001600160a01b038316907fbc7cd75a20ee27fd9adebab32041f755214dbc6bffa90cc0225b39da2e5c2d3b905f90a280511561294b57610dad8282612c30565b610cac612c99565b7f9016d09d72d40fdae2fd8ceac6b6234c7706214fd39c1cd1e609a0528c19930080546001600160a01b031981166001600160a01b03848116918217845560405192169182907f8be0079c531659141344cd1fd0a4f28419497f9722a3daafe3b4186f6b6457e0905f90a3505050565b5f805f83516041036129fa576020840151604085015160608601515f1a6129ec88828585612cb8565b955095509550505050612a05565b505081515f91506002905b9250925092565b7ff0c57e16840df040f15088dc2f81fe391c3923bec73e23a9662efc9c229c6a0054600160401b900460ff166112dd57604051631afcd79f60e31b815260040160405180910390fd5b612a5d612a0c565b5f80516020613b0383398151915280612a768482613850565b5060018101610e3a8382613850565b6112dd612a0c565b5f8072184f03e93ff9f4daa797ed6e38ed64bf6a1f0160401b8310612acb5772184f03e93ff9f4daa797ed6e38ed64bf6a1f0160401b830492506040015b6d04ee2d6d415b85acef81000000008310612af7576d04ee2d6d415b85acef8100000000830492506020015b662386f26fc100008310612b1557662386f26fc10000830492506010015b6305f5e1008310612b2d576305f5e100830492506008015b6127108310612b4157612710830492506004015b60648310612b53576064830492506002015b600a8310610cd45760010192915050565b5f8060355f612b728661270f565b6001600160a01b03908116825260208083019390935260409182015f90812088825260338552838220805483529085528382209590955590881681526035835281812093548152929091529020839055611586848484612d80565b806001600160a01b03163b5f03612c0257604051634c9c8ce360e01b81526001600160a01b0382166004820152602401610dd7565b5f80516020613b2383398151915280546001600160a01b0319166001600160a01b0392909216919091179055565b60605f80846001600160a01b031684604051612c4c9190613aa0565b5f60405180830381855af49150503d805f8114612c84576040519150601f19603f3d011682016040523d82523d5f602084013e612c89565b606091505b50915091506120b3858383612e76565b34156112dd5760405163b398979f60e01b815260040160405180910390fd5b5f80807f7fffffffffffffffffffffffffffffff5d576e7357a4501ddfe92f46681b20a0841115612cf157505f91506003905082612d76565b604080515f808252602082018084528a905260ff891692820192909252606081018790526080810186905260019060a0016020604051602081039080840390855afa158015612d42573d5f803e3d5ffd5b5050604051601f1901519150506001600160a01b038116612d6d57505f925060019150829050612d76565b92505f91508190505b9450945094915050565b5f80612d8d858585612ed2565b90506001600160a01b038116612e1457612e0f845f80516020613b4383398151915280545f8381527f645e039705490088daad89bae25049a34f4a9072d398537b1ab2425f24cbed0360205260408120829055600182018355919091527fa42f15e5d656f8155fd7419d740a6073999f19cd6e061449ce4a257150545bf20155565b612e37565b846001600160a01b0316816001600160a01b031614612e3757612e378185612fd4565b6001600160a01b038516612e5357612e4e84613073565b611586565b846001600160a01b0316816001600160a01b031614611586576115868585613140565b606082612e8b57612e8682613198565b611589565b8151158015612ea257506001600160a01b0384163b155b15612ecb57604051639996b31560e01b81526001600160a01b0385166004820152602401610dd7565b5080611589565b5f5f80516020613b0383398151915281612eeb8561270f565b90506001600160a01b03841615612f0757612f078185876131c1565b6001600160a01b03811615612f4357612f225f865f80612748565b6001600160a01b0381165f908152600383016020526040902080545f190190555b6001600160a01b03861615612f73576001600160a01b0386165f9081526003830160205260409020805460010190555b5f85815260028301602052604080822080546001600160a01b0319166001600160a01b038a811691821790925591518893918516917fddf252ad1be2c89b69c2b068fc378daa952ba7f163c4a11628f55a4df523b3ef91a495945050505050565b5f80516020613ae38339815191525f612fec84611274565b5f84815260018401602052604090205490915080821461303f576001600160a01b0385165f9081526020848152604080832085845282528083205484845281842081905583526001860190915290208190555b505f92835260018201602090815260408085208590556001600160a01b039095168452918252838320908352905290812055565b5f80516020613b43833981519152545f80516020613ae3833981519152905f9061309f90600190613abb565b5f8481526003840160205260408120546002850180549394509092849081106130ca576130ca6137f8565b905f5260205f2001549050808460020183815481106130eb576130eb6137f8565b5f9182526020808320909101929092558281526003860190915260408082208490558682528120556002840180548061312657613126613ace565b600190038181905f5260205f20015f905590555050505050565b5f80516020613ae38339815191525f600161315a85611274565b6131649190613abb565b6001600160a01b039094165f9081526020838152604080832087845282528083208690559482526001909301909252502055565b8051156131a85780518082602001fd5b604051630a12f52160e11b815260040160405180910390fd5b6131cc838383613225565b610dad576001600160a01b0383166131fa57604051637e27328960e01b815260048101829052602401610dd7565b60405163177e802f60e01b81526001600160a01b038316600482015260248101829052604401610dd7565b5f6001600160a01b038316158015906115865750826001600160a01b0316846001600160a01b0316148061325e575061325e84846119a3565b806115865750826001600160a01b031661327783611fa9565b6001600160a01b031614949350505050565b634e487b7160e01b5f52604160045260245ffd5b5f82601f8301126132ac575f80fd5b81356001600160401b03808211156132c6576132c6613289565b604051601f8301601f19908116603f011681019082821181831017156132ee576132ee613289565b81604052838152866020858801011115613306575f80fd5b836020870160208301375f602085830101528094505050505092915050565b5f8060408385031215613336575f80fd5b82356001600160401b0381111561334b575f80fd5b6133578582860161329d565b95602094909401359450505050565b6001600160e01b031981168114610e71575f80fd5b5f6020828403121561338b575f80fd5b813561158981613366565b5f5b838110156133b0578181015183820152602001613398565b50505f910152565b5f81518084526133cf816020860160208601613396565b601f01601f19169290920160200192915050565b602081525f61158960208301846133b8565b5f60208284031215613405575f80fd5b5035919050565b6001600160a01b0381168114610e71575f80fd5b5f8060408385031215613431575f80fd5b823561343c8161340c565b946020939093013593505050565b5f805f6060848603121561345c575f80fd5b83356001600160401b03811115613471575f80fd5b61347d8682870161329d565b935050602084013561348e8161340c565b929592945050506040919091013590565b5f805f606084860312156134b1575f80fd5b83356134bc8161340c565b9250602084013561348e8161340c565b5f80604083850312156134dd575f80fd5b50508035926020909101359150565b5f602082840312156134fc575f80fd5b81356115898161340c565b5f8060408385031215613518575f80fd5b82356135238161340c565b915060208301356001600160401b0381111561353d575f80fd5b6135498582860161329d565b9150509250929050565b602080825282518282018190525f9190848201906040850190845b8181101561358c57835115158352928401929184019160010161356e565b50909695505050505050565b5f805f606084860312156135aa575f80fd5b505081359360208301359350604090920135919050565b5f602082840312156135d1575f80fd5b81356001600160401b038111156135e6575f80fd5b6135f28482850161329d565b949350505050565b8015158114610e71575f80fd5b5f8060408385031215613618575f80fd5b82356136238161340c565b91506020830135613633816135fa565b809150509250929050565b5f805f8060808587031215613651575f80fd5b843561365c8161340c565b9350602085013561366c8161340c565b92506040850135915060608501356001600160401b0381111561368d575f80fd5b6136998782880161329d565b91505092959194509250565b5f805f80608085870312156136b8575f80fd5b84356136c38161340c565b935060208501356001600160401b038111156136dd575f80fd5b6136e98782880161329d565b93505060408501356136fa8161340c565b9150606085013561370a8161340c565b939692955090935050565b5f805f60608486031215613727575f80fd5b83356137328161340c565b925060208401356137428161340c565b915060408401356137528161340c565b809150509250925092565b602080825282518282018190525f9190848201906040850190845b8181101561358c57835183529284019291840191600101613778565b5f80604083850312156137a5575f80fd5b82356137b08161340c565b915060208301356136338161340c565b600181811c908216806137d457607f821691505b6020821081036137f257634e487b7160e01b5f52602260045260245ffd5b50919050565b634e487b7160e01b5f52603260045260245ffd5b601f821115610dad57805f5260205f20601f840160051c810160208510156138315750805b601f840160051c820191505b81811015612521575f815560010161383d565b81516001600160401b0381111561386957613869613289565b61387d8161387784546137c0565b8461380c565b602080601f8311600181146138b0575f84156138995750858301515b5f19600386901b1c1916600185901b178555613907565b5f85815260208120601f198616915b828110156138de578886015182559484019460019091019084016138bf565b50858210156138fb57878501515f19600388901b60f8161c191681555b505060018460011b0185555b505050505050565b5f6020828403121561391f575f80fd5b8151611589816135fa565b5f815161393b818560208601613396565b9290920192915050565b5f808554613952816137c0565b6001828116801561396a576001811461397f576139ab565b60ff19841687528215158302870194506139ab565b895f526020805f205f5b858110156139a25781548a820152908401908201613989565b50505082870194505b50505050602f60f81b815284516139c9816001840160208901613396565b6139e86139e2600183850101602f60f81b815260010190565b8661392a565b979650505050505050565b634e487b7160e01b5f52601160045260245ffd5b5f60018201613a1857613a186139f3565b5060010190565b80820180821115610cd457610cd46139f3565b5f60208284031215613a42575f80fd5b5051919050565b6001600160a01b03858116825284166020820152604081018390526080606082018190525f90613a7b908301846133b8565b9695505050505050565b5f60208284031215613a95575f80fd5b815161158981613366565b5f8251613ab1818460208701613396565b9190910192915050565b81810381811115610cd457610cd46139f3565b634e487b7160e01b5f52603160045260245ffdfe645e039705490088daad89bae25049a34f4a9072d398537b1ab2425f24cbed0080bb2b638cc20bc4d0a60d66940f3ab4a00c1d7b313497ca82fb0b4ab0079300360894a13ba1a3210667c828492db98dca3e2076cc3735a920a3ca505d382bbc645e039705490088daad89bae25049a34f4a9072d398537b1ab2425f24cbed02a264697066735822122004ef274af86811d237e64703b6cd1a517024ae9563fa5708ce48c9f6864ccd5764736f6c63430008180033","linkReferences":{}},"methodIdentifiers":{"BADGE_ANDROIDS()":"0e0c8b0a","BADGE_BOUNCERS()":"98ef238a","BADGE_DRUMMERS()":"75b9c015","BADGE_MASTERS()":"b378b448","BADGE_MONKS()":"a7fb03ab","BADGE_RAVERS()":"d944061e","BADGE_ROBOTS()":"0f5f04bf","BADGE_SHINTO()":"4808b109","MOVEMENT_BASED()":"9cc28164","MOVEMENT_BOOSTED()":"b4e7409f","MOVEMENT_NEUTRAL()":"d5def7c2","UPGRADE_INTERFACE_VERSION()":"ad3cb1cc","acceptOwnership()":"79ba5097","approve(address,uint256)":"095ea7b3","badgeBalances(address)":"5c6f8ca3","badgeBalancesV2(address)":"f7da8ce3","badges(uint256)":"98e36d8b","balanceOf(address)":"70a08231","baseURI()":"6c0360eb","blacklist()":"a4b5fa56","canMint(bytes,address,uint256)":"b58c439e","getApproved(uint256)":"081812fc","getHash(address,uint256)":"ed05582b","getTokenId(address,uint256)":"29f99b9f","initialize(address,address,address)":"c0c53b8b","initialize(address,string,address,address)":"b8f88d64","isApprovedForAll(address,address)":"e985e9c5","isLocked(uint256)":"f6aacfb1","mint(bytes,address,uint256)":"1fcfe19c","mint(bytes,uint256)":"00257612","mintSigner()":"f17af48d","minted(bytes32)":"8ccc5f80","movementBadges(bytes32,uint256)":"3136964c","movements(address)":"700b1acd","name()":"06fdde03","owner()":"8da5cb5b","ownerOf(uint256)":"6352211e","pendingOwner()":"e30c3978","proxiableUUID()":"52d1902d","recruitmentContract()":"c8860d98","recruitmentContractV2()":"599fdaa2","recruitmentLockDuration()":"32c8f504","renounceOwnership()":"715018a6","resetMigration(uint256,uint256,uint256)":"73e9c1f9","safeTransferFrom(address,address,uint256)":"42842e0e","safeTransferFrom(address,address,uint256,bytes)":"b88d4fde","season2EndTimestamp()":"45d46748","season3EndTimestamp()":"23604864","setApprovalForAll(address,bool)":"a22cb465","setMovement(address,uint256)":"ff2c26ec","setMovement(uint256)":"2f19062f","setRecruitmentContract(address)":"e84be852","setRecruitmentContractV2(address)":"f896d3a0","setRecruitmentLockDuration(uint256)":"bacb6d4e","setSeason2EndTimestamp(uint256)":"e1aff312","setSeason3EndTimestamp(uint256)":"8e228b64","setUri(string)":"9b642de1","startRecruitment(uint256)":"950290c8","startRecruitment(uint256,uint256)":"f23ff9d9","supportsInterface(bytes4)":"01ffc9a7","symbol()":"95d89b41","tokenByIndex(uint256)":"4f6ccce7","tokenOfOwnerByIndex(address,uint256)":"2f745c59","tokenURI(uint256)":"c87b56dd","totalBadgeSupply()":"ca0259c0","totalSupply()":"18160ddd","transferFrom(address,address,uint256)":"23b872dd","transferOwnership(address)":"f2fde38b","unlockTimestamps(uint256)":"9224747d","updateBlacklist(address)":"378b5704","updateMintSigner(address)":"f571049b","upgradeToAndCall(address,bytes)":"4f1ef286","userBadges(address,uint256)":"df91cc23","version()":"54fd4d50"},"id":11}